{
  "_format": "hh-sol-artifact-1",
  "contractName": "UpgradeableBurnableCommunityToken",
  "sourceName": "contracts/tokens/UpgradeableBurnableCommunityToken.sol",
  "abi": [
    {
      "anonymous": false,
      "inputs": [
        {
          "indexed": false,
          "internalType": "address",
          "name": "previousAdmin",
          "type": "address"
        },
        {
          "indexed": false,
          "internalType": "address",
          "name": "newAdmin",
          "type": "address"
        }
      ],
      "name": "AdminChanged",
      "type": "event"
    },
    {
      "anonymous": false,
      "inputs": [
        {
          "indexed": true,
          "internalType": "address",
          "name": "owner",
          "type": "address"
        },
        {
          "indexed": true,
          "internalType": "address",
          "name": "spender",
          "type": "address"
        },
        {
          "indexed": false,
          "internalType": "uint256",
          "name": "value",
          "type": "uint256"
        }
      ],
      "name": "Approval",
      "type": "event"
    },
    {
      "anonymous": false,
      "inputs": [
        {
          "indexed": true,
          "internalType": "address",
          "name": "beacon",
          "type": "address"
        }
      ],
      "name": "BeaconUpgraded",
      "type": "event"
    },
    {
      "anonymous": false,
      "inputs": [
        {
          "indexed": false,
          "internalType": "uint8",
          "name": "version",
          "type": "uint8"
        }
      ],
      "name": "Initialized",
      "type": "event"
    },
    {
      "anonymous": false,
      "inputs": [
        {
          "indexed": true,
          "internalType": "address",
          "name": "previousOwner",
          "type": "address"
        },
        {
          "indexed": true,
          "internalType": "address",
          "name": "newOwner",
          "type": "address"
        }
      ],
      "name": "OwnershipTransferred",
      "type": "event"
    },
    {
      "anonymous": false,
      "inputs": [
        {
          "indexed": false,
          "internalType": "address",
          "name": "account",
          "type": "address"
        }
      ],
      "name": "Paused",
      "type": "event"
    },
    {
      "anonymous": false,
      "inputs": [
        {
          "indexed": true,
          "internalType": "bytes32",
          "name": "role",
          "type": "bytes32"
        },
        {
          "indexed": true,
          "internalType": "bytes32",
          "name": "previousAdminRole",
          "type": "bytes32"
        },
        {
          "indexed": true,
          "internalType": "bytes32",
          "name": "newAdminRole",
          "type": "bytes32"
        }
      ],
      "name": "RoleAdminChanged",
      "type": "event"
    },
    {
      "anonymous": false,
      "inputs": [
        {
          "indexed": true,
          "internalType": "bytes32",
          "name": "role",
          "type": "bytes32"
        },
        {
          "indexed": true,
          "internalType": "address",
          "name": "account",
          "type": "address"
        },
        {
          "indexed": true,
          "internalType": "address",
          "name": "sender",
          "type": "address"
        }
      ],
      "name": "RoleGranted",
      "type": "event"
    },
    {
      "anonymous": false,
      "inputs": [
        {
          "indexed": true,
          "internalType": "bytes32",
          "name": "role",
          "type": "bytes32"
        },
        {
          "indexed": true,
          "internalType": "address",
          "name": "account",
          "type": "address"
        },
        {
          "indexed": true,
          "internalType": "address",
          "name": "sender",
          "type": "address"
        }
      ],
      "name": "RoleRevoked",
      "type": "event"
    },
    {
      "anonymous": false,
      "inputs": [
        {
          "indexed": true,
          "internalType": "address",
          "name": "from",
          "type": "address"
        },
        {
          "indexed": true,
          "internalType": "address",
          "name": "to",
          "type": "address"
        },
        {
          "indexed": false,
          "internalType": "uint256",
          "name": "value",
          "type": "uint256"
        }
      ],
      "name": "Transfer",
      "type": "event"
    },
    {
      "anonymous": false,
      "inputs": [
        {
          "indexed": false,
          "internalType": "address",
          "name": "account",
          "type": "address"
        }
      ],
      "name": "Unpaused",
      "type": "event"
    },
    {
      "anonymous": false,
      "inputs": [
        {
          "indexed": true,
          "internalType": "address",
          "name": "implementation",
          "type": "address"
        }
      ],
      "name": "Upgraded",
      "type": "event"
    },
    {
      "inputs": [],
      "name": "DEFAULT_ADMIN_ROLE",
      "outputs": [
        {
          "internalType": "bytes32",
          "name": "",
          "type": "bytes32"
        }
      ],
      "stateMutability": "view",
      "type": "function"
    },
    {
      "inputs": [],
      "name": "MINTER_ROLE",
      "outputs": [
        {
          "internalType": "bytes32",
          "name": "",
          "type": "bytes32"
        }
      ],
      "stateMutability": "view",
      "type": "function"
    },
    {
      "inputs": [],
      "name": "PAUSER_ROLE",
      "outputs": [
        {
          "internalType": "bytes32",
          "name": "",
          "type": "bytes32"
        }
      ],
      "stateMutability": "view",
      "type": "function"
    },
    {
      "inputs": [
        {
          "internalType": "address",
          "name": "owner",
          "type": "address"
        },
        {
          "internalType": "address",
          "name": "spender",
          "type": "address"
        }
      ],
      "name": "allowance",
      "outputs": [
        {
          "internalType": "uint256",
          "name": "",
          "type": "uint256"
        }
      ],
      "stateMutability": "view",
      "type": "function"
    },
    {
      "inputs": [
        {
          "internalType": "address",
          "name": "spender",
          "type": "address"
        },
        {
          "internalType": "uint256",
          "name": "amount",
          "type": "uint256"
        }
      ],
      "name": "approve",
      "outputs": [
        {
          "internalType": "bool",
          "name": "",
          "type": "bool"
        }
      ],
      "stateMutability": "nonpayable",
      "type": "function"
    },
    {
      "inputs": [
        {
          "internalType": "address",
          "name": "account",
          "type": "address"
        }
      ],
      "name": "balanceOf",
      "outputs": [
        {
          "internalType": "uint256",
          "name": "",
          "type": "uint256"
        }
      ],
      "stateMutability": "view",
      "type": "function"
    },
    {
      "inputs": [
        {
          "internalType": "uint256",
          "name": "amount",
          "type": "uint256"
        }
      ],
      "name": "burn",
      "outputs": [],
      "stateMutability": "nonpayable",
      "type": "function"
    },
    {
      "inputs": [
        {
          "internalType": "address",
          "name": "account",
          "type": "address"
        },
        {
          "internalType": "uint256",
          "name": "amount",
          "type": "uint256"
        }
      ],
      "name": "burnFrom",
      "outputs": [],
      "stateMutability": "nonpayable",
      "type": "function"
    },
    {
      "inputs": [],
      "name": "decimals",
      "outputs": [
        {
          "internalType": "uint8",
          "name": "",
          "type": "uint8"
        }
      ],
      "stateMutability": "view",
      "type": "function"
    },
    {
      "inputs": [
        {
          "internalType": "address",
          "name": "spender",
          "type": "address"
        },
        {
          "internalType": "uint256",
          "name": "subtractedValue",
          "type": "uint256"
        }
      ],
      "name": "decreaseAllowance",
      "outputs": [
        {
          "internalType": "bool",
          "name": "",
          "type": "bool"
        }
      ],
      "stateMutability": "nonpayable",
      "type": "function"
    },
    {
      "inputs": [
        {
          "internalType": "bytes32",
          "name": "role",
          "type": "bytes32"
        }
      ],
      "name": "getRoleAdmin",
      "outputs": [
        {
          "internalType": "bytes32",
          "name": "",
          "type": "bytes32"
        }
      ],
      "stateMutability": "view",
      "type": "function"
    },
    {
      "inputs": [
        {
          "internalType": "bytes32",
          "name": "role",
          "type": "bytes32"
        },
        {
          "internalType": "address",
          "name": "account",
          "type": "address"
        }
      ],
      "name": "grantRole",
      "outputs": [],
      "stateMutability": "nonpayable",
      "type": "function"
    },
    {
      "inputs": [
        {
          "internalType": "bytes32",
          "name": "role",
          "type": "bytes32"
        },
        {
          "internalType": "address",
          "name": "account",
          "type": "address"
        }
      ],
      "name": "hasRole",
      "outputs": [
        {
          "internalType": "bool",
          "name": "",
          "type": "bool"
        }
      ],
      "stateMutability": "view",
      "type": "function"
    },
    {
      "inputs": [
        {
          "internalType": "address",
          "name": "spender",
          "type": "address"
        },
        {
          "internalType": "uint256",
          "name": "addedValue",
          "type": "uint256"
        }
      ],
      "name": "increaseAllowance",
      "outputs": [
        {
          "internalType": "bool",
          "name": "",
          "type": "bool"
        }
      ],
      "stateMutability": "nonpayable",
      "type": "function"
    },
    {
      "inputs": [
        {
          "internalType": "address[]",
          "name": "minters",
          "type": "address[]"
        },
        {
          "internalType": "string",
          "name": "name",
          "type": "string"
        },
        {
          "internalType": "string",
          "name": "symbol",
          "type": "string"
        }
      ],
      "name": "initialize",
      "outputs": [],
      "stateMutability": "nonpayable",
      "type": "function"
    },
    {
      "inputs": [
        {
          "internalType": "address",
          "name": "to",
          "type": "address"
        },
        {
          "internalType": "uint256",
          "name": "amount",
          "type": "uint256"
        }
      ],
      "name": "mint",
      "outputs": [],
      "stateMutability": "nonpayable",
      "type": "function"
    },
    {
      "inputs": [],
      "name": "name",
      "outputs": [
        {
          "internalType": "string",
          "name": "",
          "type": "string"
        }
      ],
      "stateMutability": "view",
      "type": "function"
    },
    {
      "inputs": [],
      "name": "owner",
      "outputs": [
        {
          "internalType": "address",
          "name": "",
          "type": "address"
        }
      ],
      "stateMutability": "view",
      "type": "function"
    },
    {
      "inputs": [],
      "name": "pause",
      "outputs": [],
      "stateMutability": "nonpayable",
      "type": "function"
    },
    {
      "inputs": [],
      "name": "paused",
      "outputs": [
        {
          "internalType": "bool",
          "name": "",
          "type": "bool"
        }
      ],
      "stateMutability": "view",
      "type": "function"
    },
    {
      "inputs": [],
      "name": "proxiableUUID",
      "outputs": [
        {
          "internalType": "bytes32",
          "name": "",
          "type": "bytes32"
        }
      ],
      "stateMutability": "view",
      "type": "function"
    },
    {
      "inputs": [],
      "name": "renounceOwnership",
      "outputs": [],
      "stateMutability": "nonpayable",
      "type": "function"
    },
    {
      "inputs": [
        {
          "internalType": "bytes32",
          "name": "role",
          "type": "bytes32"
        },
        {
          "internalType": "address",
          "name": "account",
          "type": "address"
        }
      ],
      "name": "renounceRole",
      "outputs": [],
      "stateMutability": "nonpayable",
      "type": "function"
    },
    {
      "inputs": [
        {
          "internalType": "bytes32",
          "name": "role",
          "type": "bytes32"
        },
        {
          "internalType": "address",
          "name": "account",
          "type": "address"
        }
      ],
      "name": "revokeRole",
      "outputs": [],
      "stateMutability": "nonpayable",
      "type": "function"
    },
    {
      "inputs": [
        {
          "internalType": "bytes4",
          "name": "interfaceId",
          "type": "bytes4"
        }
      ],
      "name": "supportsInterface",
      "outputs": [
        {
          "internalType": "bool",
          "name": "",
          "type": "bool"
        }
      ],
      "stateMutability": "view",
      "type": "function"
    },
    {
      "inputs": [],
      "name": "symbol",
      "outputs": [
        {
          "internalType": "string",
          "name": "",
          "type": "string"
        }
      ],
      "stateMutability": "view",
      "type": "function"
    },
    {
      "inputs": [],
      "name": "totalSupply",
      "outputs": [
        {
          "internalType": "uint256",
          "name": "",
          "type": "uint256"
        }
      ],
      "stateMutability": "view",
      "type": "function"
    },
    {
      "inputs": [
        {
          "internalType": "address",
          "name": "to",
          "type": "address"
        },
        {
          "internalType": "uint256",
          "name": "amount",
          "type": "uint256"
        }
      ],
      "name": "transfer",
      "outputs": [
        {
          "internalType": "bool",
          "name": "",
          "type": "bool"
        }
      ],
      "stateMutability": "nonpayable",
      "type": "function"
    },
    {
      "inputs": [
        {
          "internalType": "address",
          "name": "from",
          "type": "address"
        },
        {
          "internalType": "address",
          "name": "to",
          "type": "address"
        },
        {
          "internalType": "uint256",
          "name": "amount",
          "type": "uint256"
        }
      ],
      "name": "transferFrom",
      "outputs": [
        {
          "internalType": "bool",
          "name": "",
          "type": "bool"
        }
      ],
      "stateMutability": "nonpayable",
      "type": "function"
    },
    {
      "inputs": [
        {
          "internalType": "address",
          "name": "newOwner",
          "type": "address"
        }
      ],
      "name": "transferOwnership",
      "outputs": [],
      "stateMutability": "nonpayable",
      "type": "function"
    },
    {
      "inputs": [],
      "name": "unpause",
      "outputs": [],
      "stateMutability": "nonpayable",
      "type": "function"
    },
    {
      "inputs": [
        {
          "internalType": "address",
          "name": "newImplementation",
          "type": "address"
        }
      ],
      "name": "upgradeTo",
      "outputs": [],
      "stateMutability": "nonpayable",
      "type": "function"
    },
    {
      "inputs": [
        {
          "internalType": "address",
          "name": "newImplementation",
          "type": "address"
        },
        {
          "internalType": "bytes",
          "name": "data",
          "type": "bytes"
        }
      ],
      "name": "upgradeToAndCall",
      "outputs": [],
      "stateMutability": "payable",
      "type": "function"
    }
  ],
  "bytecode": "0x60a06040523060805234801561001457600080fd5b5060805161253461004c600039600081816107bf015281816107ff01528181610958015281816109980152610a2701526125346000f3fe6080604052600436106101ee5760003560e01c80635c975abb1161010d578063978d55b9116100a0578063d53913931161006f578063d53913931461055f578063d547741f14610581578063dd62ed3e146105a1578063e63ab1e9146105c1578063f2fde38b146105e357600080fd5b8063978d55b9146104ea578063a217fddf1461050a578063a457c2d71461051f578063a9059cbb1461053f57600080fd5b80638456cb59116100dc5780638456cb59146104785780638da5cb5b1461048d57806391d14854146104b557806395d89b41146104d557600080fd5b80635c975abb146103f457806370a082311461040d578063715018a61461044357806379cc67901461045857600080fd5b806336568abe1161018557806340c10f191161015457806340c10f191461038c57806342966c68146103ac5780634f1ef286146103cc57806352d1902d146103df57600080fd5b806336568abe146103175780633659cfe61461033757806339509351146103575780633f4ba83a1461037757600080fd5b806323b872dd116101c157806323b872dd14610289578063248a9ca3146102a95780632f2ff15d146102d9578063313ce567146102fb57600080fd5b806301ffc9a7146101f357806306fdde0314610228578063095ea7b31461024a57806318160ddd1461026a575b600080fd5b3480156101ff57600080fd5b5061021361020e366004611d7b565b610603565b60405190151581526020015b60405180910390f35b34801561023457600080fd5b5061023d61063a565b60405161021f9190611dc9565b34801561025657600080fd5b50610213610265366004611e18565b6106cc565b34801561027657600080fd5b506035545b60405190815260200161021f565b34801561029557600080fd5b506102136102a4366004611e42565b6106e4565b3480156102b557600080fd5b5061027b6102c4366004611e7e565b600090815260fb602052604090206001015490565b3480156102e557600080fd5b506102f96102f4366004611e97565b610708565b005b34801561030757600080fd5b506040516006815260200161021f565b34801561032357600080fd5b506102f9610332366004611e97565b610732565b34801561034357600080fd5b506102f9610352366004611ec3565b6107b5565b34801561036357600080fd5b50610213610372366004611e18565b610894565b34801561038357600080fd5b506102f96108b6565b34801561039857600080fd5b506102f96103a7366004611e18565b6108d6565b3480156103b857600080fd5b506102f96103c7366004611e7e565b610944565b6102f96103da366004611f7d565b61094e565b3480156103eb57600080fd5b5061027b610a1a565b34801561040057600080fd5b5061012d5460ff16610213565b34801561041957600080fd5b5061027b610428366004611ec3565b6001600160a01b031660009081526033602052604090205490565b34801561044f57600080fd5b506102f9610acd565b34801561046457600080fd5b506102f9610473366004611e18565b610ae1565b34801561048457600080fd5b506102f9610b03565b34801561049957600080fd5b506097546040516001600160a01b03909116815260200161021f565b3480156104c157600080fd5b506102136104d0366004611e97565b610b23565b3480156104e157600080fd5b5061023d610b4e565b3480156104f657600080fd5b506102f9610505366004611fff565b610b5d565b34801561051657600080fd5b5061027b600081565b34801561052b57600080fd5b5061021361053a366004611e18565b610d06565b34801561054b57600080fd5b5061021361055a366004611e18565b610d81565b34801561056b57600080fd5b5061027b6000805160206124df83398151915281565b34801561058d57600080fd5b506102f961059c366004611e97565b610d8f565b3480156105ad57600080fd5b5061027b6105bc3660046120f2565b610db4565b3480156105cd57600080fd5b5061027b60008051602061249883398151915281565b3480156105ef57600080fd5b506102f96105fe366004611ec3565b610ddf565b60006001600160e01b03198216637965db0b60e01b148061063457506301ffc9a760e01b6001600160e01b03198316145b92915050565b6060603680546106499061211c565b80601f01602080910402602001604051908101604052809291908181526020018280546106759061211c565b80156106c25780601f10610697576101008083540402835291602001916106c2565b820191906000526020600020905b8154815290600101906020018083116106a557829003601f168201915b5050505050905090565b6000336106da818585610e55565b5060019392505050565b6000336106f2858285610f79565b6106fd858585610fed565b506001949350505050565b600082815260fb602052604090206001015461072381611198565b61072d83836111a2565b505050565b6001600160a01b03811633146107a75760405162461bcd60e51b815260206004820152602f60248201527f416363657373436f6e74726f6c3a2063616e206f6e6c792072656e6f756e636560448201526e103937b632b9903337b91039b2b63360891b60648201526084015b60405180910390fd5b6107b18282611228565b5050565b6001600160a01b037f00000000000000000000000000000000000000000000000000000000000000001630036107fd5760405162461bcd60e51b815260040161079e90612156565b7f00000000000000000000000000000000000000000000000000000000000000006001600160a01b0316610846600080516020612478833981519152546001600160a01b031690565b6001600160a01b03161461086c5760405162461bcd60e51b815260040161079e906121a2565b6108758161128f565b6040805160008082526020820190925261089191839190611297565b50565b6000336106da8185856108a78383610db4565b6108b19190612204565b610e55565b6000805160206124988339815191526108ce81611198565b610891611402565b6108ee6000805160206124df83398151915233610b23565b61093a5760405162461bcd60e51b815260206004820152601d60248201527f4d7573742068617665206d696e74657220726f6c6520746f206d696e74000000604482015260640161079e565b6107b18282611455565b6108913382611516565b6001600160a01b037f00000000000000000000000000000000000000000000000000000000000000001630036109965760405162461bcd60e51b815260040161079e90612156565b7f00000000000000000000000000000000000000000000000000000000000000006001600160a01b03166109df600080516020612478833981519152546001600160a01b031690565b6001600160a01b031614610a055760405162461bcd60e51b815260040161079e906121a2565b610a0e8261128f565b6107b182826001611297565b6000306001600160a01b037f00000000000000000000000000000000000000000000000000000000000000001614610aba5760405162461bcd60e51b815260206004820152603860248201527f555550535570677261646561626c653a206d757374206e6f742062652063616c60448201527f6c6564207468726f7567682064656c656761746563616c6c0000000000000000606482015260840161079e565b5060008051602061247883398151915290565b610ad561164a565b610adf60006116a4565b565b6000805160206124df833981519152610af981611198565b61072d8383611516565b600080516020612498833981519152610b1b81611198565b6108916116f6565b600091825260fb602090815260408084206001600160a01b0393909316845291905290205460ff1690565b6060603780546106499061211c565b600054610100900460ff1615808015610b7d5750600054600160ff909116105b80610b975750303b158015610b97575060005460ff166001145b610bfa5760405162461bcd60e51b815260206004820152602e60248201527f496e697469616c697a61626c653a20636f6e747261637420697320616c72656160448201526d191e481a5b9a5d1a585b1a5e995960921b606482015260840161079e565b6000805460ff191660011790558015610c1d576000805461ff0019166101001790555b610c278383611734565b610c2f611765565b610c3761178c565b610c3f611765565b610c476117bb565b610c5f600080516020612498833981519152336117ea565b610c6a6000336117ea565b60005b8451811015610cb957610ca76000805160206124df833981519152868381518110610c9a57610c9a612217565b60200260200101516117ea565b80610cb18161222d565b915050610c6d565b508015610d00576000805461ff0019169055604051600181527f7f26b83ff96e1f2b6a682f133852f6798a09c465da95921460cefb38474024989060200160405180910390a15b50505050565b60003381610d148286610db4565b905083811015610d745760405162461bcd60e51b815260206004820152602560248201527f45524332303a2064656372656173656420616c6c6f77616e63652062656c6f77604482015264207a65726f60d81b606482015260840161079e565b6106fd8286868403610e55565b6000336106da818585610fed565b600082815260fb6020526040902060010154610daa81611198565b61072d8383611228565b6001600160a01b03918216600090815260346020908152604080832093909416825291909152205490565b610de761164a565b6001600160a01b038116610e4c5760405162461bcd60e51b815260206004820152602660248201527f4f776e61626c653a206e6577206f776e657220697320746865207a65726f206160448201526564647265737360d01b606482015260840161079e565b610891816116a4565b6001600160a01b038316610eb75760405162461bcd60e51b8152602060048201526024808201527f45524332303a20617070726f76652066726f6d20746865207a65726f206164646044820152637265737360e01b606482015260840161079e565b6001600160a01b038216610f185760405162461bcd60e51b815260206004820152602260248201527f45524332303a20617070726f766520746f20746865207a65726f206164647265604482015261737360f01b606482015260840161079e565b6001600160a01b0383811660008181526034602090815260408083209487168084529482529182902085905590518481527f8c5be1e5ebec7d5bd14f71427d1e84f3dd0314c0f7b2291e5b200ac8c7c3b925910160405180910390a3505050565b6000610f858484610db4565b90506000198114610d005781811015610fe05760405162461bcd60e51b815260206004820152601d60248201527f45524332303a20696e73756666696369656e7420616c6c6f77616e6365000000604482015260640161079e565b610d008484848403610e55565b6001600160a01b0383166110515760405162461bcd60e51b815260206004820152602560248201527f45524332303a207472616e736665722066726f6d20746865207a65726f206164604482015264647265737360d81b606482015260840161079e565b6001600160a01b0382166110b35760405162461bcd60e51b815260206004820152602360248201527f45524332303a207472616e7366657220746f20746865207a65726f206164647260448201526265737360e81b606482015260840161079e565b6001600160a01b0383166000908152603360205260409020548181101561112b5760405162461bcd60e51b815260206004820152602660248201527f45524332303a207472616e7366657220616d6f756e7420657863656564732062604482015265616c616e636560d01b606482015260840161079e565b6001600160a01b0380851660008181526033602052604080822086860390559286168082529083902080548601905591517fddf252ad1be2c89b69c2b068fc378daa952ba7f163c4a11628f55a4df523b3ef9061118b9086815260200190565b60405180910390a3610d00565b61089181336117f4565b6111ac8282610b23565b6107b157600082815260fb602090815260408083206001600160a01b03851684529091529020805460ff191660011790556111e43390565b6001600160a01b0316816001600160a01b0316837f2f8788117e7eff1d82e926ec794901d17c78024a50270940304540a733656f0d60405160405180910390a45050565b6112328282610b23565b156107b157600082815260fb602090815260408083206001600160a01b0385168085529252808320805460ff1916905551339285917ff6391f5c32d9c69d2a47ea670b442974b53935d1edc7fd64eb21e047a839171b9190a45050565b61089161164a565b7f4910fdfa16fed3260ed0e7147f7cc6da11a60208b5b9406d12a635614ffd91435460ff16156112ca5761072d8361184d565b826001600160a01b03166352d1902d6040518163ffffffff1660e01b8152600401602060405180830381865afa925050508015611324575060408051601f3d908101601f1916820190925261132191810190612246565b60015b6113875760405162461bcd60e51b815260206004820152602e60248201527f45524331393637557067726164653a206e657720696d706c656d656e7461746960448201526d6f6e206973206e6f74205555505360901b606482015260840161079e565b60008051602061247883398151915281146113f65760405162461bcd60e51b815260206004820152602960248201527f45524331393637557067726164653a20756e737570706f727465642070726f786044820152681a58589b195555525160ba1b606482015260840161079e565b5061072d8383836118e9565b61140a61190e565b61012d805460ff191690557f5db9ee0a495bf2e6ff9c91a7834c1ba4fdd244a5e8aa4e537bd38aeae4b073aa335b6040516001600160a01b03909116815260200160405180910390a1565b6001600160a01b0382166114ab5760405162461bcd60e51b815260206004820152601f60248201527f45524332303a206d696e7420746f20746865207a65726f206164647265737300604482015260640161079e565b80603560008282546114bd9190612204565b90915550506001600160a01b0382166000818152603360209081526040808320805486019055518481527fddf252ad1be2c89b69c2b068fc378daa952ba7f163c4a11628f55a4df523b3ef910160405180910390a35050565b6001600160a01b0382166115765760405162461bcd60e51b815260206004820152602160248201527f45524332303a206275726e2066726f6d20746865207a65726f206164647265736044820152607360f81b606482015260840161079e565b6001600160a01b038216600090815260336020526040902054818110156115ea5760405162461bcd60e51b815260206004820152602260248201527f45524332303a206275726e20616d6f756e7420657863656564732062616c616e604482015261636560f01b606482015260840161079e565b6001600160a01b03831660008181526033602090815260408083208686039055603580548790039055518581529192917fddf252ad1be2c89b69c2b068fc378daa952ba7f163c4a11628f55a4df523b3ef910160405180910390a3505050565b6097546001600160a01b03163314610adf5760405162461bcd60e51b815260206004820181905260248201527f4f776e61626c653a2063616c6c6572206973206e6f7420746865206f776e6572604482015260640161079e565b609780546001600160a01b038381166001600160a01b0319831681179093556040519116919082907f8be0079c531659141344cd1fd0a4f28419497f9722a3daafe3b4186f6b6457e090600090a35050565b6116fe611958565b61012d805460ff191660011790557f62e78cea01bee320cd4e420270b5ea74000d11b0c9f74754ebdbfc544b05a2586114383390565b600054610100900460ff1661175b5760405162461bcd60e51b815260040161079e9061225f565b6107b1828261199f565b600054610100900460ff16610adf5760405162461bcd60e51b815260040161079e9061225f565b600054610100900460ff166117b35760405162461bcd60e51b815260040161079e9061225f565b610adf6119df565b600054610100900460ff166117e25760405162461bcd60e51b815260040161079e9061225f565b610adf611a0f565b6107b182826111a2565b6117fe8282610b23565b6107b15761180b81611a43565b611816836020611a55565b6040516020016118279291906122aa565b60408051601f198184030181529082905262461bcd60e51b825261079e91600401611dc9565b6001600160a01b0381163b6118ba5760405162461bcd60e51b815260206004820152602d60248201527f455243313936373a206e657720696d706c656d656e746174696f6e206973206e60448201526c1bdd08184818dbdb9d1c9858dd609a1b606482015260840161079e565b60008051602061247883398151915280546001600160a01b0319166001600160a01b0392909216919091179055565b6118f283611bf8565b6000825111806118ff5750805b1561072d57610d008383611c38565b61012d5460ff16610adf5760405162461bcd60e51b815260206004820152601460248201527314185d5cd8589b194e881b9bdd081c185d5cd95960621b604482015260640161079e565b61012d5460ff1615610adf5760405162461bcd60e51b815260206004820152601060248201526f14185d5cd8589b194e881c185d5cd95960821b604482015260640161079e565b600054610100900460ff166119c65760405162461bcd60e51b815260040161079e9061225f565b60366119d2838261236d565b50603761072d828261236d565b600054610100900460ff16611a065760405162461bcd60e51b815260040161079e9061225f565b610adf336116a4565b600054610100900460ff16611a365760405162461bcd60e51b815260040161079e9061225f565b61012d805460ff19169055565b60606106346001600160a01b03831660145b60606000611a6483600261242d565b611a6f906002612204565b67ffffffffffffffff811115611a8757611a87611ede565b6040519080825280601f01601f191660200182016040528015611ab1576020820181803683370190505b509050600360fc1b81600081518110611acc57611acc612217565b60200101906001600160f81b031916908160001a905350600f60fb1b81600181518110611afb57611afb612217565b60200101906001600160f81b031916908160001a9053506000611b1f84600261242d565b611b2a906001612204565b90505b6001811115611ba2576f181899199a1a9b1b9c1cb0b131b232b360811b85600f1660108110611b5e57611b5e612217565b1a60f81b828281518110611b7457611b74612217565b60200101906001600160f81b031916908160001a90535060049490941c93611b9b81612444565b9050611b2d565b508315611bf15760405162461bcd60e51b815260206004820181905260248201527f537472696e67733a20686578206c656e67746820696e73756666696369656e74604482015260640161079e565b9392505050565b611c018161184d565b6040516001600160a01b038216907fbc7cd75a20ee27fd9adebab32041f755214dbc6bffa90cc0225b39da2e5c2d3b90600090a250565b6060611bf183836040518060600160405280602781526020016124b8602791396060600080856001600160a01b031685604051611c75919061245b565b600060405180830381855af49150503d8060008114611cb0576040519150601f19603f3d011682016040523d82523d6000602084013e611cb5565b606091505b5091509150611cc686838387611cd0565b9695505050505050565b60608315611d3f578251600003611d38576001600160a01b0385163b611d385760405162461bcd60e51b815260206004820152601d60248201527f416464726573733a2063616c6c20746f206e6f6e2d636f6e7472616374000000604482015260640161079e565b5081611d49565b611d498383611d51565b949350505050565b815115611d615781518083602001fd5b8060405162461bcd60e51b815260040161079e9190611dc9565b600060208284031215611d8d57600080fd5b81356001600160e01b031981168114611bf157600080fd5b60005b83811015611dc0578181015183820152602001611da8565b50506000910152565b6020815260008251806020840152611de8816040850160208701611da5565b601f01601f19169190910160400192915050565b80356001600160a01b0381168114611e1357600080fd5b919050565b60008060408385031215611e2b57600080fd5b611e3483611dfc565b946020939093013593505050565b600080600060608486031215611e5757600080fd5b611e6084611dfc565b9250611e6e60208501611dfc565b9150604084013590509250925092565b600060208284031215611e9057600080fd5b5035919050565b60008060408385031215611eaa57600080fd5b82359150611eba60208401611dfc565b90509250929050565b600060208284031215611ed557600080fd5b611bf182611dfc565b634e487b7160e01b600052604160045260246000fd5b604051601f8201601f1916810167ffffffffffffffff81118282101715611f1d57611f1d611ede565b604052919050565b600067ffffffffffffffff831115611f3f57611f3f611ede565b611f52601f8401601f1916602001611ef4565b9050828152838383011115611f6657600080fd5b828260208301376000602084830101529392505050565b60008060408385031215611f9057600080fd5b611f9983611dfc565b9150602083013567ffffffffffffffff811115611fb557600080fd5b8301601f81018513611fc657600080fd5b611fd585823560208401611f25565b9150509250929050565b600082601f830112611ff057600080fd5b611bf183833560208501611f25565b60008060006060848603121561201457600080fd5b833567ffffffffffffffff8082111561202c57600080fd5b818601915086601f83011261204057600080fd5b813560208282111561205457612054611ede565b8160051b612063828201611ef4565b928352848101820192828101908b85111561207d57600080fd5b958301955b848710156120a25761209387611dfc565b82529583019590830190612082565b98505050870135925050808211156120b957600080fd5b6120c587838801611fdf565b935060408601359150808211156120db57600080fd5b506120e886828701611fdf565b9150509250925092565b6000806040838503121561210557600080fd5b61210e83611dfc565b9150611eba60208401611dfc565b600181811c9082168061213057607f821691505b60208210810361215057634e487b7160e01b600052602260045260246000fd5b50919050565b6020808252602c908201527f46756e6374696f6e206d7573742062652063616c6c6564207468726f7567682060408201526b19195b1959d85d1958d85b1b60a21b606082015260800190565b6020808252602c908201527f46756e6374696f6e206d7573742062652063616c6c6564207468726f7567682060408201526b6163746976652070726f787960a01b606082015260800190565b634e487b7160e01b600052601160045260246000fd5b80820180821115610634576106346121ee565b634e487b7160e01b600052603260045260246000fd5b60006001820161223f5761223f6121ee565b5060010190565b60006020828403121561225857600080fd5b5051919050565b6020808252602b908201527f496e697469616c697a61626c653a20636f6e7472616374206973206e6f74206960408201526a6e697469616c697a696e6760a81b606082015260800190565b7f416363657373436f6e74726f6c3a206163636f756e74200000000000000000008152600083516122e2816017850160208801611da5565b7001034b99036b4b9b9b4b733903937b6329607d1b6017918401918201528351612313816028840160208801611da5565b01602801949350505050565b601f82111561072d57600081815260208120601f850160051c810160208610156123465750805b601f850160051c820191505b8181101561236557828155600101612352565b505050505050565b815167ffffffffffffffff81111561238757612387611ede565b61239b81612395845461211c565b8461231f565b602080601f8311600181146123d057600084156123b85750858301515b600019600386901b1c1916600185901b178555612365565b600085815260208120601f198616915b828110156123ff578886015182559484019460019091019084016123e0565b508582101561241d5787850151600019600388901b60f8161c191681555b5050505050600190811b01905550565b8082028115828204841417610634576106346121ee565b600081612453576124536121ee565b506000190190565b6000825161246d818460208701611da5565b919091019291505056fe360894a13ba1a3210667c828492db98dca3e2076cc3735a920a3ca505d382bbc65d7a28e3265b37a6474929f336521b332c1681b933f6cb9f3376673440d862a416464726573733a206c6f772d6c6576656c2064656c65676174652063616c6c206661696c65649f2df0fed2c77648de5860a4cc508cd0818c85b8b8a1ab4ceeef8d981c8956a6a2646970667358221220ef68dc6feda7583d074c214f3484f2b2d27784787f555d92f860d0d221921e7f64736f6c63430008140033",
  "linkReferences": {},
  "deployedLinkReferences": {}
}