{
  "_format": "hh-sol-artifact-1",
  "contractName": "UpgradeableBurnableCommunityToken",
  "sourceName": "contracts/tokens/UpgradeableBurnableCommunityToken.sol",
  "abi": [
    {
      "anonymous": false,
      "inputs": [
        {
          "indexed": false,
          "internalType": "address",
          "name": "previousAdmin",
          "type": "address"
        },
        {
          "indexed": false,
          "internalType": "address",
          "name": "newAdmin",
          "type": "address"
        }
      ],
      "name": "AdminChanged",
      "type": "event"
    },
    {
      "anonymous": false,
      "inputs": [
        {
          "indexed": true,
          "internalType": "address",
          "name": "owner",
          "type": "address"
        },
        {
          "indexed": true,
          "internalType": "address",
          "name": "spender",
          "type": "address"
        },
        {
          "indexed": false,
          "internalType": "uint256",
          "name": "value",
          "type": "uint256"
        }
      ],
      "name": "Approval",
      "type": "event"
    },
    {
      "anonymous": false,
      "inputs": [
        {
          "indexed": true,
          "internalType": "address",
          "name": "beacon",
          "type": "address"
        }
      ],
      "name": "BeaconUpgraded",
      "type": "event"
    },
    {
      "anonymous": false,
      "inputs": [
        {
          "indexed": false,
          "internalType": "uint8",
          "name": "version",
          "type": "uint8"
        }
      ],
      "name": "Initialized",
      "type": "event"
    },
    {
      "anonymous": false,
      "inputs": [
        {
          "indexed": true,
          "internalType": "address",
          "name": "to",
          "type": "address"
        },
        {
          "indexed": false,
          "internalType": "uint256",
          "name": "amount",
          "type": "uint256"
        }
      ],
      "name": "Minted",
      "type": "event"
    },
    {
      "anonymous": false,
      "inputs": [
        {
          "indexed": true,
          "internalType": "address",
          "name": "previousOwner",
          "type": "address"
        },
        {
          "indexed": true,
          "internalType": "address",
          "name": "newOwner",
          "type": "address"
        }
      ],
      "name": "OwnershipTransferred",
      "type": "event"
    },
    {
      "anonymous": false,
      "inputs": [
        {
          "indexed": false,
          "internalType": "address",
          "name": "account",
          "type": "address"
        }
      ],
      "name": "Paused",
      "type": "event"
    },
    {
      "anonymous": false,
      "inputs": [
        {
          "indexed": true,
          "internalType": "bytes32",
          "name": "role",
          "type": "bytes32"
        },
        {
          "indexed": true,
          "internalType": "bytes32",
          "name": "previousAdminRole",
          "type": "bytes32"
        },
        {
          "indexed": true,
          "internalType": "bytes32",
          "name": "newAdminRole",
          "type": "bytes32"
        }
      ],
      "name": "RoleAdminChanged",
      "type": "event"
    },
    {
      "anonymous": false,
      "inputs": [
        {
          "indexed": true,
          "internalType": "bytes32",
          "name": "role",
          "type": "bytes32"
        },
        {
          "indexed": true,
          "internalType": "address",
          "name": "account",
          "type": "address"
        },
        {
          "indexed": true,
          "internalType": "address",
          "name": "sender",
          "type": "address"
        }
      ],
      "name": "RoleGranted",
      "type": "event"
    },
    {
      "anonymous": false,
      "inputs": [
        {
          "indexed": true,
          "internalType": "bytes32",
          "name": "role",
          "type": "bytes32"
        },
        {
          "indexed": true,
          "internalType": "address",
          "name": "account",
          "type": "address"
        },
        {
          "indexed": true,
          "internalType": "address",
          "name": "sender",
          "type": "address"
        }
      ],
      "name": "RoleRevoked",
      "type": "event"
    },
    {
      "anonymous": false,
      "inputs": [
        {
          "indexed": true,
          "internalType": "address",
          "name": "from",
          "type": "address"
        },
        {
          "indexed": true,
          "internalType": "address",
          "name": "to",
          "type": "address"
        },
        {
          "indexed": false,
          "internalType": "uint256",
          "name": "value",
          "type": "uint256"
        }
      ],
      "name": "Transfer",
      "type": "event"
    },
    {
      "anonymous": false,
      "inputs": [
        {
          "indexed": false,
          "internalType": "address",
          "name": "account",
          "type": "address"
        }
      ],
      "name": "Unpaused",
      "type": "event"
    },
    {
      "anonymous": false,
      "inputs": [
        {
          "indexed": true,
          "internalType": "address",
          "name": "implementation",
          "type": "address"
        }
      ],
      "name": "Upgraded",
      "type": "event"
    },
    {
      "inputs": [],
      "name": "DEFAULT_ADMIN_ROLE",
      "outputs": [
        {
          "internalType": "bytes32",
          "name": "",
          "type": "bytes32"
        }
      ],
      "stateMutability": "view",
      "type": "function"
    },
    {
      "inputs": [],
      "name": "MINTER_ROLE",
      "outputs": [
        {
          "internalType": "bytes32",
          "name": "",
          "type": "bytes32"
        }
      ],
      "stateMutability": "view",
      "type": "function"
    },
    {
      "inputs": [],
      "name": "PAUSER_ROLE",
      "outputs": [
        {
          "internalType": "bytes32",
          "name": "",
          "type": "bytes32"
        }
      ],
      "stateMutability": "view",
      "type": "function"
    },
    {
      "inputs": [
        {
          "internalType": "address",
          "name": "owner",
          "type": "address"
        },
        {
          "internalType": "address",
          "name": "spender",
          "type": "address"
        }
      ],
      "name": "allowance",
      "outputs": [
        {
          "internalType": "uint256",
          "name": "",
          "type": "uint256"
        }
      ],
      "stateMutability": "view",
      "type": "function"
    },
    {
      "inputs": [
        {
          "internalType": "address",
          "name": "spender",
          "type": "address"
        },
        {
          "internalType": "uint256",
          "name": "amount",
          "type": "uint256"
        }
      ],
      "name": "approve",
      "outputs": [
        {
          "internalType": "bool",
          "name": "",
          "type": "bool"
        }
      ],
      "stateMutability": "nonpayable",
      "type": "function"
    },
    {
      "inputs": [
        {
          "internalType": "address",
          "name": "account",
          "type": "address"
        }
      ],
      "name": "balanceOf",
      "outputs": [
        {
          "internalType": "uint256",
          "name": "",
          "type": "uint256"
        }
      ],
      "stateMutability": "view",
      "type": "function"
    },
    {
      "inputs": [
        {
          "internalType": "uint256",
          "name": "amount",
          "type": "uint256"
        }
      ],
      "name": "burn",
      "outputs": [],
      "stateMutability": "nonpayable",
      "type": "function"
    },
    {
      "inputs": [
        {
          "internalType": "address",
          "name": "account",
          "type": "address"
        },
        {
          "internalType": "uint256",
          "name": "amount",
          "type": "uint256"
        }
      ],
      "name": "burnFrom",
      "outputs": [],
      "stateMutability": "nonpayable",
      "type": "function"
    },
    {
      "inputs": [],
      "name": "decimals",
      "outputs": [
        {
          "internalType": "uint8",
          "name": "",
          "type": "uint8"
        }
      ],
      "stateMutability": "view",
      "type": "function"
    },
    {
      "inputs": [
        {
          "internalType": "address",
          "name": "spender",
          "type": "address"
        },
        {
          "internalType": "uint256",
          "name": "subtractedValue",
          "type": "uint256"
        }
      ],
      "name": "decreaseAllowance",
      "outputs": [
        {
          "internalType": "bool",
          "name": "",
          "type": "bool"
        }
      ],
      "stateMutability": "nonpayable",
      "type": "function"
    },
    {
      "inputs": [
        {
          "internalType": "bytes32",
          "name": "role",
          "type": "bytes32"
        }
      ],
      "name": "getRoleAdmin",
      "outputs": [
        {
          "internalType": "bytes32",
          "name": "",
          "type": "bytes32"
        }
      ],
      "stateMutability": "view",
      "type": "function"
    },
    {
      "inputs": [
        {
          "internalType": "bytes32",
          "name": "role",
          "type": "bytes32"
        },
        {
          "internalType": "address",
          "name": "account",
          "type": "address"
        }
      ],
      "name": "grantRole",
      "outputs": [],
      "stateMutability": "nonpayable",
      "type": "function"
    },
    {
      "inputs": [
        {
          "internalType": "bytes32",
          "name": "role",
          "type": "bytes32"
        },
        {
          "internalType": "address",
          "name": "account",
          "type": "address"
        }
      ],
      "name": "hasRole",
      "outputs": [
        {
          "internalType": "bool",
          "name": "",
          "type": "bool"
        }
      ],
      "stateMutability": "view",
      "type": "function"
    },
    {
      "inputs": [
        {
          "internalType": "address",
          "name": "spender",
          "type": "address"
        },
        {
          "internalType": "uint256",
          "name": "addedValue",
          "type": "uint256"
        }
      ],
      "name": "increaseAllowance",
      "outputs": [
        {
          "internalType": "bool",
          "name": "",
          "type": "bool"
        }
      ],
      "stateMutability": "nonpayable",
      "type": "function"
    },
    {
      "inputs": [
        {
          "internalType": "address[]",
          "name": "minters",
          "type": "address[]"
        },
        {
          "internalType": "string",
          "name": "name",
          "type": "string"
        },
        {
          "internalType": "string",
          "name": "symbol",
          "type": "string"
        }
      ],
      "name": "initialize",
      "outputs": [],
      "stateMutability": "nonpayable",
      "type": "function"
    },
    {
      "inputs": [
        {
          "internalType": "address",
          "name": "to",
          "type": "address"
        },
        {
          "internalType": "uint256",
          "name": "amount",
          "type": "uint256"
        }
      ],
      "name": "mint",
      "outputs": [],
      "stateMutability": "nonpayable",
      "type": "function"
    },
    {
      "inputs": [],
      "name": "name",
      "outputs": [
        {
          "internalType": "string",
          "name": "",
          "type": "string"
        }
      ],
      "stateMutability": "view",
      "type": "function"
    },
    {
      "inputs": [],
      "name": "owner",
      "outputs": [
        {
          "internalType": "address",
          "name": "",
          "type": "address"
        }
      ],
      "stateMutability": "view",
      "type": "function"
    },
    {
      "inputs": [],
      "name": "pause",
      "outputs": [],
      "stateMutability": "nonpayable",
      "type": "function"
    },
    {
      "inputs": [],
      "name": "paused",
      "outputs": [
        {
          "internalType": "bool",
          "name": "",
          "type": "bool"
        }
      ],
      "stateMutability": "view",
      "type": "function"
    },
    {
      "inputs": [],
      "name": "proxiableUUID",
      "outputs": [
        {
          "internalType": "bytes32",
          "name": "",
          "type": "bytes32"
        }
      ],
      "stateMutability": "view",
      "type": "function"
    },
    {
      "inputs": [],
      "name": "renounceOwnership",
      "outputs": [],
      "stateMutability": "nonpayable",
      "type": "function"
    },
    {
      "inputs": [
        {
          "internalType": "bytes32",
          "name": "role",
          "type": "bytes32"
        },
        {
          "internalType": "address",
          "name": "account",
          "type": "address"
        }
      ],
      "name": "renounceRole",
      "outputs": [],
      "stateMutability": "nonpayable",
      "type": "function"
    },
    {
      "inputs": [
        {
          "internalType": "bytes32",
          "name": "role",
          "type": "bytes32"
        },
        {
          "internalType": "address",
          "name": "account",
          "type": "address"
        }
      ],
      "name": "revokeRole",
      "outputs": [],
      "stateMutability": "nonpayable",
      "type": "function"
    },
    {
      "inputs": [
        {
          "internalType": "bytes4",
          "name": "interfaceId",
          "type": "bytes4"
        }
      ],
      "name": "supportsInterface",
      "outputs": [
        {
          "internalType": "bool",
          "name": "",
          "type": "bool"
        }
      ],
      "stateMutability": "view",
      "type": "function"
    },
    {
      "inputs": [],
      "name": "symbol",
      "outputs": [
        {
          "internalType": "string",
          "name": "",
          "type": "string"
        }
      ],
      "stateMutability": "view",
      "type": "function"
    },
    {
      "inputs": [],
      "name": "totalSupply",
      "outputs": [
        {
          "internalType": "uint256",
          "name": "",
          "type": "uint256"
        }
      ],
      "stateMutability": "view",
      "type": "function"
    },
    {
      "inputs": [
        {
          "internalType": "address",
          "name": "to",
          "type": "address"
        },
        {
          "internalType": "uint256",
          "name": "amount",
          "type": "uint256"
        }
      ],
      "name": "transfer",
      "outputs": [
        {
          "internalType": "bool",
          "name": "",
          "type": "bool"
        }
      ],
      "stateMutability": "nonpayable",
      "type": "function"
    },
    {
      "inputs": [
        {
          "internalType": "address",
          "name": "from",
          "type": "address"
        },
        {
          "internalType": "address",
          "name": "to",
          "type": "address"
        },
        {
          "internalType": "uint256",
          "name": "amount",
          "type": "uint256"
        }
      ],
      "name": "transferFrom",
      "outputs": [
        {
          "internalType": "bool",
          "name": "",
          "type": "bool"
        }
      ],
      "stateMutability": "nonpayable",
      "type": "function"
    },
    {
      "inputs": [
        {
          "internalType": "address",
          "name": "newOwner",
          "type": "address"
        }
      ],
      "name": "transferOwnership",
      "outputs": [],
      "stateMutability": "nonpayable",
      "type": "function"
    },
    {
      "inputs": [],
      "name": "unpause",
      "outputs": [],
      "stateMutability": "nonpayable",
      "type": "function"
    },
    {
      "inputs": [
        {
          "internalType": "address",
          "name": "newImplementation",
          "type": "address"
        }
      ],
      "name": "upgradeTo",
      "outputs": [],
      "stateMutability": "nonpayable",
      "type": "function"
    },
    {
      "inputs": [
        {
          "internalType": "address",
          "name": "newImplementation",
          "type": "address"
        },
        {
          "internalType": "bytes",
          "name": "data",
          "type": "bytes"
        }
      ],
      "name": "upgradeToAndCall",
      "outputs": [],
      "stateMutability": "payable",
      "type": "function"
    }
  ],
  "bytecode": "0x60a08060405234610031573060805261286490816100378239608051818181610f710152818161107101526115750152f35b600080fdfe608080604052600436101561001357600080fd5b60003560e01c90816301ffc9a714611af55750806306fdde0314611a61578063095ea7b314611a3b57806318160ddd14611a1d57806323b872dd1461195f578063248a9ca3146119305780632f2ff15d1461188f578063313ce5671461187357806336568abe146117e15780633659cfe61461155057806339509351146114ff5780633f4ba83a1461146a57806340c10f19146112fe57806342966c68146112e15780634f1ef2861461102257806352d1902d14610f5e5780635c975abb14610f3a57806370a0823114610f00578063715018a614610ea357806379cc679014610c935780638456cb5914610bff5780638da5cb5b14610bd657806391d1485414610b8957806395d89b4114610abd578063978d55b914610418578063a217fddf146103fc578063a457c2d714610355578063a9059cbb14610324578063d5391393146102e9578063d547741f146102aa578063dd62ed3e14610259578063e63ab1e91461021e5763f2fde38b1461018a57600080fd5b34610219576020366003190112610219576101a3611b97565b6101ab611ff7565b6001600160a01b038116156101c5576101c39061204f565b005b60405162461bcd60e51b815260206004820152602660248201527f4f776e61626c653a206e6577206f776e657220697320746865207a65726f206160448201526564647265737360d01b6064820152608490fd5b600080fd5b346102195760003660031901126102195760206040517f65d7a28e3265b37a6474929f336521b332c1681b933f6cb9f3376673440d862a8152f35b3461021957604036600319011261021957610272611b97565b61027a611bad565b9060018060a01b038091166000526034602052604060002091166000526020526020604060002054604051908152f35b34610219576040366003190112610219576101c36004356102c9611bad565b908060005260fb6020526102e4600160406000200154611e77565b611f81565b346102195760003660031901126102195760206040517f9f2df0fed2c77648de5860a4cc508cd0818c85b8b8a1ab4ceeef8d981c8956a68152f35b346102195760403660031901126102195761034a610340611b97565b6024359033612231565b602060405160018152f35b346102195760403660031901126102195761036e611b97565b60243590336000526034602052604060002060018060a01b038216600052602052604060002054918083106103a95761034a920390336123a1565b60405162461bcd60e51b815260206004820152602560248201527f45524332303a2064656372656173656420616c6c6f77616e63652062656c6f77604482015264207a65726f60d81b6064820152608490fd5b3461021957600036600319011261021957602060405160008152f35b346102195760603660031901126102195760043567ffffffffffffffff811161021957366023820112156102195780600401359067ffffffffffffffff821161090c578160051b90604051926104716020840185611bfb565b8352602460208401928201019036821161021957602401915b818310610a9d578360243567ffffffffffffffff8111610219576104b2903690600401611c70565b9060443567ffffffffffffffff8111610219576104d3903690600401611c70565b906000549060ff8260081c161591828093610a90575b8015610a79575b15610a1d5760ff19811660011760005582610a0b575b5061052160ff60005460081c1661051c8161274e565b61274e565b835167ffffffffffffffff811161090c5761053d6036546121ea565b601f81116109a2575b506020601f821160011461092d578192939495600092610922575b50508160011b916000199060031b1c1916176036555b825167ffffffffffffffff811161090c576105936037546121ea565b601f811161089f575b506020601f821160011461082b5781929394600092610820575b50508160011b916000199060031b1c1916176037555b6105ea60ff60005460081c166105e18161274e565b61051c8161274e565b6105f33361204f565b61060860ff60005460081c166105e18161274e565b61012d805460ff191690553360009081527fc81858b0fc5e8d7d2c7a341b4e13a62a27b51e1da1072bf5f7fee8fdef673e94602052604090205460fb91907f65d7a28e3265b37a6474929f336521b332c1681b933f6cb9f3376673440d862a9060ff16156107df575b50600080528160205260406000203360005260205260ff60406000205416156107a0575b60005b81518110156107615760018060a01b0360208260051b84010151167f9f2df0fed2c77648de5860a4cc508cd0818c85b8b8a1ab4ceeef8d981c8956a690816000528460205260406000208160005260205260ff6040600020541615610721575b5050600019811461070b57600101610698565b634e487b7160e01b600052601160045260246000fd5b81600052846020526040600020816000526020526040600020600160ff1982541617905533916000805160206127af833981519152600080a484806106f8565b8361076857005b61ff0019600054166000557f7f26b83ff96e1f2b6a682f133852f6798a09c465da95921460cefb3847402498602060405160018152a1005b60008052816020526040600020336000526020526040600020600160ff19825416179055333360006000805160206127af8339815191528180a4610695565b80600052826020526040600020336000526020526040600020600160ff19825416179055339033906000805160206127af833981519152600080a483610671565b0151905084806105b6565b603760005260008051602061280f8339815191529060005b601f19841681106108875750600193949583601f1981161061086e575b505050811b016037556105cc565b015160001960f88460031b161c19169055848080610860565b9091602060018192858a015181550193019101610843565b6037600052601f820160051c60008051602061280f8339815191520190602083106108f6575b601f0160051c60008051602061280f83398151915201905b8181106108ea575061059c565b600081556001016108dd565b60008051602061280f83398151915291506108c5565b634e487b7160e01b600052604160045260246000fd5b015190508580610561565b60366000526000805160206127cf8339815191529060005b601f198416811061098a575060019394959683601f19811610610971575b505050811b01603655610577565b015160001960f88460031b161c19169055858080610963565b9091602060018192858b015181550193019101610945565b6036600052601f820160051c6000805160206127cf83398151915201602083106109f6575b601f820160051c6000805160206127cf8339815191520181106109ea5750610546565b600081556001016109c7565b506000805160206127cf8339815191526109c7565b61ffff19166101011760005584610506565b60405162461bcd60e51b815260206004820152602e60248201527f496e697469616c697a61626c653a20636f6e747261637420697320616c72656160448201526d191e481a5b9a5d1a585b1a5e995960921b6064820152608490fd5b50303b1580156104f05750600160ff8216146104f0565b50600160ff8216106104e9565b82356001600160a01b03811681036102195781526020928301920161048a565b34610219576000366003190112610219576040516000603754610adf816121ea565b80845290600190818116908115610b625750600114610b19575b610b1584610b0981860382611bfb565b60405191829182611b6b565b0390f35b60376000908152925060008051602061280f8339815191525b828410610b4a575050508101602001610b0982610af9565b80546020858701810191909152909301928101610b32565b60ff191660208087019190915292151560051b85019092019250610b099150839050610af9565b3461021957604036600319011261021957610ba2611bad565b60043560005260fb60205260406000209060018060a01b0316600052602052602060ff604060002054166040519015158152f35b34610219576000366003190112610219576097546040516001600160a01b039091168152602090f35b3461021957600036600319011261021957610c18611c8e565b61012d805460ff8116610c5b5760019060ff19161790557f62e78cea01bee320cd4e420270b5ea74000d11b0c9f74754ebdbfc544b05a2586020604051338152a1005b60405162461bcd60e51b815260206004820152601060248201526f14185d5cd8589b194e881c185d5cd95960821b6044820152606490fd5b3461021957604036600319011261021957610cac611b97565b3360009081527f72f2994cda805697ff5940dc92bd4118d9d7058b657a897ee8a2023e4f67343460209081526040909120549091907f9f2df0fed2c77648de5860a4cc508cd0818c85b8b8a1ab4ceeef8d981c8956a69060ff1615610d17576101c3602435836124a3565b9050610d2233612650565b60405190610d2f82611bdf565b60428252838201926060368537825115610e8d57603084538251600190811015610e8d57607860218501536041905b808211610e49575050610e0657610e0293610db293610dea93610ddb604894604051978576020b1b1b2b9b9a1b7b73a3937b61d1030b1b1b7bab73a1604d1b8a978801528251928391603789019101611b48565b8401917001034b99036b4b9b9b4b733903937b6329607d1b603784015251809386840190611b48565b01036028810184520182611bfb565b60405162461bcd60e51b815291829160048301611b6b565b0390fd5b6064846040519062461bcd60e51b825280600483015260248201527f537472696e67733a20686578206c656e67746820696e73756666696369656e746044820152fd5b9091600f81166010811015610e8d576f181899199a1a9b1b9c1cb0b131b232b360811b901a610e78848761263f565b5360041c91801561070b576000190190610d5e565b634e487b7160e01b600052603260045260246000fd5b3461021957600036600319011261021957610ebc611ff7565b609780546001600160a01b031981169091556000906001600160a01b03167f8be0079c531659141344cd1fd0a4f28419497f9722a3daafe3b4186f6b6457e08280a3005b34610219576020366003190112610219576001600160a01b03610f21611b97565b1660005260336020526020604060002054604051908152f35b3461021957600036600319011261021957602060ff61012d54166040519015158152f35b34610219576000366003190112610219577f00000000000000000000000000000000000000000000000000000000000000006001600160a01b03163003610fb75760206040516000805160206127ef8339815191528152f35b60405162461bcd60e51b815260206004820152603860248201527f555550535570677261646561626c653a206d757374206e6f742062652063616c60448201527f6c6564207468726f7567682064656c656761746563616c6c00000000000000006064820152608490fd5b604036600319011261021957611036611b97565b60243567ffffffffffffffff8111610219573660238201121561021957611067903690602481600401359101611c39565b6001600160a01b037f0000000000000000000000000000000000000000000000000000000000000000811691906110a030841415612098565b6110bd6000805160206127ef8339815191529382855416146120f9565b6110c5611ff7565b7f4910fdfa16fed3260ed0e7147f7cc6da11a60208b5b9406d12a635614ffd91435460ff16156110fb575050506101c39061215a565b8316604051926352d1902d60e01b84526020938481600481865afa600091816112b2575b506111805760405162461bcd60e51b815260048101869052602e60248201527f45524331393637557067726164653a206e657720696d706c656d656e7461746960448201526d6f6e206973206e6f74205555505360901b6064820152608490fd5b9392930361125b576111918461215a565b7fbc7cd75a20ee27fd9adebab32041f755214dbc6bffa90cc0225b39da2e5c2d3b600080a2815115801590611253575b6111c757005b6101c392600080604051946111db86611bc3565b602786527f416464726573733a206c6f772d6c6576656c2064656c65676174652063616c6c85870152660819985a5b195960ca1b60408701528481519101845af4903d1561124a573d61122d81611c1d565b9061123b6040519283611bfb565b8152600081943d92013e6125ae565b606092506125ae565b5060016111c1565b60405162461bcd60e51b815260048101839052602960248201527f45524331393637557067726164653a20756e737570706f727465642070726f786044820152681a58589b195555525160ba1b6064820152608490fd5b9091508581813d83116112da575b6112ca8183611bfb565b810103126102195751908761111f565b503d6112c0565b34610219576020366003190112610219576101c3600435336124a3565b3461021957604036600319011261021957611317611b97565b3360009081527f72f2994cda805697ff5940dc92bd4118d9d7058b657a897ee8a2023e4f6734346020908152604090912054602435929060ff1615611425576001600160a01b03169182156113e05790816113957f30385c845b448a36257a6a1716e6ad2e1bc2cbe333cde1e69fe849ad6511adfe93603554612224565b603555836000526033825260406000208181540190558360007fddf252ad1be2c89b69c2b068fc378daa952ba7f163c4a11628f55a4df523b3ef84604051858152a3604051908152a2005b60405162461bcd60e51b815260048101839052601f60248201527f45524332303a206d696e7420746f20746865207a65726f2061646472657373006044820152606490fd5b60405162461bcd60e51b815260048101839052601d60248201527f4d7573742068617665206d696e74657220726f6c6520746f206d696e740000006044820152606490fd5b3461021957600036600319011261021957611483611c8e565b61012d805460ff8116156114c35760ff191690557f5db9ee0a495bf2e6ff9c91a7834c1ba4fdd244a5e8aa4e537bd38aeae4b073aa6020604051338152a1005b60405162461bcd60e51b815260206004820152601460248201527314185d5cd8589b194e881b9bdd081c185d5cd95960621b6044820152606490fd5b346102195760403660031901126102195761034a61151b611b97565b336000526034602052604060002060018060a01b038216600052602052611549602435604060002054612224565b90336123a1565b34610219576020806003193601126102195761156a611b97565b6001600160a01b03917f000000000000000000000000000000000000000000000000000000000000000083166115a230821415612098565b6115bf6000805160206127ef8339815191529185835416146120f9565b6115c7611ff7565b604051908282019482861067ffffffffffffffff87111761090c57856040526000835260ff7f4910fdfa16fed3260ed0e7147f7cc6da11a60208b5b9406d12a635614ffd9143541660001461162457505050506101c3915061215a565b8492939416906040516352d1902d60e01b81528581600481865afa600091816117b2575b506116a95760405162461bcd60e51b815260048101879052602e60248201527f45524331393637557067726164653a206e657720696d706c656d656e7461746960448201526d6f6e206973206e6f74205555505360901b6064820152608490fd5b9493940361175b576116ba8261215a565b7fbc7cd75a20ee27fd9adebab32041f755214dbc6bffa90cc0225b39da2e5c2d3b600080a2825115801590611753575b6116f057005b6000806101c3956040519561170487611bc3565b602787527f416464726573733a206c6f772d6c6576656c2064656c65676174652063616c6c86880152660819985a5b195960ca1b60408801525190845af4903d1561124a573d61122d81611c1d565b5060006116ea565b60405162461bcd60e51b815260048101849052602960248201527f45524331393637557067726164653a20756e737570706f727465642070726f786044820152681a58589b195555525160ba1b6064820152608490fd5b9091508681813d83116117da575b6117ca8183611bfb565b8101031261021957519088611648565b503d6117c0565b34610219576040366003190112610219576117fa611bad565b336001600160a01b03821603611816576101c390600435611f81565b60405162461bcd60e51b815260206004820152602f60248201527f416363657373436f6e74726f6c3a2063616e206f6e6c792072656e6f756e636560448201526e103937b632b9903337b91039b2b63360891b6064820152608490fd5b3461021957600036600319011261021957602060405160068152f35b34610219576040366003190112610219576004356118ab611bad565b8160005260fb6020526118c5600160406000200154611e77565b8160005260fb60205260406000209060018060a01b0316908160005260205260ff60406000205416156118f457005b8160005260fb6020526040600020816000526020526040600020600160ff1982541617905533916000805160206127af833981519152600080a4005b346102195760203660031901126102195760043560005260fb6020526020600160406000200154604051908152f35b3461021957606036600319011261021957611978611b97565b611980611bad565b6044359060018060a01b03831660005260346020526040600020336000526020526040600020549260001984036119bc575b61034a9350612231565b8284106119d8576119d38361034a950333836123a1565b6119b2565b60405162461bcd60e51b815260206004820152601d60248201527f45524332303a20696e73756666696369656e7420616c6c6f77616e63650000006044820152606490fd5b34610219576000366003190112610219576020603554604051908152f35b346102195760403660031901126102195761034a611a57611b97565b60243590336123a1565b34610219576000366003190112610219576040516000603654611a83816121ea565b80845290600190818116908115610b625750600114611aac57610b1584610b0981860382611bfb565b6036600090815292506000805160206127cf8339815191525b828410611add575050508101602001610b0982610af9565b80546020858701810191909152909301928101611ac5565b34610219576020366003190112610219576004359063ffffffff60e01b821680920361021957602091637965db0b60e01b8114908115611b37575b5015158152f35b6301ffc9a760e01b14905083611b30565b60005b838110611b5b5750506000910152565b8181015183820152602001611b4b565b60409160208252611b8b8151809281602086015260208686019101611b48565b601f01601f1916010190565b600435906001600160a01b038216820361021957565b602435906001600160a01b038216820361021957565b6060810190811067ffffffffffffffff82111761090c57604052565b6080810190811067ffffffffffffffff82111761090c57604052565b90601f8019910116810190811067ffffffffffffffff82111761090c57604052565b67ffffffffffffffff811161090c57601f01601f191660200190565b929192611c4582611c1d565b91611c536040519384611bfb565b829481845281830111610219578281602093846000960137010152565b9080601f8301121561021957816020611c8b93359101611c39565b90565b3360009081527fc81858b0fc5e8d7d2c7a341b4e13a62a27b51e1da1072bf5f7fee8fdef673e9460209081526040808320549092907f65d7a28e3265b37a6474929f336521b332c1681b933f6cb9f3376673440d862a9060ff1615611cf35750505050565b611cfc33612650565b845191611d0883611bdf565b60428352848301936060368637835115611e635760308553835190600191821015611e635790607860218601536041915b818311611df557505050611db357610db2938593611d9d93611d8e604894610e029951988576020b1b1b2b9b9a1b7b73a3937b61d1030b1b1b7bab73a1604d1b8b978801528251928391603789019101611b48565b01036028810185520183611bfb565b5162461bcd60e51b815291829160048301611b6b565b60648486519062461bcd60e51b825280600483015260248201527f537472696e67733a20686578206c656e67746820696e73756666696369656e746044820152fd5b909192600f81166010811015611e4f576f181899199a1a9b1b9c1cb0b131b232b360811b901a611e25858861263f565b5360041c928015611e3b57600019019190611d39565b634e487b7160e01b82526011600452602482fd5b634e487b7160e01b83526032600452602483fd5b634e487b7160e01b81526032600452602490fd5b600081815260209060fb8252604092838220338352835260ff848320541615611ea05750505050565b611ea933612650565b845191611eb583611bdf565b60428352848301936060368637835115611e635760308553835190600191821015611e635790607860218601536041915b818311611f3b57505050611db357610db2938593611d9d93611d8e604894610e029951988576020b1b1b2b9b9a1b7b73a3937b61d1030b1b1b7bab73a1604d1b8b978801528251928391603789019101611b48565b909192600f81166010811015611e4f576f181899199a1a9b1b9c1cb0b131b232b360811b901a611f6b858861263f565b5360041c928015611e3b57600019019190611ee6565b9060009180835260fb602052604083209160018060a01b03169182845260205260ff604084205416611fb257505050565b80835260fb602052604083208284526020526040832060ff1981541690557ff6391f5c32d9c69d2a47ea670b442974b53935d1edc7fd64eb21e047a839171b339380a4565b6097546001600160a01b0316330361200b57565b606460405162461bcd60e51b815260206004820152602060248201527f4f776e61626c653a2063616c6c6572206973206e6f7420746865206f776e65726044820152fd5b609780546001600160a01b039283166001600160a01b0319821681179092559091167f8be0079c531659141344cd1fd0a4f28419497f9722a3daafe3b4186f6b6457e0600080a3565b1561209f57565b60405162461bcd60e51b815260206004820152602c60248201527f46756e6374696f6e206d7573742062652063616c6c6564207468726f7567682060448201526b19195b1959d85d1958d85b1b60a21b6064820152608490fd5b1561210057565b60405162461bcd60e51b815260206004820152602c60248201527f46756e6374696f6e206d7573742062652063616c6c6564207468726f7567682060448201526b6163746976652070726f787960a01b6064820152608490fd5b803b1561218f576000805160206127ef83398151915280546001600160a01b0319166001600160a01b03909216919091179055565b60405162461bcd60e51b815260206004820152602d60248201527f455243313936373a206e657720696d706c656d656e746174696f6e206973206e60448201526c1bdd08184818dbdb9d1c9858dd609a1b6064820152608490fd5b90600182811c9216801561221a575b602083101461220457565b634e487b7160e01b600052602260045260246000fd5b91607f16916121f9565b9190820180921161070b57565b6001600160a01b0390811691821561234e57169182156122fd57600082815260336020526040812054918083106122a957604082827fddf252ad1be2c89b69c2b068fc378daa952ba7f163c4a11628f55a4df523b3ef95876020965260338652038282205586815220818154019055604051908152a3565b60405162461bcd60e51b815260206004820152602660248201527f45524332303a207472616e7366657220616d6f756e7420657863656564732062604482015265616c616e636560d01b6064820152608490fd5b60405162461bcd60e51b815260206004820152602360248201527f45524332303a207472616e7366657220746f20746865207a65726f206164647260448201526265737360e81b6064820152608490fd5b60405162461bcd60e51b815260206004820152602560248201527f45524332303a207472616e736665722066726f6d20746865207a65726f206164604482015264647265737360d81b6064820152608490fd5b6001600160a01b0390811691821561245257169182156124025760207f8c5be1e5ebec7d5bd14f71427d1e84f3dd0314c0f7b2291e5b200ac8c7c3b925918360005260348252604060002085600052825280604060002055604051908152a3565b60405162461bcd60e51b815260206004820152602260248201527f45524332303a20617070726f766520746f20746865207a65726f206164647265604482015261737360f01b6064820152608490fd5b60405162461bcd60e51b8152602060048201526024808201527f45524332303a20617070726f76652066726f6d20746865207a65726f206164646044820152637265737360e01b6064820152608490fd5b6001600160a01b0316801561255f578060005260336020526040600020549180831061250f576020817fddf252ad1be2c89b69c2b068fc378daa952ba7f163c4a11628f55a4df523b3ef92600095858752603384520360408620558060355403603555604051908152a3565b60405162461bcd60e51b815260206004820152602260248201527f45524332303a206275726e20616d6f756e7420657863656564732062616c616e604482015261636560f01b6064820152608490fd5b60405162461bcd60e51b815260206004820152602160248201527f45524332303a206275726e2066726f6d20746865207a65726f206164647265736044820152607360f81b6064820152608490fd5b9192901561261057508151156125c2575090565b3b156125cb5790565b60405162461bcd60e51b815260206004820152601d60248201527f416464726573733a2063616c6c20746f206e6f6e2d636f6e74726163740000006044820152606490fd5b8251909150156126235750805190602001fd5b60405162461bcd60e51b8152908190610e029060048301611b6b565b908151811015610e8d570160200190565b6040519061265d82611bc3565b602a8252602082016040368237825115610e8d57603090538151600190811015610e8d57607860218401536029905b8082116126e057505061269c5790565b606460405162461bcd60e51b815260206004820152602060248201527f537472696e67733a20686578206c656e67746820696e73756666696369656e746044820152fd5b9091600f81166010811015612739576f181899199a1a9b1b9c1cb0b131b232b360811b901a61270f848661263f565b5360041c91801561272457600019019061268c565b60246000634e487b7160e01b81526011600452fd5b60246000634e487b7160e01b81526032600452fd5b1561275557565b60405162461bcd60e51b815260206004820152602b60248201527f496e697469616c697a61626c653a20636f6e7472616374206973206e6f74206960448201526a6e697469616c697a696e6760a81b6064820152608490fdfe2f8788117e7eff1d82e926ec794901d17c78024a50270940304540a733656f0d4a11f94e20a93c79f6ec743a1954ec4fc2c08429ae2122118bf234b2185c81b8360894a13ba1a3210667c828492db98dca3e2076cc3735a920a3ca505d382bbc42a7b7dd785cd69714a189dffb3fd7d7174edc9ece837694ce50f7078f7c31aea2646970667358221220c7b052578adea946b53bed57e103a0c95f403a47a0ba19b75d07658a6667754564736f6c63430008140033",
  "linkReferences": {},
  "deployedLinkReferences": {}
}