{
  "_format": "hh-sol-artifact-1",
  "contractName": "UpgradeableBurnableCommunityToken",
  "sourceName": "contracts/tokens/UpgradeableBurnableCommunityToken.sol",
  "abi": [
    {
      "anonymous": false,
      "inputs": [
        {
          "indexed": false,
          "internalType": "address",
          "name": "previousAdmin",
          "type": "address"
        },
        {
          "indexed": false,
          "internalType": "address",
          "name": "newAdmin",
          "type": "address"
        }
      ],
      "name": "AdminChanged",
      "type": "event"
    },
    {
      "anonymous": false,
      "inputs": [
        {
          "indexed": true,
          "internalType": "address",
          "name": "owner",
          "type": "address"
        },
        {
          "indexed": true,
          "internalType": "address",
          "name": "spender",
          "type": "address"
        },
        {
          "indexed": false,
          "internalType": "uint256",
          "name": "value",
          "type": "uint256"
        }
      ],
      "name": "Approval",
      "type": "event"
    },
    {
      "anonymous": false,
      "inputs": [
        {
          "indexed": true,
          "internalType": "address",
          "name": "beacon",
          "type": "address"
        }
      ],
      "name": "BeaconUpgraded",
      "type": "event"
    },
    {
      "anonymous": false,
      "inputs": [
        {
          "indexed": false,
          "internalType": "uint8",
          "name": "version",
          "type": "uint8"
        }
      ],
      "name": "Initialized",
      "type": "event"
    },
    {
      "anonymous": false,
      "inputs": [
        {
          "indexed": true,
          "internalType": "address",
          "name": "to",
          "type": "address"
        },
        {
          "indexed": false,
          "internalType": "uint256",
          "name": "amount",
          "type": "uint256"
        },
        {
          "indexed": false,
          "internalType": "string",
          "name": "description",
          "type": "string"
        }
      ],
      "name": "Minted",
      "type": "event"
    },
    {
      "anonymous": false,
      "inputs": [
        {
          "indexed": true,
          "internalType": "address",
          "name": "previousOwner",
          "type": "address"
        },
        {
          "indexed": true,
          "internalType": "address",
          "name": "newOwner",
          "type": "address"
        }
      ],
      "name": "OwnershipTransferred",
      "type": "event"
    },
    {
      "anonymous": false,
      "inputs": [
        {
          "indexed": false,
          "internalType": "address",
          "name": "account",
          "type": "address"
        }
      ],
      "name": "Paused",
      "type": "event"
    },
    {
      "anonymous": false,
      "inputs": [
        {
          "indexed": true,
          "internalType": "bytes32",
          "name": "role",
          "type": "bytes32"
        },
        {
          "indexed": true,
          "internalType": "bytes32",
          "name": "previousAdminRole",
          "type": "bytes32"
        },
        {
          "indexed": true,
          "internalType": "bytes32",
          "name": "newAdminRole",
          "type": "bytes32"
        }
      ],
      "name": "RoleAdminChanged",
      "type": "event"
    },
    {
      "anonymous": false,
      "inputs": [
        {
          "indexed": true,
          "internalType": "bytes32",
          "name": "role",
          "type": "bytes32"
        },
        {
          "indexed": true,
          "internalType": "address",
          "name": "account",
          "type": "address"
        },
        {
          "indexed": true,
          "internalType": "address",
          "name": "sender",
          "type": "address"
        }
      ],
      "name": "RoleGranted",
      "type": "event"
    },
    {
      "anonymous": false,
      "inputs": [
        {
          "indexed": true,
          "internalType": "bytes32",
          "name": "role",
          "type": "bytes32"
        },
        {
          "indexed": true,
          "internalType": "address",
          "name": "account",
          "type": "address"
        },
        {
          "indexed": true,
          "internalType": "address",
          "name": "sender",
          "type": "address"
        }
      ],
      "name": "RoleRevoked",
      "type": "event"
    },
    {
      "anonymous": false,
      "inputs": [
        {
          "indexed": true,
          "internalType": "address",
          "name": "from",
          "type": "address"
        },
        {
          "indexed": true,
          "internalType": "address",
          "name": "to",
          "type": "address"
        },
        {
          "indexed": false,
          "internalType": "uint256",
          "name": "value",
          "type": "uint256"
        }
      ],
      "name": "Transfer",
      "type": "event"
    },
    {
      "anonymous": false,
      "inputs": [
        {
          "indexed": false,
          "internalType": "address",
          "name": "account",
          "type": "address"
        }
      ],
      "name": "Unpaused",
      "type": "event"
    },
    {
      "anonymous": false,
      "inputs": [
        {
          "indexed": true,
          "internalType": "address",
          "name": "implementation",
          "type": "address"
        }
      ],
      "name": "Upgraded",
      "type": "event"
    },
    {
      "inputs": [],
      "name": "DEFAULT_ADMIN_ROLE",
      "outputs": [
        {
          "internalType": "bytes32",
          "name": "",
          "type": "bytes32"
        }
      ],
      "stateMutability": "view",
      "type": "function"
    },
    {
      "inputs": [],
      "name": "MINTER_ROLE",
      "outputs": [
        {
          "internalType": "bytes32",
          "name": "",
          "type": "bytes32"
        }
      ],
      "stateMutability": "view",
      "type": "function"
    },
    {
      "inputs": [],
      "name": "PAUSER_ROLE",
      "outputs": [
        {
          "internalType": "bytes32",
          "name": "",
          "type": "bytes32"
        }
      ],
      "stateMutability": "view",
      "type": "function"
    },
    {
      "inputs": [
        {
          "internalType": "address",
          "name": "owner",
          "type": "address"
        },
        {
          "internalType": "address",
          "name": "spender",
          "type": "address"
        }
      ],
      "name": "allowance",
      "outputs": [
        {
          "internalType": "uint256",
          "name": "",
          "type": "uint256"
        }
      ],
      "stateMutability": "view",
      "type": "function"
    },
    {
      "inputs": [
        {
          "internalType": "address",
          "name": "spender",
          "type": "address"
        },
        {
          "internalType": "uint256",
          "name": "amount",
          "type": "uint256"
        }
      ],
      "name": "approve",
      "outputs": [
        {
          "internalType": "bool",
          "name": "",
          "type": "bool"
        }
      ],
      "stateMutability": "nonpayable",
      "type": "function"
    },
    {
      "inputs": [
        {
          "internalType": "address",
          "name": "account",
          "type": "address"
        }
      ],
      "name": "balanceOf",
      "outputs": [
        {
          "internalType": "uint256",
          "name": "",
          "type": "uint256"
        }
      ],
      "stateMutability": "view",
      "type": "function"
    },
    {
      "inputs": [
        {
          "internalType": "uint256",
          "name": "amount",
          "type": "uint256"
        }
      ],
      "name": "burn",
      "outputs": [],
      "stateMutability": "nonpayable",
      "type": "function"
    },
    {
      "inputs": [
        {
          "internalType": "address",
          "name": "account",
          "type": "address"
        },
        {
          "internalType": "uint256",
          "name": "amount",
          "type": "uint256"
        }
      ],
      "name": "burnFrom",
      "outputs": [],
      "stateMutability": "nonpayable",
      "type": "function"
    },
    {
      "inputs": [],
      "name": "decimals",
      "outputs": [
        {
          "internalType": "uint8",
          "name": "",
          "type": "uint8"
        }
      ],
      "stateMutability": "view",
      "type": "function"
    },
    {
      "inputs": [
        {
          "internalType": "address",
          "name": "spender",
          "type": "address"
        },
        {
          "internalType": "uint256",
          "name": "subtractedValue",
          "type": "uint256"
        }
      ],
      "name": "decreaseAllowance",
      "outputs": [
        {
          "internalType": "bool",
          "name": "",
          "type": "bool"
        }
      ],
      "stateMutability": "nonpayable",
      "type": "function"
    },
    {
      "inputs": [
        {
          "internalType": "bytes32",
          "name": "role",
          "type": "bytes32"
        }
      ],
      "name": "getRoleAdmin",
      "outputs": [
        {
          "internalType": "bytes32",
          "name": "",
          "type": "bytes32"
        }
      ],
      "stateMutability": "view",
      "type": "function"
    },
    {
      "inputs": [
        {
          "internalType": "bytes32",
          "name": "role",
          "type": "bytes32"
        },
        {
          "internalType": "address",
          "name": "account",
          "type": "address"
        }
      ],
      "name": "grantRole",
      "outputs": [],
      "stateMutability": "nonpayable",
      "type": "function"
    },
    {
      "inputs": [
        {
          "internalType": "bytes32",
          "name": "role",
          "type": "bytes32"
        },
        {
          "internalType": "address",
          "name": "account",
          "type": "address"
        }
      ],
      "name": "hasRole",
      "outputs": [
        {
          "internalType": "bool",
          "name": "",
          "type": "bool"
        }
      ],
      "stateMutability": "view",
      "type": "function"
    },
    {
      "inputs": [
        {
          "internalType": "address",
          "name": "spender",
          "type": "address"
        },
        {
          "internalType": "uint256",
          "name": "addedValue",
          "type": "uint256"
        }
      ],
      "name": "increaseAllowance",
      "outputs": [
        {
          "internalType": "bool",
          "name": "",
          "type": "bool"
        }
      ],
      "stateMutability": "nonpayable",
      "type": "function"
    },
    {
      "inputs": [
        {
          "internalType": "address[]",
          "name": "minters",
          "type": "address[]"
        },
        {
          "internalType": "string",
          "name": "name",
          "type": "string"
        },
        {
          "internalType": "string",
          "name": "symbol",
          "type": "string"
        }
      ],
      "name": "initialize",
      "outputs": [],
      "stateMutability": "nonpayable",
      "type": "function"
    },
    {
      "inputs": [
        {
          "internalType": "address",
          "name": "to",
          "type": "address"
        },
        {
          "internalType": "uint256",
          "name": "amount",
          "type": "uint256"
        },
        {
          "internalType": "string",
          "name": "description",
          "type": "string"
        }
      ],
      "name": "mint",
      "outputs": [],
      "stateMutability": "nonpayable",
      "type": "function"
    },
    {
      "inputs": [],
      "name": "name",
      "outputs": [
        {
          "internalType": "string",
          "name": "",
          "type": "string"
        }
      ],
      "stateMutability": "view",
      "type": "function"
    },
    {
      "inputs": [],
      "name": "owner",
      "outputs": [
        {
          "internalType": "address",
          "name": "",
          "type": "address"
        }
      ],
      "stateMutability": "view",
      "type": "function"
    },
    {
      "inputs": [],
      "name": "pause",
      "outputs": [],
      "stateMutability": "nonpayable",
      "type": "function"
    },
    {
      "inputs": [],
      "name": "paused",
      "outputs": [
        {
          "internalType": "bool",
          "name": "",
          "type": "bool"
        }
      ],
      "stateMutability": "view",
      "type": "function"
    },
    {
      "inputs": [],
      "name": "proxiableUUID",
      "outputs": [
        {
          "internalType": "bytes32",
          "name": "",
          "type": "bytes32"
        }
      ],
      "stateMutability": "view",
      "type": "function"
    },
    {
      "inputs": [],
      "name": "renounceOwnership",
      "outputs": [],
      "stateMutability": "nonpayable",
      "type": "function"
    },
    {
      "inputs": [
        {
          "internalType": "bytes32",
          "name": "role",
          "type": "bytes32"
        },
        {
          "internalType": "address",
          "name": "account",
          "type": "address"
        }
      ],
      "name": "renounceRole",
      "outputs": [],
      "stateMutability": "nonpayable",
      "type": "function"
    },
    {
      "inputs": [
        {
          "internalType": "bytes32",
          "name": "role",
          "type": "bytes32"
        },
        {
          "internalType": "address",
          "name": "account",
          "type": "address"
        }
      ],
      "name": "revokeRole",
      "outputs": [],
      "stateMutability": "nonpayable",
      "type": "function"
    },
    {
      "inputs": [
        {
          "internalType": "bytes4",
          "name": "interfaceId",
          "type": "bytes4"
        }
      ],
      "name": "supportsInterface",
      "outputs": [
        {
          "internalType": "bool",
          "name": "",
          "type": "bool"
        }
      ],
      "stateMutability": "view",
      "type": "function"
    },
    {
      "inputs": [],
      "name": "symbol",
      "outputs": [
        {
          "internalType": "string",
          "name": "",
          "type": "string"
        }
      ],
      "stateMutability": "view",
      "type": "function"
    },
    {
      "inputs": [],
      "name": "totalSupply",
      "outputs": [
        {
          "internalType": "uint256",
          "name": "",
          "type": "uint256"
        }
      ],
      "stateMutability": "view",
      "type": "function"
    },
    {
      "inputs": [
        {
          "internalType": "address",
          "name": "to",
          "type": "address"
        },
        {
          "internalType": "uint256",
          "name": "amount",
          "type": "uint256"
        }
      ],
      "name": "transfer",
      "outputs": [
        {
          "internalType": "bool",
          "name": "",
          "type": "bool"
        }
      ],
      "stateMutability": "nonpayable",
      "type": "function"
    },
    {
      "inputs": [
        {
          "internalType": "address",
          "name": "from",
          "type": "address"
        },
        {
          "internalType": "address",
          "name": "to",
          "type": "address"
        },
        {
          "internalType": "uint256",
          "name": "amount",
          "type": "uint256"
        }
      ],
      "name": "transferFrom",
      "outputs": [
        {
          "internalType": "bool",
          "name": "",
          "type": "bool"
        }
      ],
      "stateMutability": "nonpayable",
      "type": "function"
    },
    {
      "inputs": [
        {
          "internalType": "address",
          "name": "newOwner",
          "type": "address"
        }
      ],
      "name": "transferOwnership",
      "outputs": [],
      "stateMutability": "nonpayable",
      "type": "function"
    },
    {
      "inputs": [],
      "name": "unpause",
      "outputs": [],
      "stateMutability": "nonpayable",
      "type": "function"
    },
    {
      "inputs": [
        {
          "internalType": "address",
          "name": "newImplementation",
          "type": "address"
        }
      ],
      "name": "upgradeTo",
      "outputs": [],
      "stateMutability": "nonpayable",
      "type": "function"
    },
    {
      "inputs": [
        {
          "internalType": "address",
          "name": "newImplementation",
          "type": "address"
        },
        {
          "internalType": "bytes",
          "name": "data",
          "type": "bytes"
        }
      ],
      "name": "upgradeToAndCall",
      "outputs": [],
      "stateMutability": "payable",
      "type": "function"
    }
  ],
  "bytecode": "0x60a06040523060805234801561001457600080fd5b506080516125ee61004c600039600081816107bf015281816107ff015281816108ea0152818161092a01526109b901526125ee6000f3fe6080604052600436106101ee5760003560e01c806370a082311161010d578063a217fddf116100a0578063d53913931161006f578063d53913931461055f578063d547741f14610581578063dd62ed3e146105a1578063e63ab1e9146105c1578063f2fde38b146105e357600080fd5b8063a217fddf146104ea578063a457c2d7146104ff578063a9059cbb1461051f578063d3fc98641461053f57600080fd5b80638da5cb5b116100dc5780638da5cb5b1461046d57806391d148541461049557806395d89b41146104b5578063978d55b9146104ca57600080fd5b806370a08231146103ed578063715018a61461042357806379cc6790146104385780638456cb591461045857600080fd5b806336568abe1161018557806342966c681161015457806342966c681461038c5780634f1ef286146103ac57806352d1902d146103bf5780635c975abb146103d457600080fd5b806336568abe146103175780633659cfe61461033757806339509351146103575780633f4ba83a1461037757600080fd5b806323b872dd116101c157806323b872dd14610289578063248a9ca3146102a95780632f2ff15d146102d9578063313ce567146102fb57600080fd5b806301ffc9a7146101f357806306fdde0314610228578063095ea7b31461024a57806318160ddd1461026a575b600080fd5b3480156101ff57600080fd5b5061021361020e366004611dc3565b610603565b60405190151581526020015b60405180910390f35b34801561023457600080fd5b5061023d61063a565b60405161021f9190611e3d565b34801561025657600080fd5b50610213610265366004611e6c565b6106cc565b34801561027657600080fd5b506035545b60405190815260200161021f565b34801561029557600080fd5b506102136102a4366004611e96565b6106e4565b3480156102b557600080fd5b5061027b6102c4366004611ed2565b600090815260fb602052604090206001015490565b3480156102e557600080fd5b506102f96102f4366004611eeb565b610708565b005b34801561030757600080fd5b506040516006815260200161021f565b34801561032357600080fd5b506102f9610332366004611eeb565b610732565b34801561034357600080fd5b506102f9610352366004611f17565b6107b5565b34801561036357600080fd5b50610213610372366004611e6c565b610894565b34801561038357600080fd5b506102f96108b6565b34801561039857600080fd5b506102f96103a7366004611ed2565b6108d6565b6102f96103ba366004611fd1565b6108e0565b3480156103cb57600080fd5b5061027b6109ac565b3480156103e057600080fd5b5061012d5460ff16610213565b3480156103f957600080fd5b5061027b610408366004611f17565b6001600160a01b031660009081526033602052604090205490565b34801561042f57600080fd5b506102f9610a5f565b34801561044457600080fd5b506102f9610453366004611e6c565b610a73565b34801561046457600080fd5b506102f9610a95565b34801561047957600080fd5b506097546040516001600160a01b03909116815260200161021f565b3480156104a157600080fd5b506102136104b0366004611eeb565b610ab5565b3480156104c157600080fd5b5061023d610ae0565b3480156104d657600080fd5b506102f96104e5366004612053565b610aef565b3480156104f657600080fd5b5061027b600081565b34801561050b57600080fd5b5061021361051a366004611e6c565b610c98565b34801561052b57600080fd5b5061021361053a366004611e6c565b610d13565b34801561054b57600080fd5b506102f961055a366004612146565b610d21565b34801561056b57600080fd5b5061027b60008051602061259983398151915281565b34801561058d57600080fd5b506102f961059c366004611eeb565b610dd7565b3480156105ad57600080fd5b5061027b6105bc366004612193565b610dfc565b3480156105cd57600080fd5b5061027b60008051602061255283398151915281565b3480156105ef57600080fd5b506102f96105fe366004611f17565b610e27565b60006001600160e01b03198216637965db0b60e01b148061063457506301ffc9a760e01b6001600160e01b03198316145b92915050565b606060368054610649906121bd565b80601f0160208091040260200160405190810160405280929190818152602001828054610675906121bd565b80156106c25780601f10610697576101008083540402835291602001916106c2565b820191906000526020600020905b8154815290600101906020018083116106a557829003601f168201915b5050505050905090565b6000336106da818585610e9d565b5060019392505050565b6000336106f2858285610fc1565b6106fd858585611035565b506001949350505050565b600082815260fb6020526040902060010154610723816111e0565b61072d83836111ea565b505050565b6001600160a01b03811633146107a75760405162461bcd60e51b815260206004820152602f60248201527f416363657373436f6e74726f6c3a2063616e206f6e6c792072656e6f756e636560448201526e103937b632b9903337b91039b2b63360891b60648201526084015b60405180910390fd5b6107b18282611270565b5050565b6001600160a01b037f00000000000000000000000000000000000000000000000000000000000000001630036107fd5760405162461bcd60e51b815260040161079e906121f7565b7f00000000000000000000000000000000000000000000000000000000000000006001600160a01b0316610846600080516020612532833981519152546001600160a01b031690565b6001600160a01b03161461086c5760405162461bcd60e51b815260040161079e90612243565b610875816112d7565b60408051600080825260208201909252610891918391906112df565b50565b6000336106da8185856108a78383610dfc565b6108b191906122a5565b610e9d565b6000805160206125528339815191526108ce816111e0565b61089161144a565b610891338261149d565b6001600160a01b037f00000000000000000000000000000000000000000000000000000000000000001630036109285760405162461bcd60e51b815260040161079e906121f7565b7f00000000000000000000000000000000000000000000000000000000000000006001600160a01b0316610971600080516020612532833981519152546001600160a01b031690565b6001600160a01b0316146109975760405162461bcd60e51b815260040161079e90612243565b6109a0826112d7565b6107b1828260016112df565b6000306001600160a01b037f00000000000000000000000000000000000000000000000000000000000000001614610a4c5760405162461bcd60e51b815260206004820152603860248201527f555550535570677261646561626c653a206d757374206e6f742062652063616c60448201527f6c6564207468726f7567682064656c656761746563616c6c0000000000000000606482015260840161079e565b5060008051602061253283398151915290565b610a676115d1565b610a71600061162b565b565b600080516020612599833981519152610a8b816111e0565b61072d838361149d565b600080516020612552833981519152610aad816111e0565b61089161167d565b600091825260fb602090815260408084206001600160a01b0393909316845291905290205460ff1690565b606060378054610649906121bd565b600054610100900460ff1615808015610b0f5750600054600160ff909116105b80610b295750303b158015610b29575060005460ff166001145b610b8c5760405162461bcd60e51b815260206004820152602e60248201527f496e697469616c697a61626c653a20636f6e747261637420697320616c72656160448201526d191e481a5b9a5d1a585b1a5e995960921b606482015260840161079e565b6000805460ff191660011790558015610baf576000805461ff0019166101001790555b610bb983836116bb565b610bc16116ec565b610bc9611713565b610bd16116ec565b610bd9611742565b610bf160008051602061255283398151915233611771565b610bfc600033611771565b60005b8451811015610c4b57610c39600080516020612599833981519152868381518110610c2c57610c2c6122b8565b6020026020010151611771565b80610c43816122ce565b915050610bff565b508015610c92576000805461ff0019169055604051600181527f7f26b83ff96e1f2b6a682f133852f6798a09c465da95921460cefb38474024989060200160405180910390a15b50505050565b60003381610ca68286610dfc565b905083811015610d065760405162461bcd60e51b815260206004820152602560248201527f45524332303a2064656372656173656420616c6c6f77616e63652062656c6f77604482015264207a65726f60d81b606482015260840161079e565b6106fd8286868403610e9d565b6000336106da818585611035565b610d3960008051602061259983398151915233610ab5565b610d855760405162461bcd60e51b815260206004820152601d60248201527f4d7573742068617665206d696e74657220726f6c6520746f206d696e74000000604482015260640161079e565b610d8f838361177b565b826001600160a01b03167fe7cd4ce7f2a465edc730269a1305e8a48bad821e8fb7e152ec413829c01a53c48383604051610dca9291906122e7565b60405180910390a2505050565b600082815260fb6020526040902060010154610df2816111e0565b61072d8383611270565b6001600160a01b03918216600090815260346020908152604080832093909416825291909152205490565b610e2f6115d1565b6001600160a01b038116610e945760405162461bcd60e51b815260206004820152602660248201527f4f776e61626c653a206e6577206f776e657220697320746865207a65726f206160448201526564647265737360d01b606482015260840161079e565b6108918161162b565b6001600160a01b038316610eff5760405162461bcd60e51b8152602060048201526024808201527f45524332303a20617070726f76652066726f6d20746865207a65726f206164646044820152637265737360e01b606482015260840161079e565b6001600160a01b038216610f605760405162461bcd60e51b815260206004820152602260248201527f45524332303a20617070726f766520746f20746865207a65726f206164647265604482015261737360f01b606482015260840161079e565b6001600160a01b0383811660008181526034602090815260408083209487168084529482529182902085905590518481527f8c5be1e5ebec7d5bd14f71427d1e84f3dd0314c0f7b2291e5b200ac8c7c3b925910160405180910390a3505050565b6000610fcd8484610dfc565b90506000198114610c9257818110156110285760405162461bcd60e51b815260206004820152601d60248201527f45524332303a20696e73756666696369656e7420616c6c6f77616e6365000000604482015260640161079e565b610c928484848403610e9d565b6001600160a01b0383166110995760405162461bcd60e51b815260206004820152602560248201527f45524332303a207472616e736665722066726f6d20746865207a65726f206164604482015264647265737360d81b606482015260840161079e565b6001600160a01b0382166110fb5760405162461bcd60e51b815260206004820152602360248201527f45524332303a207472616e7366657220746f20746865207a65726f206164647260448201526265737360e81b606482015260840161079e565b6001600160a01b038316600090815260336020526040902054818110156111735760405162461bcd60e51b815260206004820152602660248201527f45524332303a207472616e7366657220616d6f756e7420657863656564732062604482015265616c616e636560d01b606482015260840161079e565b6001600160a01b0380851660008181526033602052604080822086860390559286168082529083902080548601905591517fddf252ad1be2c89b69c2b068fc378daa952ba7f163c4a11628f55a4df523b3ef906111d39086815260200190565b60405180910390a3610c92565b610891813361183c565b6111f48282610ab5565b6107b157600082815260fb602090815260408083206001600160a01b03851684529091529020805460ff1916600117905561122c3390565b6001600160a01b0316816001600160a01b0316837f2f8788117e7eff1d82e926ec794901d17c78024a50270940304540a733656f0d60405160405180910390a45050565b61127a8282610ab5565b156107b157600082815260fb602090815260408083206001600160a01b0385168085529252808320805460ff1916905551339285917ff6391f5c32d9c69d2a47ea670b442974b53935d1edc7fd64eb21e047a839171b9190a45050565b6108916115d1565b7f4910fdfa16fed3260ed0e7147f7cc6da11a60208b5b9406d12a635614ffd91435460ff16156113125761072d83611895565b826001600160a01b03166352d1902d6040518163ffffffff1660e01b8152600401602060405180830381865afa92505050801561136c575060408051601f3d908101601f1916820190925261136991810190612300565b60015b6113cf5760405162461bcd60e51b815260206004820152602e60248201527f45524331393637557067726164653a206e657720696d706c656d656e7461746960448201526d6f6e206973206e6f74205555505360901b606482015260840161079e565b600080516020612532833981519152811461143e5760405162461bcd60e51b815260206004820152602960248201527f45524331393637557067726164653a20756e737570706f727465642070726f786044820152681a58589b195555525160ba1b606482015260840161079e565b5061072d838383611931565b611452611956565b61012d805460ff191690557f5db9ee0a495bf2e6ff9c91a7834c1ba4fdd244a5e8aa4e537bd38aeae4b073aa335b6040516001600160a01b03909116815260200160405180910390a1565b6001600160a01b0382166114fd5760405162461bcd60e51b815260206004820152602160248201527f45524332303a206275726e2066726f6d20746865207a65726f206164647265736044820152607360f81b606482015260840161079e565b6001600160a01b038216600090815260336020526040902054818110156115715760405162461bcd60e51b815260206004820152602260248201527f45524332303a206275726e20616d6f756e7420657863656564732062616c616e604482015261636560f01b606482015260840161079e565b6001600160a01b03831660008181526033602090815260408083208686039055603580548790039055518581529192917fddf252ad1be2c89b69c2b068fc378daa952ba7f163c4a11628f55a4df523b3ef910160405180910390a3505050565b6097546001600160a01b03163314610a715760405162461bcd60e51b815260206004820181905260248201527f4f776e61626c653a2063616c6c6572206973206e6f7420746865206f776e6572604482015260640161079e565b609780546001600160a01b038381166001600160a01b0319831681179093556040519116919082907f8be0079c531659141344cd1fd0a4f28419497f9722a3daafe3b4186f6b6457e090600090a35050565b6116856119a0565b61012d805460ff191660011790557f62e78cea01bee320cd4e420270b5ea74000d11b0c9f74754ebdbfc544b05a2586114803390565b600054610100900460ff166116e25760405162461bcd60e51b815260040161079e90612319565b6107b182826119e7565b600054610100900460ff16610a715760405162461bcd60e51b815260040161079e90612319565b600054610100900460ff1661173a5760405162461bcd60e51b815260040161079e90612319565b610a71611a27565b600054610100900460ff166117695760405162461bcd60e51b815260040161079e90612319565b610a71611a57565b6107b182826111ea565b6001600160a01b0382166117d15760405162461bcd60e51b815260206004820152601f60248201527f45524332303a206d696e7420746f20746865207a65726f206164647265737300604482015260640161079e565b80603560008282546117e391906122a5565b90915550506001600160a01b0382166000818152603360209081526040808320805486019055518481527fddf252ad1be2c89b69c2b068fc378daa952ba7f163c4a11628f55a4df523b3ef910160405180910390a35050565b6118468282610ab5565b6107b15761185381611a8b565b61185e836020611a9d565b60405160200161186f929190612364565b60408051601f198184030181529082905262461bcd60e51b825261079e91600401611e3d565b6001600160a01b0381163b6119025760405162461bcd60e51b815260206004820152602d60248201527f455243313936373a206e657720696d706c656d656e746174696f6e206973206e60448201526c1bdd08184818dbdb9d1c9858dd609a1b606482015260840161079e565b60008051602061253283398151915280546001600160a01b0319166001600160a01b0392909216919091179055565b61193a83611c40565b6000825111806119475750805b1561072d57610c928383611c80565b61012d5460ff16610a715760405162461bcd60e51b815260206004820152601460248201527314185d5cd8589b194e881b9bdd081c185d5cd95960621b604482015260640161079e565b61012d5460ff1615610a715760405162461bcd60e51b815260206004820152601060248201526f14185d5cd8589b194e881c185d5cd95960821b604482015260640161079e565b600054610100900460ff16611a0e5760405162461bcd60e51b815260040161079e90612319565b6036611a1a8382612427565b50603761072d8282612427565b600054610100900460ff16611a4e5760405162461bcd60e51b815260040161079e90612319565b610a713361162b565b600054610100900460ff16611a7e5760405162461bcd60e51b815260040161079e90612319565b61012d805460ff19169055565b60606106346001600160a01b03831660145b60606000611aac8360026124e7565b611ab79060026122a5565b67ffffffffffffffff811115611acf57611acf611f32565b6040519080825280601f01601f191660200182016040528015611af9576020820181803683370190505b509050600360fc1b81600081518110611b1457611b146122b8565b60200101906001600160f81b031916908160001a905350600f60fb1b81600181518110611b4357611b436122b8565b60200101906001600160f81b031916908160001a9053506000611b678460026124e7565b611b729060016122a5565b90505b6001811115611bea576f181899199a1a9b1b9c1cb0b131b232b360811b85600f1660108110611ba657611ba66122b8565b1a60f81b828281518110611bbc57611bbc6122b8565b60200101906001600160f81b031916908160001a90535060049490941c93611be3816124fe565b9050611b75565b508315611c395760405162461bcd60e51b815260206004820181905260248201527f537472696e67733a20686578206c656e67746820696e73756666696369656e74604482015260640161079e565b9392505050565b611c4981611895565b6040516001600160a01b038216907fbc7cd75a20ee27fd9adebab32041f755214dbc6bffa90cc0225b39da2e5c2d3b90600090a250565b6060611c398383604051806060016040528060278152602001612572602791396060600080856001600160a01b031685604051611cbd9190612515565b600060405180830381855af49150503d8060008114611cf8576040519150601f19603f3d011682016040523d82523d6000602084013e611cfd565b606091505b5091509150611d0e86838387611d18565b9695505050505050565b60608315611d87578251600003611d80576001600160a01b0385163b611d805760405162461bcd60e51b815260206004820152601d60248201527f416464726573733a2063616c6c20746f206e6f6e2d636f6e7472616374000000604482015260640161079e565b5081611d91565b611d918383611d99565b949350505050565b815115611da95781518083602001fd5b8060405162461bcd60e51b815260040161079e9190611e3d565b600060208284031215611dd557600080fd5b81356001600160e01b031981168114611c3957600080fd5b60005b83811015611e08578181015183820152602001611df0565b50506000910152565b60008151808452611e29816020860160208601611ded565b601f01601f19169290920160200192915050565b602081526000611c396020830184611e11565b80356001600160a01b0381168114611e6757600080fd5b919050565b60008060408385031215611e7f57600080fd5b611e8883611e50565b946020939093013593505050565b600080600060608486031215611eab57600080fd5b611eb484611e50565b9250611ec260208501611e50565b9150604084013590509250925092565b600060208284031215611ee457600080fd5b5035919050565b60008060408385031215611efe57600080fd5b82359150611f0e60208401611e50565b90509250929050565b600060208284031215611f2957600080fd5b611c3982611e50565b634e487b7160e01b600052604160045260246000fd5b604051601f8201601f1916810167ffffffffffffffff81118282101715611f7157611f71611f32565b604052919050565b600067ffffffffffffffff831115611f9357611f93611f32565b611fa6601f8401601f1916602001611f48565b9050828152838383011115611fba57600080fd5b828260208301376000602084830101529392505050565b60008060408385031215611fe457600080fd5b611fed83611e50565b9150602083013567ffffffffffffffff81111561200957600080fd5b8301601f8101851361201a57600080fd5b61202985823560208401611f79565b9150509250929050565b600082601f83011261204457600080fd5b611c3983833560208501611f79565b60008060006060848603121561206857600080fd5b833567ffffffffffffffff8082111561208057600080fd5b818601915086601f83011261209457600080fd5b81356020828211156120a8576120a8611f32565b8160051b6120b7828201611f48565b928352848101820192828101908b8511156120d157600080fd5b958301955b848710156120f6576120e787611e50565b825295830195908301906120d6565b985050508701359250508082111561210d57600080fd5b61211987838801612033565b9350604086013591508082111561212f57600080fd5b5061213c86828701612033565b9150509250925092565b60008060006060848603121561215b57600080fd5b61216484611e50565b925060208401359150604084013567ffffffffffffffff81111561218757600080fd5b61213c86828701612033565b600080604083850312156121a657600080fd5b6121af83611e50565b9150611f0e60208401611e50565b600181811c908216806121d157607f821691505b6020821081036121f157634e487b7160e01b600052602260045260246000fd5b50919050565b6020808252602c908201527f46756e6374696f6e206d7573742062652063616c6c6564207468726f7567682060408201526b19195b1959d85d1958d85b1b60a21b606082015260800190565b6020808252602c908201527f46756e6374696f6e206d7573742062652063616c6c6564207468726f7567682060408201526b6163746976652070726f787960a01b606082015260800190565b634e487b7160e01b600052601160045260246000fd5b808201808211156106345761063461228f565b634e487b7160e01b600052603260045260246000fd5b6000600182016122e0576122e061228f565b5060010190565b828152604060208201526000611d916040830184611e11565b60006020828403121561231257600080fd5b5051919050565b6020808252602b908201527f496e697469616c697a61626c653a20636f6e7472616374206973206e6f74206960408201526a6e697469616c697a696e6760a81b606082015260800190565b7f416363657373436f6e74726f6c3a206163636f756e742000000000000000000081526000835161239c816017850160208801611ded565b7001034b99036b4b9b9b4b733903937b6329607d1b60179184019182015283516123cd816028840160208801611ded565b01602801949350505050565b601f82111561072d57600081815260208120601f850160051c810160208610156124005750805b601f850160051c820191505b8181101561241f5782815560010161240c565b505050505050565b815167ffffffffffffffff81111561244157612441611f32565b6124558161244f84546121bd565b846123d9565b602080601f83116001811461248a57600084156124725750858301515b600019600386901b1c1916600185901b17855561241f565b600085815260208120601f198616915b828110156124b95788860151825594840194600190910190840161249a565b50858210156124d75787850151600019600388901b60f8161c191681555b5050505050600190811b01905550565b80820281158282048414176106345761063461228f565b60008161250d5761250d61228f565b506000190190565b60008251612527818460208701611ded565b919091019291505056fe360894a13ba1a3210667c828492db98dca3e2076cc3735a920a3ca505d382bbc65d7a28e3265b37a6474929f336521b332c1681b933f6cb9f3376673440d862a416464726573733a206c6f772d6c6576656c2064656c65676174652063616c6c206661696c65649f2df0fed2c77648de5860a4cc508cd0818c85b8b8a1ab4ceeef8d981c8956a6a264697066735822122093e5da03a693d43be877ab73d214e01e6ca53083a81a29c1342a85e76200978764736f6c63430008140033",
  "linkReferences": {},
  "deployedLinkReferences": {}
}