{"contracts/accounts/callback/TokenCallbackHandler.sol":{"TokenCallbackHandler":{"abi":[{"inputs":[{"internalType":"address","name":"","type":"address"},{"internalType":"address","name":"","type":"address"},{"internalType":"uint256[]","name":"","type":"uint256[]"},{"internalType":"uint256[]","name":"","type":"uint256[]"},{"internalType":"bytes","name":"","type":"bytes"}],"name":"onERC1155BatchReceived","outputs":[{"internalType":"bytes4","name":"","type":"bytes4"}],"stateMutability":"pure","type":"function"},{"inputs":[{"internalType":"address","name":"","type":"address"},{"internalType":"address","name":"","type":"address"},{"internalType":"uint256","name":"","type":"uint256"},{"internalType":"uint256","name":"","type":"uint256"},{"internalType":"bytes","name":"","type":"bytes"}],"name":"onERC1155Received","outputs":[{"internalType":"bytes4","name":"","type":"bytes4"}],"stateMutability":"pure","type":"function"},{"inputs":[{"internalType":"address","name":"","type":"address"},{"internalType":"address","name":"","type":"address"},{"internalType":"uint256","name":"","type":"uint256"},{"internalType":"bytes","name":"","type":"bytes"}],"name":"onERC721Received","outputs":[{"internalType":"bytes4","name":"","type":"bytes4"}],"stateMutability":"pure","type":"function"},{"inputs":[{"internalType":"bytes4","name":"interfaceId","type":"bytes4"}],"name":"supportsInterface","outputs":[{"internalType":"bool","name":"","type":"bool"}],"stateMutability":"view","type":"function"},{"inputs":[{"internalType":"address","name":"","type":"address"},{"internalType":"address","name":"","type":"address"},{"internalType":"address","name":"","type":"address"},{"internalType":"uint256","name":"","type":"uint256"},{"internalType":"bytes","name":"","type":"bytes"},{"internalType":"bytes","name":"","type":"bytes"}],"name":"tokensReceived","outputs":[],"stateMutability":"pure","type":"function"}],"evm":{"bytecode":{"linkReferences":{},"object":"608060405234801561001057600080fd5b506104a6806100206000396000f3fe608060405234801561001057600080fd5b50600436106100565760003560e01c806223de291461005b57806301ffc9a714610075578063150b7a021461009d578063bc197c81146100d5578063f23a6e61146100f7575b600080fd5b6100736100693660046101ce565b5050505050505050565b005b610088610083366004610279565b610117565b60405190151581526020015b60405180910390f35b6100bc6100ab3660046102aa565b630a85bd0160e11b95945050505050565b6040516001600160e01b03199091168152602001610094565b6100bc6100e336600461035e565b63bc197c8160e01b98975050505050505050565b6100bc6101053660046103f8565b63f23a6e6160e01b9695505050505050565b60006001600160e01b03198216630a85bd0160e11b148061014857506001600160e01b03198216630271189760e51b145b8061016357506001600160e01b031982166301ffc9a760e01b145b92915050565b80356001600160a01b038116811461018057600080fd5b919050565b60008083601f84011261019757600080fd5b50813567ffffffffffffffff8111156101af57600080fd5b6020830191508360208285010111156101c757600080fd5b9250929050565b60008060008060008060008060c0898b0312156101ea57600080fd5b6101f389610169565b975061020160208a01610169565b965061020f60408a01610169565b955060608901359450608089013567ffffffffffffffff8082111561023357600080fd5b61023f8c838d01610185565b909650945060a08b013591508082111561025857600080fd5b506102658b828c01610185565b999c989b5096995094979396929594505050565b60006020828403121561028b57600080fd5b81356001600160e01b0319811681146102a357600080fd5b9392505050565b6000806000806000608086880312156102c257600080fd5b6102cb86610169565b94506102d960208701610169565b935060408601359250606086013567ffffffffffffffff8111156102fc57600080fd5b61030888828901610185565b969995985093965092949392505050565b60008083601f84011261032b57600080fd5b50813567ffffffffffffffff81111561034357600080fd5b6020830191508360208260051b85010111156101c757600080fd5b60008060008060008060008060a0898b03121561037a57600080fd5b61038389610169565b975061039160208a01610169565b9650604089013567ffffffffffffffff808211156103ae57600080fd5b6103ba8c838d01610319565b909850965060608b01359150808211156103d357600080fd5b6103df8c838d01610319565b909650945060808b013591508082111561025857600080fd5b60008060008060008060a0878903121561041157600080fd5b61041a87610169565b955061042860208801610169565b94506040870135935060608701359250608087013567ffffffffffffffff81111561045257600080fd5b61045e89828a01610185565b979a969950949750929593949250505056fea26469706673582212205a5ee6b2c6888472608beb89925020b3335d3709e1af3a523d8e8d6594f27d5964736f6c63430008140033","opcodes":"PUSH1 0x80 PUSH1 0x40 MSTORE CALLVALUE DUP1 ISZERO PUSH2 0x10 JUMPI PUSH1 0x0 DUP1 REVERT JUMPDEST POP PUSH2 0x4A6 DUP1 PUSH2 0x20 PUSH1 0x0 CODECOPY PUSH1 0x0 RETURN INVALID PUSH1 0x80 PUSH1 0x40 MSTORE CALLVALUE DUP1 ISZERO PUSH2 0x10 JUMPI PUSH1 0x0 DUP1 REVERT JUMPDEST POP PUSH1 0x4 CALLDATASIZE LT PUSH2 0x56 JUMPI PUSH1 0x0 CALLDATALOAD PUSH1 0xE0 SHR DUP1 PUSH3 0x23DE29 EQ PUSH2 0x5B JUMPI DUP1 PUSH4 0x1FFC9A7 EQ PUSH2 0x75 JUMPI DUP1 PUSH4 0x150B7A02 EQ PUSH2 0x9D JUMPI DUP1 PUSH4 0xBC197C81 EQ PUSH2 0xD5 JUMPI DUP1 PUSH4 0xF23A6E61 EQ PUSH2 0xF7 JUMPI JUMPDEST PUSH1 0x0 DUP1 REVERT JUMPDEST PUSH2 0x73 PUSH2 0x69 CALLDATASIZE PUSH1 0x4 PUSH2 0x1CE JUMP JUMPDEST POP POP POP POP POP POP POP POP JUMP JUMPDEST STOP JUMPDEST PUSH2 0x88 PUSH2 0x83 CALLDATASIZE PUSH1 0x4 PUSH2 0x279 JUMP JUMPDEST PUSH2 0x117 JUMP JUMPDEST PUSH1 0x40 MLOAD SWAP1 ISZERO ISZERO DUP2 MSTORE PUSH1 0x20 ADD JUMPDEST PUSH1 0x40 MLOAD DUP1 SWAP2 SUB SWAP1 RETURN JUMPDEST PUSH2 0xBC PUSH2 0xAB CALLDATASIZE PUSH1 0x4 PUSH2 0x2AA JUMP JUMPDEST PUSH4 0xA85BD01 PUSH1 0xE1 SHL SWAP6 SWAP5 POP POP POP POP POP JUMP JUMPDEST PUSH1 0x40 MLOAD PUSH1 0x1 PUSH1 0x1 PUSH1 0xE0 SHL SUB NOT SWAP1 SWAP2 AND DUP2 MSTORE PUSH1 0x20 ADD PUSH2 0x94 JUMP JUMPDEST PUSH2 0xBC PUSH2 0xE3 CALLDATASIZE PUSH1 0x4 PUSH2 0x35E JUMP JUMPDEST PUSH4 0xBC197C81 PUSH1 0xE0 SHL SWAP9 SWAP8 POP POP POP POP POP POP POP POP JUMP JUMPDEST PUSH2 0xBC PUSH2 0x105 CALLDATASIZE PUSH1 0x4 PUSH2 0x3F8 JUMP JUMPDEST PUSH4 0xF23A6E61 PUSH1 0xE0 SHL SWAP7 SWAP6 POP POP POP POP POP POP JUMP JUMPDEST PUSH1 0x0 PUSH1 0x1 PUSH1 0x1 PUSH1 0xE0 SHL SUB NOT DUP3 AND PUSH4 0xA85BD01 PUSH1 0xE1 SHL EQ DUP1 PUSH2 0x148 JUMPI POP PUSH1 0x1 PUSH1 0x1 PUSH1 0xE0 SHL SUB NOT DUP3 AND PUSH4 0x2711897 PUSH1 0xE5 SHL EQ JUMPDEST DUP1 PUSH2 0x163 JUMPI POP PUSH1 0x1 PUSH1 0x1 PUSH1 0xE0 SHL SUB NOT DUP3 AND PUSH4 0x1FFC9A7 PUSH1 0xE0 SHL EQ JUMPDEST SWAP3 SWAP2 POP POP JUMP JUMPDEST DUP1 CALLDATALOAD PUSH1 0x1 PUSH1 0x1 PUSH1 0xA0 SHL SUB DUP2 AND DUP2 EQ PUSH2 0x180 JUMPI PUSH1 0x0 DUP1 REVERT JUMPDEST SWAP2 SWAP1 POP JUMP JUMPDEST PUSH1 0x0 DUP1 DUP4 PUSH1 0x1F DUP5 ADD SLT PUSH2 0x197 JUMPI PUSH1 0x0 DUP1 REVERT JUMPDEST POP DUP2 CALLDATALOAD PUSH8 0xFFFFFFFFFFFFFFFF DUP2 GT ISZERO PUSH2 0x1AF JUMPI PUSH1 0x0 DUP1 REVERT JUMPDEST PUSH1 0x20 DUP4 ADD SWAP2 POP DUP4 PUSH1 0x20 DUP3 DUP6 ADD ADD GT ISZERO PUSH2 0x1C7 JUMPI PUSH1 0x0 DUP1 REVERT JUMPDEST SWAP3 POP SWAP3 SWAP1 POP JUMP JUMPDEST PUSH1 0x0 DUP1 PUSH1 0x0 DUP1 PUSH1 0x0 DUP1 PUSH1 0x0 DUP1 PUSH1 0xC0 DUP10 DUP12 SUB SLT ISZERO PUSH2 0x1EA JUMPI PUSH1 0x0 DUP1 REVERT JUMPDEST PUSH2 0x1F3 DUP10 PUSH2 0x169 JUMP JUMPDEST SWAP8 POP PUSH2 0x201 PUSH1 0x20 DUP11 ADD PUSH2 0x169 JUMP JUMPDEST SWAP7 POP PUSH2 0x20F PUSH1 0x40 DUP11 ADD PUSH2 0x169 JUMP JUMPDEST SWAP6 POP PUSH1 0x60 DUP10 ADD CALLDATALOAD SWAP5 POP PUSH1 0x80 DUP10 ADD CALLDATALOAD PUSH8 0xFFFFFFFFFFFFFFFF DUP1 DUP3 GT ISZERO PUSH2 0x233 JUMPI PUSH1 0x0 DUP1 REVERT JUMPDEST PUSH2 0x23F DUP13 DUP4 DUP14 ADD PUSH2 0x185 JUMP JUMPDEST SWAP1 SWAP7 POP SWAP5 POP PUSH1 0xA0 DUP12 ADD CALLDATALOAD SWAP2 POP DUP1 DUP3 GT ISZERO PUSH2 0x258 JUMPI PUSH1 0x0 DUP1 REVERT JUMPDEST POP PUSH2 0x265 DUP12 DUP3 DUP13 ADD PUSH2 0x185 JUMP JUMPDEST SWAP10 SWAP13 SWAP9 SWAP12 POP SWAP7 SWAP10 POP SWAP5 SWAP8 SWAP4 SWAP7 SWAP3 SWAP6 SWAP5 POP POP POP JUMP JUMPDEST PUSH1 0x0 PUSH1 0x20 DUP3 DUP5 SUB SLT ISZERO PUSH2 0x28B JUMPI PUSH1 0x0 DUP1 REVERT JUMPDEST DUP2 CALLDATALOAD PUSH1 0x1 PUSH1 0x1 PUSH1 0xE0 SHL SUB NOT DUP2 AND DUP2 EQ PUSH2 0x2A3 JUMPI PUSH1 0x0 DUP1 REVERT JUMPDEST SWAP4 SWAP3 POP POP POP JUMP JUMPDEST PUSH1 0x0 DUP1 PUSH1 0x0 DUP1 PUSH1 0x0 PUSH1 0x80 DUP7 DUP9 SUB SLT ISZERO PUSH2 0x2C2 JUMPI PUSH1 0x0 DUP1 REVERT JUMPDEST PUSH2 0x2CB DUP7 PUSH2 0x169 JUMP JUMPDEST SWAP5 POP PUSH2 0x2D9 PUSH1 0x20 DUP8 ADD PUSH2 0x169 JUMP JUMPDEST SWAP4 POP PUSH1 0x40 DUP7 ADD CALLDATALOAD SWAP3 POP PUSH1 0x60 DUP7 ADD CALLDATALOAD PUSH8 0xFFFFFFFFFFFFFFFF DUP2 GT ISZERO PUSH2 0x2FC JUMPI PUSH1 0x0 DUP1 REVERT JUMPDEST PUSH2 0x308 DUP9 DUP3 DUP10 ADD PUSH2 0x185 JUMP JUMPDEST SWAP7 SWAP10 SWAP6 SWAP9 POP SWAP4 SWAP7 POP SWAP3 SWAP5 SWAP4 SWAP3 POP POP POP JUMP JUMPDEST PUSH1 0x0 DUP1 DUP4 PUSH1 0x1F DUP5 ADD SLT PUSH2 0x32B JUMPI PUSH1 0x0 DUP1 REVERT JUMPDEST POP DUP2 CALLDATALOAD PUSH8 0xFFFFFFFFFFFFFFFF DUP2 GT ISZERO PUSH2 0x343 JUMPI PUSH1 0x0 DUP1 REVERT JUMPDEST PUSH1 0x20 DUP4 ADD SWAP2 POP DUP4 PUSH1 0x20 DUP3 PUSH1 0x5 SHL DUP6 ADD ADD GT ISZERO PUSH2 0x1C7 JUMPI PUSH1 0x0 DUP1 REVERT JUMPDEST PUSH1 0x0 DUP1 PUSH1 0x0 DUP1 PUSH1 0x0 DUP1 PUSH1 0x0 DUP1 PUSH1 0xA0 DUP10 DUP12 SUB SLT ISZERO PUSH2 0x37A JUMPI PUSH1 0x0 DUP1 REVERT JUMPDEST PUSH2 0x383 DUP10 PUSH2 0x169 JUMP JUMPDEST SWAP8 POP PUSH2 0x391 PUSH1 0x20 DUP11 ADD PUSH2 0x169 JUMP JUMPDEST SWAP7 POP PUSH1 0x40 DUP10 ADD CALLDATALOAD PUSH8 0xFFFFFFFFFFFFFFFF DUP1 DUP3 GT ISZERO PUSH2 0x3AE JUMPI PUSH1 0x0 DUP1 REVERT JUMPDEST PUSH2 0x3BA DUP13 DUP4 DUP14 ADD PUSH2 0x319 JUMP JUMPDEST SWAP1 SWAP9 POP SWAP7 POP PUSH1 0x60 DUP12 ADD CALLDATALOAD SWAP2 POP DUP1 DUP3 GT ISZERO PUSH2 0x3D3 JUMPI PUSH1 0x0 DUP1 REVERT JUMPDEST PUSH2 0x3DF DUP13 DUP4 DUP14 ADD PUSH2 0x319 JUMP JUMPDEST SWAP1 SWAP7 POP SWAP5 POP PUSH1 0x80 DUP12 ADD CALLDATALOAD SWAP2 POP DUP1 DUP3 GT ISZERO PUSH2 0x258 JUMPI PUSH1 0x0 DUP1 REVERT JUMPDEST PUSH1 0x0 DUP1 PUSH1 0x0 DUP1 PUSH1 0x0 DUP1 PUSH1 0xA0 DUP8 DUP10 SUB SLT ISZERO PUSH2 0x411 JUMPI PUSH1 0x0 DUP1 REVERT JUMPDEST PUSH2 0x41A DUP8 PUSH2 0x169 JUMP JUMPDEST SWAP6 POP PUSH2 0x428 PUSH1 0x20 DUP9 ADD PUSH2 0x169 JUMP JUMPDEST SWAP5 POP PUSH1 0x40 DUP8 ADD CALLDATALOAD SWAP4 POP PUSH1 0x60 DUP8 ADD CALLDATALOAD SWAP3 POP PUSH1 0x80 DUP8 ADD CALLDATALOAD PUSH8 0xFFFFFFFFFFFFFFFF DUP2 GT ISZERO PUSH2 0x452 JUMPI PUSH1 0x0 DUP1 REVERT JUMPDEST PUSH2 0x45E DUP10 DUP3 DUP11 ADD PUSH2 0x185 JUMP JUMPDEST SWAP8 SWAP11 SWAP7 SWAP10 POP SWAP5 SWAP8 POP SWAP3 SWAP6 SWAP4 SWAP5 SWAP3 POP POP POP JUMP INVALID LOG2 PUSH5 0x6970667358 0x22 SLT KECCAK256 GAS 0x5E 0xE6 0xB2 0xC6 DUP9 DUP5 PUSH19 0x608BEB89925020B3335D3709E1AF3A523D8E8D PUSH6 0x94F27D596473 PUSH16 0x6C634300081400330000000000000000 "},"methodIdentifiers":{"onERC1155BatchReceived(address,address,uint256[],uint256[],bytes)":"bc197c81","onERC1155Received(address,address,uint256,uint256,bytes)":"f23a6e61","onERC721Received(address,address,uint256,bytes)":"150b7a02","supportsInterface(bytes4)":"01ffc9a7","tokensReceived(address,address,address,uint256,bytes,bytes)":"0023de29"}},"storageLayout":{"storage":[],"types":null}}}}