{
  "_format": "hh-sol-artifact-1",
  "contractName": "ERC1155",
  "sourceName": "@openzeppelin/contracts/token/ERC1155/ERC1155.sol",
  "abi": [
    {
      "inputs": [
        {
          "internalType": "string",
          "name": "uri_",
          "type": "string"
        }
      ],
      "stateMutability": "nonpayable",
      "type": "constructor"
    },
    {
      "anonymous": false,
      "inputs": [
        {
          "indexed": true,
          "internalType": "address",
          "name": "account",
          "type": "address"
        },
        {
          "indexed": true,
          "internalType": "address",
          "name": "operator",
          "type": "address"
        },
        {
          "indexed": false,
          "internalType": "bool",
          "name": "approved",
          "type": "bool"
        }
      ],
      "name": "ApprovalForAll",
      "type": "event"
    },
    {
      "anonymous": false,
      "inputs": [
        {
          "indexed": true,
          "internalType": "address",
          "name": "operator",
          "type": "address"
        },
        {
          "indexed": true,
          "internalType": "address",
          "name": "from",
          "type": "address"
        },
        {
          "indexed": true,
          "internalType": "address",
          "name": "to",
          "type": "address"
        },
        {
          "indexed": false,
          "internalType": "uint256[]",
          "name": "ids",
          "type": "uint256[]"
        },
        {
          "indexed": false,
          "internalType": "uint256[]",
          "name": "values",
          "type": "uint256[]"
        }
      ],
      "name": "TransferBatch",
      "type": "event"
    },
    {
      "anonymous": false,
      "inputs": [
        {
          "indexed": true,
          "internalType": "address",
          "name": "operator",
          "type": "address"
        },
        {
          "indexed": true,
          "internalType": "address",
          "name": "from",
          "type": "address"
        },
        {
          "indexed": true,
          "internalType": "address",
          "name": "to",
          "type": "address"
        },
        {
          "indexed": false,
          "internalType": "uint256",
          "name": "id",
          "type": "uint256"
        },
        {
          "indexed": false,
          "internalType": "uint256",
          "name": "value",
          "type": "uint256"
        }
      ],
      "name": "TransferSingle",
      "type": "event"
    },
    {
      "anonymous": false,
      "inputs": [
        {
          "indexed": false,
          "internalType": "string",
          "name": "value",
          "type": "string"
        },
        {
          "indexed": true,
          "internalType": "uint256",
          "name": "id",
          "type": "uint256"
        }
      ],
      "name": "URI",
      "type": "event"
    },
    {
      "inputs": [
        {
          "internalType": "address",
          "name": "account",
          "type": "address"
        },
        {
          "internalType": "uint256",
          "name": "id",
          "type": "uint256"
        }
      ],
      "name": "balanceOf",
      "outputs": [
        {
          "internalType": "uint256",
          "name": "",
          "type": "uint256"
        }
      ],
      "stateMutability": "view",
      "type": "function"
    },
    {
      "inputs": [
        {
          "internalType": "address[]",
          "name": "accounts",
          "type": "address[]"
        },
        {
          "internalType": "uint256[]",
          "name": "ids",
          "type": "uint256[]"
        }
      ],
      "name": "balanceOfBatch",
      "outputs": [
        {
          "internalType": "uint256[]",
          "name": "",
          "type": "uint256[]"
        }
      ],
      "stateMutability": "view",
      "type": "function"
    },
    {
      "inputs": [
        {
          "internalType": "address",
          "name": "account",
          "type": "address"
        },
        {
          "internalType": "address",
          "name": "operator",
          "type": "address"
        }
      ],
      "name": "isApprovedForAll",
      "outputs": [
        {
          "internalType": "bool",
          "name": "",
          "type": "bool"
        }
      ],
      "stateMutability": "view",
      "type": "function"
    },
    {
      "inputs": [
        {
          "internalType": "address",
          "name": "from",
          "type": "address"
        },
        {
          "internalType": "address",
          "name": "to",
          "type": "address"
        },
        {
          "internalType": "uint256[]",
          "name": "ids",
          "type": "uint256[]"
        },
        {
          "internalType": "uint256[]",
          "name": "amounts",
          "type": "uint256[]"
        },
        {
          "internalType": "bytes",
          "name": "data",
          "type": "bytes"
        }
      ],
      "name": "safeBatchTransferFrom",
      "outputs": [],
      "stateMutability": "nonpayable",
      "type": "function"
    },
    {
      "inputs": [
        {
          "internalType": "address",
          "name": "from",
          "type": "address"
        },
        {
          "internalType": "address",
          "name": "to",
          "type": "address"
        },
        {
          "internalType": "uint256",
          "name": "id",
          "type": "uint256"
        },
        {
          "internalType": "uint256",
          "name": "amount",
          "type": "uint256"
        },
        {
          "internalType": "bytes",
          "name": "data",
          "type": "bytes"
        }
      ],
      "name": "safeTransferFrom",
      "outputs": [],
      "stateMutability": "nonpayable",
      "type": "function"
    },
    {
      "inputs": [
        {
          "internalType": "address",
          "name": "operator",
          "type": "address"
        },
        {
          "internalType": "bool",
          "name": "approved",
          "type": "bool"
        }
      ],
      "name": "setApprovalForAll",
      "outputs": [],
      "stateMutability": "nonpayable",
      "type": "function"
    },
    {
      "inputs": [
        {
          "internalType": "bytes4",
          "name": "interfaceId",
          "type": "bytes4"
        }
      ],
      "name": "supportsInterface",
      "outputs": [
        {
          "internalType": "bool",
          "name": "",
          "type": "bool"
        }
      ],
      "stateMutability": "view",
      "type": "function"
    },
    {
      "inputs": [
        {
          "internalType": "uint256",
          "name": "",
          "type": "uint256"
        }
      ],
      "name": "uri",
      "outputs": [
        {
          "internalType": "string",
          "name": "",
          "type": "string"
        }
      ],
      "stateMutability": "view",
      "type": "function"
    }
  ],
  "bytecode": "0x608060405234620002175762001226803803806200001d816200021c565b92833981019060208082840312620002175781516001600160401b039283821162000217570192601f9080828601121562000217578451848111620001ec57601f199562000071828501881686016200021c565b928284528583830101116200021757849060005b83811062000202575050600091830101528051938411620001ec57600254926001938481811c91168015620001e1575b82821014620001cb578381116200017f575b50809285116001146200011457508394509083929160009462000108575b50501b916000199060031b1c1916176002555b604051610fe39081620002438239f35b015192503880620000e5565b929484908116600260005284600020946000905b888383106200016457505050106200014a575b505050811b01600255620000f8565b015160001960f88460031b161c191690553880806200013b565b85870151885590960195948501948793509081019062000128565b6002600052816000208480880160051c820192848910620001c1575b0160051c019085905b828110620001b4575050620000c7565b60008155018590620001a4565b925081926200019b565b634e487b7160e01b600052602260045260246000fd5b90607f1690620000b5565b634e487b7160e01b600052604160045260246000fd5b81810183015185820184015286920162000085565b600080fd5b6040519190601f01601f191682016001600160401b03811183821017620001ec5760405256fe6040608081526004908136101561001557600080fd5b600091823560e01c8062fdd58e14610a9b57806301ffc9a714610a2e5780630e89341c146109165780632eb2c2d6146105f85780634e1273f414610457578063a22cb46514610376578063e985e9c5146103245763f242432a1461007857600080fd5b346103205760a036600319011261032057610091610acb565b9161009a610ae6565b92604435906064359060843567ffffffffffffffff811161031c576100c29036908701610bea565b926001600160a01b039182169133831480156102fd575b6100e290610d49565b8716916100f0831515610dac565b6100f982610f77565b5061010384610f77565b50818952602097898952868a20828b52895284878b205461012682821015610e06565b848c528b8b52888c20848d528b5203878b2055828a52898952868a20848b528952868a20610155868254610e65565b905583828851858152878c8201527fc3d58168c5ae7397731d063d5bbf3d657854427343f4c083240f7aacaa2d0f628a3392a43b610191578880f35b918697989596949391868a946101da8a519788968795869463f23a6e6160e01b9c8d8752339087015260248601526044850152606484015260a0608484015260a4830190610afc565b03925af18391816102ce575b5061024f575050506101f6610e92565b6308c379a01461021e575b5162461bcd60e51b81529150819061021a908201610f22565b0390fd5b610226610eb0565b806102315750610201565b61021a915193849362461bcd60e51b85528401526024830190610afc565b9194506001600160e01b03199091160361027157505038808080808080808880f35b5162461bcd60e51b81529150819061021a90820160809060208152602860208201527f455243313135353a204552433131353552656365697665722072656a656374656040820152676420746f6b656e7360c01b60608201520190565b6102ef919250873d89116102f6575b6102e78183610b3c565b810190610e72565b90386101e6565b503d6102dd565b5082895260016020908152868a20338b5290528589205460ff166100d9565b8780fd5b8280fd5b50503461037257806003193601126103725760ff81602093610344610acb565b61034c610ae6565b6001600160a01b0391821683526001875283832091168252855220549151911615158152f35b5080fd5b509034610320578060031936011261032057610390610acb565b9060243591821515809303610453576001600160a01b0316923384146103ff5750338452600160205280842083855260205280842060ff1981541660ff8416179055519081527f17307eab39ab6107e8899845ad3d59bd9653f200f220920489ca2b5937696c3160203392a380f35b6020608492519162461bcd60e51b8352820152602960248201527f455243313135353a2073657474696e6720617070726f76616c20737461747573604482015268103337b91039b2b63360b91b6064820152fd5b8480fd5b5034610320578160031936011261032057803567ffffffffffffffff808211610453573660238301121561045357818301359061049382610b74565b926104a086519485610b3c565b82845260209260248486019160051b830101913683116105f457602401905b8282106105d1575050506024359081116105cd576104e09036908501610b8c565b92825184510361057a57508151946104f786610b74565b9561050486519788610b3c565b808752610513601f1991610b74565b0136838801375b82518110156105645761055f9061054f6001600160a01b0361053c8387610d1f565b51166105488388610d1f565b5190610c75565b6105598289610d1f565b52610cfa565b61051a565b84518281528061057681850189610c41565b0390f35b60849185519162461bcd60e51b8352820152602960248201527f455243313135353a206163636f756e747320616e6420696473206c656e677468604482015268040dad2e6dac2e8c6d60bb1b6064820152fd5b8580fd5b81356001600160a01b03811681036105f05781529084019084016104bf565b8980fd5b8880fd5b508234610913576003199260a03685011261037257610615610acb565b9161061e610ae6565b9467ffffffffffffffff9360443585811161090f576106409036908801610b8c565b606435868111610453576106579036908901610b8c565b956084359081116104535761066f9036908901610bea565b966001600160a01b039283169233841480156108f0575b61068f90610d49565b825188510361089c578916936106a6851515610dac565b855b835181101561072a57806106bf6107259286610d1f565b516106ca828c610d1f565b5190808a526020908a82528b8b20898c528252828c8c8b82822054926106f285851015610e06565b858352828752822091528452038c8c20558a528981528a8a2090898b525261071e8a8a20918254610e65565b9055610cfa565b6106a8565b50949897909692959784878a518b81527f4a39dc06d4c0dbc64b70af90fd698a233a518aa5d07e595d983b8c0526c8f7fb6107678d830188610c41565b9180830360208201528061077c33948b610c41565b0390a43b610788578880f35b8798969751948593849363bc197c8160e01b98898652338c87015260248601526044850160a0905260a485016107bd91610c41565b828582030160648601526107d091610c41565b908382030160848401526107e391610afc565b0381865a94602095f183918161087c575b5061085c57505050610804610e92565b6308c379a014610828575b905162461bcd60e51b815290819061021a908201610f22565b610830610eb0565b8061083b575061080f565b61021a906020935193849362461bcd60e51b85528401526024830190610afc565b9193916001600160e01b0319160361027157505081808080808080808880f35b61089591925060203d81116102f6576102e78183610b3c565b90866107f4565b865162461bcd60e51b8152602081840152602860248201527f455243313135353a2069647320616e6420616d6f756e7473206c656e677468206044820152670dad2e6dac2e8c6d60c31b6064820152608490fd5b508386526001602090815287872033885290528686205460ff16610686565b8380fd5b80fd5b50919034610372576020908160031936011261032057805192806002549060019082821c928281168015610a24575b8785108114610a11578899509688969785829a5291826000146109ea57505060011461098e575b505050610576929161097f910385610b3c565b51928284938452830190610afc565b9190869350600283527f405787fa12a823e0f2b7631cc41b3ba8828b3321ca811111fa75cd3aa3bb5ace5b8284106109d2575050508201018161097f61057661096c565b8054848a0186015288955087949093019281016109b9565b60ff19168782015293151560051b8601909301935084925061097f9150610576905061096c565b634e487b7160e01b835260228a52602483fd5b93607f1693610945565b503461032057602036600319011261032057359063ffffffff60e01b82168092036103205760209250636cdb3d1360e11b8214918215610a8a575b8215610a79575b50519015158152f35b6301ffc9a760e01b14915038610a70565b6303a24d0760e21b81149250610a69565b505034610372578060031936011261037257602090610ac4610abb610acb565b60243590610c75565b9051908152f35b600435906001600160a01b0382168203610ae157565b600080fd5b602435906001600160a01b0382168203610ae157565b919082519283825260005b848110610b28575050826000602080949584010152601f8019910116010190565b602081830181015184830182015201610b07565b90601f8019910116810190811067ffffffffffffffff821117610b5e57604052565b634e487b7160e01b600052604160045260246000fd5b67ffffffffffffffff8111610b5e5760051b60200190565b81601f82011215610ae157803591610ba383610b74565b92610bb16040519485610b3c565b808452602092838086019260051b820101928311610ae1578301905b828210610bdb575050505090565b81358152908301908301610bcd565b81601f82011215610ae15780359067ffffffffffffffff8211610b5e5760405192610c1f601f8401601f191660200185610b3c565b82845260208383010111610ae157816000926020809301838601378301015290565b90815180825260208080930193019160005b828110610c61575050505090565b835185529381019392810192600101610c53565b6001600160a01b0316908115610ca257600052600060205260406000209060005260205260406000205490565b60405162461bcd60e51b815260206004820152602a60248201527f455243313135353a2061646472657373207a65726f206973206e6f742061207660448201526930b634b21037bbb732b960b11b6064820152608490fd5b6000198114610d095760010190565b634e487b7160e01b600052601160045260246000fd5b8051821015610d335760209160051b010190565b634e487b7160e01b600052603260045260246000fd5b15610d5057565b60405162461bcd60e51b815260206004820152602e60248201527f455243313135353a2063616c6c6572206973206e6f7420746f6b656e206f776e60448201526d195c881bdc88185c1c1c9bdd995960921b6064820152608490fd5b15610db357565b60405162461bcd60e51b815260206004820152602560248201527f455243313135353a207472616e7366657220746f20746865207a65726f206164604482015264647265737360d81b6064820152608490fd5b15610e0d57565b60405162461bcd60e51b815260206004820152602a60248201527f455243313135353a20696e73756666696369656e742062616c616e636520666f60448201526939103a3930b739b332b960b11b6064820152608490fd5b91908201809211610d0957565b90816020910312610ae157516001600160e01b031981168103610ae15790565b60009060033d11610e9f57565b905060046000803e60005160e01c90565b600060443d10610f0e57604051600319913d83016004833e815167ffffffffffffffff918282113d602484011117610f1157818401948551938411610f19573d85010160208487010111610f115750610f0e92910160200190610b3c565b90565b949350505050565b50949350505050565b60809060208152603460208201527f455243313135353a207472616e7366657220746f206e6f6e2d455243313135356040820152732932b1b2b4bb32b91034b6b83632b6b2b73a32b960611b60608201520190565b604051906040820182811067ffffffffffffffff821117610b5e5760405260018252602082016020368237825115610d3357529056fea264697066735822122031234a4f897b6f2bcf39fdfaecd4e6fbd67453dfc7b731bbf8e9ef56dcc6253264736f6c63430008140033",
  "linkReferences": {},
  "deployedLinkReferences": {}
}