{
  "_format": "hh-sol-artifact-1",
  "contractName": "RedeemCodeFaucet",
  "sourceName": "contracts/apps/RedeemCodeFaucet.sol",
  "abi": [
    {
      "anonymous": false,
      "inputs": [
        {
          "indexed": false,
          "internalType": "address",
          "name": "previousAdmin",
          "type": "address"
        },
        {
          "indexed": false,
          "internalType": "address",
          "name": "newAdmin",
          "type": "address"
        }
      ],
      "name": "AdminChanged",
      "type": "event"
    },
    {
      "anonymous": false,
      "inputs": [
        {
          "indexed": true,
          "internalType": "address",
          "name": "beacon",
          "type": "address"
        }
      ],
      "name": "BeaconUpgraded",
      "type": "event"
    },
    {
      "anonymous": false,
      "inputs": [
        {
          "indexed": true,
          "internalType": "address",
          "name": "receiver",
          "type": "address"
        },
        {
          "indexed": false,
          "internalType": "uint256",
          "name": "amount",
          "type": "uint256"
        }
      ],
      "name": "CodeRedeemed",
      "type": "event"
    },
    {
      "anonymous": false,
      "inputs": [
        {
          "indexed": false,
          "internalType": "uint8",
          "name": "version",
          "type": "uint8"
        }
      ],
      "name": "Initialized",
      "type": "event"
    },
    {
      "anonymous": false,
      "inputs": [
        {
          "indexed": true,
          "internalType": "address",
          "name": "previousOwner",
          "type": "address"
        },
        {
          "indexed": true,
          "internalType": "address",
          "name": "newOwner",
          "type": "address"
        }
      ],
      "name": "OwnershipTransferred",
      "type": "event"
    },
    {
      "anonymous": false,
      "inputs": [
        {
          "indexed": true,
          "internalType": "bytes32",
          "name": "role",
          "type": "bytes32"
        },
        {
          "indexed": true,
          "internalType": "bytes32",
          "name": "previousAdminRole",
          "type": "bytes32"
        },
        {
          "indexed": true,
          "internalType": "bytes32",
          "name": "newAdminRole",
          "type": "bytes32"
        }
      ],
      "name": "RoleAdminChanged",
      "type": "event"
    },
    {
      "anonymous": false,
      "inputs": [
        {
          "indexed": true,
          "internalType": "bytes32",
          "name": "role",
          "type": "bytes32"
        },
        {
          "indexed": true,
          "internalType": "address",
          "name": "account",
          "type": "address"
        },
        {
          "indexed": true,
          "internalType": "address",
          "name": "sender",
          "type": "address"
        }
      ],
      "name": "RoleGranted",
      "type": "event"
    },
    {
      "anonymous": false,
      "inputs": [
        {
          "indexed": true,
          "internalType": "bytes32",
          "name": "role",
          "type": "bytes32"
        },
        {
          "indexed": true,
          "internalType": "address",
          "name": "account",
          "type": "address"
        },
        {
          "indexed": true,
          "internalType": "address",
          "name": "sender",
          "type": "address"
        }
      ],
      "name": "RoleRevoked",
      "type": "event"
    },
    {
      "anonymous": false,
      "inputs": [
        {
          "indexed": true,
          "internalType": "address",
          "name": "implementation",
          "type": "address"
        }
      ],
      "name": "Upgraded",
      "type": "event"
    },
    {
      "inputs": [],
      "name": "DEFAULT_ADMIN_ROLE",
      "outputs": [
        {
          "internalType": "bytes32",
          "name": "",
          "type": "bytes32"
        }
      ],
      "stateMutability": "view",
      "type": "function"
    },
    {
      "inputs": [],
      "name": "REDEEM_CODE_CREATOR_ROLE",
      "outputs": [
        {
          "internalType": "bytes32",
          "name": "",
          "type": "bytes32"
        }
      ],
      "stateMutability": "view",
      "type": "function"
    },
    {
      "inputs": [
        {
          "internalType": "bytes32",
          "name": "codeHash",
          "type": "bytes32"
        },
        {
          "internalType": "uint256",
          "name": "redeemableAmount",
          "type": "uint256"
        },
        {
          "internalType": "uint48",
          "name": "validUntil",
          "type": "uint48"
        }
      ],
      "name": "addRedeemCode",
      "outputs": [],
      "stateMutability": "nonpayable",
      "type": "function"
    },
    {
      "inputs": [],
      "name": "callInterval",
      "outputs": [
        {
          "internalType": "uint48",
          "name": "",
          "type": "uint48"
        }
      ],
      "stateMutability": "view",
      "type": "function"
    },
    {
      "inputs": [],
      "name": "codeCreator",
      "outputs": [
        {
          "internalType": "address",
          "name": "",
          "type": "address"
        }
      ],
      "stateMutability": "view",
      "type": "function"
    },
    {
      "inputs": [
        {
          "internalType": "address",
          "name": "_codeCreator",
          "type": "address"
        },
        {
          "internalType": "uint256",
          "name": "code",
          "type": "uint256"
        }
      ],
      "name": "getHash",
      "outputs": [
        {
          "internalType": "bytes32",
          "name": "",
          "type": "bytes32"
        }
      ],
      "stateMutability": "view",
      "type": "function"
    },
    {
      "inputs": [
        {
          "internalType": "bytes32",
          "name": "role",
          "type": "bytes32"
        }
      ],
      "name": "getRoleAdmin",
      "outputs": [
        {
          "internalType": "bytes32",
          "name": "",
          "type": "bytes32"
        }
      ],
      "stateMutability": "view",
      "type": "function"
    },
    {
      "inputs": [
        {
          "internalType": "bytes32",
          "name": "role",
          "type": "bytes32"
        },
        {
          "internalType": "address",
          "name": "account",
          "type": "address"
        }
      ],
      "name": "grantRole",
      "outputs": [],
      "stateMutability": "nonpayable",
      "type": "function"
    },
    {
      "inputs": [
        {
          "internalType": "bytes32",
          "name": "role",
          "type": "bytes32"
        },
        {
          "internalType": "address",
          "name": "account",
          "type": "address"
        }
      ],
      "name": "hasRole",
      "outputs": [
        {
          "internalType": "bool",
          "name": "",
          "type": "bool"
        }
      ],
      "stateMutability": "view",
      "type": "function"
    },
    {
      "inputs": [
        {
          "internalType": "address",
          "name": "owner",
          "type": "address"
        },
        {
          "internalType": "contract IERC20Upgradeable",
          "name": "_token",
          "type": "address"
        },
        {
          "internalType": "uint48",
          "name": "_callInterval",
          "type": "uint48"
        },
        {
          "internalType": "address",
          "name": "_codeCreator",
          "type": "address"
        }
      ],
      "name": "initialize",
      "outputs": [],
      "stateMutability": "nonpayable",
      "type": "function"
    },
    {
      "inputs": [],
      "name": "owner",
      "outputs": [
        {
          "internalType": "address",
          "name": "",
          "type": "address"
        }
      ],
      "stateMutability": "view",
      "type": "function"
    },
    {
      "inputs": [],
      "name": "proxiableUUID",
      "outputs": [
        {
          "internalType": "bytes32",
          "name": "",
          "type": "bytes32"
        }
      ],
      "stateMutability": "view",
      "type": "function"
    },
    {
      "inputs": [
        {
          "internalType": "uint256",
          "name": "code",
          "type": "uint256"
        }
      ],
      "name": "redeem",
      "outputs": [],
      "stateMutability": "nonpayable",
      "type": "function"
    },
    {
      "inputs": [
        {
          "internalType": "bytes32",
          "name": "codeHash",
          "type": "bytes32"
        }
      ],
      "name": "redeemed",
      "outputs": [
        {
          "internalType": "uint48",
          "name": "time",
          "type": "uint48"
        }
      ],
      "stateMutability": "view",
      "type": "function"
    },
    {
      "inputs": [],
      "name": "renounceOwnership",
      "outputs": [],
      "stateMutability": "nonpayable",
      "type": "function"
    },
    {
      "inputs": [
        {
          "internalType": "bytes32",
          "name": "role",
          "type": "bytes32"
        },
        {
          "internalType": "address",
          "name": "account",
          "type": "address"
        }
      ],
      "name": "renounceRole",
      "outputs": [],
      "stateMutability": "nonpayable",
      "type": "function"
    },
    {
      "inputs": [
        {
          "internalType": "bytes32",
          "name": "role",
          "type": "bytes32"
        },
        {
          "internalType": "address",
          "name": "account",
          "type": "address"
        }
      ],
      "name": "revokeRole",
      "outputs": [],
      "stateMutability": "nonpayable",
      "type": "function"
    },
    {
      "inputs": [
        {
          "internalType": "bytes4",
          "name": "interfaceId",
          "type": "bytes4"
        }
      ],
      "name": "supportsInterface",
      "outputs": [
        {
          "internalType": "bool",
          "name": "",
          "type": "bool"
        }
      ],
      "stateMutability": "view",
      "type": "function"
    },
    {
      "inputs": [],
      "name": "token",
      "outputs": [
        {
          "internalType": "contract IERC20Upgradeable",
          "name": "",
          "type": "address"
        }
      ],
      "stateMutability": "view",
      "type": "function"
    },
    {
      "inputs": [
        {
          "internalType": "address",
          "name": "newOwner",
          "type": "address"
        }
      ],
      "name": "transferOwnership",
      "outputs": [],
      "stateMutability": "nonpayable",
      "type": "function"
    },
    {
      "inputs": [
        {
          "internalType": "address",
          "name": "newImplementation",
          "type": "address"
        }
      ],
      "name": "upgradeTo",
      "outputs": [],
      "stateMutability": "nonpayable",
      "type": "function"
    },
    {
      "inputs": [
        {
          "internalType": "address",
          "name": "newImplementation",
          "type": "address"
        },
        {
          "internalType": "bytes",
          "name": "data",
          "type": "bytes"
        }
      ],
      "name": "upgradeToAndCall",
      "outputs": [],
      "stateMutability": "payable",
      "type": "function"
    },
    {
      "inputs": [],
      "name": "withdraw",
      "outputs": [],
      "stateMutability": "nonpayable",
      "type": "function"
    }
  ],
  "bytecode": "0x60a080604052346100315730608052611ddf90816100378239608051818181610580015281816106a80152610aaa0152f35b600080fdfe608060408181526004918236101561001657600080fd5b600092833560e01c91826301ffc9a7146110ed57508163163df9e814610e4d578163248a9ca314610e225781632f2ff15d14610d0a57816336568abe14610c785781633659cfe614610a82578382633ccfd60b14610960575081633d8b9e071461092f5781634f1ef2861461062d57816352d1902d1461056a578163715018a61461050a5781638da5cb5b146104e157816391d148541461049a578163931409081461047157816393c0a4aa14610447578163a217fddf1461042c578163d547741f146103f0578163db006a75146103d3578163e939509614610240578163ed05582b14610210578163f2fde38b1461017a57508063f8ec16de146101505763fc0c546a1461012457600080fd5b3461014c578160031936011261014c5761012d5490516001600160a01b039091168152602090f35b5080fd5b503461014c578160031936011261014c5760209065ffffffffffff61012d5460a01c169051908152f35b90503461020c57602036600319011261020c57610195611140565b9161019e6115e5565b6001600160a01b038316156101ba57836101b78461163d565b80f35b906020608492519162461bcd60e51b8352820152602660248201527f4f776e61626c653a206e6577206f776e657220697320746865207a65726f206160448201526564647265737360d01b6064820152fd5b8280fd5b50503461014c578060031936011261014c57602090610239610230611140565b602435906119ee565b9051908152f35b9190503461020c57606036600319011261020c576024358235610261611171565b9361026a611212565b821561036a5765ffffffffffff8095169480421686111561030c5782875261013160205284872054166102be5750845261012f6020528184205561013060205282209065ffffffffffff1982541617905580f35b608490602085519162461bcd60e51b8352820152602260248201527f52656465656d436f64654661756365743a20616c72656164792072656465656d604482015261195960f21b6064820152fd5b845162461bcd60e51b8152602081840152603260248201527f52656465656d436f64654661756365743a2076616c6964556e74696c206d75736044820152717420626520696e207468652066757475726560701b6064820152608490fd5b608490602085519162461bcd60e51b8352820152603c60248201527f52656465656d436f64654661756365743a2072656465656d61626c65416d6f7560448201527f6e74206d7573742062652067726561746572207468616e207a65726f000000006064820152fd5b83903461014c57602036600319011261014c576101b79035611a8d565b9190503461020c578060031936011261020c576101b79135610427600161041561115b565b93838752609760205286200154611416565b61156f565b50503461014c578160031936011261014c5751908152602090f35b50503461014c578160031936011261014c5761012e5490516001600160a01b039091168152602090f35b50503461014c578160031936011261014c5760209051600080516020611d6a8339815191528152f35b90503461020c578160031936011261020c578160209360ff926104bb61115b565b90358252609786528282206001600160a01b039091168252855220549151911615158152f35b50503461014c578160031936011261014c5760335490516001600160a01b039091168152602090f35b83346105675780600319360112610567576105236115e5565b603380546001600160a01b0319811690915581906001600160a01b03167f8be0079c531659141344cd1fd0a4f28419497f9722a3daafe3b4186f6b6457e08280a380f35b80fd5b90508234610567578060031936011261056757507f00000000000000000000000000000000000000000000000000000000000000006001600160a01b031630036105c55760208251600080516020611d8a8339815191528152f35b6020608492519162461bcd60e51b8352820152603860248201527f555550535570677261646561626c653a206d757374206e6f742062652063616c60448201527f6c6564207468726f7567682064656c656761746563616c6c00000000000000006064820152fd5b9180915060031936011261020c57610643611140565b906024359067ffffffffffffffff821161092b573660238301121561092b578184013561066f816111f6565b61067b835191826111d4565b8181528660209485830193366024828401011161020c578060248893018637830101526001600160a01b037f00000000000000000000000000000000000000000000000000000000000000008116906106d630831415611686565b6106f3600080516020611d8a8339815191529282845416146116e7565b6106fb6115e5565b7f4910fdfa16fed3260ed0e7147f7cc6da11a60208b5b9406d12a635614ffd91435460ff1615610735575050505050506101b79150611748565b869293949596169085516352d1902d60e01b815287818a81865afa8a91816108f8575b506107b757865162461bcd60e51b8152808a01899052602e60248201527f45524331393637557067726164653a206e657720696d706c656d656e7461746960448201526d6f6e206973206e6f74205555505360901b6064820152608490fd5b9791929396959497036108a357506107ce82611748565b7fbc7cd75a20ee27fd9adebab32041f755214dbc6bffa90cc0225b39da2e5c2d3b8780a28584511580159061089b575b61080c575b50505050505080f35b806108859684519661081d88611186565b602788527f416464726573733a206c6f772d6c6576656c2064656c65676174652063616c6c87890152660819985a5b195960ca1b868901525190845af4913d15610891573d61087761086e826111f6565b925192836111d4565b81528681943d92013e6117d8565b50388080808085610803565b50606092506117d8565b5060016107fe565b835162461bcd60e51b8152908101859052602960248201527f45524331393637557067726164653a20756e737570706f727465642070726f786044820152681a58589b195555525160ba1b6064820152608490fd5b9091508881813d8311610924575b61091081836111d4565b8101031261092057519038610758565b8a80fd5b503d610906565b8480fd5b90503461020c57602036600319011261020c578160209365ffffffffffff9235815261013185522054169051908152f35b9150913461014c578160031936011261014c5761097b611212565b61012d5461012e5482516370a0823160e01b8152308682015260209590926001600160a01b039081169216908684602481865afa938415610a78579087949392918794610a3f575b50855163a9059cbb60e01b81526001600160a01b03909216908201908152602081019390935294859283919082906040015b03925af1908115610a365750610a09578280f35b81610a2892903d10610a2f575b610a2081836111d4565b810190611a75565b5038808280f35b503d610a16565b513d85823e3d90fd5b8581969295503d8311610a71575b610a5781836111d4565b81010312610a6d579251869390926109f56109c3565b8580fd5b503d610a4d565b85513d88823e3d90fd5b9190503461020c57602080600319360112610c7457610a9f611140565b916001600160a01b037f00000000000000000000000000000000000000000000000000000000000000008116610ad730821415611686565b610af4600080516020611d8a8339815191529183835416146116e7565b610afc6115e5565b8251908482019282841067ffffffffffffffff851117610c61578385528883527f4910fdfa16fed3260ed0e7147f7cc6da11a60208b5b9406d12a635614ffd91435460ff1615610b56575050505050506101b79150611748565b869293949596169085516352d1902d60e01b815287818a81865afa8a9181610c32575b50610bd857865162461bcd60e51b8152808a01899052602e60248201527f45524331393637557067726164653a206e657720696d706c656d656e7461746960448201526d6f6e206973206e6f74205555505360901b6064820152608490fd5b9791929396959497036108a35750610bef82611748565b7fbc7cd75a20ee27fd9adebab32041f755214dbc6bffa90cc0225b39da2e5c2d3b8780a285845115801590610c2b5761080c5750505050505080f35b50806107fe565b9091508881813d8311610c5a575b610c4a81836111d4565b8101031261092057519038610b79565b503d610c40565b634e487b7160e01b895260418852602489fd5b8380fd5b8391503461014c578260031936011261014c57610c9361115b565b90336001600160a01b03831603610caf57906101b7913561156f565b608490602085519162461bcd60e51b8352820152602f60248201527f416363657373436f6e74726f6c3a2063616e206f6e6c792072656e6f756e636560448201526e103937b632b9903337b91039b2b63360891b6064820152fd5b90503461020c578160031936011261020c57803591610d2761115b565b9183855260209060978252610d4160018488200154611416565b600080516020611d6a8339815191528514610dcc5750838552609781528185206001600160a01b039093168086529281528185205460ff1615610d82578480f35b8385526097815281852083865290528320805460ff1916600117905533917f2f8788117e7eff1d82e926ec794901d17c78024a50270940304540a733656f0d8480a4388080808480f35b915162461bcd60e51b815291820152602c60248201527f416363657373436f6e74726f6c3a2063616e6e6f74206772616e7420636f646560448201526b43726561746f7220726f6c6560a01b6064820152608490fd5b90503461020c57602036600319011261020c5781602093600192358152609785522001549051908152f35b90503461020c57608036600319011261020c57610e68611140565b6024356001600160a01b0381811693909291849003610a6d57610e89611171565b926064358181168091036110e95787549060ff96878360081c1615968780986110dd575b80156110c7575b1561106d5760ff198481166001178c55938861105c575b50610ee4898c5460081c16610edf8161198e565b61198e565b610eed3361163d565b610efc898c5460081c1661198e565b61012d80546001600160d01b03191690921760a09190911b65ffffffffffff60a01b1617905561012e80546001600160a01b03191682179055600080516020611d6a833981519152808a5260976020908152898b20838c528152898b205490989193911615611013575b505050610f716115e5565b821615610fc15750610f829061163d565b610f8a578280f35b7f7f26b83ff96e1f2b6a682f133852f6798a09c465da95921460cefb38474024989161ff001984541684555160018152a138808280f35b845162461bcd60e51b8152908101849052602660248201527f4f776e61626c653a206e6577206f776e657220697320746865207a65726f206160448201526564647265737360d01b6064820152608490fd5b828a5260978852888a20828b5288526001898b209182541617905533917f2f8788117e7eff1d82e926ec794901d17c78024a50270940304540a733656f0d8a80a4388080610f66565b61ffff1916610101178b5538610ecb565b895162461bcd60e51b8152602081880152602e60248201527f496e697469616c697a61626c653a20636f6e747261637420697320616c72656160448201526d191e481a5b9a5d1a585b1a5e995960921b6064820152608490fd5b50303b158015610eb45750600189851614610eb4565b50600189851610610ead565b8780fd5b84913461020c57602036600319011261020c573563ffffffff60e01b811680910361020c5760209250637965db0b60e01b811490811561112f575b5015158152f35b6301ffc9a760e01b14905083611128565b600435906001600160a01b038216820361115657565b600080fd5b602435906001600160a01b038216820361115657565b6044359065ffffffffffff8216820361115657565b6060810190811067ffffffffffffffff8211176111a257604052565b634e487b7160e01b600052604160045260246000fd5b6080810190811067ffffffffffffffff8211176111a257604052565b90601f8019910116810190811067ffffffffffffffff8211176111a257604052565b67ffffffffffffffff81116111a257601f01601f191660200190565b3360009081527f3360641542e133d9ce267924c5018ab505f382f31072a9fc8400a9ffb02e864b6020908152604080832054909290600080516020611d6a8339815191529060ff16156112655750505050565b61126e33611890565b84519161127a836111b8565b6042835284830193606036863783511561140257603085538351906001918210156114025790607860218601536041915b81831161139457505050611352576113009385936113389361132960489461134e9951988576020b1b1b2b9b9a1b7b73a3937b61d1030b1b1b7bab73a1604d1b8b978801528251928391603789019101611520565b8401917001034b99036b4b9b9b4b733903937b6329607d1b603784015251809386840190611520565b010360288101855201836111d4565b5162461bcd60e51b815291829160048301611543565b0390fd5b60648486519062461bcd60e51b825280600483015260248201527f537472696e67733a20686578206c656e67746820696e73756666696369656e746044820152fd5b909192600f811660108110156113ee576f181899199a1a9b1b9c1cb0b131b232b360811b901a6113c48588611869565b5360041c9280156113da576000190191906112ab565b634e487b7160e01b82526011600452602482fd5b634e487b7160e01b83526032600452602483fd5b634e487b7160e01b81526032600452602490fd5b600081815260209060978252604092838220338352835260ff84832054161561143f5750505050565b61144833611890565b845191611454836111b8565b6042835284830193606036863783511561140257603085538351906001918210156114025790607860218601536041915b8183116114da57505050611352576113009385936113389361132960489461134e9951988576020b1b1b2b9b9a1b7b73a3937b61d1030b1b1b7bab73a1604d1b8b978801528251928391603789019101611520565b909192600f811660108110156113ee576f181899199a1a9b1b9c1cb0b131b232b360811b901a61150a8588611869565b5360041c9280156113da57600019019190611485565b60005b8381106115335750506000910152565b8181015183820152602001611523565b604091602082526115638151809281602086015260208686019101611520565b601f01601f1916010190565b906000918083526097602052604083209160018060a01b03169182845260205260ff6040842054166115a057505050565b8083526097602052604083208284526020526040832060ff1981541690557ff6391f5c32d9c69d2a47ea670b442974b53935d1edc7fd64eb21e047a839171b339380a4565b6033546001600160a01b031633036115f957565b606460405162461bcd60e51b815260206004820152602060248201527f4f776e61626c653a2063616c6c6572206973206e6f7420746865206f776e65726044820152fd5b603380546001600160a01b039283166001600160a01b0319821681179092559091167f8be0079c531659141344cd1fd0a4f28419497f9722a3daafe3b4186f6b6457e0600080a3565b1561168d57565b60405162461bcd60e51b815260206004820152602c60248201527f46756e6374696f6e206d7573742062652063616c6c6564207468726f7567682060448201526b19195b1959d85d1958d85b1b60a21b6064820152608490fd5b156116ee57565b60405162461bcd60e51b815260206004820152602c60248201527f46756e6374696f6e206d7573742062652063616c6c6564207468726f7567682060448201526b6163746976652070726f787960a01b6064820152608490fd5b803b1561177d57600080516020611d8a83398151915280546001600160a01b0319166001600160a01b03909216919091179055565b60405162461bcd60e51b815260206004820152602d60248201527f455243313936373a206e657720696d706c656d656e746174696f6e206973206e60448201526c1bdd08184818dbdb9d1c9858dd609a1b6064820152608490fd5b9192901561183a57508151156117ec575090565b3b156117f55790565b60405162461bcd60e51b815260206004820152601d60248201527f416464726573733a2063616c6c20746f206e6f6e2d636f6e74726163740000006044820152606490fd5b82519091501561184d5750805190602001fd5b60405162461bcd60e51b815290819061134e9060048301611543565b90815181101561187a570160200190565b634e487b7160e01b600052603260045260246000fd5b6040519061189d82611186565b602a825260208201604036823782511561187a5760309053815160019081101561187a57607860218401536029905b8082116119205750506118dc5790565b606460405162461bcd60e51b815260206004820152602060248201527f537472696e67733a20686578206c656e67746820696e73756666696369656e746044820152fd5b9091600f81166010811015611979576f181899199a1a9b1b9c1cb0b131b232b360811b901a61194f8486611869565b5360041c9180156119645760001901906118cc565b60246000634e487b7160e01b81526011600452fd5b60246000634e487b7160e01b81526032600452fd5b1561199557565b60405162461bcd60e51b815260206004820152602b60248201527f496e697469616c697a61626c653a20636f6e7472616374206973206e6f74206960448201526a6e697469616c697a696e6760a81b6064820152608490fd5b906040519060208201926bffffffffffffffffffffffff199060601b16835260348201524660548201523060601b60748201526068815260a0810181811067ffffffffffffffff8211176111a25760405251902090565b91909165ffffffffffff80809416911601918211611a5f57565b634e487b7160e01b600052601160045260246000fd5b90816020910312611156575180151581036111565790565b9065ffffffffffff80421661012d91808354928160009788953387528361013396879281806020809c87825260409c8d9283832065ffffffffffff199e8f9860a01c1688825416179055610132815283832089815498891617905552205416911690611af891611a45565b161015611d3e575061012e546001600160a01b0391611b189183166119ee565b96878a526101319283885280878c205416611cea57888b526101308852868b205416841015611ca65754169584516370a0823160e01b815230600482015286816024818b5afa908115611c18578a91611c75575b50818a5261012f90818852868b205411611c2257818a52865284892054855163a9059cbb60e01b81523360048201526024810182905290978790829060449082908e905af18015611c1857918693917f739f8ee835b17b45c3440318f23a9a52f3b7b3194bd17cd54344eeb2aa59d908999a9b93611bfb575b50825286522091825416179055519283523392a2565b611c1190893d8b11610a2f57610a2081836111d4565b5038611be5565b86513d8c823e3d90fd5b855162461bcd60e51b815260048101889052602660248201527f52656465656d436f64654661756365743a20696e73756666696369656e742062604482015265616c616e636560d01b6064820152608490fd5b90508681813d8311611c9f575b611c8c81836111d4565b81010312611c9b575138611b6c565b8980fd5b503d611c82565b855162461bcd60e51b815260048101889052601e60248201527f52656465656d436f64654661756365743a20636f6465206578706972656400006044820152606490fd5b865162461bcd60e51b815260048101899052602760248201527f52656465656d436f64654661756365743a20636f646520616c72656164792072604482015266195919595b595960ca1b6064820152608490fd5b9250508096979294955460a01c1694338352522092611d61845493828516611a45565b16911617905556fe707a390ecff002f977980b7598d697e51a8a18e7708b8f7ada4c1e67e5ea4808360894a13ba1a3210667c828492db98dca3e2076cc3735a920a3ca505d382bbca2646970667358221220633e36e1486aacfa5fb7959efae2432138345b9575eabd812baabe86791a80ed64736f6c63430008140033",
  "linkReferences": {},
  "deployedLinkReferences": {}
}