{
  "_format": "hh-sol-artifact-1",
  "contractName": "RedeemCodeFaucet",
  "sourceName": "contracts/apps/RedeemCodeFaucet.sol",
  "abi": [
    {
      "anonymous": false,
      "inputs": [
        {
          "indexed": false,
          "internalType": "address",
          "name": "previousAdmin",
          "type": "address"
        },
        {
          "indexed": false,
          "internalType": "address",
          "name": "newAdmin",
          "type": "address"
        }
      ],
      "name": "AdminChanged",
      "type": "event"
    },
    {
      "anonymous": false,
      "inputs": [
        {
          "indexed": true,
          "internalType": "address",
          "name": "beacon",
          "type": "address"
        }
      ],
      "name": "BeaconUpgraded",
      "type": "event"
    },
    {
      "anonymous": false,
      "inputs": [
        {
          "indexed": false,
          "internalType": "uint8",
          "name": "version",
          "type": "uint8"
        }
      ],
      "name": "Initialized",
      "type": "event"
    },
    {
      "anonymous": false,
      "inputs": [
        {
          "indexed": true,
          "internalType": "address",
          "name": "previousOwner",
          "type": "address"
        },
        {
          "indexed": true,
          "internalType": "address",
          "name": "newOwner",
          "type": "address"
        }
      ],
      "name": "OwnershipTransferred",
      "type": "event"
    },
    {
      "anonymous": false,
      "inputs": [
        {
          "indexed": true,
          "internalType": "bytes32",
          "name": "role",
          "type": "bytes32"
        },
        {
          "indexed": true,
          "internalType": "bytes32",
          "name": "previousAdminRole",
          "type": "bytes32"
        },
        {
          "indexed": true,
          "internalType": "bytes32",
          "name": "newAdminRole",
          "type": "bytes32"
        }
      ],
      "name": "RoleAdminChanged",
      "type": "event"
    },
    {
      "anonymous": false,
      "inputs": [
        {
          "indexed": true,
          "internalType": "bytes32",
          "name": "role",
          "type": "bytes32"
        },
        {
          "indexed": true,
          "internalType": "address",
          "name": "account",
          "type": "address"
        },
        {
          "indexed": true,
          "internalType": "address",
          "name": "sender",
          "type": "address"
        }
      ],
      "name": "RoleGranted",
      "type": "event"
    },
    {
      "anonymous": false,
      "inputs": [
        {
          "indexed": true,
          "internalType": "bytes32",
          "name": "role",
          "type": "bytes32"
        },
        {
          "indexed": true,
          "internalType": "address",
          "name": "account",
          "type": "address"
        },
        {
          "indexed": true,
          "internalType": "address",
          "name": "sender",
          "type": "address"
        }
      ],
      "name": "RoleRevoked",
      "type": "event"
    },
    {
      "anonymous": false,
      "inputs": [
        {
          "indexed": true,
          "internalType": "address",
          "name": "implementation",
          "type": "address"
        }
      ],
      "name": "Upgraded",
      "type": "event"
    },
    {
      "inputs": [],
      "name": "DEFAULT_ADMIN_ROLE",
      "outputs": [
        {
          "internalType": "bytes32",
          "name": "",
          "type": "bytes32"
        }
      ],
      "stateMutability": "view",
      "type": "function"
    },
    {
      "inputs": [],
      "name": "REDEEM_CODE_CREATOR_ROLE",
      "outputs": [
        {
          "internalType": "bytes32",
          "name": "",
          "type": "bytes32"
        }
      ],
      "stateMutability": "view",
      "type": "function"
    },
    {
      "inputs": [
        {
          "internalType": "bytes32",
          "name": "codeHash",
          "type": "bytes32"
        },
        {
          "internalType": "uint256",
          "name": "redeemableAmount",
          "type": "uint256"
        },
        {
          "internalType": "uint48",
          "name": "validUntil",
          "type": "uint48"
        }
      ],
      "name": "addRedeemCode",
      "outputs": [],
      "stateMutability": "nonpayable",
      "type": "function"
    },
    {
      "inputs": [],
      "name": "codeCreator",
      "outputs": [
        {
          "internalType": "address",
          "name": "",
          "type": "address"
        }
      ],
      "stateMutability": "view",
      "type": "function"
    },
    {
      "inputs": [
        {
          "internalType": "address",
          "name": "_codeCreator",
          "type": "address"
        },
        {
          "internalType": "uint256",
          "name": "code",
          "type": "uint256"
        }
      ],
      "name": "getHash",
      "outputs": [
        {
          "internalType": "bytes32",
          "name": "",
          "type": "bytes32"
        }
      ],
      "stateMutability": "view",
      "type": "function"
    },
    {
      "inputs": [
        {
          "internalType": "bytes32",
          "name": "role",
          "type": "bytes32"
        }
      ],
      "name": "getRoleAdmin",
      "outputs": [
        {
          "internalType": "bytes32",
          "name": "",
          "type": "bytes32"
        }
      ],
      "stateMutability": "view",
      "type": "function"
    },
    {
      "inputs": [
        {
          "internalType": "bytes32",
          "name": "role",
          "type": "bytes32"
        },
        {
          "internalType": "address",
          "name": "account",
          "type": "address"
        }
      ],
      "name": "grantRole",
      "outputs": [],
      "stateMutability": "nonpayable",
      "type": "function"
    },
    {
      "inputs": [
        {
          "internalType": "bytes32",
          "name": "role",
          "type": "bytes32"
        },
        {
          "internalType": "address",
          "name": "account",
          "type": "address"
        }
      ],
      "name": "hasRole",
      "outputs": [
        {
          "internalType": "bool",
          "name": "",
          "type": "bool"
        }
      ],
      "stateMutability": "view",
      "type": "function"
    },
    {
      "inputs": [
        {
          "internalType": "contract IERC20Upgradeable",
          "name": "_token",
          "type": "address"
        },
        {
          "internalType": "uint48",
          "name": "_redeemInterval",
          "type": "uint48"
        },
        {
          "internalType": "address",
          "name": "_codeCreator",
          "type": "address"
        }
      ],
      "name": "initialize",
      "outputs": [],
      "stateMutability": "nonpayable",
      "type": "function"
    },
    {
      "inputs": [
        {
          "internalType": "address",
          "name": "sender",
          "type": "address"
        }
      ],
      "name": "lastRedeem",
      "outputs": [
        {
          "internalType": "uint48",
          "name": "time",
          "type": "uint48"
        }
      ],
      "stateMutability": "view",
      "type": "function"
    },
    {
      "inputs": [],
      "name": "owner",
      "outputs": [
        {
          "internalType": "address",
          "name": "",
          "type": "address"
        }
      ],
      "stateMutability": "view",
      "type": "function"
    },
    {
      "inputs": [],
      "name": "proxiableUUID",
      "outputs": [
        {
          "internalType": "bytes32",
          "name": "",
          "type": "bytes32"
        }
      ],
      "stateMutability": "view",
      "type": "function"
    },
    {
      "inputs": [
        {
          "internalType": "uint256",
          "name": "code",
          "type": "uint256"
        }
      ],
      "name": "redeem",
      "outputs": [],
      "stateMutability": "nonpayable",
      "type": "function"
    },
    {
      "inputs": [],
      "name": "redeemInterval",
      "outputs": [
        {
          "internalType": "uint48",
          "name": "",
          "type": "uint48"
        }
      ],
      "stateMutability": "view",
      "type": "function"
    },
    {
      "inputs": [
        {
          "internalType": "bytes32",
          "name": "codeHash",
          "type": "bytes32"
        }
      ],
      "name": "redeemed",
      "outputs": [
        {
          "internalType": "uint48",
          "name": "time",
          "type": "uint48"
        }
      ],
      "stateMutability": "view",
      "type": "function"
    },
    {
      "inputs": [],
      "name": "renounceOwnership",
      "outputs": [],
      "stateMutability": "nonpayable",
      "type": "function"
    },
    {
      "inputs": [
        {
          "internalType": "bytes32",
          "name": "role",
          "type": "bytes32"
        },
        {
          "internalType": "address",
          "name": "account",
          "type": "address"
        }
      ],
      "name": "renounceRole",
      "outputs": [],
      "stateMutability": "nonpayable",
      "type": "function"
    },
    {
      "inputs": [
        {
          "internalType": "bytes32",
          "name": "role",
          "type": "bytes32"
        },
        {
          "internalType": "address",
          "name": "account",
          "type": "address"
        }
      ],
      "name": "revokeRole",
      "outputs": [],
      "stateMutability": "nonpayable",
      "type": "function"
    },
    {
      "inputs": [
        {
          "internalType": "bytes4",
          "name": "interfaceId",
          "type": "bytes4"
        }
      ],
      "name": "supportsInterface",
      "outputs": [
        {
          "internalType": "bool",
          "name": "",
          "type": "bool"
        }
      ],
      "stateMutability": "view",
      "type": "function"
    },
    {
      "inputs": [],
      "name": "token",
      "outputs": [
        {
          "internalType": "contract IERC20Upgradeable",
          "name": "",
          "type": "address"
        }
      ],
      "stateMutability": "view",
      "type": "function"
    },
    {
      "inputs": [
        {
          "internalType": "address",
          "name": "newOwner",
          "type": "address"
        }
      ],
      "name": "transferOwnership",
      "outputs": [],
      "stateMutability": "nonpayable",
      "type": "function"
    },
    {
      "inputs": [
        {
          "internalType": "address",
          "name": "newImplementation",
          "type": "address"
        }
      ],
      "name": "upgradeTo",
      "outputs": [],
      "stateMutability": "nonpayable",
      "type": "function"
    },
    {
      "inputs": [
        {
          "internalType": "address",
          "name": "newImplementation",
          "type": "address"
        },
        {
          "internalType": "bytes",
          "name": "data",
          "type": "bytes"
        }
      ],
      "name": "upgradeToAndCall",
      "outputs": [],
      "stateMutability": "payable",
      "type": "function"
    },
    {
      "inputs": [],
      "name": "withdraw",
      "outputs": [],
      "stateMutability": "nonpayable",
      "type": "function"
    }
  ],
  "bytecode": "0x60a06040523060805234801561001457600080fd5b50608051611e7961004c6000396000818161060c0152818161064c015281816107ed0152818161082d01526108bc0152611e796000f3fe60806040526004361061014b5760003560e01c806393140908116100b6578063d547741f1161006f578063d547741f146103eb578063db006a751461040b578063e93950961461042b578063ed05582b1461044b578063f2fde38b1461046b578063fc0c546a1461048b57600080fd5b8063931409081461031657806393c0a4aa14610338578063a217fddf14610359578063a5ff3f801461036e578063bf2c2d1d14610395578063c0a9444c146103b557600080fd5b80633d8b9e07116101085780633d8b9e071461023a5780634f1ef2861461028757806352d1902d1461029a578063715018a6146102af5780638da5cb5b146102c457806391d14854146102f657600080fd5b806301ffc9a714610150578063248a9ca3146101855780632f2ff15d146101c357806336568abe146101e55780633659cfe6146102055780633ccfd60b14610225575b600080fd5b34801561015c57600080fd5b5061017061016b3660046118ff565b6104ac565b60405190151581526020015b60405180910390f35b34801561019157600080fd5b506101b56101a0366004611929565b60009081526097602052604090206001015490565b60405190815260200161017c565b3480156101cf57600080fd5b506101e36101de366004611957565b6104e3565b005b3480156101f157600080fd5b506101e3610200366004611957565b610584565b34801561021157600080fd5b506101e3610220366004611987565b610602565b34801561023157600080fd5b506101e36106e1565b34801561024657600080fd5b50610270610255366004611929565b6101316020526000908152604090205465ffffffffffff1681565b60405165ffffffffffff909116815260200161017c565b6101e36102953660046119ba565b6107e3565b3480156102a657600080fd5b506101b56108af565b3480156102bb57600080fd5b506101e3610962565b3480156102d057600080fd5b506033546001600160a01b03165b6040516001600160a01b03909116815260200161017c565b34801561030257600080fd5b50610170610311366004611957565b610976565b34801561032257600080fd5b506101b5600080516020611ddd83398151915281565b34801561034457600080fd5b5061012e546102de906001600160a01b031681565b34801561036557600080fd5b506101b5600081565b34801561037a57600080fd5b5061012d5461027090600160a01b900465ffffffffffff1681565b3480156103a157600080fd5b506101e36103b0366004611a99565b6109a1565b3480156103c157600080fd5b506102706103d0366004611987565b6101326020526000908152604090205465ffffffffffff1681565b3480156103f757600080fd5b506101e3610406366004611957565b610b20565b34801561041757600080fd5b506101e3610426366004611929565b610b45565b34801561043757600080fd5b506101e3610446366004611ae2565b610e8a565b34801561045757600080fd5b506101b5610466366004611b17565b61103a565b34801561047757600080fd5b506101e3610486366004611987565b611091565b34801561049757600080fd5b5061012d546102de906001600160a01b031681565b60006001600160e01b03198216637965db0b60e01b14806104dd57506301ffc9a760e01b6001600160e01b03198316145b92915050565b6000828152609760205260409020600101546104fe81611107565b600080516020611ddd83398151915283036105755760405162461bcd60e51b815260206004820152602c60248201527f416363657373436f6e74726f6c3a2063616e6e6f74206772616e7420636f646560448201526b43726561746f7220726f6c6560a01b60648201526084015b60405180910390fd5b61057f8383611111565b505050565b6001600160a01b03811633146105f45760405162461bcd60e51b815260206004820152602f60248201527f416363657373436f6e74726f6c3a2063616e206f6e6c792072656e6f756e636560448201526e103937b632b9903337b91039b2b63360891b606482015260840161056c565b6105fe8282611197565b5050565b6001600160a01b037f000000000000000000000000000000000000000000000000000000000000000016300361064a5760405162461bcd60e51b815260040161056c90611b43565b7f00000000000000000000000000000000000000000000000000000000000000006001600160a01b0316610693600080516020611dfd833981519152546001600160a01b031690565b6001600160a01b0316146106b95760405162461bcd60e51b815260040161056c90611b8f565b6106c2816111fe565b604080516000808252602082019092526106de91839190611206565b50565b600080516020611ddd8339815191526106f981611107565b61012d5461012e546040516370a0823160e01b81523060048201526001600160a01b039283169263a9059cbb92169083906370a0823190602401602060405180830381865afa158015610750573d6000803e3d6000fd5b505050506040513d601f19601f820116820180604052508101906107749190611bdb565b6040516001600160e01b031960e085901b1681526001600160a01b03909216600483015260248201526044016020604051808303816000875af11580156107bf573d6000803e3d6000fd5b505050506040513d601f19601f820116820180604052508101906105fe9190611bf4565b6001600160a01b037f000000000000000000000000000000000000000000000000000000000000000016300361082b5760405162461bcd60e51b815260040161056c90611b43565b7f00000000000000000000000000000000000000000000000000000000000000006001600160a01b0316610874600080516020611dfd833981519152546001600160a01b031690565b6001600160a01b03161461089a5760405162461bcd60e51b815260040161056c90611b8f565b6108a3826111fe565b6105fe82826001611206565b6000306001600160a01b037f0000000000000000000000000000000000000000000000000000000000000000161461094f5760405162461bcd60e51b815260206004820152603860248201527f555550535570677261646561626c653a206d757374206e6f742062652063616c60448201527f6c6564207468726f7567682064656c656761746563616c6c0000000000000000606482015260840161056c565b50600080516020611dfd83398151915290565b61096a611371565b61097460006113cb565b565b60009182526097602090815260408084206001600160a01b0393909316845291905290205460ff1690565b600054610100900460ff16158080156109c15750600054600160ff909116105b806109db5750303b1580156109db575060005460ff166001145b610a3e5760405162461bcd60e51b815260206004820152602e60248201527f496e697469616c697a61626c653a20636f6e747261637420697320616c72656160448201526d191e481a5b9a5d1a585b1a5e995960921b606482015260840161056c565b6000805460ff191660011790558015610a61576000805461ff0019166101001790555b610a6961141d565b610a7161144c565b61012d80546001600160a01b038681166001600160d01b031990921691909117600160a01b65ffffffffffff8716021790915561012e80546001600160a01b031916918416919091179055610ad4600080516020611ddd83398151915283611473565b8015610b1a576000805461ff0019169055604051600181527f7f26b83ff96e1f2b6a682f133852f6798a09c465da95921460cefb38474024989060200160405180910390a15b50505050565b600082815260976020526040902060010154610b3b81611107565b61057f8383611197565b61012d543360009081526101326020526040902054429165ffffffffffff80841692610b7b92600160a01b900482169116611c2c565b65ffffffffffff1610610be55760405162461bcd60e51b815260206004820152602c60248201527f52656465656d436f64654661756365743a2072656465656d20696e746572766160448201526b1b081b9bdd081c185cdcd95960a21b606482015260840161056c565b61012e54600090610bff906001600160a01b03168461103a565b6000818152610131602052604090205490915065ffffffffffff1615610c775760405162461bcd60e51b815260206004820152602760248201527f52656465656d436f64654661756365743a20636f646520616c72656164792072604482015266195919595b595960ca1b606482015260840161056c565b6000818152610130602052604090205465ffffffffffff90811690831610610ce15760405162461bcd60e51b815260206004820152601e60248201527f52656465656d436f64654661756365743a20636f646520657870697265640000604482015260640161056c565b600081815261012f6020526040908190205461012d5491516370a0823160e01b815230600482015290916001600160a01b0316906370a0823190602401602060405180830381865afa158015610d3b573d6000803e3d6000fd5b505050506040513d601f19601f82011682018060405250810190610d5f9190611bdb565b1015610dbc5760405162461bcd60e51b815260206004820152602660248201527f52656465656d436f64654661756365743a20696e73756666696369656e742062604482015265616c616e636560d01b606482015260840161056c565b600081815261012f6020526040908190205461012d54915163a9059cbb60e01b81523360048201526024810182905290916001600160a01b03169063a9059cbb906044016020604051808303816000875af1158015610e1f573d6000803e3d6000fd5b505050506040513d601f19601f82011682018060405250810190610e439190611bf4565b5050600090815261013160209081526040808320805465ffffffffffff90951665ffffffffffff199586168117909155338452610132909252909120805490921617905550565b600080516020611ddd833981519152610ea281611107565b60008311610f185760405162461bcd60e51b815260206004820152603c60248201527f52656465656d436f64654661756365743a2072656465656d61626c65416d6f7560448201527f6e74206d7573742062652067726561746572207468616e207a65726f00000000606482015260840161056c565b4265ffffffffffff80821690841611610f8e5760405162461bcd60e51b815260206004820152603260248201527f52656465656d436f64654661756365743a2076616c6964556e74696c206d75736044820152717420626520696e207468652066757475726560701b606482015260840161056c565b6000858152610131602052604090205465ffffffffffff1615610ffe5760405162461bcd60e51b815260206004820152602260248201527f52656465656d436f64654661756365743a20616c72656164792072656465656d604482015261195960f21b606482015260840161056c565b5050600092835261012f602090815260408085209390935561013090529120805465ffffffffffff191665ffffffffffff909216919091179055565b6040516bffffffffffffffffffffffff19606084811b821660208401526034830184905246605484015230901b16607482015260009060880160405160208183030381529060405280519060200120905092915050565b611099611371565b6001600160a01b0381166110fe5760405162461bcd60e51b815260206004820152602660248201527f4f776e61626c653a206e6577206f776e657220697320746865207a65726f206160448201526564647265737360d01b606482015260840161056c565b6106de816113cb565b6106de813361147d565b61111b8282610976565b6105fe5760008281526097602090815260408083206001600160a01b03851684529091529020805460ff191660011790556111533390565b6001600160a01b0316816001600160a01b0316837f2f8788117e7eff1d82e926ec794901d17c78024a50270940304540a733656f0d60405160405180910390a45050565b6111a18282610976565b156105fe5760008281526097602090815260408083206001600160a01b0385168085529252808320805460ff1916905551339285917ff6391f5c32d9c69d2a47ea670b442974b53935d1edc7fd64eb21e047a839171b9190a45050565b6106de611371565b7f4910fdfa16fed3260ed0e7147f7cc6da11a60208b5b9406d12a635614ffd91435460ff16156112395761057f836114d6565b826001600160a01b03166352d1902d6040518163ffffffff1660e01b8152600401602060405180830381865afa925050508015611293575060408051601f3d908101601f1916820190925261129091810190611bdb565b60015b6112f65760405162461bcd60e51b815260206004820152602e60248201527f45524331393637557067726164653a206e657720696d706c656d656e7461746960448201526d6f6e206973206e6f74205555505360901b606482015260840161056c565b600080516020611dfd83398151915281146113655760405162461bcd60e51b815260206004820152602960248201527f45524331393637557067726164653a20756e737570706f727465642070726f786044820152681a58589b195555525160ba1b606482015260840161056c565b5061057f838383611572565b6033546001600160a01b031633146109745760405162461bcd60e51b815260206004820181905260248201527f4f776e61626c653a2063616c6c6572206973206e6f7420746865206f776e6572604482015260640161056c565b603380546001600160a01b038381166001600160a01b0319831681179093556040519116919082907f8be0079c531659141344cd1fd0a4f28419497f9722a3daafe3b4186f6b6457e090600090a35050565b600054610100900460ff166114445760405162461bcd60e51b815260040161056c90611c52565b610974611597565b600054610100900460ff166109745760405162461bcd60e51b815260040161056c90611c52565b6105fe8282611111565b6114878282610976565b6105fe57611494816115c7565b61149f8360206115d9565b6040516020016114b0929190611cc1565b60408051601f198184030181529082905262461bcd60e51b825261056c91600401611d36565b6001600160a01b0381163b6115435760405162461bcd60e51b815260206004820152602d60248201527f455243313936373a206e657720696d706c656d656e746174696f6e206973206e60448201526c1bdd08184818dbdb9d1c9858dd609a1b606482015260840161056c565b600080516020611dfd83398151915280546001600160a01b0319166001600160a01b0392909216919091179055565b61157b8361177c565b6000825111806115885750805b1561057f57610b1a83836117bc565b600054610100900460ff166115be5760405162461bcd60e51b815260040161056c90611c52565b610974336113cb565b60606104dd6001600160a01b03831660145b606060006115e8836002611d69565b6115f3906002611d80565b67ffffffffffffffff81111561160b5761160b6119a4565b6040519080825280601f01601f191660200182016040528015611635576020820181803683370190505b509050600360fc1b8160008151811061165057611650611d93565b60200101906001600160f81b031916908160001a905350600f60fb1b8160018151811061167f5761167f611d93565b60200101906001600160f81b031916908160001a90535060006116a3846002611d69565b6116ae906001611d80565b90505b6001811115611726576f181899199a1a9b1b9c1cb0b131b232b360811b85600f16601081106116e2576116e2611d93565b1a60f81b8282815181106116f8576116f8611d93565b60200101906001600160f81b031916908160001a90535060049490941c9361171f81611da9565b90506116b1565b5083156117755760405162461bcd60e51b815260206004820181905260248201527f537472696e67733a20686578206c656e67746820696e73756666696369656e74604482015260640161056c565b9392505050565b611785816114d6565b6040516001600160a01b038216907fbc7cd75a20ee27fd9adebab32041f755214dbc6bffa90cc0225b39da2e5c2d3b90600090a250565b60606117758383604051806060016040528060278152602001611e1d602791396060600080856001600160a01b0316856040516117f99190611dc0565b600060405180830381855af49150503d8060008114611834576040519150601f19603f3d011682016040523d82523d6000602084013e611839565b606091505b509150915061184a86838387611854565b9695505050505050565b606083156118c35782516000036118bc576001600160a01b0385163b6118bc5760405162461bcd60e51b815260206004820152601d60248201527f416464726573733a2063616c6c20746f206e6f6e2d636f6e7472616374000000604482015260640161056c565b50816118cd565b6118cd83836118d5565b949350505050565b8151156118e55781518083602001fd5b8060405162461bcd60e51b815260040161056c9190611d36565b60006020828403121561191157600080fd5b81356001600160e01b03198116811461177557600080fd5b60006020828403121561193b57600080fd5b5035919050565b6001600160a01b03811681146106de57600080fd5b6000806040838503121561196a57600080fd5b82359150602083013561197c81611942565b809150509250929050565b60006020828403121561199957600080fd5b813561177581611942565b634e487b7160e01b600052604160045260246000fd5b600080604083850312156119cd57600080fd5b82356119d881611942565b9150602083013567ffffffffffffffff808211156119f557600080fd5b818501915085601f830112611a0957600080fd5b813581811115611a1b57611a1b6119a4565b604051601f8201601f19908116603f01168101908382118183101715611a4357611a436119a4565b81604052828152886020848701011115611a5c57600080fd5b8260208601602083013760006020848301015280955050505050509250929050565b803565ffffffffffff81168114611a9457600080fd5b919050565b600080600060608486031215611aae57600080fd5b8335611ab981611942565b9250611ac760208501611a7e565b91506040840135611ad781611942565b809150509250925092565b600080600060608486031215611af757600080fd5b8335925060208401359150611b0e60408501611a7e565b90509250925092565b60008060408385031215611b2a57600080fd5b8235611b3581611942565b946020939093013593505050565b6020808252602c908201527f46756e6374696f6e206d7573742062652063616c6c6564207468726f7567682060408201526b19195b1959d85d1958d85b1b60a21b606082015260800190565b6020808252602c908201527f46756e6374696f6e206d7573742062652063616c6c6564207468726f7567682060408201526b6163746976652070726f787960a01b606082015260800190565b600060208284031215611bed57600080fd5b5051919050565b600060208284031215611c0657600080fd5b8151801515811461177557600080fd5b634e487b7160e01b600052601160045260246000fd5b65ffffffffffff818116838216019080821115611c4b57611c4b611c16565b5092915050565b6020808252602b908201527f496e697469616c697a61626c653a20636f6e7472616374206973206e6f74206960408201526a6e697469616c697a696e6760a81b606082015260800190565b60005b83811015611cb8578181015183820152602001611ca0565b50506000910152565b7f416363657373436f6e74726f6c3a206163636f756e7420000000000000000000815260008351611cf9816017850160208801611c9d565b7001034b99036b4b9b9b4b733903937b6329607d1b6017918401918201528351611d2a816028840160208801611c9d565b01602801949350505050565b6020815260008251806020840152611d55816040850160208701611c9d565b601f01601f19169190910160400192915050565b80820281158282048414176104dd576104dd611c16565b808201808211156104dd576104dd611c16565b634e487b7160e01b600052603260045260246000fd5b600081611db857611db8611c16565b506000190190565b60008251611dd2818460208701611c9d565b919091019291505056fe707a390ecff002f977980b7598d697e51a8a18e7708b8f7ada4c1e67e5ea4808360894a13ba1a3210667c828492db98dca3e2076cc3735a920a3ca505d382bbc416464726573733a206c6f772d6c6576656c2064656c65676174652063616c6c206661696c6564a2646970667358221220dfad553deec5423e7110c6e0d2f81e605889ba55c2f57edda1bf0e806788a49d64736f6c63430008140033",
  "linkReferences": {},
  "deployedLinkReferences": {}
}