{
  "_format": "hh-sol-artifact-1",
  "contractName": "RegensUniteTokens",
  "sourceName": "contracts/apps/RegensUniteTokens.sol",
  "abi": [
    {
      "inputs": [
        {
          "internalType": "address[]",
          "name": "admins",
          "type": "address[]"
        },
        {
          "internalType": "string",
          "name": "_name",
          "type": "string"
        },
        {
          "internalType": "string",
          "name": "_symbol",
          "type": "string"
        }
      ],
      "stateMutability": "nonpayable",
      "type": "constructor"
    },
    {
      "anonymous": false,
      "inputs": [
        {
          "indexed": true,
          "internalType": "address",
          "name": "account",
          "type": "address"
        },
        {
          "indexed": true,
          "internalType": "address",
          "name": "operator",
          "type": "address"
        },
        {
          "indexed": false,
          "internalType": "bool",
          "name": "approved",
          "type": "bool"
        }
      ],
      "name": "ApprovalForAll",
      "type": "event"
    },
    {
      "anonymous": false,
      "inputs": [
        {
          "indexed": true,
          "internalType": "bytes32",
          "name": "role",
          "type": "bytes32"
        },
        {
          "indexed": true,
          "internalType": "bytes32",
          "name": "previousAdminRole",
          "type": "bytes32"
        },
        {
          "indexed": true,
          "internalType": "bytes32",
          "name": "newAdminRole",
          "type": "bytes32"
        }
      ],
      "name": "RoleAdminChanged",
      "type": "event"
    },
    {
      "anonymous": false,
      "inputs": [
        {
          "indexed": true,
          "internalType": "bytes32",
          "name": "role",
          "type": "bytes32"
        },
        {
          "indexed": true,
          "internalType": "address",
          "name": "account",
          "type": "address"
        },
        {
          "indexed": true,
          "internalType": "address",
          "name": "sender",
          "type": "address"
        }
      ],
      "name": "RoleGranted",
      "type": "event"
    },
    {
      "anonymous": false,
      "inputs": [
        {
          "indexed": true,
          "internalType": "bytes32",
          "name": "role",
          "type": "bytes32"
        },
        {
          "indexed": true,
          "internalType": "address",
          "name": "account",
          "type": "address"
        },
        {
          "indexed": true,
          "internalType": "address",
          "name": "sender",
          "type": "address"
        }
      ],
      "name": "RoleRevoked",
      "type": "event"
    },
    {
      "anonymous": false,
      "inputs": [
        {
          "indexed": true,
          "internalType": "address",
          "name": "operator",
          "type": "address"
        },
        {
          "indexed": true,
          "internalType": "address",
          "name": "from",
          "type": "address"
        },
        {
          "indexed": true,
          "internalType": "address",
          "name": "to",
          "type": "address"
        },
        {
          "indexed": false,
          "internalType": "uint256[]",
          "name": "ids",
          "type": "uint256[]"
        },
        {
          "indexed": false,
          "internalType": "uint256[]",
          "name": "values",
          "type": "uint256[]"
        }
      ],
      "name": "TransferBatch",
      "type": "event"
    },
    {
      "anonymous": false,
      "inputs": [
        {
          "indexed": true,
          "internalType": "address",
          "name": "operator",
          "type": "address"
        },
        {
          "indexed": true,
          "internalType": "address",
          "name": "from",
          "type": "address"
        },
        {
          "indexed": true,
          "internalType": "address",
          "name": "to",
          "type": "address"
        },
        {
          "indexed": false,
          "internalType": "uint256",
          "name": "id",
          "type": "uint256"
        },
        {
          "indexed": false,
          "internalType": "uint256",
          "name": "value",
          "type": "uint256"
        }
      ],
      "name": "TransferSingle",
      "type": "event"
    },
    {
      "anonymous": false,
      "inputs": [
        {
          "indexed": false,
          "internalType": "string",
          "name": "value",
          "type": "string"
        },
        {
          "indexed": true,
          "internalType": "uint256",
          "name": "id",
          "type": "uint256"
        }
      ],
      "name": "URI",
      "type": "event"
    },
    {
      "inputs": [],
      "name": "DEFAULT_ADMIN_ROLE",
      "outputs": [
        {
          "internalType": "bytes32",
          "name": "",
          "type": "bytes32"
        }
      ],
      "stateMutability": "view",
      "type": "function"
    },
    {
      "inputs": [],
      "name": "MINTER_ROLE",
      "outputs": [
        {
          "internalType": "bytes32",
          "name": "",
          "type": "bytes32"
        }
      ],
      "stateMutability": "view",
      "type": "function"
    },
    {
      "inputs": [
        {
          "internalType": "address",
          "name": "account",
          "type": "address"
        },
        {
          "internalType": "uint256",
          "name": "id",
          "type": "uint256"
        }
      ],
      "name": "balanceOf",
      "outputs": [
        {
          "internalType": "uint256",
          "name": "",
          "type": "uint256"
        }
      ],
      "stateMutability": "view",
      "type": "function"
    },
    {
      "inputs": [
        {
          "internalType": "address[]",
          "name": "accounts",
          "type": "address[]"
        },
        {
          "internalType": "uint256[]",
          "name": "ids",
          "type": "uint256[]"
        }
      ],
      "name": "balanceOfBatch",
      "outputs": [
        {
          "internalType": "uint256[]",
          "name": "",
          "type": "uint256[]"
        }
      ],
      "stateMutability": "view",
      "type": "function"
    },
    {
      "inputs": [
        {
          "internalType": "uint256",
          "name": "id",
          "type": "uint256"
        },
        {
          "internalType": "uint256",
          "name": "amount",
          "type": "uint256"
        }
      ],
      "name": "burn",
      "outputs": [],
      "stateMutability": "nonpayable",
      "type": "function"
    },
    {
      "inputs": [
        {
          "internalType": "bytes32",
          "name": "role",
          "type": "bytes32"
        }
      ],
      "name": "getRoleAdmin",
      "outputs": [
        {
          "internalType": "bytes32",
          "name": "",
          "type": "bytes32"
        }
      ],
      "stateMutability": "view",
      "type": "function"
    },
    {
      "inputs": [
        {
          "internalType": "bytes32",
          "name": "role",
          "type": "bytes32"
        },
        {
          "internalType": "address",
          "name": "account",
          "type": "address"
        }
      ],
      "name": "grantRole",
      "outputs": [],
      "stateMutability": "nonpayable",
      "type": "function"
    },
    {
      "inputs": [
        {
          "internalType": "bytes32",
          "name": "role",
          "type": "bytes32"
        },
        {
          "internalType": "address",
          "name": "account",
          "type": "address"
        }
      ],
      "name": "hasRole",
      "outputs": [
        {
          "internalType": "bool",
          "name": "",
          "type": "bool"
        }
      ],
      "stateMutability": "view",
      "type": "function"
    },
    {
      "inputs": [
        {
          "internalType": "address",
          "name": "account",
          "type": "address"
        },
        {
          "internalType": "address",
          "name": "operator",
          "type": "address"
        }
      ],
      "name": "isApprovedForAll",
      "outputs": [
        {
          "internalType": "bool",
          "name": "",
          "type": "bool"
        }
      ],
      "stateMutability": "view",
      "type": "function"
    },
    {
      "inputs": [
        {
          "internalType": "address",
          "name": "to",
          "type": "address"
        },
        {
          "internalType": "uint256",
          "name": "amount",
          "type": "uint256"
        },
        {
          "internalType": "bytes",
          "name": "data",
          "type": "bytes"
        }
      ],
      "name": "mintCoin",
      "outputs": [],
      "stateMutability": "nonpayable",
      "type": "function"
    },
    {
      "inputs": [
        {
          "internalType": "address",
          "name": "to",
          "type": "address"
        },
        {
          "internalType": "uint256",
          "name": "id",
          "type": "uint256"
        },
        {
          "internalType": "uint256",
          "name": "amount",
          "type": "uint256"
        },
        {
          "internalType": "bytes",
          "name": "data",
          "type": "bytes"
        },
        {
          "internalType": "string",
          "name": "_uri",
          "type": "string"
        }
      ],
      "name": "mintCustomVoucher",
      "outputs": [],
      "stateMutability": "nonpayable",
      "type": "function"
    },
    {
      "inputs": [
        {
          "internalType": "address",
          "name": "to",
          "type": "address"
        }
      ],
      "name": "mintGratitude",
      "outputs": [],
      "stateMutability": "nonpayable",
      "type": "function"
    },
    {
      "inputs": [],
      "name": "name",
      "outputs": [
        {
          "internalType": "string",
          "name": "",
          "type": "string"
        }
      ],
      "stateMutability": "view",
      "type": "function"
    },
    {
      "inputs": [
        {
          "internalType": "bytes32",
          "name": "role",
          "type": "bytes32"
        },
        {
          "internalType": "address",
          "name": "account",
          "type": "address"
        }
      ],
      "name": "renounceRole",
      "outputs": [],
      "stateMutability": "nonpayable",
      "type": "function"
    },
    {
      "inputs": [
        {
          "internalType": "bytes32",
          "name": "role",
          "type": "bytes32"
        },
        {
          "internalType": "address",
          "name": "account",
          "type": "address"
        }
      ],
      "name": "revokeRole",
      "outputs": [],
      "stateMutability": "nonpayable",
      "type": "function"
    },
    {
      "inputs": [
        {
          "internalType": "address",
          "name": "from",
          "type": "address"
        },
        {
          "internalType": "address",
          "name": "to",
          "type": "address"
        },
        {
          "internalType": "uint256[]",
          "name": "ids",
          "type": "uint256[]"
        },
        {
          "internalType": "uint256[]",
          "name": "amounts",
          "type": "uint256[]"
        },
        {
          "internalType": "bytes",
          "name": "data",
          "type": "bytes"
        }
      ],
      "name": "safeBatchTransferFrom",
      "outputs": [],
      "stateMutability": "nonpayable",
      "type": "function"
    },
    {
      "inputs": [
        {
          "internalType": "address",
          "name": "from",
          "type": "address"
        },
        {
          "internalType": "address",
          "name": "to",
          "type": "address"
        },
        {
          "internalType": "uint256",
          "name": "id",
          "type": "uint256"
        },
        {
          "internalType": "uint256",
          "name": "amount",
          "type": "uint256"
        },
        {
          "internalType": "bytes",
          "name": "data",
          "type": "bytes"
        }
      ],
      "name": "safeTransferFrom",
      "outputs": [],
      "stateMutability": "nonpayable",
      "type": "function"
    },
    {
      "inputs": [
        {
          "internalType": "address",
          "name": "operator",
          "type": "address"
        },
        {
          "internalType": "bool",
          "name": "approved",
          "type": "bool"
        }
      ],
      "name": "setApprovalForAll",
      "outputs": [],
      "stateMutability": "nonpayable",
      "type": "function"
    },
    {
      "inputs": [
        {
          "internalType": "bytes4",
          "name": "interfaceId",
          "type": "bytes4"
        }
      ],
      "name": "supportsInterface",
      "outputs": [
        {
          "internalType": "bool",
          "name": "",
          "type": "bool"
        }
      ],
      "stateMutability": "view",
      "type": "function"
    },
    {
      "inputs": [],
      "name": "symbol",
      "outputs": [
        {
          "internalType": "string",
          "name": "",
          "type": "string"
        }
      ],
      "stateMutability": "view",
      "type": "function"
    },
    {
      "inputs": [
        {
          "internalType": "uint256",
          "name": "tokenId",
          "type": "uint256"
        }
      ],
      "name": "uri",
      "outputs": [
        {
          "internalType": "string",
          "name": "",
          "type": "string"
        }
      ],
      "stateMutability": "view",
      "type": "function"
    }
  ],
  "bytecode": "0x604060808152346200053f5762002c1b90813803806200001f8162000565565b93843982016060838203126200053f5782516001600160401b0393908481116200053f578101601f918383830112156200053f57815191868311620005295760059160209184841b83806200007681840162000565565b809881520191830101918883116200053f578401905b8282106200054457505050818101518881116200053f5786620000b19183016200058b565b95878201518981116200053f57620000ca92016200058b565b9686519482860186811083821117620005295788526000809652600254966001978881811c911680156200051e575b858210146200050a57828111620004dd575b5086600255805190838211620004c9576006548981811c91168015620004be575b86821014620004aa5790818484931162000458575b508590848311600114620003f2578992620003e6575b5050600019600383901b1c191690881b176006555b8851918211620003d2576007548781811c91168015620003c7575b84821014620003b3578181116200036c575b5082908211600114620003055781908798998792620002f9575b5050600019600383901b1c191690861b176007555b838052600391828252878520338652825260ff9384898720541615620002c2575b8598975b62000202575b87516125fd9081620005fe8239f35b8051891015620002bc5760018060a01b03838a841b83010151167f9f2df0fed2c77648de5860a4cc508cd0818c85b8b8a1ab4ceeef8d981c8956a6908188528585528988208189528552868a892054161562000284575b5050600019891462000270579786019786620001ed565b634e487b7160e01b86526011600452602486fd5b8188528585528988208189528552898820805460ff19168a179055339160008051602062002bfb8339815191528980a4388062000259565b620001f3565b85805283835288862033875283528886208760ff1982541617905533338760008051602062002bfb8339815191528180a4620001e9565b015190503880620001b3565b6007865282862098601f198316875b8181106200035657509188999a91848a9594106200033c575b505050811b01600755620001c8565b015160001960f88460031b161c191690553880806200032d565b838301518c559a89019a92850192850162000314565b6007875283872082808501871c820192868610620003a9575b01861c019088905b8281106200039d57505062000199565b8881550188906200038d565b9250819262000385565b634e487b7160e01b87526022600452602487fd5b90607f169062000187565b634e487b7160e01b86526041600452602486fd5b01519050388062000157565b60068a52868a208b94509190601f1984168b5b8982821062000441575050841162000427575b505050811b016006556200016c565b015160001960f88460031b161c1916905538808062000418565b8385015186558e9790950194938401930162000405565b9091506006895285892084808501891c820192888610620004a0575b918c9186959493018a1c01915b8281106200049157505062000141565b8b81558594508c910162000481565b9250819262000474565b634e487b7160e01b89526022600452602489fd5b90607f16906200012c565b634e487b7160e01b88526041600452602488fd5b600288528883868a209201871c8201915b828110620004fe5750506200010b565b898155018990620004ee565b634e487b7160e01b88526022600452602488fd5b90607f1690620000f9565b634e487b7160e01b600052604160045260246000fd5b600080fd5b81516001600160a01b03811681036200053f5781529084019084016200008c565b6040519190601f01601f191682016001600160401b038111838210176200052957604052565b919080601f840112156200053f5782516001600160401b0381116200052957602090620005c1601f8201601f1916830162000565565b928184528282870101116200053f5760005b818110620005e957508260009394955001015290565b8581018301518482018401528201620005d356fe6040608081526004908136101561001557600080fd5b600091823560e01c8062fdd58e14611bd857806301ffc9a714611b4e57806306fdde0314611aa45780630cc656bd146118315780630e89341c14611701578063248a9ca3146116d757806324f1ae7e146113fa5780632eb2c2d6146110905780632f2ff15d14610fe457806336568abe14610f525780634e1273f414610db55780636bd286ca1461091357806391d14854146108cd57806395d89b41146107e4578063a217fddf146107c9578063a22cb465146106e8578063b390c0ab146104b4578063d539139314610479578063d547741f1461043b578063e985e9c5146103e95763f242432a1461010757600080fd5b346103e55760a03660031901126103e557610120611c08565b610128611c23565b92604490813592606493843597608498893567ffffffffffffffff81116103e5576101569036908a01611d72565b6001600160a01b039485169490939033861480156103c6575b610178906122b6565b8a16610185811515612319565b61018e82612551565b9461019884612551565b50845b86518110156102105760026101b0828961228c565b511480610207575b6101ca576101c590612267565b61019b565b885162461bcd60e51b81526020818e0152602660248201526000805160206125a8833981519152818c01526519995c9c995960d21b818d01528e90fd5b508715156101b8565b50929a8b9196949c929799989550878d528c8a60209d8e8381528284208985528152828420549061024383831015612373565b8c8552848152838520908a86525203912055878d528c8c528c878b822091528c52898d206102728382546123d2565b905586858d848d51918c83528201526000805160206125888339815191528d3392a43b61029d578b80f35b92899a9b98999796949289928d97958c51998a988997889663f23a6e6160e01b9e8f895233908901526024880152860152840152820160a0905260a482016102e491611d06565b03925af1839181610397575b5061035957505050610300612448565b6308c379a014610328575b5162461bcd60e51b8152915081906103249082016124d5565b0390fd5b610330612466565b8061033b575061030b565b610324915193849362461bcd60e51b85528401526024830190611d06565b9194506001600160e01b03199091160361037e57505038808080808080808080808b80f35b5162461bcd60e51b8152915081906103249082016123ff565b6103b8919250873d89116103bf575b6103b08183611cc1565b8101906123df565b90386102f0565b503d6103a6565b508584526001602090815287852033865290528684205460ff1661016f565b8280fd5b50503461043757806003193601126104375760ff81602093610409611c08565b610411611c23565b6001600160a01b0391821683526001875283832091168252855220549151911615158152f35b5080fd5b5090346103e557806003193601126103e5576104769135610471600161045f611c23565b93838752600360205286200154611e3a565b61216c565b80f35b505034610437578160031936011261043757602090517f9f2df0fed2c77648de5860a4cc508cd0818c85b8b8a1ab4ceeef8d981c8956a68152f35b5082346106e557826003193601126106e55760248035939091600284358181146106a357331592831593610655576104eb82612551565b916104f589612551565b5081865161050281611c73565b52815b83518110156105795784610519828661228c565b511480610572575b6105335761052e90612267565b610505565b865162461bcd60e51b81526020818b01526026818a01526000805160206125a883398151915260448201526519995c9c995960d21b6064820152608490fd5b5085610521565b50878787928b8186526020928684528587203388528452858720549082821061060857509080879284845283865287842033855286520386832055855190838252848201523390600080516020612588833981519152873392a48484516105df81611c73565b526105ea81336121e2565b156105f3578480f35b8452528120805460ff19169055818080808480f35b856084918689519262461bcd60e51b8452830152808201527f455243313135353a206275726e20616d6f756e7420657863656564732062616c604482015263616e636560e01b6064820152fd5b845162461bcd60e51b81526020818901526023818801527f455243313135353a206275726e2066726f6d20746865207a65726f206164647260448201526265737360e81b6064820152608490fd5b835162461bcd60e51b81526020818801819052818701527f47524154495455444520746f6b656e732063616e6e6f74206265206275726e746044820152606490fd5b80fd5b5090346103e557806003193601126103e557610702611c08565b90602435918215158093036107c5576001600160a01b0316923384146107715750338452600160205280842083855260205280842060ff1981541660ff8416179055519081527f17307eab39ab6107e8899845ad3d59bd9653f200f220920489ca2b5937696c3160203392a380f35b6020608492519162461bcd60e51b8352820152602960248201527f455243313135353a2073657474696e6720617070726f76616c20737461747573604482015268103337b91039b2b63360b91b6064820152fd5b8480fd5b50503461043757816003193601126104375751908152602090f35b5050346104375781600319360112610437578051908260075461080681611c39565b808552916001918083169081156108a55750600114610848575b50505061083282610844940383611cc1565b51918291602083526020830190611d06565b0390f35b9450600785527fa66cc928b5edb82af9bd49922954155ab7b0942694bea4ce44661d9a8736c6885b82861061088d575050506108328260206108449582010194610820565b80546020878701810191909152909501948101610870565b61084497508693506020925061083294915060ff191682840152151560051b82010194610820565b50346103e557816003193601126103e5578160209360ff926108ed611c23565b90358252600386528282206001600160a01b039091168252855220549151911615158152f35b5082346106e55760a03660031901126106e55761092e611c08565b9260248035604492833594606495863567ffffffffffffffff90818111610db15761095c9036908b01611d72565b946084358281116107c557366023820112156107c5578a818961098493369301359101611d2b565b90612710811115610d5e578085526020968b885260ff8787205416610d20576001600160a01b038d16908115610cd5576109bd83612551565b956109c781612551565b50875b8751811015610a405760026109df828a61228c565b511480610a39575b6109f9576109f490612267565b6109ca565b5050875162461bcd60e51b8152808e018a90526026818c01526000805160206125a8833981519152818d01526519995c9c995960d21b818e015260849150fd5b50886109e7565b5092969d90939899979b9180959b96508e8b6000805160206125888339815191528f8b84528383528084208585528352808420610a7e8982546123d2565b9055878151938d85528401523392a43b610bc5575b50505050508752858352848720946001958660ff19825416179055600584528720958251948511610bb4575050610aca8554611c39565b601f8111610b6e575b5081601f8411600114610b0d57509282939183928794610b02575b50501b916000199060031b1c191617905580f35b015192508680610aee565b919083601f1981168789528489209489905b88838310610b545750505010610b3b575b505050811b01905580f35b015160001960f88460031b161c19169055848080610b30565b858701518855909601959485019487935090810190610b1f565b858752828720601f850160051c810191848610610baa575b601f0160051c019085905b828110610b9f575050610ad3565b888155018590610b91565b9091508190610b86565b634e487b7160e01b88526041905286fd5b928c80888b9f9b958f98958f989b9e9c9b8b9951998a988997889663f23a6e6160e01b9e8f895233908901528701528501528301526084820160a0905260a48201610c0f91611d06565b03925af1869181610cb6575b50610c8057505050505050610c2e612448565b6308c379a014610c50575b815162461bcd60e51b8152806103248186016124d5565b610c58612466565b9081610c645750610c39565b610324925194859462461bcd60e51b8652850152830190611d06565b63ffffffff60e09a969a979495971b1603610c9f578880808080610a93565b855162461bcd60e51b815280610324818a016123ff565b610cce9192508b3d8d116103bf576103b08183611cc1565b908b610c1b565b50865162461bcd60e51b8152808d018990526021818b01527f455243313135353a206d696e7420746f20746865207a65726f20616464726573818c0152607360f81b818d0152608490fd5b8a8c7f546f6b656e2049442068617320616c7265616479206265656e206d696e7465648c8b8d818d519562461bcd60e51b8752860152840152820152fd5b855162461bcd60e51b81526020818d0152602a818a01527f437573746f6d20746f6b656e204944206d757374206265206772656174657220818b01526907468616e2031303030360b41b818c0152608490fd5b8380fd5b50346103e557816003193601126103e557803567ffffffffffffffff8082116107c557366023830112156107c5578183013590610df182611d90565b92610dfe86519485611cc1565b82845260209260248486019160051b83010191368311610f4e57602401905b828210610f2b57505050602435908111610f2757610e3e9036908501611da8565b928251845103610ed45750815194610e5586611d90565b95610e6286519788611cc1565b808752610e71601f1991611d90565b0136838801375b8251811015610ec257610ebd90610ead6001600160a01b03610e9a838761228c565b5116610ea6838861228c565b51906121e2565b610eb7828961228c565b52612267565b610e78565b84518281528061084481850189611e06565b60849185519162461bcd60e51b8352820152602960248201527f455243313135353a206163636f756e747320616e6420696473206c656e677468604482015268040dad2e6dac2e8c6d60bb1b6064820152fd5b8580fd5b81356001600160a01b0381168103610f4a578152908401908401610e1d565b8980fd5b8880fd5b50829034610437578260031936011261043757610f6d611c23565b90336001600160a01b03831603610f895790610476913561216c565b608490602085519162461bcd60e51b8352820152602f60248201527f416363657373436f6e74726f6c3a2063616e206f6e6c792072656e6f756e636560448201526e103937b632b9903337b91039b2b63360891b6064820152fd5b50346103e557816003193601126103e5573590610fff611c23565b90828452600360205261101760018286200154611e3a565b828452600360209081528185206001600160a01b039093168086529290528084205460ff1615611045578380f35b82845260036020528084208285526020528320600160ff1982541617905533917f2f8788117e7eff1d82e926ec794901d17c78024a50270940304540a733656f0d8480a43880808380f35b50829034610437576003199160a0368401126106e5576110ae611c08565b6110b6611c23565b9460449182359667ffffffffffffffff97888111610f27576110db9036908801611da8565b9060649586358a8111610437576110f59036908a01611da8565b9060849a8b359081116104375761110f9036908b01611d72565b6001600160a01b039586169533871480156113db575b61112e906122b6565b855184510361138a57841690611145821515612319565b825b865181101561117f57600261115c828961228c565b511480611176575b6101ca5761117190612267565b611147565b50871515611164565b5091979299939a909698949b885b8d5181101561121257808c8f8a8c8f8f93866111af61120d996111b69361228c565b519661228c565b519480855285602094868652838720818852865283872054906111db83831015612373565b83885287875284882090885286520382862055845283835283209252526112068d8d209182546123d2565b9055612267565b61118d565b5091939899909295949b979a87868c7f4a39dc06d4c0dbc64b70af90fd698a233a518aa5d07e595d983b8c0526c8f7fb6112548d835193808552840190611e06565b91808303602082015280611269339489611e06565b0390a43b611275578a80f35b899b899b9a51988997889763bc197c8160e01b9c8d8a5233908a01526024890152870160a0905260a487016112a991611e06565b908487830301908701526112bc91611e06565b9184830301908401526112ce91611d06565b0381865a94602095f183918161136a575b50611347575050506112ef612448565b6308c379a014611313575b905162461bcd60e51b81529081906103249082016124d5565b61131b612466565b8061132657506112fa565b610324906020935193849362461bcd60e51b85528401526024830190611d06565b9193916001600160e01b0319160361037e57505080828080808080808080808a80f35b61138391925060203d81116103bf576103b08183611cc1565b90866112df565b875162461bcd60e51b81526020818d0152602860248201527f455243313135353a2069647320616e6420616d6f756e7473206c656e67746820818b0152670dad2e6dac2e8c6d60c31b818c01528d90fd5b508683526001602090815288842033855290528783205460ff16611125565b5082346106e55760603660031901126106e557611415611c08565b92602490813590604493843567ffffffffffffffff81116104375761143d9036908801611d72565b927f9f2df0fed2c77648de5860a4cc508cd0818c85b8b8a1ab4ceeef8d981c8956a6825260209360038552838320338452855260ff84842054161561168a576001600160a01b03891690811561163f5761149561252a565b9261149f81612551565b50845b84518110156115165760026114b7828761228c565b51148061150f575b6114d1576114cc90612267565b6114a2565b865162461bcd60e51b8152808c018990526026818b01526000805160206125a8833981519152818c01526519995c9c995960d21b6064820152608490fd5b50856114bf565b5089969597949893508a60018a52898752888a20848b528752888a2061153d8382546123d2565b9055838a8a5160018152848a8201526000805160206125888339815191528c3392a43b61157f575b505050505060018452528120600160ff1982541617905580f35b926001928980876115c88a9d999a968c9d9c998d51998a988997889663f23a6e6160e01b9e8f89523390890152870152850152606484015260a0608484015260a4830190611d06565b03925af1839181611620575b506115e457505050610c2e612448565b919593949392506001600160e01b031990911603611606578480808080611565565b50905162461bcd60e51b81529081906103249082016123ff565b611638919250883d8a116103bf576103b08183611cc1565b90886115d4565b845162461bcd60e51b8152808a018790526021818901527f455243313135353a206d696e7420746f20746865207a65726f20616464726573818a0152607360f81b6064820152608490fd5b835162461bcd60e51b81528089018690526023818801527f4d7573742068617665206d696e74657220726f6c6520746f206d696e7420746f818901526235b2b760e91b6064820152608490fd5b50346103e55760203660031901126103e55781602093600192358152600385522001549051908152f35b5090346103e55760209182600319360112610db15780359081855280845260ff8386205416156117ee575083526005825280832081519384918181549061174782611c39565b928386526001928884821691826000146117c4575050600114611786575b858861084489611777848a0385611cc1565b51928284938452830190611d06565b87945081939291528383205b8284106117ac575050508201018161177761084438611765565b8054848a018601528895508794909301928101611792565b60ff19168882015294151560051b8701909401945085935061177792506108449150389050611765565b825162461bcd60e51b8152908101849052601f60248201527f55524920717565727920666f72206e6f6e6578697374656e7420746f6b656e006044820152606490fd5b5090346103e55760209182600319360112610db15761184e611c08565b92825161185a81611c73565b8581526001600160a01b0385168015611a585784519161187983611ca5565b6001968784528484019385368637805115611a4557600280955261189b61252a565b5089895b6119c7575b5050838952888552868920838a5285528689208054908982018092116119b45755828988518681528a888201526000805160206125888339815191528a3392a43b6118fe575b505085525282209060ff1982541617905580f35b96836119478698959993839794895194858094819363f23a6e6160e01b998a845233908401528360248401528a60448401528b606484015260a0608484015260a4830190611d06565b03925af1859181611995575b5061196357878787610300612448565b93969295936001600160e01b0319160361197e5738806118ea565b835162461bcd60e51b8152806103248186016123ff565b6119ad919250893d8b116103bf576103b08183611cc1565b9038611953565b634e487b7160e01b8b526011885260248bfd5b8151811015611a4057856119db828461228c565b511480611a39575b6119f957906119f28a92612267565b909161189f565b885162461bcd60e51b8152808901889052602660248201526000805160206125a883398151915260448201526519995c9c995960d21b6064820152608490fd5b508a6119e3565b6118a4565b634e487b7160e01b8a526032875260248afd5b5050608492519162461bcd60e51b8352820152602160248201527f455243313135353a206d696e7420746f20746865207a65726f206164647265736044820152607360f81b6064820152fd5b50503461043757816003193601126104375780519082600654611ac681611c39565b808552916001918083169081156108a55750600114611af15750505061083282610844940383611cc1565b9450600685527ff652222313e28459528d920b65115c16c04f3efc82aaedc97be59f3f377c0d3f5b828610611b36575050506108328260206108449582010194610820565b80546020878701810191909152909501948101611b19565b50346103e55760203660031901126103e557359063ffffffff60e01b82168092036103e55760209250637965db0b60e01b8214918215611b92575b50519015158152f35b909150636cdb3d1360e11b8114908115611bc7575b8115611bb6575b509038611b89565b6301ffc9a760e01b14905038611bae565b6303a24d0760e21b81149150611ba7565b505034610437578060031936011261043757602090611c01611bf8611c08565b602435906121e2565b9051908152f35b600435906001600160a01b0382168203611c1e57565b600080fd5b602435906001600160a01b0382168203611c1e57565b90600182811c92168015611c69575b6020831014611c5357565b634e487b7160e01b600052602260045260246000fd5b91607f1691611c48565b6020810190811067ffffffffffffffff821117611c8f57604052565b634e487b7160e01b600052604160045260246000fd5b6040810190811067ffffffffffffffff821117611c8f57604052565b90601f8019910116810190811067ffffffffffffffff821117611c8f57604052565b60005b838110611cf65750506000910152565b8181015183820152602001611ce6565b90602091611d1f81518092818552858086019101611ce3565b601f01601f1916010190565b92919267ffffffffffffffff8211611c8f5760405191611d55601f8201601f191660200184611cc1565b829481845281830111611c1e578281602093846000960137010152565b9080601f83011215611c1e57816020611d8d93359101611d2b565b90565b67ffffffffffffffff8111611c8f5760051b60200190565b81601f82011215611c1e57803591611dbf83611d90565b92611dcd6040519485611cc1565b808452602092838086019260051b820101928311611c1e578301905b828210611df7575050505090565b81358152908301908301611de9565b90815180825260208080930193019160005b828110611e26575050505090565b835185529381019392810192600101611e18565b60009080825260209060038252604092838120338252835260ff848220541615611e645750505050565b83519167ffffffffffffffff90336060850183811186821017612158578752602a855285850191873684378551156121445760308353855191600192831015612130576078602188015360295b8381116120c6575061208457908751936080850190858210908211176120705788526042845286840194606036873784511561205c5760308653845182101561205c5790607860218601536041915b818311611fee57505050611fac57610324938693611f9093611f81604894611f589a519a8b957f416363657373436f6e74726f6c3a206163636f756e74200000000000000000008c8801525180926037880190611ce3565b8401917001034b99036b4b9b9b4b733903937b6329607d1b603784015251809386840190611ce3565b01036028810187520185611cc1565b5192839262461bcd60e51b845260048401526024830190611d06565b60648587519062461bcd60e51b825280600483015260248201527f537472696e67733a20686578206c656e67746820696e73756666696369656e746044820152fd5b909192600f81166010811015612048576f181899199a1a9b1b9c1cb0b131b232b360811b901a61201e8588612576565b5360041c92801561203457600019019190611f00565b634e487b7160e01b82526011600452602482fd5b634e487b7160e01b83526032600452602483fd5b634e487b7160e01b81526032600452602490fd5b634e487b7160e01b86526041600452602486fd5b60648789519062461bcd60e51b825280600483015260248201527f537472696e67733a20686578206c656e67746820696e73756666696369656e746044820152fd5b90600f8116601081101561211c576f181899199a1a9b1b9c1cb0b131b232b360811b901a6120f4838a612576565b5360041c9080156121085760001901611eb1565b634e487b7160e01b87526011600452602487fd5b634e487b7160e01b88526032600452602488fd5b634e487b7160e01b86526032600452602486fd5b634e487b7160e01b85526032600452602485fd5b634e487b7160e01b85526041600452602485fd5b906000918083526003602052604083209160018060a01b03169182845260205260ff60408420541661219d57505050565b8083526003602052604083208284526020526040832060ff1981541690557ff6391f5c32d9c69d2a47ea670b442974b53935d1edc7fd64eb21e047a839171b339380a4565b6001600160a01b031690811561220f57600052600060205260406000209060005260205260406000205490565b60405162461bcd60e51b815260206004820152602a60248201527f455243313135353a2061646472657373207a65726f206973206e6f742061207660448201526930b634b21037bbb732b960b11b6064820152608490fd5b60001981146122765760010190565b634e487b7160e01b600052601160045260246000fd5b80518210156122a05760209160051b010190565b634e487b7160e01b600052603260045260246000fd5b156122bd57565b60405162461bcd60e51b815260206004820152602e60248201527f455243313135353a2063616c6c6572206973206e6f7420746f6b656e206f776e60448201526d195c881bdc88185c1c1c9bdd995960921b6064820152608490fd5b1561232057565b60405162461bcd60e51b815260206004820152602560248201527f455243313135353a207472616e7366657220746f20746865207a65726f206164604482015264647265737360d81b6064820152608490fd5b1561237a57565b60405162461bcd60e51b815260206004820152602a60248201527f455243313135353a20696e73756666696369656e742062616c616e636520666f60448201526939103a3930b739b332b960b11b6064820152608490fd5b9190820180921161227657565b90816020910312611c1e57516001600160e01b031981168103611c1e5790565b60809060208152602860208201527f455243313135353a204552433131353552656365697665722072656a656374656040820152676420746f6b656e7360c01b60608201520190565b60009060033d1161245557565b905060046000803e60005160e01c90565b600060443d10611d8d57604051600319913d83016004833e815167ffffffffffffffff918282113d6024840111176124c4578184019485519384116124cc573d850101602084870101116124c45750611d8d92910160200190611cc1565b949350505050565b50949350505050565b60809060208152603460208201527f455243313135353a207472616e7366657220746f206e6f6e2d455243313135356040820152732932b1b2b4bb32b91034b6b83632b6b2b73a32b960611b60608201520190565b60405161253681611ca5565b600181526020810160203682378151156122a0576001905290565b6040519061255e82611ca5565b600182526020820160203682378251156122a0575290565b9081518110156122a057016020019056fec3d58168c5ae7397731d063d5bbf3d657854427343f4c083240f7aacaa2d0f6247524154495455444520746f6b656e732063616e6e6f74206265207472616e73a26469706673582212202060526b0d8af69041440efbb78012e12593ea04ecd4302ff8255aeca3c57f4464736f6c634300081400332f8788117e7eff1d82e926ec794901d17c78024a50270940304540a733656f0d",
  "linkReferences": {},
  "deployedLinkReferences": {}
}