{
  "_format": "hh-sol-artifact-1",
  "contractName": "CommunityFactory",
  "sourceName": "contracts/accounts/CommunityFactory.sol",
  "abi": [
    {
      "inputs": [
        {
          "internalType": "contract IEntryPoint",
          "name": "_entryPoint",
          "type": "address"
        }
      ],
      "stateMutability": "nonpayable",
      "type": "constructor"
    },
    {
      "anonymous": false,
      "inputs": [
        {
          "indexed": true,
          "internalType": "address",
          "name": "owner",
          "type": "address"
        },
        {
          "indexed": false,
          "internalType": "address",
          "name": "tokenEntryPoint",
          "type": "address"
        },
        {
          "indexed": false,
          "internalType": "address",
          "name": "paymaster",
          "type": "address"
        },
        {
          "indexed": false,
          "internalType": "address",
          "name": "accountFactory",
          "type": "address"
        },
        {
          "indexed": false,
          "internalType": "address",
          "name": "profile",
          "type": "address"
        }
      ],
      "name": "CommunityCreated",
      "type": "event"
    },
    {
      "inputs": [],
      "name": "accountFactoryImplementation",
      "outputs": [
        {
          "internalType": "contract AccountFactory",
          "name": "",
          "type": "address"
        }
      ],
      "stateMutability": "view",
      "type": "function"
    },
    {
      "inputs": [
        {
          "internalType": "address",
          "name": "owner",
          "type": "address"
        },
        {
          "internalType": "address",
          "name": "token",
          "type": "address"
        },
        {
          "internalType": "uint256",
          "name": "salt",
          "type": "uint256"
        }
      ],
      "name": "create",
      "outputs": [
        {
          "internalType": "contract TokenEntryPoint",
          "name": "tokenEntryPoint",
          "type": "address"
        },
        {
          "internalType": "contract Paymaster",
          "name": "paymaster",
          "type": "address"
        },
        {
          "internalType": "contract AccountFactory",
          "name": "accountFactory",
          "type": "address"
        },
        {
          "internalType": "contract Profile",
          "name": "profile",
          "type": "address"
        }
      ],
      "stateMutability": "nonpayable",
      "type": "function"
    },
    {
      "inputs": [],
      "name": "entryPoint",
      "outputs": [
        {
          "internalType": "address",
          "name": "",
          "type": "address"
        }
      ],
      "stateMutability": "view",
      "type": "function"
    },
    {
      "inputs": [
        {
          "internalType": "address",
          "name": "owner",
          "type": "address"
        },
        {
          "internalType": "address",
          "name": "token",
          "type": "address"
        },
        {
          "internalType": "uint256",
          "name": "salt",
          "type": "uint256"
        }
      ],
      "name": "get",
      "outputs": [
        {
          "internalType": "address",
          "name": "",
          "type": "address"
        },
        {
          "internalType": "address",
          "name": "",
          "type": "address"
        },
        {
          "internalType": "address",
          "name": "",
          "type": "address"
        },
        {
          "internalType": "address",
          "name": "",
          "type": "address"
        }
      ],
      "stateMutability": "view",
      "type": "function"
    },
    {
      "inputs": [],
      "name": "paymasterImplementation",
      "outputs": [
        {
          "internalType": "contract Paymaster",
          "name": "",
          "type": "address"
        }
      ],
      "stateMutability": "view",
      "type": "function"
    },
    {
      "inputs": [],
      "name": "profileImplementation",
      "outputs": [
        {
          "internalType": "contract Profile",
          "name": "",
          "type": "address"
        }
      ],
      "stateMutability": "view",
      "type": "function"
    },
    {
      "inputs": [],
      "name": "tokenEntryPointImplementation",
      "outputs": [
        {
          "internalType": "contract TokenEntryPoint",
          "name": "",
          "type": "address"
        }
      ],
      "stateMutability": "view",
      "type": "function"
    }
  ],
  "bytecode": "0x610120346101e5576001600160401b0390601f6200b03238819003918201601f19168301929190848411838510176101cf5781602092849260409687528339810103126101e557516001600160a01b03811692908390036101e5578260805281516127999384820194828610848711176101cf57620061568339845260208160009503019084f080156101af5760a052815161157b80820190828210848311176101bb5790829162004bdb8339039084f080156101af5760c05281516137e180820190828210848311176101bb57908291620013fa8339039084f080156101af5760e0528151906127438083019182118383101761019b57908291620088ef8339039083f091821561019057506101009182525161120f9182620001eb833960805182818160da015281816107530152610cb9015260a051828181610243015281816106ff0152610bfb015260c051828181610164015281816105140152610a06015260e0518281816101fe015281816107cc0152610d1101525181818161011f015281816105e30152610adb0152f35b9051903d90823e3d90fd5b634e487b7160e01b85526041600452602485fd5b505051903d90823e3d90fd5b634e487b7160e01b86526041600452602486fd5b634e487b7160e01b600052604160045260246000fd5b600080fdfe6080604081815260043610156200001557600080fd5b600091823560e01c9081634f8a633d146200022d575080635b295d4b14620001e85780637373e4eb14620001935780638e3484d0146200014e578063947aa29d1462000109578063b0d691fe14620000c45763ffe5725f146200007757600080fd5b34620000c057608090620000966200008f3662000272565b9162000428565b84516001600160a01b03948516815292841660208401529083169382019390935291166060820152f35b5080fd5b5034620000c05781600319360112620000c057517f00000000000000000000000000000000000000000000000000000000000000006001600160a01b03168152602090f35b5034620000c05781600319360112620000c057517f00000000000000000000000000000000000000000000000000000000000000006001600160a01b03168152602090f35b5034620000c05781600319360112620000c057517f00000000000000000000000000000000000000000000000000000000000000006001600160a01b03168152602090f35b5034620000c057620001e490620001b5620001ae3662000272565b9162000941565b93516001600160a01b039384168152918316602083015282166040820152911660608201529081906080820190565b0390f35b5034620000c05781600319360112620000c057517f00000000000000000000000000000000000000000000000000000000000000006001600160a01b03168152602090f35b839034620000c05781600319360112620000c0577f00000000000000000000000000000000000000000000000000000000000000006001600160a01b03168152602090f35b6060906003190112620002aa576001600160a01b03906004358281168103620002aa57916024359081168103620002aa579060443590565b600080fd5b67ffffffffffffffff8111620002c457604052565b634e487b7160e01b600052604160045260246000fd5b6060810190811067ffffffffffffffff821117620002c457604052565b6040810190811067ffffffffffffffff821117620002c457604052565b90601f8019910116810190811067ffffffffffffffff821117620002c457604052565b60005b8381106200034b5750506000910152565b81810151838201526020016200033a565b909160609260018060a01b03168252604060208301526200038d815180928160408601526020868601910162000337565b601f01601f1916010190565b805115620003a75760200190565b634e487b7160e01b600052603260045260246000fd5b805160011015620003a75760400190565b916060830190608060018060a01b0394858095168152602094859316838201526060604082015286518094520194019160005b8281106200041157505050505090565b835185168652948101949281019260010162000401565b906200043683828462000941565b60009693803b15158062000936575b806200092b575b8062000920575b620009035750505050604051620004ad816200049e60208201948688879190604893916bffffffffffffffffffffffff19809260601b16845260601b16601483015260288201520190565b03601f19810183528262000314565b51902060405163189acdbd60e31b60208201526001600160a01b0384166024808301919091528152909490620004e381620002da565b60405190610416820182811067ffffffffffffffff821117620008ef5791620005438192899461041662000dc485397f00000000000000000000000000000000000000000000000000000000000000006001600160a01b0316906200035c565b039086f58015620008e4576001600160a01b031693843b15620008e15760405163f2fde38b60e01b81526001600160a01b03851660048201528181602481838a5af18015620008d657620008c4575b5060405163204a7f0760e21b602082015260048152620005b281620002f7565b60405190610416820182811067ffffffffffffffff8211176200088d57916200061281928a9461041662000dc485397f00000000000000000000000000000000000000000000000000000000000000006001600160a01b0316906200035c565b039083f5801562000880576001600160a01b031692833b15620000c05760405163f2fde38b60e01b81526001600160a01b0386166004820152828160248183895af18015620008b957908391620008a1575b5050620006ce6200049e91604051906200067e82620002da565b60028252604036602084013786620006968362000399565b52620006a282620003bd565b6001600160a01b039091169052604051633bd1279b60e11b6020820152928391898960248501620003ce565b60405190610416820182811067ffffffffffffffff8211176200088d57916200072e81928a9461041662000dc485397f00000000000000000000000000000000000000000000000000000000000000006001600160a01b0316906200035c565b039083f58015620008805760405163c0c53b8b60e01b60208201526001600160a01b037f0000000000000000000000000000000000000000000000000000000000000000811660248301529182166044820181905291861660648201529096906200079d81608481016200049e565b60405190610416820182811067ffffffffffffffff8211176200086c578291620007fb9161041662000dc485397f00000000000000000000000000000000000000000000000000000000000000006001600160a01b0316906200035c565b039083f5908115620008605750604080516001600160a01b038881168252878116602083015292831691810182905284831660608201529094909116907f5e06d3fb1e2ef064225f5d8b7ab1420f6224bb37ff5b9d0b5135b65641f06c5090608090a2565b604051903d90823e3d90fd5b634e487b7160e01b85526041600452602485fd5b50604051903d90823e3d90fd5b634e487b7160e01b84526041600452602484fd5b620008ac90620002af565b620000c057813862000664565b6040513d85823e3d90fd5b620008cf90620002af565b3862000592565b6040513d84823e3d90fd5b80fd5b6040513d86823e3d90fd5b634e487b7160e01b87526041600452602487fd5b6001600160a01b0390811698938116975091821695501692509050565b50813b151562000453565b50823b15156200044c565b50833b151562000445565b91926040928351602095818781019162000986908786859190604893916bffffffffffffffffffffffff19809260601b16845260601b16601483015260288201520190565b0391601f199283810182526200099d908262000314565b5190209161041696879681880190805190620009ba838362000314565b89825262000dc4958483018b888239825163189acdbd60e31b878201526001600160a01b038881166024808401919091528252948790620009fb83620002da565b8551928383810191897f0000000000000000000000000000000000000000000000000000000000000000169062000a3391846200035c565b03868101855262000a45908562000314565b865193849284840196879151809262000a5e9262000337565b83019051918285830162000a729262000337565b01038083520162000a84908262000314565b51902062000a93908962000da3565b9b8c9a86845162000aa5888262000314565b83815281810190848c8339865163204a7f0760e21b818501526004815290839062000ad083620002f7565b88519283838101918c7f0000000000000000000000000000000000000000000000000000000000000000169062000b0891846200035c565b03898101855262000b1a908562000314565b895193849284840196879151809262000b339262000337565b83019051918285830162000b479262000337565b01038083520162000b59908262000314565b51902062000b68908c62000da3565b9c8d9286519362000b7985620002da565b600285528736858701378862000b8f8662000399565b911690528762000b9f85620003bd565b9116905285519062000bb2898362000314565b848252828201948c86398651633bd1279b60e11b8482015293849162000bde91908d60248501620003ce565b03858101845262000bf0908462000314565b8551928383810191897f0000000000000000000000000000000000000000000000000000000000000000169062000c2891846200035c565b03868101855262000c3a908562000314565b865193849284840196879151809262000c539262000337565b83019051918285830162000c679262000337565b01038083520162000c79908262000314565b51902062000c88908962000da3565b9a82519462000c98908662000314565b808552858501978839815163c0c53b8b60e01b868201526001600160a01b037f00000000000000000000000000000000000000000000000000000000000000008516811660248301528c8516811660448301529690961660648701526084818101875262000d07908762000314565b81518096868201947f0000000000000000000000000000000000000000000000000000000000000000169062000d3e91866200035c565b03908101865262000d50908662000314565b5193849284840196879151809262000d689262000337565b83019051918285830162000d7c9262000337565b01038083520162000d8e908262000314565b51902062000d9c9162000da3565b9293929190565b605591600b9160405191604083015260208201523081520160ff8153209056fe604060808152610416908138038061001681610218565b93843982019181818403126102135780516001600160a01b038116808203610213576020838101516001600160401b0394919391858211610213570186601f820112156102135780519061007161006c83610253565b610218565b918083528583019886828401011161021357888661008f930161026e565b813b156101b9577f360894a13ba1a3210667c828492db98dca3e2076cc3735a920a3ca505d382bbc80546001600160a01b031916841790556000927fbc7cd75a20ee27fd9adebab32041f755214dbc6bffa90cc0225b39da2e5c2d3b8480a28051158015906101b2575b61010b575b855160d190816103458239f35b855194606086019081118682101761019e578697849283926101889952602788527f416464726573733a206c6f772d6c6576656c2064656c65676174652063616c6c87890152660819985a5b195960ca1b8a8901525190845af4913d15610194573d9061017a61006c83610253565b91825281943d92013e610291565b508038808080806100fe565b5060609250610291565b634e487b7160e01b84526041600452602484fd5b50826100f9565b855162461bcd60e51b815260048101859052602d60248201527f455243313936373a206e657720696d706c656d656e746174696f6e206973206e60448201526c1bdd08184818dbdb9d1c9858dd609a1b6064820152608490fd5b600080fd5b6040519190601f01601f191682016001600160401b0381118382101761023d57604052565b634e487b7160e01b600052604160045260246000fd5b6001600160401b03811161023d57601f01601f191660200190565b60005b8381106102815750506000910152565b8181015183820152602001610271565b919290156102f357508151156102a5575090565b3b156102ae5790565b60405162461bcd60e51b815260206004820152601d60248201527f416464726573733a2063616c6c20746f206e6f6e2d636f6e74726163740000006044820152606490fd5b8251909150156103065750805190602001fd5b6044604051809262461bcd60e51b825260206004830152610336815180928160248601526020868601910161026e565b601f01601f19168101030190fdfe608060405236156054577f360894a13ba1a3210667c828492db98dca3e2076cc3735a920a3ca505d382bbc54600090819081906001600160a01b0316368280378136915af43d82803e156050573d90f35b3d90fd5b7f360894a13ba1a3210667c828492db98dca3e2076cc3735a920a3ca505d382bbc54600090819081906001600160a01b0316368280378136915af43d82803e156050573d90f3fea2646970667358221220044b95600c5a8b16f58ad7053fc82847c6e00cbcad98e443169bf78d6395632364736f6c63430008140033a26469706673582212204cdbc59dc64b3eb367e1af00084e78c9f83d5a8517accacd3fe4303ddf75896564736f6c6343000814003360a080604052346100dc57306080526000549060ff8260081c1661008a575060ff8082160361004f575b6040516136ff90816100e282396080518181816104cc015281816105ff01526108d00152f35b60ff90811916176000557f7f26b83ff96e1f2b6a682f133852f6798a09c465da95921460cefb3847402498602060405160ff8152a138610029565b62461bcd60e51b815260206004820152602760248201527f496e697469616c697a61626c653a20636f6e747261637420697320696e697469604482015266616c697a696e6760c81b6064820152608490fd5b600080fdfe608060408181526004803610156200001657600080fd5b600092833560e01c90816311464fbe1462000ab7575080633659cfe614620008a55780634f1ef286146200057b57806352d1902d14620004b55780635fbfb9cf1462000486578063715018a614620004225780638cb84e1814620003e25780638da5cb5b14620003b3578063c0c53b8b14620001395763f2fde38b146200009c57600080fd5b34620001355760203660031901126200013557620000b962000ade565b91620000c462000b6d565b6001600160a01b03831615620000e35783620000e08462000bc6565b80f35b906020608492519162461bcd60e51b8352820152602660248201527f4f776e61626c653a206e6577206f776e657220697320746865207a65726f206160448201526564647265737360d01b6064820152fd5b8280fd5b50346200013557606036600319011262000135576001600160a01b03813581811690819003620003af5760243592828416809403620003ab576044359383851694858103620003a75787549560ff8760081c16159687809862000399575b801562000380575b15620003265760ff1981166001178a558762000314575b50620001d460ff8a5460081c16620001ce8162000e54565b62000e54565b620001df3362000bc6565b620001f160ff8a5460081c1662000e54565b620001fb62000b6d565b15620002c2576200020c9062000bc6565b8551926121ec8085019385851067ffffffffffffffff861117620002af5750918793918593620014be85398252602082015203019085f08015620002a257166bffffffffffffffffffffffff60a01b60c954161760c9556200026c575080f35b60207f7f26b83ff96e1f2b6a682f133852f6798a09c465da95921460cefb38474024989161ff001984541684555160018152a180f35b50505051903d90823e3d90fd5b634e487b7160e01b8a5260419052602489fd5b865162461bcd60e51b8152602081850152602660248201527f4f776e61626c653a206e6577206f776e657220697320746865207a65726f206160448201526564647265737360d01b6064820152608490fd5b61ffff191661010117895538620001b6565b885162461bcd60e51b8152602081870152602e60248201527f496e697469616c697a61626c653a20636f6e747261637420697320616c72656160448201526d191e481a5b9a5d1a585b1a5e995960921b6064820152608490fd5b50303b1580156200019f5750600160ff8216146200019f565b50600160ff82161062000197565b8780fd5b8580fd5b8480fd5b505034620003de5781600319360112620003de5760335490516001600160a01b039091168152602090f35b5080fd5b505034620003de5780600319360112620003de57602090620004116200040762000ade565b6024359062000fc3565b90516001600160a01b039091168152f35b833462000483578060031936011262000483576200043f62000b6d565b603380546001600160a01b0319811690915581906001600160a01b03167f8be0079c531659141344cd1fd0a4f28419497f9722a3daafe3b4186f6b6457e08280a380f35b80fd5b505034620003de5780600319360112620003de5760209062000411620004ab62000ade565b6024359062000edc565b5082346200048357806003193601126200048357507f00000000000000000000000000000000000000000000000000000000000000006001600160a01b03163003620005135760208251600080516020620036aa8339815191528152f35b6020608492519162461bcd60e51b8352820152603860248201527f555550535570677261646561626c653a206d757374206e6f742062652063616c60448201527f6c6564207468726f7567682064656c656761746563616c6c00000000000000006064820152fd5b50908060031936011262000135576200059362000ade565b906024359067ffffffffffffffff8211620003af5736602383011215620003af5781840135620005c38162000b50565b620005d18351918262000b2d565b8181528660209485830193366024828401011162000135578060248893018637830101526001600160a01b037f00000000000000000000000000000000000000000000000000000000000000008116906200062f3083141562000c0f565b6200064f600080516020620036aa83398151915292828454161462000c71565b6200065962000b6d565b7f4910fdfa16fed3260ed0e7147f7cc6da11a60208b5b9406d12a635614ffd91435460ff16156200069657505050505050620000e0915062000cd3565b869293949596169085516352d1902d60e01b815287818a81865afa8a91816200086c575b506200071a57865162461bcd60e51b8152808a01899052602e60248201527f45524331393637557067726164653a206e657720696d706c656d656e7461746960448201526d6f6e206973206e6f74205555505360901b6064820152608490fd5b979192939695949703620008175750620007348262000cd3565b7fbc7cd75a20ee27fd9adebab32041f755214dbc6bffa90cc0225b39da2e5c2d3b8780a2858451158015906200080e575b62000774575b50505050505080f35b80620007f696845196620007888862000afa565b602788527f416464726573733a206c6f772d6c6576656c2064656c65676174652063616c6c87890152660819985a5b195960ca1b868901525190845af4913d1562000803573d620007e7620007dd8262000b50565b9251928362000b2d565b81528681943d92013e62000d65565b503880808080856200076b565b506060925062000d65565b50600162000765565b835162461bcd60e51b8152908101859052602960248201527f45524331393637557067726164653a20756e737570706f727465642070726f786044820152681a58589b195555525160ba1b6064820152608490fd5b9091508881813d83116200089d575b62000887818362000b2d565b810103126200089957519038620006ba565b8a80fd5b503d6200087b565b509034620001355760208060031936011262000ab357620008c562000ade565b916001600160a01b037f00000000000000000000000000000000000000000000000000000000000000008116620008ff3082141562000c0f565b6200091f600080516020620036aa83398151915291838354161462000c71565b6200092962000b6d565b8251908482019282841067ffffffffffffffff85111762000aa0578385528883527f4910fdfa16fed3260ed0e7147f7cc6da11a60208b5b9406d12a635614ffd91435460ff16156200098757505050505050620000e0915062000cd3565b869293949596169085516352d1902d60e01b815287818a81865afa8a918162000a6b575b5062000a0b57865162461bcd60e51b8152808a01899052602e60248201527f45524331393637557067726164653a206e657720696d706c656d656e7461746960448201526d6f6e206973206e6f74205555505360901b6064820152608490fd5b97919293969594970362000817575062000a258262000cd3565b7fbc7cd75a20ee27fd9adebab32041f755214dbc6bffa90cc0225b39da2e5c2d3b8780a28584511580159062000a6357620007745750505050505080f35b508062000765565b9091508881813d831162000a98575b62000a86818362000b2d565b810103126200089957519038620009ab565b503d62000a7a565b634e487b7160e01b895260418852602489fd5b8380fd5b849034620003de5781600319360112620003de5760c9546001600160a01b03168152602090f35b600435906001600160a01b038216820362000af557565b600080fd5b6060810190811067ffffffffffffffff82111762000b1757604052565b634e487b7160e01b600052604160045260246000fd5b90601f8019910116810190811067ffffffffffffffff82111762000b1757604052565b67ffffffffffffffff811162000b1757601f01601f191660200190565b6033546001600160a01b0316330362000b8257565b606460405162461bcd60e51b815260206004820152602060248201527f4f776e61626c653a2063616c6c6572206973206e6f7420746865206f776e65726044820152fd5b603380546001600160a01b039283166001600160a01b0319821681179092559091167f8be0079c531659141344cd1fd0a4f28419497f9722a3daafe3b4186f6b6457e0600080a3565b1562000c1757565b60405162461bcd60e51b815260206004820152602c60248201527f46756e6374696f6e206d7573742062652063616c6c6564207468726f7567682060448201526b19195b1959d85d1958d85b1b60a21b6064820152608490fd5b1562000c7957565b60405162461bcd60e51b815260206004820152602c60248201527f46756e6374696f6e206d7573742062652063616c6c6564207468726f7567682060448201526b6163746976652070726f787960a01b6064820152608490fd5b803b1562000d0a57600080516020620036aa83398151915280546001600160a01b0319166001600160a01b03909216919091179055565b60405162461bcd60e51b815260206004820152602d60248201527f455243313936373a206e657720696d706c656d656e746174696f6e206973206e60448201526c1bdd08184818dbdb9d1c9858dd609a1b6064820152608490fd5b9192901562000dca575081511562000d7b575090565b3b1562000d855790565b60405162461bcd60e51b815260206004820152601d60248201527f416464726573733a2063616c6c20746f206e6f6e2d636f6e74726163740000006044820152606490fd5b82519091501562000dde5750805190602001fd5b60405162461bcd60e51b81526020600482015290819062000e0490602483019062000e2d565b0390fd5b60005b83811062000e1c5750506000910152565b818101518382015260200162000e0b565b9060209162000e488151809281855285808601910162000e08565b601f01601f1916010190565b1562000e5c57565b60405162461bcd60e51b815260206004820152602b60248201527f496e697469616c697a61626c653a20636f6e7472616374206973206e6f74206960448201526a6e697469616c697a696e6760a81b6064820152608490fd5b6001600160a01b03909116815260406020820181905262000ed99291019062000e2d565b90565b9062000ee9818362000fc3565b6040516001600160a01b03936000939290919085811690817f805996f252884581e2f74cf3d2b03564d5ec26ccc90850ae12653dc1b72d1fa28780a23b62000fba5750848060c954169263189acdbd60e31b60208401521660248201526024815262000f558162000afa565b604051916104168084019084821067ffffffffffffffff83111762000fa6579184939162000f8993620010a8863962000eb5565b039083f590811562000f9a57501690565b604051903d90823e3d90fd5b634e487b7160e01b87526041600452602487fd5b94505050505090565b600b9060559261041691604092620010826200108f855193602094859162000fee8387018362000b2d565b85825282820195620010a8873960c954895163189acdbd60e31b858201526001600160a01b0392831660248083019190915281529116906200104a9062001059906200103a8162000afa565b8b51928391878301958662000eb5565b03601f19810183528262000b2d565b895195869362001072868601998a925192839162000e08565b8401915180938684019062000e08565b0103808452018262000b2d565b5190208351938401528201523081520160ff8153209056fe604060808152610416908138038061001681610218565b93843982019181818403126102135780516001600160a01b038116808203610213576020838101516001600160401b0394919391858211610213570186601f820112156102135780519061007161006c83610253565b610218565b918083528583019886828401011161021357888661008f930161026e565b813b156101b9577f360894a13ba1a3210667c828492db98dca3e2076cc3735a920a3ca505d382bbc80546001600160a01b031916841790556000927fbc7cd75a20ee27fd9adebab32041f755214dbc6bffa90cc0225b39da2e5c2d3b8480a28051158015906101b2575b61010b575b855160d190816103458239f35b855194606086019081118682101761019e578697849283926101889952602788527f416464726573733a206c6f772d6c6576656c2064656c65676174652063616c6c87890152660819985a5b195960ca1b8a8901525190845af4913d15610194573d9061017a61006c83610253565b91825281943d92013e610291565b508038808080806100fe565b5060609250610291565b634e487b7160e01b84526041600452602484fd5b50826100f9565b855162461bcd60e51b815260048101859052602d60248201527f455243313936373a206e657720696d706c656d656e746174696f6e206973206e60448201526c1bdd08184818dbdb9d1c9858dd609a1b6064820152608490fd5b600080fd5b6040519190601f01601f191682016001600160401b0381118382101761023d57604052565b634e487b7160e01b600052604160045260246000fd5b6001600160401b03811161023d57601f01601f191660200190565b60005b8381106102815750506000910152565b8181015183820152602001610271565b919290156102f357508151156102a5575090565b3b156102ae5790565b60405162461bcd60e51b815260206004820152601d60248201527f416464726573733a2063616c6c20746f206e6f6e2d636f6e74726163740000006044820152606490fd5b8251909150156103065750805190602001fd5b6044604051809262461bcd60e51b825260206004830152610336815180928160248601526020868601910161026e565b601f01601f19168101030190fdfe608060405236156054577f360894a13ba1a3210667c828492db98dca3e2076cc3735a920a3ca505d382bbc54600090819081906001600160a01b0316368280378136915af43d82803e156050573d90f35b3d90fd5b7f360894a13ba1a3210667c828492db98dca3e2076cc3735a920a3ca505d382bbc54600090819081906001600160a01b0316368280378136915af43d82803e156050573d90f3fea2646970667358221220044b95600c5a8b16f58ad7053fc82847c6e00cbcad98e443169bf78d6395632364736f6c6343000814003360e0346200019957601f620021ec38819003918201601f19168301916001600160401b038311848410176200019e578084926040948552833981010312620001995780516001600160a01b03918282168203620001995760200151918216820362000199573060805260a05260c05260005460ff8160081c16620001445760ff8082160362000108575b6040516120379081620001b58239608051818181610576015281816109da0152610aef015260a0518181816106e0015281816107b30152818161084d01528181610c8701528181610e2701528181610fa8015281816110e60152818161185001526118a1015260c0518181816102f801528181610d3d015261193f0152f35b60ff90811916176000557f7f26b83ff96e1f2b6a682f133852f6798a09c465da95921460cefb3847402498602060405160ff8152a13862000089565b60405162461bcd60e51b815260206004820152602760248201527f496e697469616c697a61626c653a20636f6e747261637420697320696e697469604482015266616c697a696e6760c81b6064820152608490fd5b600080fd5b634e487b7160e01b600052604160045260246000fdfe6080604052600436101561001b575b361561001957600080fd5b005b60003560e01c806223de291461019a57806301ffc9a7146101955780630b699abe14610190578063150b7a021461018b5780631626ba7e1461018657806318dfb3c7146101815780633659cfe61461017c5780633a871cdd146101775780634a58db19146101725780634d44560d1461016d5780634f1ef2861461016857806352d1902d14610163578063715018a61461015e5780638da5cb5b14610159578063b0d691fe14610154578063b61d27f61461014f578063bb5032061461014a578063bc197c8114610145578063c399ec8814610140578063c4d66de81461013b578063d087d28814610136578063f23a6e6114610131578063f2fde38b1461012c5763fff35b720361000e57611094565b61106c565b611012565b610f75565b610e88565b610dfb565b610d6c565b610d27565b610cb6565b610c71565b610c48565b610ba1565b610adc565b610988565b61081c565b6107a4565b6106ab565b61054f565b610467565b6103e6565b61038c565b6102bc565b61024e565b6101e2565b6001600160a01b038116036101b057565b600080fd5b9181601f840112156101b0578235916001600160401b0383116101b057602083818601950101116101b057565b346101b05760c03660031901126101b0576101fe60043561019f565b61020960243561019f565b61021460443561019f565b6001600160401b036084358181116101b0576102349036906004016101b5565b505060a4359081116101b0576100199036906004016101b5565b346101b05760203660031901126101b05760043563ffffffff60e01b81168091036101b057602090630a85bd0160e11b81149081156102ab575b811561029a575b506040519015158152f35b6301ffc9a760e01b1490503861028f565b630271189760e51b81149150610288565b346101b05760203660031901126101b0576004356102d98161019f565b604051638da5cb5b60e01b81526001600160a01b0391906020816004817f000000000000000000000000000000000000000000000000000000000000000087165afa90811561038757600091610340575b506100199261033b91163314611f6a565b6111b9565b906020823d821161037f575b8161035960209383610915565b8101031261037c57506100199261033b91516103748161019f565b91509261032a565b80fd5b3d915061034c565b61117d565b346101b05760803660031901126101b0576103a860043561019f565b6103b360243561019f565b6064356001600160401b0381116101b0576103d29036906004016101b5565b5050604051630a85bd0160e11b8152602090f35b346101b05760403660031901126101b0576024356001600160401b0381116101b05761042461041b60209236906004016101b5565b90600435611c86565b6040516001600160e01b03199091168152f35b9181601f840112156101b0578235916001600160401b0383116101b0576020808501948460051b0101116101b057565b346101b05760403660031901126101b0576001600160401b036004358181116101b057610498903690600401610437565b90916024359081116101b0576104b2903690600401610437565b6104ba611897565b8083036105145760005b8181106104cd57005b6104fe6104e36104de83878961161d565b611632565b6104f86104f184868861166e565b3691610951565b90611be3565b600019811461050f576001016104c4565b6115f1565b60405162461bcd60e51b815260206004820152601360248201527277726f6e67206172726179206c656e6774687360681b6044820152606490fd5b346101b05760203660031901126101b05760043561056c8161019f565b6001600160a01b037f0000000000000000000000000000000000000000000000000000000000000000811691906105a530841415611202565b6105c2600080516020611fc2833981519152938285541614611263565b6105ca611c03565b604051906105d7826108df565b600082527f4910fdfa16fed3260ed0e7147f7cc6da11a60208b5b9406d12a635614ffd91435460ff16156106115750506100199150611371565b6020600491604094939451928380926352d1902d60e01b825286165afa6000918161066c575b506106595760405162461bcd60e51b81528061065560048201611322565b0390fd5b6100199361066791146112c4565b611401565b61068e91925060203d8111610695575b6106868183610915565b81019061116e565b9038610637565b503d61067c565b90816101609103126101b05790565b346101b05760603660031901126101b0576004356001600160401b0381116101b0576106db90369060040161069c565b6044357f00000000000000000000000000000000000000000000000000000000000000006001600160a01b031633036107545761071e6107369260243590611976565b908061073a575b506040519081529081906020820190565b0390f35b600080808093338219f15061074d611189565b5038610725565b60405162461bcd60e51b815260206004820152601c60248201527f6163636f756e743a206e6f742066726f6d20456e747279506f696e74000000006044820152606490fd5b60009103126101b057565b60008060031936011261037c577f00000000000000000000000000000000000000000000000000000000000000006001600160a01b031681813b1561037c5760405163b760faf960e01b8152306004820152918290602490829034905af1801561038757610810575080f35b610819906108c7565b80f35b346101b0576000604036600319011261037c5760043561083b8161019f565b610843611c03565b6001600160a01b037f0000000000000000000000000000000000000000000000000000000000000000811691839190833b156108ad5760449083604051958694859363040b850f60e31b855216600484015260243560248401525af1801561038757610810575080f35b8280fd5b634e487b7160e01b600052604160045260246000fd5b6001600160401b0381116108da57604052565b6108b1565b602081019081106001600160401b038211176108da57604052565b606081019081106001600160401b038211176108da57604052565b90601f801991011681019081106001600160401b038211176108da57604052565b6001600160401b0381116108da57601f01601f191660200190565b92919261095d82610936565b9161096b6040519384610915565b8294818452818301116101b0578281602093846000960137010152565b60403660031901126101b0576004356109a08161019f565b6024356001600160401b0381116101b057366023820112156101b0576109d0903690602481600401359101610951565b6001600160a01b037f00000000000000000000000000000000000000000000000000000000000000008116929190610a0a30851415611202565b610a27600080516020611fc2833981519152948286541614611263565b610a2f611c03565b7f4910fdfa16fed3260ed0e7147f7cc6da11a60208b5b9406d12a635614ffd91435460ff1615610a655750506100199150611371565b6020600491604094939451928380926352d1902d60e01b825286165afa60009181610abc575b50610aa95760405162461bcd60e51b81528061065560048201611322565b61001993610ab791146112c4565b6114bd565b610ad591925060203d8111610695576106868183610915565b9038610a8b565b346101b05760003660031901126101b0577f00000000000000000000000000000000000000000000000000000000000000006001600160a01b03163003610b3657604051600080516020611fc28339815191528152602090f35b60405162461bcd60e51b815260206004820152603860248201527f555550535570677261646561626c653a206d757374206e6f742062652063616c60448201527f6c6564207468726f7567682064656c656761746563616c6c00000000000000006064820152608490fd5b346101b05760008060031936011261037c576033546001600160a01b038116338103610c045782916bffffffffffffffffffffffff60a01b166033557f8be0079c531659141344cd1fd0a4f28419497f9722a3daafe3b4186f6b6457e08280a380f35b606460405162461bcd60e51b815260206004820152602060248201527f4f776e61626c653a2063616c6c6572206973206e6f7420746865206f776e65726044820152fd5b346101b05760003660031901126101b0576033546040516001600160a01b039091168152602090f35b346101b05760003660031901126101b0576040517f00000000000000000000000000000000000000000000000000000000000000006001600160a01b03168152602090f35b346101b05760603660031901126101b057600435610cd38161019f565b6044356001600160401b0381116101b057600091610d01610cf9849336906004016101b5565b6104f1611897565b9060208251920190602435905af1610d17611189565b9015610d1f57005b602081519101fd5b346101b05760003660031901126101b0576040517f00000000000000000000000000000000000000000000000000000000000000006001600160a01b03168152602090f35b346101b05760a03660031901126101b057610d8860043561019f565b610d9360243561019f565b6001600160401b036044358181116101b057610db3903690600401610437565b50506064358181116101b057610dcd903690600401610437565b50506084359081116101b057610de79036906004016101b5565b505060405163bc197c8160e01b8152602090f35b346101b05760003660031901126101b0576040516370a0823160e01b81523060048201526020816024817f00000000000000000000000000000000000000000000000000000000000000006001600160a01b03165afa801561038757602091600091610e6b575b50604051908152f35b610e829150823d8111610695576106868183610915565b38610e62565b346101b05760203660031901126101b057600435610ea58161019f565b610ee960005491610ecd60ff8460081c161580948195610f67575b8115610f47575b50611689565b82610ee0600160ff196000541617600055565b610f2e576116ec565b610eef57005b610eff61ff001960005416600055565b604051600181527f7f26b83ff96e1f2b6a682f133852f6798a09c465da95921460cefb384740249890602090a1005b610f4261010061ff00196000541617600055565b6116ec565b303b15915081610f59575b5038610ec7565b6001915060ff161438610f52565b600160ff8216109150610ec0565b346101b05760003660031901126101b057604051631aab3f0d60e11b8152306004820152600060248201526020816044817f00000000000000000000000000000000000000000000000000000000000000006001600160a01b03165afa80156103875761073691600091610ff457506040519081529081906020820190565b61100c915060203d8111610695576106868183610915565b38610725565b346101b05760a03660031901126101b05761102e60043561019f565b61103960243561019f565b6084356001600160401b0381116101b0576110589036906004016101b5565b505060405163f23a6e6160e01b8152602090f35b346101b05760203660031901126101b05761001960043561108c8161019f565b61033b611c03565b346101b05760403660031901126101b0576004356001600160401b0381116101b0576110c490369060040161069c565b6110d060243582611976565b15806110e4575b6040519015158152602090f35b7f00000000000000000000000000000000000000000000000000000000000000006001600160a01b0316803b156101b05760408051630bd28e3b60e01b815260209490940135901c60048401526000908390602490829084905af19182156103875761073692611155575b506110d7565b80611162611168926108c7565b80610799565b3861114f565b908160209103126101b0575190565b6040513d6000823e3d90fd5b3d156111b4573d9061119a82610936565b916111a86040519384610915565b82523d6000602084013e565b606090565b603380546001600160a01b039283166001600160a01b0319821681179092559091167f8be0079c531659141344cd1fd0a4f28419497f9722a3daafe3b4186f6b6457e0600080a3565b1561120957565b60405162461bcd60e51b815260206004820152602c60248201527f46756e6374696f6e206d7573742062652063616c6c6564207468726f7567682060448201526b19195b1959d85d1958d85b1b60a21b6064820152608490fd5b1561126a57565b60405162461bcd60e51b815260206004820152602c60248201527f46756e6374696f6e206d7573742062652063616c6c6564207468726f7567682060448201526b6163746976652070726f787960a01b6064820152608490fd5b156112cb57565b60405162461bcd60e51b815260206004820152602960248201527f45524331393637557067726164653a20756e737570706f727465642070726f786044820152681a58589b195555525160ba1b6064820152608490fd5b60809060208152602e60208201527f45524331393637557067726164653a206e657720696d706c656d656e7461746960408201526d6f6e206973206e6f74205555505360901b60608201520190565b803b156113a657600080516020611fc283398151915280546001600160a01b0319166001600160a01b03909216919091179055565b60405162461bcd60e51b815260206004820152602d60248201527f455243313936373a206e657720696d706c656d656e746174696f6e206973206e60448201526c1bdd08184818dbdb9d1c9858dd609a1b6064820152608490fd5b9061140b82611371565b6001600160a01b0382167fbc7cd75a20ee27fd9adebab32041f755214dbc6bffa90cc0225b39da2e5c2d3b600080a28051158015906114b5575b61144d575050565b6114b29160008060405193611461856108fa565b602785527f416464726573733a206c6f772d6c6576656c2064656c65676174652063616c6c6020860152660819985a5b195960ca1b6040860152602081519101845af46114ac611189565b9161155c565b50565b506000611445565b906114c782611371565b6001600160a01b0382167fbc7cd75a20ee27fd9adebab32041f755214dbc6bffa90cc0225b39da2e5c2d3b600080a28051158015906115085761144d575050565b506001611445565b1561151757565b60405162461bcd60e51b815260206004820152601d60248201527f416464726573733a2063616c6c20746f206e6f6e2d636f6e74726163740000006044820152606490fd5b9192901561157f5750815115611570575090565b61157c903b1515611510565b90565b8251909150156115925750805190602001fd5b6040519062461bcd60e51b82528160208060048301528251908160248401526000935b8285106115d8575050604492506000838284010152601f80199101168101030190fd5b84810182015186860160440152938101938593506115b5565b634e487b7160e01b600052601160045260246000fd5b634e487b7160e01b600052603260045260246000fd5b919081101561162d5760051b0190565b611607565b3561157c8161019f565b903590601e19813603018212156101b057018035906001600160401b0382116101b0576020019181360383136101b057565b9082101561162d576116859160051b81019061163c565b9091565b1561169057565b60405162461bcd60e51b815260206004820152602e60248201527f496e697469616c697a61626c653a20636f6e747261637420697320616c72656160448201526d191e481a5b9a5d1a585b1a5e995960921b6064820152608490fd5b61170660ff60005460081c16611701816117d1565b6117d1565b61170f336111b9565b61172460ff60005460081c16611701816117d1565b600080516020611fc2833981519152546001600160a01b0316600081815260c9602052604090205490919060ff1661178c5761178561177861178a9360018060a01b031660005260c9602052604060002090565b805460ff19166001179055565b611831565b565b60405162461bcd60e51b815260206004820152601960248201527f4163636f756e743a20616c7265616479206d69677261746564000000000000006044820152606490fd5b156117d857565b60405162461bcd60e51b815260206004820152602b60248201527f496e697469616c697a61626c653a20636f6e7472616374206973206e6f74206960448201526a6e697469616c697a696e6760a81b6064820152608490fd5b611839611c03565b611842816111b9565b6001600160a01b03908116907f0000000000000000000000000000000000000000000000000000000000000000167f526ffefac8167421b9048ae3377810715d834479565b0182ea4155f0efa4c380600080a3565b60018060a01b03807f0000000000000000000000000000000000000000000000000000000000000000163314908115611967575b811561193b575b50156118da57565b60405162461bcd60e51b815260206004820152603360248201527f6163636f756e743a206e6f74204f776e6572206f7220456e747279506f696e74604482015272081bdc88151bdad95b915b9d1c9e541bda5b9d606a1b6064820152608490fd5b90507f0000000000000000000000000000000000000000000000000000000000000000163314386118d2565b809150603354163314906118cb565b907f19457468657265756d205369676e6564204d6573736167653a0a333200000000600052601c52603c6000206119d66119ce60018060a01b03926119c86104f185603354169661014081019061163c565b90611b26565b919091611a06565b16036119e157600090565b600190565b600511156119f057565b634e487b7160e01b600052602160045260246000fd5b611a0f816119e6565b80611a175750565b611a20816119e6565b60018103611a6d5760405162461bcd60e51b815260206004820152601860248201527f45434453413a20696e76616c6964207369676e617475726500000000000000006044820152606490fd5b611a76816119e6565b60028103611ac35760405162461bcd60e51b815260206004820152601f60248201527f45434453413a20696e76616c6964207369676e6174757265206c656e677468006044820152606490fd5b80611acf6003926119e6565b14611ad657565b60405162461bcd60e51b815260206004820152602260248201527f45434453413a20696e76616c6964207369676e6174757265202773272076616c604482015261756560f01b6064820152608490fd5b906041815114600014611b5057611685916020820151906060604084015193015160001a90611b5a565b5050600090600290565b939291906fa2a8918ca85bafe22016d0b997e4df60600160ff1b038311611bd65791611ba79160209360405196879094939260ff6060936080840197845216602083015260408201520152565b836000948592838052039060015afa156103875781516001600160a01b03811615611bd0579190565b50600190565b5050509050600090600390565b600091829182602083519301915af1611bfa611189565b9015610d1f5750565b6033546001600160a01b031633148015611c7d575b15611c1f57565b60405162461bcd60e51b815260206004820152603060248201527f4f776e61626c653a2063616c6c6572206973206e6f7420746865206f776e657260448201526f081bdc881d1a194818dbdb9d1c9858dd60821b6064820152608490fd5b50333014611c18565b9190611c93913691610951565b90611ca16041835114611e43565b611cc4611cbe611cb084611ea3565b516001600160f81b03191690565b60f81c90565b611cd6611cd084611f06565b93611f5a565b916fa2a8918ca85bafe22016d0b997e4df60600160ff1b038311611dea5760ff8216601b8114159081611dde575b50611d8557611d38600093602095604051948594859094939260ff6060936080840197845216602083015260408201520152565b838052039060015afa15610387576000516001600160a01b0316611d5d811515611eb3565b6033546001600160a01b031603611d7957630b135d3f60e11b90565b6001600160e01b031990565b60405162461bcd60e51b815260206004820152603d6024820152600080516020611fe283398151915260448201527f3a20696e76616c6964207369676e6174757265202776272076616c75650000006064820152608490fd5b601c9150141538611d04565b60405162461bcd60e51b815260206004820152603d6024820152600080516020611fe283398151915260448201527f3a20696e76616c6964207369676e6174757265202773272076616c75650000006064820152608490fd5b15611e4a57565b60405162461bcd60e51b815260206004820152603a6024820152600080516020611fe283398151915260448201527f3a20696e76616c6964207369676e6174757265206c656e6774680000000000006064820152608490fd5b80516040101561162d5760600190565b15611eba57565b60405162461bcd60e51b81526020600482015260306024820152600080516020611fe283398151915260448201526f1d1024a72b20a624a22fa9a4a3a722a960811b6064820152608490fd5b6020815110611f16576020015190565b606460405162461bcd60e51b815260206004820152602060248201527f72656164427974657333323a20696e76616c69642064617461206c656e6774686044820152fd5b6040815110611f16576040015190565b15611f7157565b60405162461bcd60e51b815260206004820152602260248201527f4f776e61626c653a206e6f7420546f6b656e456e747279506f696e74206f776e60448201526132b960f11b6064820152608490fdfe360894a13ba1a3210667c828492db98dca3e2076cc3735a920a3ca505d382bbc5369676e617475726556616c696461746f72237265636f7665725369676e6572a2646970667358221220d5a57dae87f66a0bb02370353d60f4cf61b678000cd63ea293d5453fa1c11d5864736f6c63430008140033360894a13ba1a3210667c828492db98dca3e2076cc3735a920a3ca505d382bbca264697066735822122033455bd5ab2105b0c5debc4b6e51a4b310a26ff56989bdeb9f9ca988f55eed4f64736f6c6343000814003360a080604052346100dc57306080526000549060ff8260081c1661008a575060ff8082160361004f575b60405161149990816100e2823960805181818161058601528181610683015261092d0152f35b60ff90811916176000557f7f26b83ff96e1f2b6a682f133852f6798a09c465da95921460cefb3847402498602060405160ff8152a138610029565b62461bcd60e51b815260206004820152602760248201527f496e697469616c697a61626c653a20636f6e747261637420697320696e697469604482015266616c697a696e6760c81b6064820152608490fd5b600080fdfe6040608081526004908136101561001557600080fd5b600091823560e01c80633659cfe6146109065780634f1ef2861461063357806352d1902d14610571578063715018a61461051457806377c93662146104eb5780638da5cb5b146104c257806394e1fc1914610458578063a9a23409146103ff578063c4d66de8146101e4578063c9a54e2b1461019c578063f2fde38b1461010b5763f465c77e146100a557600080fd5b3461010757600319906060368301126100ff5780359167ffffffffffffffff8311610103576101609083360301126100ff576100e191016110cc565b82518381529283926100f591840190610bbd565b9060208301520390f35b8380fd5b8480fd5b8280fd5b503461010757602036600319011261010757610125610acc565b9161012e610bfd565b6001600160a01b0383161561014a578361014784610c55565b80f35b906020608492519162461bcd60e51b8352820152602660248201527f4f776e61626c653a206e6577206f776e657220697320746865207a65726f206160448201526564647265737360d01b6064820152fd5b83346101e15760203660031901126101e1576101b6610acc565b6101be610bfd565b60018060a01b03166bffffffffffffffffffffffff60a01b60c954161760c95580f35b80fd5b503461010757602090816003193601126100ff57610200610acc565b9084549160ff8360081c1615928380946103f2575b80156103db575b156103815760ff198116600117875583610370575b5061024b60ff875460081c1661024681610e8d565b610e8d565b61025433610c55565b60c954918551908682019082821067ffffffffffffffff83111761035d57508652601e81527f6578656375746528616464726573732c75696e743235362c6279746573290000908501528451916102aa83610b19565b60298084527f65786563757465426174636828616464726573735b5d2c75696e743235365b5d868501908152682c62797465735b5d2960b81b948801949094529092206001600160e01b03199092166001600160a01b039091161790831c63ffffffff60c01b1617635b0e93fb60a11b1760c955610326578280f35b7f7f26b83ff96e1f2b6a682f133852f6798a09c465da95921460cefb38474024989161ff001984541684555160018152a138808280f35b634e487b7160e01b895260419052602488fd5b61ffff191661010117865538610231565b855162461bcd60e51b8152808401869052602e60248201527f496e697469616c697a61626c653a20636f6e747261637420697320616c72656160448201526d191e481a5b9a5d1a585b1a5e995960921b6064820152608490fd5b50303b15801561021c5750600160ff82161461021c565b50600160ff821610610215565b83823461045457606036600319011261045457600381351015610454576024359067ffffffffffffffff908183116100ff57366023840112156100ff5782013590811161010757369101602401116101e15780f35b5080fd5b5034610107576003196060368201126100ff5781359067ffffffffffffffff8211610103576101609082360301126100ff576024359165ffffffffffff9485841684036101e15760443595861686036101e1575091602094916104bb9301610f6c565b9051908152f35b50503461045457816003193601126104545760335490516001600160a01b039091168152602090f35b50503461045457816003193601126104545760c95490516001600160a01b039091168152602090f35b83346101e157806003193601126101e15761052d610bfd565b603380546001600160a01b0319811690915581906001600160a01b03167f8be0079c531659141344cd1fd0a4f28419497f9722a3daafe3b4186f6b6457e08280a380f35b5082346101e157806003193601126101e157507f00000000000000000000000000000000000000000000000000000000000000006001600160a01b031630036105cb57602082516000805160206114448339815191528152f35b6020608492519162461bcd60e51b8352820152603860248201527f555550535570677261646561626c653a206d757374206e6f742062652063616c60448201527f6c6564207468726f7567682064656c656761746563616c6c00000000000000006064820152fd5b50908060031936011261010757610648610acc565b9060243567ffffffffffffffff81116101035736602382011215610103576106799036906024818701359101610b73565b6001600160a01b037f000000000000000000000000000000000000000000000000000000000000000081169291906106b330851415610c9e565b6106d0600080516020611444833981519152948286541614610cff565b6106d8610bfd565b7f4910fdfa16fed3260ed0e7147f7cc6da11a60208b5b9406d12a635614ffd91435460ff161561071057505050506101479150610d60565b82516352d1902d60e01b81526020959394918416919086818981865afa8991816108d3575b5061079457855162461bcd60e51b8152808901889052602e60248201527f45524331393637557067726164653a206e657720696d706c656d656e7461746960448201526d6f6e206973206e6f74205555505360901b6064820152608490fd5b969192959493960361087e57506107aa85610d60565b7fbc7cd75a20ee27fd9adebab32041f755214dbc6bffa90cc0225b39da2e5c2d3b8680a2825115801590610876575b6107e5575b5050505080f35b6108629385808351956107f787610b19565b602787527f416464726573733a206c6f772d6c6576656c2064656c65676174652063616c6c86880152660819985a5b195960ca1b858801528581519101845af4913d1561086c573d61085461084b82610b57565b92519283610b35565b81528681943d92013e610df0565b50388080806107de565b5060609250610df0565b5060016107d9565b825162461bcd60e51b8152908101849052602960248201527f45524331393637557067726164653a20756e737570706f727465642070726f786044820152681a58589b195555525160ba1b6064820152608490fd5b9091508781813d83116108ff575b6108eb8183610b35565b810103126108fb57519038610735565b8980fd5b503d6108e1565b509034610107576020806003193601126100ff57610922610acc565b916001600160a01b037f0000000000000000000000000000000000000000000000000000000000000000811661095a30821415610c9e565b610977600080516020611444833981519152918383541614610cff565b61097f610bfd565b82519161098b83610ae7565b8783527f4910fdfa16fed3260ed0e7147f7cc6da11a60208b5b9406d12a635614ffd91435460ff16156109c75750505050506101479150610d60565b85939495169084516352d1902d60e01b815286818981865afa899181610a9d575b50610a4757855162461bcd60e51b8152808901889052602e60248201527f45524331393637557067726164653a206e657720696d706c656d656e7461746960448201526d6f6e206973206e6f74205555505360901b6064820152608490fd5b969192959493960361087e5750610a5d85610d60565b7fbc7cd75a20ee27fd9adebab32041f755214dbc6bffa90cc0225b39da2e5c2d3b8680a2825115801590610a96576107e5575050505080f35b50846107d9565b9091508781813d8311610ac5575b610ab58183610b35565b810103126108fb575190386109e8565b503d610aab565b600435906001600160a01b0382168203610ae257565b600080fd5b6020810190811067ffffffffffffffff821117610b0357604052565b634e487b7160e01b600052604160045260246000fd5b6060810190811067ffffffffffffffff821117610b0357604052565b90601f8019910116810190811067ffffffffffffffff821117610b0357604052565b67ffffffffffffffff8111610b0357601f01601f191660200190565b929192610b7f82610b57565b91610b8d6040519384610b35565b829481845281830111610ae2578281602093846000960137010152565b359065ffffffffffff82168203610ae257565b919082519283825260005b848110610be9575050826000602080949584010152601f8019910116010190565b602081830181015184830182015201610bc8565b6033546001600160a01b03163303610c1157565b606460405162461bcd60e51b815260206004820152602060248201527f4f776e61626c653a2063616c6c6572206973206e6f7420746865206f776e65726044820152fd5b603380546001600160a01b039283166001600160a01b0319821681179092559091167f8be0079c531659141344cd1fd0a4f28419497f9722a3daafe3b4186f6b6457e0600080a3565b15610ca557565b60405162461bcd60e51b815260206004820152602c60248201527f46756e6374696f6e206d7573742062652063616c6c6564207468726f7567682060448201526b19195b1959d85d1958d85b1b60a21b6064820152608490fd5b15610d0657565b60405162461bcd60e51b815260206004820152602c60248201527f46756e6374696f6e206d7573742062652063616c6c6564207468726f7567682060448201526b6163746976652070726f787960a01b6064820152608490fd5b803b15610d955760008051602061144483398151915280546001600160a01b0319166001600160a01b03909216919091179055565b60405162461bcd60e51b815260206004820152602d60248201527f455243313936373a206e657720696d706c656d656e746174696f6e206973206e60448201526c1bdd08184818dbdb9d1c9858dd609a1b6064820152608490fd5b91929015610e525750815115610e04575090565b3b15610e0d5790565b60405162461bcd60e51b815260206004820152601d60248201527f416464726573733a2063616c6c20746f206e6f6e2d636f6e74726163740000006044820152606490fd5b825190915015610e655750805190602001fd5b60405162461bcd60e51b815260206004820152908190610e89906024830190610bbd565b0390fd5b15610e9457565b60405162461bcd60e51b815260206004820152602b60248201527f496e697469616c697a61626c653a20636f6e7472616374206973206e6f74206960448201526a6e697469616c697a696e6760a81b6064820152608490fd5b903590601e1981360301821215610ae2570180359067ffffffffffffffff8211610ae257602001918136038313610ae257565b15610f2757565b60405162461bcd60e51b815260206004820152601e60248201527f4141323720696e76616c69642066756e6374696f6e2073656c6563746f7200006044820152606490fd5b9160608301610f7b8185610eed565b600492919211610ae2576001600160e01b03199135821690610fc590610fa2831515610f20565b610fbf60c95493858560401b168114908115611071575b50610f20565b86610eed565b600493919311610ae25760405192602060018060a01b03978881351682870152013560408501523516606083015260608252608082019382851067ffffffffffffffff861117610b035761106b938560405260a084019660c0885261102e610160860186610bbd565b934660c08701523060e08701521661010085015265ffffffffffff8092166101208501521661014083015203609f1981018352607f190182610b35565b51902090565b9050858560201b161438610fb9565b1561108757565b60405162461bcd60e51b815260206004820152601760248201527f414133322065787069726564206f72206e6f74206475650000000000000000006044820152606490fd5b906110db610120830183610eed565b9283605411610ae2576110f060148301610baa565b916110fd60348201610baa565b946053190191604083148015611258575b156112135785846111429261113d65ffffffffffff80421690611135818716831015611080565b841611611080565b610f6c565b7f19457468657265756d205369676e6564204d6573736167653a0a333200000000600052601c5261119d611195603c60002061118f60018060a01b03948560c95416966054369201610b73565b9061137c565b919091611262565b16036111d9576040516111af81610ae7565b600081529260a09190911b65ffffffffffff60a01b1660d09190911b6001600160d01b0319161790565b6001906040516111e881610ae7565b600081529360a09190911b65ffffffffffff60a01b1660d09190911b6001600160d01b031916171790565b60405162461bcd60e51b815260206004820152601d60248201527f4141333520696e76616c6964207369676e6174757265206c656e6774680000006044820152606490fd5b506041831461110e565b600581101561136657806112735750565b600181036112c05760405162461bcd60e51b815260206004820152601860248201527f45434453413a20696e76616c6964207369676e617475726500000000000000006044820152606490fd5b6002810361130d5760405162461bcd60e51b815260206004820152601f60248201527f45434453413a20696e76616c6964207369676e6174757265206c656e677468006044820152606490fd5b60031461131657565b60405162461bcd60e51b815260206004820152602260248201527f45434453413a20696e76616c6964207369676e6174757265202773272076616c604482015261756560f01b6064820152608490fd5b634e487b7160e01b600052602160045260246000fd5b9060418151146000146113aa576113a6916020820151906060604084015193015160001a906113b4565b9091565b5050600090600290565b9291907f7fffffffffffffffffffffffffffffff5d576e7357a4501ddfe92f46681b20a083116114375791608094939160ff602094604051948552168484015260408301526060820152600093849182805260015afa1561142a5781516001600160a01b03811615611424579190565b50600190565b50604051903d90823e3d90fd5b5050505060009060039056fe360894a13ba1a3210667c828492db98dca3e2076cc3735a920a3ca505d382bbca26469706673582212200fd6da9b00c35d05fa40f96be6d38b506ab95bb6865ebaf0a2940d7299586cc064736f6c6343000814003360c0346200013757601f6200279938819003918201601f19168301916001600160401b038311848410176200013c578084926020946040528339810103126200013757516001600160a01b038116810362000137573060805260a05260005460ff8160081c16620000e25760ff80821603620000a6575b6040516126469081620001538239608051818181610489015281816106d201526107e7015260a051816113e40152f35b60ff90811916176000557f7f26b83ff96e1f2b6a682f133852f6798a09c465da95921460cefb3847402498602060405160ff8152a13862000076565b60405162461bcd60e51b815260206004820152602760248201527f496e697469616c697a61626c653a20636f6e747261637420697320696e697469604482015266616c697a696e6760c81b6064820152608490fd5b600080fd5b634e487b7160e01b600052604160045260246000fdfe6080604052600436101561001257600080fd5b60003560e01c80630bd28e3b1461010757806316e4cbf9146101025780631b2e01b8146100fd5780631fad948c146100f857806335377214146100f357806335567e1a146100ee5780633659cfe6146100e95780634f1ef286146100e457806352d1902d146100df578063715018a6146100da57806377a24f36146100d55780638da5cb5b146100d0578063a6193531146100cb578063daf6a3f6146100c65763f2fde38b146100c157600080fd5b610b03565b610a7c565b610a3d565b610a14565b6108fa565b610899565b6107d4565b610691565b610462565b61042a565b61039e565b610225565b61019b565b610154565b610127565b602435906001600160c01b038216820361012257565b600080fd5b34610122576020366003190112610122576004356001600160c01b0381160361012257610152610b94565b005b346101225760003660031901126101225760fc546040516001600160a01b039091168152602090f35b6001600160a01b0381160361012257565b35906101998261017d565b565b34610122576040366003190112610122576004356101b88161017d565b6101c061010c565b9060018060a01b031660005260fd60205260406000209060018060c01b03166000526020526020604060002054604051908152f35b9181601f84011215610122578235916001600160401b038311610122576020808501948460051b01011161012257565b34610122576040366003190112610122576004356001600160401b038111610122576102559036906004016101f5565b61026060243561017d565b6001916002835414610359576002835581156103055760005b8281106102895761015260018055565b806102ff6102998693868661145c565b80356001600160a01b0316906102f9906102f2906102df60208201356001600160401b038116906102ce9060401c87856114b6565b6102d88684612015565b85836116b3565b6102e881611ade565b6060810190611484565b369161063c565b90612434565b01610279565b60405162461bcd60e51b815260206004820152602660248201527f41413432206e65656473206174206c65617374206f6e652075736572206f70656044820152653930ba34b7b760d11b6064820152608490fd5b60405162461bcd60e51b815260206004820152601f60248201527f5265656e7472616e637947756172643a207265656e7472616e742063616c6c006044820152606490fd5b3461012257602080600319360112610122576004356001600160401b038111610122576103cf9036906004016101f5565b906103d8610b94565b60ff6103e48154611fdc565b815560005b8381106103f257005b6104259082548160051b8501356104088161017d565b6001600160a01b0316600090815261010088526040902055611fdc565b6103e9565b3461012257604036600319011261012257602061045a60043561044c8161017d565b61045461010c565b906113ab565b604051908152f35b346101225760203660031901126101225760043561047f8161017d565b6001600160a01b037f0000000000000000000000000000000000000000000000000000000000000000811691906104b830841415610c35565b6104d56000805160206125f1833981519152938285541614610c96565b6104dd610b94565b604051906104ea826105e5565b600082527f4910fdfa16fed3260ed0e7147f7cc6da11a60208b5b9406d12a635614ffd91435460ff16156105245750506101529150610dbf565b6020600491604094939451928380926352d1902d60e01b825286165afa6000918161057f575b5061056c5760405162461bcd60e51b81528061056860048201610d70565b0390fd5b6101529361057a9114610d12565b610e4f565b6105a191925060203d81116105a8575b6105998183610600565b810190610cf7565b903861054a565b503d61058f565b634e487b7160e01b600052604160045260246000fd5b606081019081106001600160401b038211176105e057604052565b6105af565b602081019081106001600160401b038211176105e057604052565b90601f801991011681019081106001600160401b038211176105e057604052565b6001600160401b0381116105e057601f01601f191660200190565b92919261064882610621565b916106566040519384610600565b829481845281830111610122578281602093846000960137010152565b9080601f830112156101225781602061068e9335910161063c565b90565b6040366003190112610122576004356106a98161017d565b6024356001600160401b038111610122576106c8903690600401610673565b6001600160a01b037f0000000000000000000000000000000000000000000000000000000000000000811692919061070230851415610c35565b61071f6000805160206125f1833981519152948286541614610c96565b610727610b94565b7f4910fdfa16fed3260ed0e7147f7cc6da11a60208b5b9406d12a635614ffd91435460ff161561075d5750506101529150610dbf565b6020600491604094939451928380926352d1902d60e01b825286165afa600091816107b4575b506107a15760405162461bcd60e51b81528061056860048201610d70565b610152936107af9114610d12565b610f0b565b6107cd91925060203d81116105a8576105998183610600565b9038610783565b34610122576000366003190112610122577f00000000000000000000000000000000000000000000000000000000000000006001600160a01b0316300361082e576040516000805160206125f18339815191528152602090f35b60405162461bcd60e51b815260206004820152603860248201527f555550535570677261646561626c653a206d757374206e6f742062652063616c60448201527f6c6564207468726f7567682064656c656761746563616c6c00000000000000006064820152608490fd5b34610122576000806003193601126108f7576108b3610b94565b606580546001600160a01b0319811690915581906001600160a01b03167f8be0079c531659141344cd1fd0a4f28419497f9722a3daafe3b4186f6b6457e08280a380f35b80fd5b34610122576060366003190112610122576004356109178161017d565b6024356109238161017d565b604435906001600160401b038211610122576109466109889236906004016101f5565b916000549461096c60ff8760081c161580978198610a06575b81156109e6575b5061106e565b8561097f600160ff196000541617600055565b6109cd576110d1565b61098e57005b61099e61ff001960005416600055565b604051600181527f7f26b83ff96e1f2b6a682f133852f6798a09c465da95921460cefb384740249890602090a1005b6109e161010061ff00196000541617600055565b6110d1565b303b159150816109f8575b5038610966565b6001915060ff1614386109f1565b600160ff821610915061095f565b34610122576000366003190112610122576065546040516001600160a01b039091168152602090f35b346101225760031960203682011261012257600435906001600160401b038211610122576101609082360301126101225761045a6020916004016123f2565b3461012257602036600319011261012257600435610a998161017d565b610aa1610b94565b803b15610aca5760fc80546001600160a01b0319166001600160a01b0392909216919091179055005b60405162461bcd60e51b815260206004820152601160248201527034b73b30b634b2103830bcb6b0b9ba32b960791b6044820152606490fd5b3461012257602036600319011261012257600435610b208161017d565b610b28610b94565b6001600160a01b03811615610b405761015290610bec565b60405162461bcd60e51b815260206004820152602660248201527f4f776e61626c653a206e6577206f776e657220697320746865207a65726f206160448201526564647265737360d01b6064820152608490fd5b6065546001600160a01b03163303610ba857565b606460405162461bcd60e51b815260206004820152602060248201527f4f776e61626c653a2063616c6c6572206973206e6f7420746865206f776e65726044820152fd5b606580546001600160a01b039283166001600160a01b0319821681179092559091167f8be0079c531659141344cd1fd0a4f28419497f9722a3daafe3b4186f6b6457e0600080a3565b15610c3c57565b60405162461bcd60e51b815260206004820152602c60248201527f46756e6374696f6e206d7573742062652063616c6c6564207468726f7567682060448201526b19195b1959d85d1958d85b1b60a21b6064820152608490fd5b15610c9d57565b60405162461bcd60e51b815260206004820152602c60248201527f46756e6374696f6e206d7573742062652063616c6c6564207468726f7567682060448201526b6163746976652070726f787960a01b6064820152608490fd5b90816020910312610122575190565b6040513d6000823e3d90fd5b15610d1957565b60405162461bcd60e51b815260206004820152602960248201527f45524331393637557067726164653a20756e737570706f727465642070726f786044820152681a58589b195555525160ba1b6064820152608490fd5b60809060208152602e60208201527f45524331393637557067726164653a206e657720696d706c656d656e7461746960408201526d6f6e206973206e6f74205555505360901b60608201520190565b803b15610df4576000805160206125f183398151915280546001600160a01b0319166001600160a01b03909216919091179055565b60405162461bcd60e51b815260206004820152602d60248201527f455243313936373a206e657720696d706c656d656e746174696f6e206973206e60448201526c1bdd08184818dbdb9d1c9858dd609a1b6064820152608490fd5b90610e5982610dbf565b6001600160a01b0382167fbc7cd75a20ee27fd9adebab32041f755214dbc6bffa90cc0225b39da2e5c2d3b600080a2805115801590610f03575b610e9b575050565b610f009160008060405193610eaf856105c5565b602785527f416464726573733a206c6f772d6c6576656c2064656c65676174652063616c6c6020860152660819985a5b195960ca1b6040860152602081519101845af4610efa610f5e565b91610fda565b50565b506000610e93565b90610f1582610dbf565b6001600160a01b0382167fbc7cd75a20ee27fd9adebab32041f755214dbc6bffa90cc0225b39da2e5c2d3b600080a2805115801590610f5657610e9b575050565b506001610e93565b3d15610f89573d90610f6f82610621565b91610f7d6040519384610600565b82523d6000602084013e565b606090565b15610f9557565b60405162461bcd60e51b815260206004820152601d60248201527f416464726573733a2063616c6c20746f206e6f6e2d636f6e74726163740000006044820152606490fd5b91929015610ffa5750815115610fee575090565b61068e903b1515610f8e565b82519091501561100d5750805190602001fd5b6044604051809262461bcd60e51b82526020600483015261103d815180928160248601526020868601910161104b565b601f01601f19168101030190fd5b60005b83811061105e5750506000910152565b818101518382015260200161104e565b1561107557565b60405162461bcd60e51b815260206004820152602e60248201527f496e697469616c697a61626c653a20636f6e747261637420697320616c72656160448201526d191e481a5b9a5d1a585b1a5e995960921b6064820152608490fd5b909161115b610199946110f460ff60005460081c166110ef816111bb565b6111bb565b6110fd33610bec565b6000549261113f60ff8560081c16611114816111bb565b61111d816111bb565b611126816111bb565b600180551580958196610a065781156109e6575061106e565b83611152600160ff196000541617600055565b6111a257612399565b156112af5761117061ff001960005416600055565b604051600181527f7f26b83ff96e1f2b6a682f133852f6798a09c465da95921460cefb384740249890602090a16112af565b6111b661010061ff00196000541617600055565b612399565b156111c257565b60405162461bcd60e51b815260206004820152602b60248201527f496e697469616c697a61626c653a20636f6e7472616374206973206e6f74206960448201526a6e697469616c697a696e6760a81b6064820152608490fd5b60405190604082018281106001600160401b038211176105e057604052601e82527f6578656375746528616464726573732c75696e743235362c62797465732900006020830152565b60405190611271826105c5565b60298252682c62797465735b5d2960b81b6040837f65786563757465426174636828616464726573735b5d2c75696e743235365b5d60208201520152565b906112b8610b94565b6001600160a01b03821615610b40576112d36112f592610bec565b60018060a01b03166bffffffffffffffffffffffff60a01b60fc54161760fc55565b6040516101948082018281106001600160401b038211176105e057829161245d833903906000f080156113a65760fb80546001600160a01b0319166001600160a01b0390921691909117905561137561136261134f61121b565b6020815191012063ffffffff60e01b1690565b60e01c63ffffffff1960fe54161760fe55565b61019961138361134f611264565b67ffffffff0000000060fe549160c01c169067ffffffff0000000019161760fe55565b610d06565b604051631aab3f0d60e11b81526001600160a01b0391821660048201526001600160c01b039092166024830152602090829060449082907f0000000000000000000000000000000000000000000000000000000000000000165afa9081156113a657600091611418575090565b906020823d821161143e575b8161143160209383610600565b810103126108f757505190565b3d9150611424565b634e487b7160e01b600052603260045260246000fd5b919081101561147f5760051b8101359061015e1981360301821215610122570190565b611446565b903590601e198136030182121561012257018035906001600160401b0382116101225760200191813603831361012257565b916114c3906020926113ab565b910135036114cd57565b60405162461bcd60e51b815260206004820152601a60248201527f4141323520696e76616c6964206163636f756e74206e6f6e63650000000000006044820152606490fd5b90816020910312610122575180151581036101225790565b9035601e19823603018112156101225701602081359101916001600160401b03821161012257813603831361012257565b908060209392818452848401376000828201840152601f01601f1916010190565b61068e9161159a8161158d8461018e565b6001600160a01b03169052565b602082013560208201526116356115e66115cb6115ba604086018661152a565b61016080604088015286019161155b565b6115d8606086018661152a565b90858303606087015261155b565b6080840135608084015260a084013560a084015260c084013560c084015260e084013560e084015261010080850135908401526101206116288186018661152a565b918584039086015261155b565b91611646610140918281019061152a565b92909181850391015261155b565b92919061166b60209160408652604086019061157c565b930152565b1561167757565b60405162461bcd60e51b815260206004820152601460248201527320a0991a1039b4b3b730ba3ab9329032b93937b960611b6044820152606490fd5b916001600160401b03161580611853575b61174b575b816020916116d96116f8946123f2565b916000604051809681958294637ff9adb960e11b845260048401611654565b03926001600160a01b03165af180156113a6576101999160009161171d575b50611670565b61173e915060203d8111611744575b6117368183610600565b810190611512565b38611717565b503d61172c565b81602061175e60406117d5950183611484565b9061176c601483101561185c565b61179961179461178e61178861178286866118a0565b906118bc565b60601c90565b3b151590565b6118ed565b60fb546117b6906001600160a01b03165b6001600160a01b031690565b906000604051809881958294632b870d1b60e11b84526004840161195d565b03925af19182156113a65761181d6020936116f895600091611826575b506118156001600160a01b038481169061180d82151561196e565b8316146119ba565b3b1515611a05565b915091506116c9565b6118469150853d811161184c575b61183e8183610600565b810190611948565b386117f2565b503d611834565b50803b156116c4565b1561186357565b60405162461bcd60e51b81526020600482015260156024820152744141313720696e76616c696420696e6974436f646560581b6044820152606490fd5b906014116101225790601490565b906004116101225790600490565b6bffffffffffffffffffffffff1990358181169392601481106118de57505050565b60140360031b82901b16169150565b156118f457565b60405162461bcd60e51b815260206004820152602660248201527f4141313620696e76616c696420666163746f7279206f7220646f6573206e6f7460448201526508195e1a5cdd60d21b6064820152608490fd5b90816020910312610122575161068e8161017d565b91602061068e93818152019161155b565b1561197557565b60405162461bcd60e51b815260206004820152601b60248201527f4141313320696e6974436f6465206661696c6564206f72204f4f4700000000006044820152606490fd5b156119c157565b606460405162461bcd60e51b815260206004820152602060248201527f4141313420696e6974436f6465206d7573742072657475726e2073656e6465726044820152fd5b15611a0c57565b606460405162461bcd60e51b815260206004820152602060248201527f4141313520696e6974436f6465206d757374206372656174652073656e6465726044820152fd5b91906040838203126101225782516001600160401b0381116101225783019080601f8301121561012257815191611a8683610621565b91611a946040519384610600565b8383526020848301011161012257602092611ab49184808501910161104b565b92015190565b604090611ad460009395949560608352606083019061157c565b9460208201520152565b6000611b1a91611af36117aa6117aa83611e01565b611afc82611bf8565b9183604051809681958294637a32e3bf60e11b845260048401611aba565b03925af180156113a657611b3691600091611bd5575b50611ce2565b906001600160a01b0316611b9957611b4a57565b60405162461bcd60e51b815260206004820152602160248201527f41413332207061796d61737465722065787069726564206f72206e6f742064756044820152606560f81b6064820152608490fd5b60405162461bcd60e51b815260206004820152601460248201527320a0999a1039b4b3b730ba3ab9329032b93937b960611b6044820152606490fd5b611bf0913d8091833e611be88183610600565b810190611a50565b905038611b30565b611c056040820182611484565b908160405191823720611cd1611c1e6060840184611484565b90816040519182372092611cc3611c42611c3c610120840184611484565b90611cd7565b6040805184356001600160a01b031660208083019182528601359282019290925260608101969096526080808701979097529583013560a08087019190915283013560c08087019190915283013560e08087019190915283013561010080870191909152909201356101208501526101408401919091528290610160820190565b03601f198101835282610600565b51902090565b816040519182372090565b8015611db357600060408051611cf7816105c5565b828152826020820152015265ffffffffffff90818160a01c16918215611da9575b50611d8b90611d72611d6760405194611d30866105c5565b6001600160a01b0384168652611d55602087019460d01c859065ffffffffffff169052565b65ffffffffffff166040860181905290565b65ffffffffffff1690565b4211908115611d8e575b5091516001600160a01b031690565b91565b51611da1915065ffffffffffff16611d67565b421038611d7c565b9150611d8b611d18565b50600090600090565b15611dc357565b60405162461bcd60e51b815260206004820152601660248201527520a0999a9034b73b30b634b2103830bcb6b0b9ba32b960511b6044820152606490fd5b611e1090610120810190611484565b60148110611e8f57601411610122573560601c803b15611e4a5760fc5461068e90611e43906001600160a01b03166117aa565b8214611dbc565b60405162461bcd60e51b815260206004820152601b60248201527f41413330207061796d6173746572206e6f74206465706c6f79656400000000006044820152606490fd5b60405162461bcd60e51b815260206004820152601b60248201527f4141333620696e76616c6964207061796d6173746572206461746100000000006044820152606490fd5b15611edb57565b60405162461bcd60e51b81526020600482015260156024820152744141323620696e76616c69642063616c6c6461746160581b6044820152606490fd5b6001600160e01b03199035818116939260048110611f3557505050565b60040360031b82901b16169150565b15611f4b57565b60405162461bcd60e51b815260206004820152601e60248201527f4141323720696e76616c69642066756e6374696f6e2073656c6563746f7200006044820152606490fd5b15611f9757565b60405162461bcd60e51b815260206004820152601d60248201527f4141323820636f6e7472616374206e6f742077686974656c69737465640000006044820152606490fd5b6000198114611feb5760010190565b634e487b7160e01b600052601160045260246000fd5b805182101561147f5760209160051b010190565b9190916060810190612035600461202c8484611484565b90501015611ed4565b6120486120428383611484565b906118ae565b6001600160e01b031991829161205d91611f18565b169061206a821515611f44565b60fe54818160e01b16831480801561216a575b61208690611f44565b612133575b60c01b161461209b575b50509050565b6120ae916120a891611484565b906122c5565b60005b815181101561212757806120f86120db6120ce6120fd9486612001565b516001600160a01b031690565b6001600160a01b0381811690881614908115612102575b50611f90565b611fdc565b6120b1565b6001600160a01b03166000908152610100602052604090205460ff54149050386120f2565b50509050803880612095565b6121656121496121438787611484565b90612179565b6001600160a01b03818116908a16149081156121025750611f90565b61208b565b5060c082901b8316841461207d565b90806004116101225781019060608183036003190112610122576004810135916121a28361017d565b6044820135916001600160401b038311610122576121c39201600401610673565b506001600160a01b031690565b6001600160401b0381116105e05760051b60200190565b81601f82011215610122578035916121fe836121d0565b9261220c6040519485610600565b808452602092838086019260051b820101928311610122578301905b828210612236575050505090565b81358152908301908301612228565b9080601f830112156101225781359061225d826121d0565b9261226b6040519485610600565b828452602092838086019160051b8301019280841161012257848301915b8483106122995750505050505090565b82356001600160401b0381116101225786916122ba84848094890101610673565b815201920191612289565b908060041161012257810160608282036003190112610122576001600160401b03906004830135828111610122578301928160238501121561012257600484013561230f816121d0565b9461231d6040519687610600565b81865260209160248388019160051b8301019185831161012257602401905b8282106123805750505050602481013583811161012257826004612362928401016121e7565b5060448101359283116101225761237c9201600401612245565b5090565b838091833561238e8161017d565b81520191019061233c565b600060ff8181556123a8610b94565b60018155815b8481106123bc575050505050565b6123ed9082548160051b8601356123d28161017d565b6001600160a01b031685526101006020526040852055611fdc565b6123ae565b6123fb90611bf8565b6040516020810191825230604082015246606082015260608152608081018181106001600160401b038211176105e05760405251902090565b600091829182602083519301915af161244b610f5e565b90156124545750565b602081519101fdfe6080806040523461001657610178908161001c8239f35b600080fdfe6080604052600436101561001257600080fd5b6000803560e01c63570e1a361461002857600080fd5b3461009e57602036600319011261009e5760043567ffffffffffffffff9182821161009e573660238301121561009e57816004013592831161009e57366024848401011161009e5761009a61008084602485016100b7565b6040516001600160a01b0390911681529081906020820190565b0390f35b80fd5b634e487b7160e01b600052604160045260246000fd5b90806014116101385767ffffffffffffffff91601319820183811161013d5760405193600b8401601f19908116603f011685019081118582101761013d5760405280845260208401903684840111610138576020946000600c819682946014880187378301015251923560601c5af190600051911561013257565b60009150565b600080fd5b6100a156fea2646970667358221220751eda83228c38938c5753603072c689c31aace818d807699015f918c718c8f964736f6c63430008140033360894a13ba1a3210667c828492db98dca3e2076cc3735a920a3ca505d382bbca26469706673582212208f10615b181a6748e075e557c6172aaa30b212d87209c33973906e3f8813bad764736f6c6343000814003360a080604052346100dc57306080526000549060ff8260081c1661008a575060ff8082160361004f575b60405161266190816100e2823960805181818161101f0152818161110b01526116120152f35b60ff90811916176000557f7f26b83ff96e1f2b6a682f133852f6798a09c465da95921460cefb3847402498602060405160ff8152a138610029565b62461bcd60e51b815260206004820152602760248201527f496e697469616c697a61626c653a20636f6e747261637420697320696e697469604482015266616c697a696e6760c81b6064820152608490fd5b600080fdfe6080604081815260048036101561001557600080fd5b600092833560e01c90816301ffc9a714611a1e5750806306fdde0314611974578063081812fc14611954578063095ea7b3146117e457806323b872dd146117ba5780633659cfe6146115eb57806342842e0e146115c257806342966c681461136a5780634f1ef286146110cc57806352d1902d1461100a57806352f3368214610fd75780636352211e14610fa657806370a0823114610f10578063715018a614610eb35780638129fc1c14610aa65780638da5cb5b14610a7d57806395d89b41146109985780639d91dd7d1461046f578063a22cb465146103a2578063b88d4fde1461034e578063be83cdc9146102cd578063c2bc2efc1461029d578063c87b56dd14610262578063e985e9c514610212578063ee91877c146101d55763f2fde38b1461014157600080fd5b346101d15760203660031901126101d15761015a611aec565b91610163611c4f565b6001600160a01b0383161561017f578361017c84611ca7565b80f35b906020608492519162461bcd60e51b8352820152602660248201527f4f776e61626c653a206e6577206f776e657220697320746865207a65726f206160448201526564647265737360d01b6064820152fd5b8280fd5b50503461020e57602036600319011261020e5760209181906001600160a01b036101fd611aec565b16815261015f845220549051908152f35b5080fd5b50503461020e578060031936011261020e5760209161022f611aec565b82610238611b07565b9260018060a01b038093168152606a8652209116600052825260ff81600020541690519015158152f35b50913461029a57602036600319011261029a575061028361029692356123d1565b9051918291602083526020830190611ac7565b0390f35b80fd5b50503461020e57602036600319011261020e57610296906102836001600160a01b036102c7611aec565b166123d1565b50823461029a57602036600319011261029a5781358152610160602052829020546001600160a01b031690811561030b5761029683610283846123d1565b606490602084519162461bcd60e51b8352820152601d60248201527f5468697320757365726e616d6520646f6573206e6f742065786973742e0000006044820152fd5b83823461020e57608036600319011261020e57610369611aec565b610371611b07565b9060643567ffffffffffffffff811161039e5761017c9361039491369101611c31565b9160443591611f8b565b8480fd5b5090346101d157806003193601126101d1576103bc611aec565b906024359182151580930361039e576001600160a01b03169233841461042d5750338452606a602052808420836000526020528060002060ff1981541660ff8416179055519081527f17307eab39ab6107e8899845ad3d59bd9653f200f220920489ca2b5937696c3160203392a380f35b6020606492519162461bcd60e51b8352820152601960248201527f4552433732313a20617070726f766520746f2063616c6c6572000000000000006044820152fd5b5091903461020e57606036600319011261020e5761048b611aec565b92602480359367ffffffffffffffff916044358381116101d157366023820112156101d1576104c290369083818801359101611bfa565b9060018060a01b03978860c954163314801561098d575b1561092e5788169687845261015f602099818b5288862054908115908b82806108ff575b83156108d4575b505050156108925760008a8152606760205260409020546001600160a01b0316156107a1575b8203610747575b505061053c876123d1565b86516105648a82816105578183019687815193849201611aa4565b8101038084520182611bbc565b5190208651898101906105818b8287516105578187858c01611aa4565b51902003610593575b87878751908152f35b6000878152606760205260409020546001600160a01b0316156106ef57868352609788528583209482519485116106de5750509082916105d38554611eb1565b601f81116106a5575b508791601f84116001146106425792610637575b50508160011b916000199060031b1c19161790555b7ff8e1a15aba9398e019f0b49df1a4fde98ee17ae345cb5f6b5e2c27f5033e8ce7838251848152a1388080808061058a565b0151905038806105f0565b8581528881209350601f198516905b8982821061068f575050908460019594939210610676575b505050811b019055610605565b015160001960f88460031b161c19169055388080610669565b6001859682939686015181550195019301610651565b6106ce90868452898420601f860160051c8101918b87106106d4575b601f0160051c01906125a8565b386105dc565b90915081906106c1565b634e487b7160e01b84526041905282fd5b84602e6084928a89519362461bcd60e51b85528401528201527f45524337323155524953746f726167653a2055524920736574206f66206e6f6e60448201526d32bc34b9ba32b73a103a37b5b2b760911b6064820152fd5b888552808a528785205480610783575b508185526101608a5287852080546001600160a01b0319168a1790558885528952868420553880610531565b85526101608a5287852080546001600160a01b031916905538610757565b9489156108525760008a8152606760205260409020548391906107d0906001600160a01b031615155b156125bf565b60008b8152606760205260409020549096906107f6906001600160a01b031615156107ca565b8a60005260688c52896000206001815401905560678c52896000208b6001600160601b0360a01b8254161790558a8060007fddf252ad1be2c89b69c2b068fc378daa952ba7f163c4a11628f55a4df523b3ef8180a4905061052a565b6064888c86818d519362461bcd60e51b85528401528201527f4552433732313a206d696e7420746f20746865207a65726f20616464726573736044820152fd5b885162461bcd60e51b81528089018c9052601f818601527f5468697320757365726e616d6520697320616c72656164792074616b656e2e006044820152606490fd5b15925090826108e8575b5050388b81610504565b8389526101608e528b892054161490508a386108de565b9250508488526101608d528b818c8a205416818115918215610924575b5050926104fd565b149050813861091c565b865162461bcd60e51b81526020818801526034818401527f4f6e6c79207468652070726f66696c65206f776e6572206f7220636f6e74726160448201527331ba1037bbb732b91031b0b71039b2ba1034ba1760611b6064820152608490fd5b5033898216146104d9565b50503461020e578160031936011261020e57805190826066546109ba81611eb1565b80855291600191808316908115610a5557506001146109f8575b5050506109e682610296940383611bbc565b51918291602083526020830190611ac7565b9450606685527f46501879b8ca8525e8c2fd519e2fbfcfa2ebea26501294aa02cbfcfb12e943545b828610610a3d575050506109e682602061029695820101946109d4565b80546020878701810191909152909501948101610a20565b6102969750869350602092506109e694915060ff191682840152151560051b820101946109d4565b50503461020e578160031936011261020e5760c95490516001600160a01b039091168152602090f35b50346101d157826003193601126101d157825460ff92838260081c1615808091610ea7575b8015610e91575b15610e3757600192818460ff198316178855610e26575b50815193610af685611ba0565b600785526020946650726f66696c6560c81b868201528351610b1781611ba0565b600381526228292360e91b87820152610b3e888a5460081c16610b3981612548565b612548565b81519267ffffffffffffffff93848111610e135780610b5e606554611eb1565b948c8b601f97888111610dc7575b5050508a908d878411600114610d465792610d3b575b5050600019600383901b1c191690881b176065555b8151938411610d285750908291610baf606654611eb1565b828111610cd3575b5087918311600114610c54578992610c49575b5050600019600383901b1c191690841b176066555b610bf285875460081c16610b3981612548565b610bfb33611ca7565b610c0b8654958660081c16612548565b610c13578480f35b7f7f26b83ff96e1f2b6a682f133852f6798a09c465da95921460cefb38474024989361ff001916855551908152a1388080808480f35b015190503880610bca565b60668a528693507f46501879b8ca8525e8c2fd519e2fbfcfa2ebea26501294aa02cbfcfb12e943549190601f1984168b5b8a828210610cbd5750508411610ca4575b505050811b01606655610bdf565b015160001960f88460031b161c19169055388080610c96565b8385015186558a97909501949384019301610c85565b610d199060668c527f46501879b8ca8525e8c2fd519e2fbfcfa2ebea26501294aa02cbfcfb12e943548480870160051c8201928c8810610d1f575b0160051c01906125a8565b38610bb7565b92508192610d0e565b634e487b7160e01b8a5260419052602489fd5b015190503880610b82565b606581528b94507f8ff97419363ffd7000167f130ef7168fbea05faf9251824ca5043f113cc6a7c7929190601f198516908e5b828210610db05750508411610d97575b505050811b01606555610b97565b015160001960f88460031b161c19169055388080610d89565b8385015186558e979095019493840193018e610d79565b6065610e0b9352887f8ff97419363ffd7000167f130ef7168fbea05faf9251824ca5043f113cc6a7c79181870160051c8301938710610d1f570160051c01906125a8565b8c8b38610b6c565b634e487b7160e01b8b526041825260248bfd5b61ffff191661010117865538610ae9565b815162461bcd60e51b8152602081860152602e60248201527f496e697469616c697a61626c653a20636f6e747261637420697320616c72656160448201526d191e481a5b9a5d1a585b1a5e995960921b6064820152608490fd5b50303b158015610ad25750600185841614610ad2565b50600185841610610acb565b833461029a578060031936011261029a57610ecc611c4f565b60c980546001600160a01b0319811690915581906001600160a01b03167f8be0079c531659141344cd1fd0a4f28419497f9722a3daafe3b4186f6b6457e08280a380f35b5082903461020e57602036600319011261020e576001600160a01b03610f34611aec565b16908115610f515760208480858581526068845220549051908152f35b608490602085519162461bcd60e51b8352820152602960248201527f4552433732313a2061646472657373207a65726f206973206e6f7420612076616044820152683634b21037bbb732b960b91b6064820152fd5b50913461029a57602036600319011261029a5750610fc660209235611e8e565b90516001600160a01b039091168152f35b50346101d15760203660031901126101d1573582526101606020908152918190205490516001600160a01b039091168152f35b50823461029a578060031936011261029a57507f00000000000000000000000000000000000000000000000000000000000000006001600160a01b03163003611064576020825160008051602061260c8339815191528152f35b6020608492519162461bcd60e51b8352820152603860248201527f555550535570677261646561626c653a206d757374206e6f742062652063616c60448201527f6c6564207468726f7567682064656c656761746563616c6c00000000000000006064820152fd5b5090806003193601126101d1576110e1611aec565b9060243567ffffffffffffffff811161039e576111019036908501611c31565b6001600160a01b037f0000000000000000000000000000000000000000000000000000000000000000811692919061113b30851415611cf0565b61115860008051602061260c833981519152948286541614611d51565b611160611c4f565b7f4910fdfa16fed3260ed0e7147f7cc6da11a60208b5b9406d12a635614ffd91435460ff1615611198575050505061017c9150611db2565b8491929394168351946352d1902d60e01b865260209586818981865afa899181611337575b5061121c57855162461bcd60e51b8152808901889052602e60248201527f45524331393637557067726164653a206e657720696d706c656d656e7461746960448201526d6f6e206973206e6f74205555505360901b6064820152608490fd5b96919294959396036112e2575090859161123584611db2565b7fbc7cd75a20ee27fd9adebab32041f755214dbc6bffa90cc0225b39da2e5c2d3b8380a28451158015906112da575b611271575b505050505080f35b6112cf948291660819985a5b195960ca1b86519661128e88611b84565b602788527f416464726573733a206c6f772d6c6576656c2064656c65676174652063616c6c8389015287015281519101845af46112c96122a6565b916124af565b503880808381611269565b506001611264565b845162461bcd60e51b8152908101839052602960248201527f45524331393637557067726164653a20756e737570706f727465642070726f786044820152681a58589b195555525160ba1b6064820152608490fd5b9091508781813d8311611363575b61134f8183611bbc565b8101031261135f575190386111bd565b8980fd5b503d611345565b5091903461020e57602090816003193601126101d15760c9546001600160a01b038535818116969092339083161480156115b9575b1561155a5786865261015f8086528487205487526101608652848720976001600160601b0360a01b98898154169055875285528584812055816113e184611e8e565b16158015611552575b156114c3575084809683926113fe84611e8e565b848452606988528684208381541690551690818352606887528583206000198154019055838352606787528583209081541690557fddf252ad1be2c89b69c2b068fc378daa952ba7f163c4a11628f55a4df523b3ef8280a46097835261146682852054611eb1565b61146f57505050f35b8352609782528220906114828254611eb1565b908161148d57505050f35b8390601f83116001146114a1575050505580f35b83825281209290916114be90601f0160051c8401600185016125a8565b555580f35b835162461bcd60e51b8152908101859052605b60248201527f54686973206120536f756c626f756e6420746f6b656e2e2049742063616e6e6f60448201527f74206265207472616e736665727265642e2049742063616e206f6e6c7920626560648201527f206275726e65642062792074686520746f6b656e206f776e65722e0000000000608482015260a490fd5b5060016113ea565b835162461bcd60e51b8152908101859052603360248201527f4f6e6c7920746865206f776e6572206f662074686520746f6b656e206f7220706044820152723937b334b6329031b0b710313ab9371034ba1760691b6064820152608490fd5b5033871461139f565b50503461020e5761017c906115d636611b1d565b919251926115e384611b52565b858452611f8b565b5090346101d1576020806003193601126117b657611607611aec565b916001600160a01b037f0000000000000000000000000000000000000000000000000000000000000000811661163f30821415611cf0565b61165c60008051602061260c833981519152918383541614611d51565b611664611c4f565b82519161167083611b52565b8783527f4910fdfa16fed3260ed0e7147f7cc6da11a60208b5b9406d12a635614ffd91435460ff16156116ac57505050505061017c9150611db2565b8592939495169084516352d1902d60e01b815286818981865afa899181611787575b5061172d57855162461bcd60e51b8152808901889052602e60248201527f45524331393637557067726164653a206e657720696d706c656d656e7461746960448201526d6f6e206973206e6f74205555505360901b6064820152608490fd5b96919294959396036112e2575090859161174684611db2565b7fbc7cd75a20ee27fd9adebab32041f755214dbc6bffa90cc0225b39da2e5c2d3b8380a28451158015906117805761127157505050505080f35b5081611264565b9091508781813d83116117af575b61179f8183611bbc565b8101031261135f575190386116ce565b503d611795565b8380fd5b833461029a5761017c6117cc36611b1d565b916117df6117da8433612026565b611f29565b6120ee565b50346101d157816003193601126101d1576117fd611aec565b6024359290916001600160a01b039190828061181887611e8e565b16941693808514611907578033149081156118e8575b501561188057508385526069602052842080546001600160a01b0319168317905561185883611e8e565b167f8c5be1e5ebec7d5bd14f71427d1e84f3dd0314c0f7b2291e5b200ac8c7c3b9258480a480f35b6020608492519162461bcd60e51b8352820152603d60248201527f4552433732313a20617070726f76652063616c6c6572206973206e6f7420746f60448201527f6b656e206f776e6572206f7220617070726f76656420666f7220616c6c0000006064820152fd5b90508652606a60205281862033875260205260ff82872054163861182e565b506020608492519162461bcd60e51b8352820152602160248201527f4552433732313a20617070726f76616c20746f2063757272656e74206f776e656044820152603960f91b6064820152fd5b50913461029a57602036600319011261029a5750610fc660209235611eeb565b50503461020e578160031936011261020e578051908260655461199681611eb1565b80855291600191808316908115610a5557506001146119c1575050506109e682610296940383611bbc565b9450606585527f8ff97419363ffd7000167f130ef7168fbea05faf9251824ca5043f113cc6a7c75b828610611a06575050506109e682602061029695820101946109d4565b805460208787018101919091529095019481016119e9565b925050346101d15760203660031901126101d1573563ffffffff60e01b81168091036101d15760209250632483248360e11b8114908115611a61575b5015158152f35b6380ac58cd60e01b811491508115611a93575b8115611a82575b5038611a5a565b6301ffc9a760e01b14905038611a7b565b635b5e139f60e01b81149150611a74565b60005b838110611ab75750506000910152565b8181015183820152602001611aa7565b90602091611ae081518092818552858086019101611aa4565b601f01601f1916010190565b600435906001600160a01b0382168203611b0257565b600080fd5b602435906001600160a01b0382168203611b0257565b6060906003190112611b02576001600160a01b03906004358281168103611b0257916024359081168103611b02579060443590565b6020810190811067ffffffffffffffff821117611b6e57604052565b634e487b7160e01b600052604160045260246000fd5b6060810190811067ffffffffffffffff821117611b6e57604052565b6040810190811067ffffffffffffffff821117611b6e57604052565b90601f8019910116810190811067ffffffffffffffff821117611b6e57604052565b67ffffffffffffffff8111611b6e57601f01601f191660200190565b929192611c0682611bde565b91611c146040519384611bbc565b829481845281830111611b02578281602093846000960137010152565b9080601f83011215611b0257816020611c4c93359101611bfa565b90565b60c9546001600160a01b03163303611c6357565b606460405162461bcd60e51b815260206004820152602060248201527f4f776e61626c653a2063616c6c6572206973206e6f7420746865206f776e65726044820152fd5b60c980546001600160a01b039283166001600160a01b0319821681179092559091167f8be0079c531659141344cd1fd0a4f28419497f9722a3daafe3b4186f6b6457e0600080a3565b15611cf757565b60405162461bcd60e51b815260206004820152602c60248201527f46756e6374696f6e206d7573742062652063616c6c6564207468726f7567682060448201526b19195b1959d85d1958d85b1b60a21b6064820152608490fd5b15611d5857565b60405162461bcd60e51b815260206004820152602c60248201527f46756e6374696f6e206d7573742062652063616c6c6564207468726f7567682060448201526b6163746976652070726f787960a01b6064820152608490fd5b803b15611de75760008051602061260c83398151915280546001600160a01b0319166001600160a01b03909216919091179055565b60405162461bcd60e51b815260206004820152602d60248201527f455243313936373a206e657720696d706c656d656e746174696f6e206973206e60448201526c1bdd08184818dbdb9d1c9858dd609a1b6064820152608490fd5b15611e4957565b60405162461bcd60e51b815260206004820152601860248201527f4552433732313a20696e76616c696420746f6b656e20494400000000000000006044820152606490fd5b6000908152606760205260409020546001600160a01b0316611c4c811515611e42565b90600182811c92168015611ee1575b6020831014611ecb57565b634e487b7160e01b600052602260045260246000fd5b91607f1691611ec0565b600081815260676020526040902054611f0e906001600160a01b03161515611e42565b6000908152606960205260409020546001600160a01b031690565b15611f3057565b60405162461bcd60e51b815260206004820152602d60248201527f4552433732313a2063616c6c6572206973206e6f7420746f6b656e206f776e6560448201526c1c881bdc88185c1c1c9bdd9959609a1b6064820152608490fd5b90611faf939291611f9f6117da8433612026565b611faa8383836120ee565b6122d6565b15611fb657565b60405162461bcd60e51b815280611fcf60048201611fd3565b0390fd5b60809060208152603260208201527f4552433732313a207472616e7366657220746f206e6f6e20455243373231526560408201527131b2b4bb32b91034b6b83632b6b2b73a32b960711b60608201520190565b906001600160a01b03808061203a84611e8e565b1693169183831493841561206d575b508315612057575b50505090565b61206391929350611eeb565b1614388080612051565b909350600052606a60205260406000208260005260205260ff604060002054169238612049565b1561209b57565b60405162461bcd60e51b815260206004820152602560248201527f4552433732313a207472616e736665722066726f6d20696e636f72726563742060448201526437bbb732b960d91b6064820152608490fd5b90612116916120fc84611e8e565b6001600160a01b0393918416928492909183168414612094565b16918215612255578115801561224d575b156121bc57816121419161213a86611e8e565b1614612094565b7fddf252ad1be2c89b69c2b068fc378daa952ba7f163c4a11628f55a4df523b3ef60008481526069602052604081206001600160601b0360a01b9081815416905583825260686020526040822060001981540190558482526040822060018154019055858252606760205284604083209182541617905580a4565b60405162461bcd60e51b815260206004820152605b60248201527f54686973206120536f756c626f756e6420746f6b656e2e2049742063616e6e6f60448201527f74206265207472616e736665727265642e2049742063616e206f6e6c7920626560648201527f206275726e65642062792074686520746f6b656e206f776e65722e0000000000608482015260a490fd5b506000612127565b60405162461bcd60e51b8152602060048201526024808201527f4552433732313a207472616e7366657220746f20746865207a65726f206164646044820152637265737360e01b6064820152608490fd5b3d156122d1573d906122b782611bde565b916122c56040519384611bbc565b82523d6000602084013e565b606090565b919290803b156123c857604051630a85bd0160e11b8082523360048301526001600160a01b0394851660248301526044820195909552608060648201529160209183918290819061232b906084830190611ac7565b03916000968791165af190829082612380575b50506123725761234c6122a6565b8051908161236d5760405162461bcd60e51b815280611fcf60048201611fd3565b602001fd5b6001600160e01b0319161490565b909192506020813d82116123c0575b8161239c60209383611bbc565b8101031261020e5751906001600160e01b03198216820361029a575090388061233e565b3d915061238f565b50505050600190565b6000818152606760205260409020546123f4906001600160a01b03161515611e42565b600090815260209060978252604081209160405180938390805461241781611eb1565b8085529160019180831690811561248d5750600114612450575b50505061244092500383611bbc565b60405161244c81611b52565b5290565b86528486209492508591905b8183106124755750506124409350820101388080612431565b8554888401850152948501948794509183019161245c565b9250505061244094925060ff191682840152151560051b820101388080612431565b9192901561251157508151156124c3575090565b3b156124cc5790565b60405162461bcd60e51b815260206004820152601d60248201527f416464726573733a2063616c6c20746f206e6f6e2d636f6e74726163740000006044820152606490fd5b8251909150156125245750805190602001fd5b60405162461bcd60e51b815260206004820152908190611fcf906024830190611ac7565b1561254f57565b60405162461bcd60e51b815260206004820152602b60248201527f496e697469616c697a61626c653a20636f6e7472616374206973206e6f74206960448201526a6e697469616c697a696e6760a81b6064820152608490fd5b8181106125b3575050565b600081556001016125a8565b156125c657565b60405162461bcd60e51b815260206004820152601c60248201527f4552433732313a20746f6b656e20616c7265616479206d696e746564000000006044820152606490fdfe360894a13ba1a3210667c828492db98dca3e2076cc3735a920a3ca505d382bbca2646970667358221220e94795d8632ad75930ee0412888a20a1fcc9e54d828a5ba05f04220b9053c4a264736f6c63430008140033",
  "linkReferences": {},
  "deployedLinkReferences": {}
}