{
  "_format": "hh-sol-artifact-1",
  "contractName": "UpgradeableCommunityToken",
  "sourceName": "contracts/tokens/UpgradeableCommunityToken.sol",
  "abi": [
    {
      "anonymous": false,
      "inputs": [
        {
          "indexed": false,
          "internalType": "address",
          "name": "previousAdmin",
          "type": "address"
        },
        {
          "indexed": false,
          "internalType": "address",
          "name": "newAdmin",
          "type": "address"
        }
      ],
      "name": "AdminChanged",
      "type": "event"
    },
    {
      "anonymous": false,
      "inputs": [
        {
          "indexed": true,
          "internalType": "address",
          "name": "owner",
          "type": "address"
        },
        {
          "indexed": true,
          "internalType": "address",
          "name": "spender",
          "type": "address"
        },
        {
          "indexed": false,
          "internalType": "uint256",
          "name": "value",
          "type": "uint256"
        }
      ],
      "name": "Approval",
      "type": "event"
    },
    {
      "anonymous": false,
      "inputs": [
        {
          "indexed": true,
          "internalType": "address",
          "name": "beacon",
          "type": "address"
        }
      ],
      "name": "BeaconUpgraded",
      "type": "event"
    },
    {
      "anonymous": false,
      "inputs": [
        {
          "indexed": false,
          "internalType": "uint8",
          "name": "version",
          "type": "uint8"
        }
      ],
      "name": "Initialized",
      "type": "event"
    },
    {
      "anonymous": false,
      "inputs": [
        {
          "indexed": true,
          "internalType": "address",
          "name": "to",
          "type": "address"
        },
        {
          "indexed": false,
          "internalType": "uint256",
          "name": "amount",
          "type": "uint256"
        },
        {
          "indexed": false,
          "internalType": "string",
          "name": "description",
          "type": "string"
        }
      ],
      "name": "Minted",
      "type": "event"
    },
    {
      "anonymous": false,
      "inputs": [
        {
          "indexed": true,
          "internalType": "address",
          "name": "previousOwner",
          "type": "address"
        },
        {
          "indexed": true,
          "internalType": "address",
          "name": "newOwner",
          "type": "address"
        }
      ],
      "name": "OwnershipTransferred",
      "type": "event"
    },
    {
      "anonymous": false,
      "inputs": [
        {
          "indexed": false,
          "internalType": "address",
          "name": "account",
          "type": "address"
        }
      ],
      "name": "Paused",
      "type": "event"
    },
    {
      "anonymous": false,
      "inputs": [
        {
          "indexed": true,
          "internalType": "bytes32",
          "name": "role",
          "type": "bytes32"
        },
        {
          "indexed": true,
          "internalType": "bytes32",
          "name": "previousAdminRole",
          "type": "bytes32"
        },
        {
          "indexed": true,
          "internalType": "bytes32",
          "name": "newAdminRole",
          "type": "bytes32"
        }
      ],
      "name": "RoleAdminChanged",
      "type": "event"
    },
    {
      "anonymous": false,
      "inputs": [
        {
          "indexed": true,
          "internalType": "bytes32",
          "name": "role",
          "type": "bytes32"
        },
        {
          "indexed": true,
          "internalType": "address",
          "name": "account",
          "type": "address"
        },
        {
          "indexed": true,
          "internalType": "address",
          "name": "sender",
          "type": "address"
        }
      ],
      "name": "RoleGranted",
      "type": "event"
    },
    {
      "anonymous": false,
      "inputs": [
        {
          "indexed": true,
          "internalType": "bytes32",
          "name": "role",
          "type": "bytes32"
        },
        {
          "indexed": true,
          "internalType": "address",
          "name": "account",
          "type": "address"
        },
        {
          "indexed": true,
          "internalType": "address",
          "name": "sender",
          "type": "address"
        }
      ],
      "name": "RoleRevoked",
      "type": "event"
    },
    {
      "anonymous": false,
      "inputs": [
        {
          "indexed": true,
          "internalType": "address",
          "name": "from",
          "type": "address"
        },
        {
          "indexed": true,
          "internalType": "address",
          "name": "to",
          "type": "address"
        },
        {
          "indexed": false,
          "internalType": "uint256",
          "name": "value",
          "type": "uint256"
        }
      ],
      "name": "Transfer",
      "type": "event"
    },
    {
      "anonymous": false,
      "inputs": [
        {
          "indexed": false,
          "internalType": "address",
          "name": "account",
          "type": "address"
        }
      ],
      "name": "Unpaused",
      "type": "event"
    },
    {
      "anonymous": false,
      "inputs": [
        {
          "indexed": true,
          "internalType": "address",
          "name": "implementation",
          "type": "address"
        }
      ],
      "name": "Upgraded",
      "type": "event"
    },
    {
      "inputs": [],
      "name": "DEFAULT_ADMIN_ROLE",
      "outputs": [
        {
          "internalType": "bytes32",
          "name": "",
          "type": "bytes32"
        }
      ],
      "stateMutability": "view",
      "type": "function"
    },
    {
      "inputs": [],
      "name": "MINTER_ROLE",
      "outputs": [
        {
          "internalType": "bytes32",
          "name": "",
          "type": "bytes32"
        }
      ],
      "stateMutability": "view",
      "type": "function"
    },
    {
      "inputs": [],
      "name": "PAUSER_ROLE",
      "outputs": [
        {
          "internalType": "bytes32",
          "name": "",
          "type": "bytes32"
        }
      ],
      "stateMutability": "view",
      "type": "function"
    },
    {
      "inputs": [
        {
          "internalType": "address",
          "name": "owner",
          "type": "address"
        },
        {
          "internalType": "address",
          "name": "spender",
          "type": "address"
        }
      ],
      "name": "allowance",
      "outputs": [
        {
          "internalType": "uint256",
          "name": "",
          "type": "uint256"
        }
      ],
      "stateMutability": "view",
      "type": "function"
    },
    {
      "inputs": [
        {
          "internalType": "address",
          "name": "spender",
          "type": "address"
        },
        {
          "internalType": "uint256",
          "name": "amount",
          "type": "uint256"
        }
      ],
      "name": "approve",
      "outputs": [
        {
          "internalType": "bool",
          "name": "",
          "type": "bool"
        }
      ],
      "stateMutability": "nonpayable",
      "type": "function"
    },
    {
      "inputs": [
        {
          "internalType": "address",
          "name": "account",
          "type": "address"
        }
      ],
      "name": "balanceOf",
      "outputs": [
        {
          "internalType": "uint256",
          "name": "",
          "type": "uint256"
        }
      ],
      "stateMutability": "view",
      "type": "function"
    },
    {
      "inputs": [
        {
          "internalType": "uint256",
          "name": "amount",
          "type": "uint256"
        }
      ],
      "name": "burn",
      "outputs": [],
      "stateMutability": "nonpayable",
      "type": "function"
    },
    {
      "inputs": [
        {
          "internalType": "address",
          "name": "account",
          "type": "address"
        },
        {
          "internalType": "uint256",
          "name": "amount",
          "type": "uint256"
        }
      ],
      "name": "burnFrom",
      "outputs": [],
      "stateMutability": "nonpayable",
      "type": "function"
    },
    {
      "inputs": [],
      "name": "decimals",
      "outputs": [
        {
          "internalType": "uint8",
          "name": "",
          "type": "uint8"
        }
      ],
      "stateMutability": "view",
      "type": "function"
    },
    {
      "inputs": [
        {
          "internalType": "address",
          "name": "spender",
          "type": "address"
        },
        {
          "internalType": "uint256",
          "name": "subtractedValue",
          "type": "uint256"
        }
      ],
      "name": "decreaseAllowance",
      "outputs": [
        {
          "internalType": "bool",
          "name": "",
          "type": "bool"
        }
      ],
      "stateMutability": "nonpayable",
      "type": "function"
    },
    {
      "inputs": [
        {
          "internalType": "bytes32",
          "name": "role",
          "type": "bytes32"
        }
      ],
      "name": "getRoleAdmin",
      "outputs": [
        {
          "internalType": "bytes32",
          "name": "",
          "type": "bytes32"
        }
      ],
      "stateMutability": "view",
      "type": "function"
    },
    {
      "inputs": [
        {
          "internalType": "bytes32",
          "name": "role",
          "type": "bytes32"
        },
        {
          "internalType": "address",
          "name": "account",
          "type": "address"
        }
      ],
      "name": "grantRole",
      "outputs": [],
      "stateMutability": "nonpayable",
      "type": "function"
    },
    {
      "inputs": [
        {
          "internalType": "bytes32",
          "name": "role",
          "type": "bytes32"
        },
        {
          "internalType": "address",
          "name": "account",
          "type": "address"
        }
      ],
      "name": "hasRole",
      "outputs": [
        {
          "internalType": "bool",
          "name": "",
          "type": "bool"
        }
      ],
      "stateMutability": "view",
      "type": "function"
    },
    {
      "inputs": [
        {
          "internalType": "address",
          "name": "spender",
          "type": "address"
        },
        {
          "internalType": "uint256",
          "name": "addedValue",
          "type": "uint256"
        }
      ],
      "name": "increaseAllowance",
      "outputs": [
        {
          "internalType": "bool",
          "name": "",
          "type": "bool"
        }
      ],
      "stateMutability": "nonpayable",
      "type": "function"
    },
    {
      "inputs": [
        {
          "internalType": "address[]",
          "name": "minters",
          "type": "address[]"
        },
        {
          "internalType": "string",
          "name": "name",
          "type": "string"
        },
        {
          "internalType": "string",
          "name": "symbol",
          "type": "string"
        }
      ],
      "name": "initialize",
      "outputs": [],
      "stateMutability": "nonpayable",
      "type": "function"
    },
    {
      "inputs": [
        {
          "internalType": "address",
          "name": "to",
          "type": "address"
        },
        {
          "internalType": "uint256",
          "name": "amount",
          "type": "uint256"
        },
        {
          "internalType": "string",
          "name": "description",
          "type": "string"
        }
      ],
      "name": "mint",
      "outputs": [],
      "stateMutability": "nonpayable",
      "type": "function"
    },
    {
      "inputs": [],
      "name": "name",
      "outputs": [
        {
          "internalType": "string",
          "name": "",
          "type": "string"
        }
      ],
      "stateMutability": "view",
      "type": "function"
    },
    {
      "inputs": [],
      "name": "owner",
      "outputs": [
        {
          "internalType": "address",
          "name": "",
          "type": "address"
        }
      ],
      "stateMutability": "view",
      "type": "function"
    },
    {
      "inputs": [],
      "name": "pause",
      "outputs": [],
      "stateMutability": "nonpayable",
      "type": "function"
    },
    {
      "inputs": [],
      "name": "paused",
      "outputs": [
        {
          "internalType": "bool",
          "name": "",
          "type": "bool"
        }
      ],
      "stateMutability": "view",
      "type": "function"
    },
    {
      "inputs": [],
      "name": "proxiableUUID",
      "outputs": [
        {
          "internalType": "bytes32",
          "name": "",
          "type": "bytes32"
        }
      ],
      "stateMutability": "view",
      "type": "function"
    },
    {
      "inputs": [],
      "name": "renounceOwnership",
      "outputs": [],
      "stateMutability": "nonpayable",
      "type": "function"
    },
    {
      "inputs": [
        {
          "internalType": "bytes32",
          "name": "role",
          "type": "bytes32"
        },
        {
          "internalType": "address",
          "name": "account",
          "type": "address"
        }
      ],
      "name": "renounceRole",
      "outputs": [],
      "stateMutability": "nonpayable",
      "type": "function"
    },
    {
      "inputs": [
        {
          "internalType": "bytes32",
          "name": "role",
          "type": "bytes32"
        },
        {
          "internalType": "address",
          "name": "account",
          "type": "address"
        }
      ],
      "name": "revokeRole",
      "outputs": [],
      "stateMutability": "nonpayable",
      "type": "function"
    },
    {
      "inputs": [
        {
          "internalType": "bytes4",
          "name": "interfaceId",
          "type": "bytes4"
        }
      ],
      "name": "supportsInterface",
      "outputs": [
        {
          "internalType": "bool",
          "name": "",
          "type": "bool"
        }
      ],
      "stateMutability": "view",
      "type": "function"
    },
    {
      "inputs": [],
      "name": "symbol",
      "outputs": [
        {
          "internalType": "string",
          "name": "",
          "type": "string"
        }
      ],
      "stateMutability": "view",
      "type": "function"
    },
    {
      "inputs": [],
      "name": "totalSupply",
      "outputs": [
        {
          "internalType": "uint256",
          "name": "",
          "type": "uint256"
        }
      ],
      "stateMutability": "view",
      "type": "function"
    },
    {
      "inputs": [
        {
          "internalType": "address",
          "name": "to",
          "type": "address"
        },
        {
          "internalType": "uint256",
          "name": "amount",
          "type": "uint256"
        }
      ],
      "name": "transfer",
      "outputs": [
        {
          "internalType": "bool",
          "name": "",
          "type": "bool"
        }
      ],
      "stateMutability": "nonpayable",
      "type": "function"
    },
    {
      "inputs": [
        {
          "internalType": "address",
          "name": "from",
          "type": "address"
        },
        {
          "internalType": "address",
          "name": "to",
          "type": "address"
        },
        {
          "internalType": "uint256",
          "name": "amount",
          "type": "uint256"
        }
      ],
      "name": "transferFrom",
      "outputs": [
        {
          "internalType": "bool",
          "name": "",
          "type": "bool"
        }
      ],
      "stateMutability": "nonpayable",
      "type": "function"
    },
    {
      "inputs": [
        {
          "internalType": "address",
          "name": "newOwner",
          "type": "address"
        }
      ],
      "name": "transferOwnership",
      "outputs": [],
      "stateMutability": "nonpayable",
      "type": "function"
    },
    {
      "inputs": [],
      "name": "unpause",
      "outputs": [],
      "stateMutability": "nonpayable",
      "type": "function"
    },
    {
      "inputs": [
        {
          "internalType": "address",
          "name": "newImplementation",
          "type": "address"
        }
      ],
      "name": "upgradeTo",
      "outputs": [],
      "stateMutability": "nonpayable",
      "type": "function"
    },
    {
      "inputs": [
        {
          "internalType": "address",
          "name": "newImplementation",
          "type": "address"
        },
        {
          "internalType": "bytes",
          "name": "data",
          "type": "bytes"
        }
      ],
      "name": "upgradeToAndCall",
      "outputs": [],
      "stateMutability": "payable",
      "type": "function"
    }
  ],
  "bytecode": "0x60a06040523060805234801561001457600080fd5b506080516125f761004c600039600081816107d101528181610811015281816108fc0152818161093c01526109cb01526125f76000f3fe6080604052600436106101ee5760003560e01c806370a082311161010d578063a217fddf116100a0578063d53913931161006f578063d53913931461055f578063d547741f14610593578063dd62ed3e146105b3578063e63ab1e9146105d3578063f2fde38b146105f557600080fd5b8063a217fddf146104ea578063a457c2d7146104ff578063a9059cbb1461051f578063d3fc98641461053f57600080fd5b80638da5cb5b116100dc5780638da5cb5b1461046d57806391d148541461049557806395d89b41146104b5578063978d55b9146104ca57600080fd5b806370a08231146103ed578063715018a61461042357806379cc6790146104385780638456cb591461045857600080fd5b806336568abe1161018557806342966c681161015457806342966c681461038c5780634f1ef286146103ac57806352d1902d146103bf5780635c975abb146103d457600080fd5b806336568abe146103175780633659cfe61461033757806339509351146103575780633f4ba83a1461037757600080fd5b806323b872dd116101c157806323b872dd14610289578063248a9ca3146102a95780632f2ff15d146102d9578063313ce567146102fb57600080fd5b806301ffc9a7146101f357806306fdde0314610228578063095ea7b31461024a57806318160ddd1461026a575b600080fd5b3480156101ff57600080fd5b5061021361020e366004611dec565b610615565b60405190151581526020015b60405180910390f35b34801561023457600080fd5b5061023d61064c565b60405161021f9190611e66565b34801561025657600080fd5b50610213610265366004611e95565b6106de565b34801561027657600080fd5b506035545b60405190815260200161021f565b34801561029557600080fd5b506102136102a4366004611ebf565b6106f6565b3480156102b557600080fd5b5061027b6102c4366004611efb565b600090815260fb602052604090206001015490565b3480156102e557600080fd5b506102f96102f4366004611f14565b61071a565b005b34801561030757600080fd5b506040516006815260200161021f565b34801561032357600080fd5b506102f9610332366004611f14565b610744565b34801561034357600080fd5b506102f9610352366004611f40565b6107c7565b34801561036357600080fd5b50610213610372366004611e95565b6108a6565b34801561038357600080fd5b506102f96108c8565b34801561039857600080fd5b506102f96103a7366004611efb565b6108e8565b6102f96103ba366004611ffa565b6108f2565b3480156103cb57600080fd5b5061027b6109be565b3480156103e057600080fd5b5061012d5460ff16610213565b3480156103f957600080fd5b5061027b610408366004611f40565b6001600160a01b031660009081526033602052604090205490565b34801561042f57600080fd5b506102f9610a71565b34801561044457600080fd5b506102f9610453366004611e95565b610a85565b34801561046457600080fd5b506102f9610a9a565b34801561047957600080fd5b506097546040516001600160a01b03909116815260200161021f565b3480156104a157600080fd5b506102136104b0366004611f14565b610aba565b3480156104c157600080fd5b5061023d610ae5565b3480156104d657600080fd5b506102f96104e536600461207c565b610af4565b3480156104f657600080fd5b5061027b600081565b34801561050b57600080fd5b5061021361051a366004611e95565b610caf565b34801561052b57600080fd5b5061021361053a366004611e95565b610d2a565b34801561054b57600080fd5b506102f961055a36600461216f565b610d38565b34801561056b57600080fd5b5061027b7f9f2df0fed2c77648de5860a4cc508cd0818c85b8b8a1ab4ceeef8d981c8956a681565b34801561059f57600080fd5b506102f96105ae366004611f14565b610e00565b3480156105bf57600080fd5b5061027b6105ce3660046121bc565b610e25565b3480156105df57600080fd5b5061027b60008051602061257b83398151915281565b34801561060157600080fd5b506102f9610610366004611f40565b610e50565b60006001600160e01b03198216637965db0b60e01b148061064657506301ffc9a760e01b6001600160e01b03198316145b92915050565b60606036805461065b906121e6565b80601f0160208091040260200160405190810160405280929190818152602001828054610687906121e6565b80156106d45780601f106106a9576101008083540402835291602001916106d4565b820191906000526020600020905b8154815290600101906020018083116106b757829003601f168201915b5050505050905090565b6000336106ec818585610ec6565b5060019392505050565b600033610704858285610fea565b61070f85858561105e565b506001949350505050565b600082815260fb602052604090206001015461073581611209565b61073f8383611213565b505050565b6001600160a01b03811633146107b95760405162461bcd60e51b815260206004820152602f60248201527f416363657373436f6e74726f6c3a2063616e206f6e6c792072656e6f756e636560448201526e103937b632b9903337b91039b2b63360891b60648201526084015b60405180910390fd5b6107c38282611299565b5050565b6001600160a01b037f000000000000000000000000000000000000000000000000000000000000000016300361080f5760405162461bcd60e51b81526004016107b090612220565b7f00000000000000000000000000000000000000000000000000000000000000006001600160a01b031661085860008051602061255b833981519152546001600160a01b031690565b6001600160a01b03161461087e5760405162461bcd60e51b81526004016107b09061226c565b61088781611300565b604080516000808252602082019092526108a391839190611308565b50565b6000336106ec8185856108b98383610e25565b6108c391906122ce565b610ec6565b60008051602061257b8339815191526108e081611209565b6108a3611473565b6108a333826114c6565b6001600160a01b037f000000000000000000000000000000000000000000000000000000000000000016300361093a5760405162461bcd60e51b81526004016107b090612220565b7f00000000000000000000000000000000000000000000000000000000000000006001600160a01b031661098360008051602061255b833981519152546001600160a01b031690565b6001600160a01b0316146109a95760405162461bcd60e51b81526004016107b09061226c565b6109b282611300565b6107c382826001611308565b6000306001600160a01b037f00000000000000000000000000000000000000000000000000000000000000001614610a5e5760405162461bcd60e51b815260206004820152603860248201527f555550535570677261646561626c653a206d757374206e6f742062652063616c60448201527f6c6564207468726f7567682064656c656761746563616c6c000000000000000060648201526084016107b0565b5060008051602061255b83398151915290565b610a796115fa565b610a836000611654565b565b610a90823383610fea565b6107c382826114c6565b60008051602061257b833981519152610ab281611209565b6108a36116a6565b600091825260fb602090815260408084206001600160a01b0393909316845291905290205460ff1690565b60606037805461065b906121e6565b600054610100900460ff1615808015610b145750600054600160ff909116105b80610b2e5750303b158015610b2e575060005460ff166001145b610b915760405162461bcd60e51b815260206004820152602e60248201527f496e697469616c697a61626c653a20636f6e747261637420697320616c72656160448201526d191e481a5b9a5d1a585b1a5e995960921b60648201526084016107b0565b6000805460ff191660011790558015610bb4576000805461ff0019166101001790555b610bbe83836116e4565b610bc6611715565b610bce61173c565b610bd6611715565b610bde61176b565b610bf660008051602061257b8339815191523361179a565b610c0160003361179a565b60005b8451811015610c6257610c507f9f2df0fed2c77648de5860a4cc508cd0818c85b8b8a1ab4ceeef8d981c8956a6868381518110610c4357610c436122e1565b602002602001015161179a565b80610c5a816122f7565b915050610c04565b508015610ca9576000805461ff0019169055604051600181527f7f26b83ff96e1f2b6a682f133852f6798a09c465da95921460cefb38474024989060200160405180910390a15b50505050565b60003381610cbd8286610e25565b905083811015610d1d5760405162461bcd60e51b815260206004820152602560248201527f45524332303a2064656372656173656420616c6c6f77616e63652062656c6f77604482015264207a65726f60d81b60648201526084016107b0565b61070f8286868403610ec6565b6000336106ec81858561105e565b610d627f9f2df0fed2c77648de5860a4cc508cd0818c85b8b8a1ab4ceeef8d981c8956a633610aba565b610dae5760405162461bcd60e51b815260206004820152601d60248201527f4d7573742068617665206d696e74657220726f6c6520746f206d696e7400000060448201526064016107b0565b610db883836117a4565b826001600160a01b03167fe7cd4ce7f2a465edc730269a1305e8a48bad821e8fb7e152ec413829c01a53c48383604051610df3929190612310565b60405180910390a2505050565b600082815260fb6020526040902060010154610e1b81611209565b61073f8383611299565b6001600160a01b03918216600090815260346020908152604080832093909416825291909152205490565b610e586115fa565b6001600160a01b038116610ebd5760405162461bcd60e51b815260206004820152602660248201527f4f776e61626c653a206e6577206f776e657220697320746865207a65726f206160448201526564647265737360d01b60648201526084016107b0565b6108a381611654565b6001600160a01b038316610f285760405162461bcd60e51b8152602060048201526024808201527f45524332303a20617070726f76652066726f6d20746865207a65726f206164646044820152637265737360e01b60648201526084016107b0565b6001600160a01b038216610f895760405162461bcd60e51b815260206004820152602260248201527f45524332303a20617070726f766520746f20746865207a65726f206164647265604482015261737360f01b60648201526084016107b0565b6001600160a01b0383811660008181526034602090815260408083209487168084529482529182902085905590518481527f8c5be1e5ebec7d5bd14f71427d1e84f3dd0314c0f7b2291e5b200ac8c7c3b925910160405180910390a3505050565b6000610ff68484610e25565b90506000198114610ca957818110156110515760405162461bcd60e51b815260206004820152601d60248201527f45524332303a20696e73756666696369656e7420616c6c6f77616e636500000060448201526064016107b0565b610ca98484848403610ec6565b6001600160a01b0383166110c25760405162461bcd60e51b815260206004820152602560248201527f45524332303a207472616e736665722066726f6d20746865207a65726f206164604482015264647265737360d81b60648201526084016107b0565b6001600160a01b0382166111245760405162461bcd60e51b815260206004820152602360248201527f45524332303a207472616e7366657220746f20746865207a65726f206164647260448201526265737360e81b60648201526084016107b0565b6001600160a01b0383166000908152603360205260409020548181101561119c5760405162461bcd60e51b815260206004820152602660248201527f45524332303a207472616e7366657220616d6f756e7420657863656564732062604482015265616c616e636560d01b60648201526084016107b0565b6001600160a01b0380851660008181526033602052604080822086860390559286168082529083902080548601905591517fddf252ad1be2c89b69c2b068fc378daa952ba7f163c4a11628f55a4df523b3ef906111fc9086815260200190565b60405180910390a3610ca9565b6108a38133611865565b61121d8282610aba565b6107c357600082815260fb602090815260408083206001600160a01b03851684529091529020805460ff191660011790556112553390565b6001600160a01b0316816001600160a01b0316837f2f8788117e7eff1d82e926ec794901d17c78024a50270940304540a733656f0d60405160405180910390a45050565b6112a38282610aba565b156107c357600082815260fb602090815260408083206001600160a01b0385168085529252808320805460ff1916905551339285917ff6391f5c32d9c69d2a47ea670b442974b53935d1edc7fd64eb21e047a839171b9190a45050565b6108a36115fa565b7f4910fdfa16fed3260ed0e7147f7cc6da11a60208b5b9406d12a635614ffd91435460ff161561133b5761073f836118be565b826001600160a01b03166352d1902d6040518163ffffffff1660e01b8152600401602060405180830381865afa925050508015611395575060408051601f3d908101601f1916820190925261139291810190612329565b60015b6113f85760405162461bcd60e51b815260206004820152602e60248201527f45524331393637557067726164653a206e657720696d706c656d656e7461746960448201526d6f6e206973206e6f74205555505360901b60648201526084016107b0565b60008051602061255b83398151915281146114675760405162461bcd60e51b815260206004820152602960248201527f45524331393637557067726164653a20756e737570706f727465642070726f786044820152681a58589b195555525160ba1b60648201526084016107b0565b5061073f83838361195a565b61147b61197f565b61012d805460ff191690557f5db9ee0a495bf2e6ff9c91a7834c1ba4fdd244a5e8aa4e537bd38aeae4b073aa335b6040516001600160a01b03909116815260200160405180910390a1565b6001600160a01b0382166115265760405162461bcd60e51b815260206004820152602160248201527f45524332303a206275726e2066726f6d20746865207a65726f206164647265736044820152607360f81b60648201526084016107b0565b6001600160a01b0382166000908152603360205260409020548181101561159a5760405162461bcd60e51b815260206004820152602260248201527f45524332303a206275726e20616d6f756e7420657863656564732062616c616e604482015261636560f01b60648201526084016107b0565b6001600160a01b03831660008181526033602090815260408083208686039055603580548790039055518581529192917fddf252ad1be2c89b69c2b068fc378daa952ba7f163c4a11628f55a4df523b3ef910160405180910390a3505050565b6097546001600160a01b03163314610a835760405162461bcd60e51b815260206004820181905260248201527f4f776e61626c653a2063616c6c6572206973206e6f7420746865206f776e657260448201526064016107b0565b609780546001600160a01b038381166001600160a01b0319831681179093556040519116919082907f8be0079c531659141344cd1fd0a4f28419497f9722a3daafe3b4186f6b6457e090600090a35050565b6116ae6119c9565b61012d805460ff191660011790557f62e78cea01bee320cd4e420270b5ea74000d11b0c9f74754ebdbfc544b05a2586114a93390565b600054610100900460ff1661170b5760405162461bcd60e51b81526004016107b090612342565b6107c38282611a10565b600054610100900460ff16610a835760405162461bcd60e51b81526004016107b090612342565b600054610100900460ff166117635760405162461bcd60e51b81526004016107b090612342565b610a83611a50565b600054610100900460ff166117925760405162461bcd60e51b81526004016107b090612342565b610a83611a80565b6107c38282611213565b6001600160a01b0382166117fa5760405162461bcd60e51b815260206004820152601f60248201527f45524332303a206d696e7420746f20746865207a65726f20616464726573730060448201526064016107b0565b806035600082825461180c91906122ce565b90915550506001600160a01b0382166000818152603360209081526040808320805486019055518481527fddf252ad1be2c89b69c2b068fc378daa952ba7f163c4a11628f55a4df523b3ef910160405180910390a35050565b61186f8282610aba565b6107c35761187c81611ab4565b611887836020611ac6565b60405160200161189892919061238d565b60408051601f198184030181529082905262461bcd60e51b82526107b091600401611e66565b6001600160a01b0381163b61192b5760405162461bcd60e51b815260206004820152602d60248201527f455243313936373a206e657720696d706c656d656e746174696f6e206973206e60448201526c1bdd08184818dbdb9d1c9858dd609a1b60648201526084016107b0565b60008051602061255b83398151915280546001600160a01b0319166001600160a01b0392909216919091179055565b61196383611c69565b6000825111806119705750805b1561073f57610ca98383611ca9565b61012d5460ff16610a835760405162461bcd60e51b815260206004820152601460248201527314185d5cd8589b194e881b9bdd081c185d5cd95960621b60448201526064016107b0565b61012d5460ff1615610a835760405162461bcd60e51b815260206004820152601060248201526f14185d5cd8589b194e881c185d5cd95960821b60448201526064016107b0565b600054610100900460ff16611a375760405162461bcd60e51b81526004016107b090612342565b6036611a438382612450565b50603761073f8282612450565b600054610100900460ff16611a775760405162461bcd60e51b81526004016107b090612342565b610a8333611654565b600054610100900460ff16611aa75760405162461bcd60e51b81526004016107b090612342565b61012d805460ff19169055565b60606106466001600160a01b03831660145b60606000611ad5836002612510565b611ae09060026122ce565b67ffffffffffffffff811115611af857611af8611f5b565b6040519080825280601f01601f191660200182016040528015611b22576020820181803683370190505b509050600360fc1b81600081518110611b3d57611b3d6122e1565b60200101906001600160f81b031916908160001a905350600f60fb1b81600181518110611b6c57611b6c6122e1565b60200101906001600160f81b031916908160001a9053506000611b90846002612510565b611b9b9060016122ce565b90505b6001811115611c13576f181899199a1a9b1b9c1cb0b131b232b360811b85600f1660108110611bcf57611bcf6122e1565b1a60f81b828281518110611be557611be56122e1565b60200101906001600160f81b031916908160001a90535060049490941c93611c0c81612527565b9050611b9e565b508315611c625760405162461bcd60e51b815260206004820181905260248201527f537472696e67733a20686578206c656e67746820696e73756666696369656e7460448201526064016107b0565b9392505050565b611c72816118be565b6040516001600160a01b038216907fbc7cd75a20ee27fd9adebab32041f755214dbc6bffa90cc0225b39da2e5c2d3b90600090a250565b6060611c62838360405180606001604052806027815260200161259b602791396060600080856001600160a01b031685604051611ce6919061253e565b600060405180830381855af49150503d8060008114611d21576040519150601f19603f3d011682016040523d82523d6000602084013e611d26565b606091505b5091509150611d3786838387611d41565b9695505050505050565b60608315611db0578251600003611da9576001600160a01b0385163b611da95760405162461bcd60e51b815260206004820152601d60248201527f416464726573733a2063616c6c20746f206e6f6e2d636f6e747261637400000060448201526064016107b0565b5081611dba565b611dba8383611dc2565b949350505050565b815115611dd25781518083602001fd5b8060405162461bcd60e51b81526004016107b09190611e66565b600060208284031215611dfe57600080fd5b81356001600160e01b031981168114611c6257600080fd5b60005b83811015611e31578181015183820152602001611e19565b50506000910152565b60008151808452611e52816020860160208601611e16565b601f01601f19169290920160200192915050565b602081526000611c626020830184611e3a565b80356001600160a01b0381168114611e9057600080fd5b919050565b60008060408385031215611ea857600080fd5b611eb183611e79565b946020939093013593505050565b600080600060608486031215611ed457600080fd5b611edd84611e79565b9250611eeb60208501611e79565b9150604084013590509250925092565b600060208284031215611f0d57600080fd5b5035919050565b60008060408385031215611f2757600080fd5b82359150611f3760208401611e79565b90509250929050565b600060208284031215611f5257600080fd5b611c6282611e79565b634e487b7160e01b600052604160045260246000fd5b604051601f8201601f1916810167ffffffffffffffff81118282101715611f9a57611f9a611f5b565b604052919050565b600067ffffffffffffffff831115611fbc57611fbc611f5b565b611fcf601f8401601f1916602001611f71565b9050828152838383011115611fe357600080fd5b828260208301376000602084830101529392505050565b6000806040838503121561200d57600080fd5b61201683611e79565b9150602083013567ffffffffffffffff81111561203257600080fd5b8301601f8101851361204357600080fd5b61205285823560208401611fa2565b9150509250929050565b600082601f83011261206d57600080fd5b611c6283833560208501611fa2565b60008060006060848603121561209157600080fd5b833567ffffffffffffffff808211156120a957600080fd5b818601915086601f8301126120bd57600080fd5b81356020828211156120d1576120d1611f5b565b8160051b6120e0828201611f71565b928352848101820192828101908b8511156120fa57600080fd5b958301955b8487101561211f5761211087611e79565b825295830195908301906120ff565b985050508701359250508082111561213657600080fd5b6121428783880161205c565b9350604086013591508082111561215857600080fd5b506121658682870161205c565b9150509250925092565b60008060006060848603121561218457600080fd5b61218d84611e79565b925060208401359150604084013567ffffffffffffffff8111156121b057600080fd5b6121658682870161205c565b600080604083850312156121cf57600080fd5b6121d883611e79565b9150611f3760208401611e79565b600181811c908216806121fa57607f821691505b60208210810361221a57634e487b7160e01b600052602260045260246000fd5b50919050565b6020808252602c908201527f46756e6374696f6e206d7573742062652063616c6c6564207468726f7567682060408201526b19195b1959d85d1958d85b1b60a21b606082015260800190565b6020808252602c908201527f46756e6374696f6e206d7573742062652063616c6c6564207468726f7567682060408201526b6163746976652070726f787960a01b606082015260800190565b634e487b7160e01b600052601160045260246000fd5b80820180821115610646576106466122b8565b634e487b7160e01b600052603260045260246000fd5b600060018201612309576123096122b8565b5060010190565b828152604060208201526000611dba6040830184611e3a565b60006020828403121561233b57600080fd5b5051919050565b6020808252602b908201527f496e697469616c697a61626c653a20636f6e7472616374206973206e6f74206960408201526a6e697469616c697a696e6760a81b606082015260800190565b7f416363657373436f6e74726f6c3a206163636f756e74200000000000000000008152600083516123c5816017850160208801611e16565b7001034b99036b4b9b9b4b733903937b6329607d1b60179184019182015283516123f6816028840160208801611e16565b01602801949350505050565b601f82111561073f57600081815260208120601f850160051c810160208610156124295750805b601f850160051c820191505b8181101561244857828155600101612435565b505050505050565b815167ffffffffffffffff81111561246a5761246a611f5b565b61247e8161247884546121e6565b84612402565b602080601f8311600181146124b3576000841561249b5750858301515b600019600386901b1c1916600185901b178555612448565b600085815260208120601f198616915b828110156124e2578886015182559484019460019091019084016124c3565b50858210156125005787850151600019600388901b60f8161c191681555b5050505050600190811b01905550565b8082028115828204841417610646576106466122b8565b600081612536576125366122b8565b506000190190565b60008251612550818460208701611e16565b919091019291505056fe360894a13ba1a3210667c828492db98dca3e2076cc3735a920a3ca505d382bbc65d7a28e3265b37a6474929f336521b332c1681b933f6cb9f3376673440d862a416464726573733a206c6f772d6c6576656c2064656c65676174652063616c6c206661696c6564a2646970667358221220177f11474f9d90aa7216e892d8894654e5340826a6cfa3ceff9e92a2f1f9b4c464736f6c63430008140033",
  "linkReferences": {},
  "deployedLinkReferences": {}
}