{
  "_format": "hh-sol-artifact-1",
  "contractName": "Account",
  "sourceName": "contracts/accounts/Account.sol",
  "abi": [
    {
      "inputs": [
        {
          "internalType": "contract IEntryPoint",
          "name": "anEntryPoint",
          "type": "address"
        },
        {
          "internalType": "contract ITokenEntryPoint",
          "name": "aTokenEntryPoint",
          "type": "address"
        }
      ],
      "stateMutability": "nonpayable",
      "type": "constructor"
    },
    {
      "anonymous": false,
      "inputs": [
        {
          "indexed": true,
          "internalType": "contract IEntryPoint",
          "name": "entryPoint",
          "type": "address"
        },
        {
          "indexed": true,
          "internalType": "address",
          "name": "owner",
          "type": "address"
        }
      ],
      "name": "AccountInitialized",
      "type": "event"
    },
    {
      "anonymous": false,
      "inputs": [
        {
          "indexed": false,
          "internalType": "address",
          "name": "previousAdmin",
          "type": "address"
        },
        {
          "indexed": false,
          "internalType": "address",
          "name": "newAdmin",
          "type": "address"
        }
      ],
      "name": "AdminChanged",
      "type": "event"
    },
    {
      "anonymous": false,
      "inputs": [
        {
          "indexed": true,
          "internalType": "address",
          "name": "beacon",
          "type": "address"
        }
      ],
      "name": "BeaconUpgraded",
      "type": "event"
    },
    {
      "anonymous": false,
      "inputs": [
        {
          "indexed": false,
          "internalType": "uint8",
          "name": "version",
          "type": "uint8"
        }
      ],
      "name": "Initialized",
      "type": "event"
    },
    {
      "anonymous": false,
      "inputs": [
        {
          "indexed": true,
          "internalType": "address",
          "name": "previousOwner",
          "type": "address"
        },
        {
          "indexed": true,
          "internalType": "address",
          "name": "newOwner",
          "type": "address"
        }
      ],
      "name": "OwnershipTransferred",
      "type": "event"
    },
    {
      "anonymous": false,
      "inputs": [
        {
          "indexed": true,
          "internalType": "address",
          "name": "implementation",
          "type": "address"
        }
      ],
      "name": "Upgraded",
      "type": "event"
    },
    {
      "inputs": [],
      "name": "addDeposit",
      "outputs": [],
      "stateMutability": "payable",
      "type": "function"
    },
    {
      "inputs": [],
      "name": "entryPoint",
      "outputs": [
        {
          "internalType": "contract IEntryPoint",
          "name": "",
          "type": "address"
        }
      ],
      "stateMutability": "view",
      "type": "function"
    },
    {
      "inputs": [
        {
          "internalType": "address",
          "name": "dest",
          "type": "address"
        },
        {
          "internalType": "uint256",
          "name": "value",
          "type": "uint256"
        },
        {
          "internalType": "bytes",
          "name": "func",
          "type": "bytes"
        }
      ],
      "name": "execute",
      "outputs": [],
      "stateMutability": "nonpayable",
      "type": "function"
    },
    {
      "inputs": [
        {
          "internalType": "address[]",
          "name": "dest",
          "type": "address[]"
        },
        {
          "internalType": "bytes[]",
          "name": "func",
          "type": "bytes[]"
        }
      ],
      "name": "executeBatch",
      "outputs": [],
      "stateMutability": "nonpayable",
      "type": "function"
    },
    {
      "inputs": [],
      "name": "getDeposit",
      "outputs": [
        {
          "internalType": "uint256",
          "name": "",
          "type": "uint256"
        }
      ],
      "stateMutability": "view",
      "type": "function"
    },
    {
      "inputs": [],
      "name": "getNonce",
      "outputs": [
        {
          "internalType": "uint256",
          "name": "",
          "type": "uint256"
        }
      ],
      "stateMutability": "view",
      "type": "function"
    },
    {
      "inputs": [
        {
          "internalType": "address",
          "name": "anOwner",
          "type": "address"
        }
      ],
      "name": "initialize",
      "outputs": [],
      "stateMutability": "nonpayable",
      "type": "function"
    },
    {
      "inputs": [
        {
          "internalType": "bytes32",
          "name": "_hash",
          "type": "bytes32"
        },
        {
          "internalType": "bytes",
          "name": "_signature",
          "type": "bytes"
        }
      ],
      "name": "isValidSignature",
      "outputs": [
        {
          "internalType": "bytes4",
          "name": "",
          "type": "bytes4"
        }
      ],
      "stateMutability": "view",
      "type": "function"
    },
    {
      "inputs": [
        {
          "internalType": "address",
          "name": "",
          "type": "address"
        },
        {
          "internalType": "address",
          "name": "",
          "type": "address"
        },
        {
          "internalType": "uint256[]",
          "name": "",
          "type": "uint256[]"
        },
        {
          "internalType": "uint256[]",
          "name": "",
          "type": "uint256[]"
        },
        {
          "internalType": "bytes",
          "name": "",
          "type": "bytes"
        }
      ],
      "name": "onERC1155BatchReceived",
      "outputs": [
        {
          "internalType": "bytes4",
          "name": "",
          "type": "bytes4"
        }
      ],
      "stateMutability": "pure",
      "type": "function"
    },
    {
      "inputs": [
        {
          "internalType": "address",
          "name": "",
          "type": "address"
        },
        {
          "internalType": "address",
          "name": "",
          "type": "address"
        },
        {
          "internalType": "uint256",
          "name": "",
          "type": "uint256"
        },
        {
          "internalType": "uint256",
          "name": "",
          "type": "uint256"
        },
        {
          "internalType": "bytes",
          "name": "",
          "type": "bytes"
        }
      ],
      "name": "onERC1155Received",
      "outputs": [
        {
          "internalType": "bytes4",
          "name": "",
          "type": "bytes4"
        }
      ],
      "stateMutability": "pure",
      "type": "function"
    },
    {
      "inputs": [
        {
          "internalType": "address",
          "name": "",
          "type": "address"
        },
        {
          "internalType": "address",
          "name": "",
          "type": "address"
        },
        {
          "internalType": "uint256",
          "name": "",
          "type": "uint256"
        },
        {
          "internalType": "bytes",
          "name": "",
          "type": "bytes"
        }
      ],
      "name": "onERC721Received",
      "outputs": [
        {
          "internalType": "bytes4",
          "name": "",
          "type": "bytes4"
        }
      ],
      "stateMutability": "pure",
      "type": "function"
    },
    {
      "inputs": [],
      "name": "owner",
      "outputs": [
        {
          "internalType": "address",
          "name": "",
          "type": "address"
        }
      ],
      "stateMutability": "view",
      "type": "function"
    },
    {
      "inputs": [],
      "name": "proxiableUUID",
      "outputs": [
        {
          "internalType": "bytes32",
          "name": "",
          "type": "bytes32"
        }
      ],
      "stateMutability": "view",
      "type": "function"
    },
    {
      "inputs": [
        {
          "internalType": "address",
          "name": "newOwner",
          "type": "address"
        }
      ],
      "name": "recoverOwnership",
      "outputs": [],
      "stateMutability": "nonpayable",
      "type": "function"
    },
    {
      "inputs": [],
      "name": "renounceOwnership",
      "outputs": [],
      "stateMutability": "nonpayable",
      "type": "function"
    },
    {
      "inputs": [
        {
          "internalType": "bytes4",
          "name": "interfaceId",
          "type": "bytes4"
        }
      ],
      "name": "supportsInterface",
      "outputs": [
        {
          "internalType": "bool",
          "name": "",
          "type": "bool"
        }
      ],
      "stateMutability": "view",
      "type": "function"
    },
    {
      "inputs": [],
      "name": "tokenEntryPoint",
      "outputs": [
        {
          "internalType": "address",
          "name": "",
          "type": "address"
        }
      ],
      "stateMutability": "view",
      "type": "function"
    },
    {
      "inputs": [
        {
          "internalType": "address",
          "name": "",
          "type": "address"
        },
        {
          "internalType": "address",
          "name": "",
          "type": "address"
        },
        {
          "internalType": "address",
          "name": "",
          "type": "address"
        },
        {
          "internalType": "uint256",
          "name": "",
          "type": "uint256"
        },
        {
          "internalType": "bytes",
          "name": "",
          "type": "bytes"
        },
        {
          "internalType": "bytes",
          "name": "",
          "type": "bytes"
        }
      ],
      "name": "tokensReceived",
      "outputs": [],
      "stateMutability": "pure",
      "type": "function"
    },
    {
      "inputs": [
        {
          "internalType": "address",
          "name": "newOwner",
          "type": "address"
        }
      ],
      "name": "transferOwnership",
      "outputs": [],
      "stateMutability": "nonpayable",
      "type": "function"
    },
    {
      "inputs": [
        {
          "internalType": "address",
          "name": "newImplementation",
          "type": "address"
        }
      ],
      "name": "upgradeTo",
      "outputs": [],
      "stateMutability": "nonpayable",
      "type": "function"
    },
    {
      "inputs": [
        {
          "internalType": "address",
          "name": "newImplementation",
          "type": "address"
        },
        {
          "internalType": "bytes",
          "name": "data",
          "type": "bytes"
        }
      ],
      "name": "upgradeToAndCall",
      "outputs": [],
      "stateMutability": "payable",
      "type": "function"
    },
    {
      "inputs": [
        {
          "components": [
            {
              "internalType": "address",
              "name": "sender",
              "type": "address"
            },
            {
              "internalType": "uint256",
              "name": "nonce",
              "type": "uint256"
            },
            {
              "internalType": "bytes",
              "name": "initCode",
              "type": "bytes"
            },
            {
              "internalType": "bytes",
              "name": "callData",
              "type": "bytes"
            },
            {
              "internalType": "uint256",
              "name": "callGasLimit",
              "type": "uint256"
            },
            {
              "internalType": "uint256",
              "name": "verificationGasLimit",
              "type": "uint256"
            },
            {
              "internalType": "uint256",
              "name": "preVerificationGas",
              "type": "uint256"
            },
            {
              "internalType": "uint256",
              "name": "maxFeePerGas",
              "type": "uint256"
            },
            {
              "internalType": "uint256",
              "name": "maxPriorityFeePerGas",
              "type": "uint256"
            },
            {
              "internalType": "bytes",
              "name": "paymasterAndData",
              "type": "bytes"
            },
            {
              "internalType": "bytes",
              "name": "signature",
              "type": "bytes"
            }
          ],
          "internalType": "struct UserOperation",
          "name": "userOp",
          "type": "tuple"
        },
        {
          "internalType": "bytes32",
          "name": "userOpHash",
          "type": "bytes32"
        },
        {
          "internalType": "uint256",
          "name": "missingAccountFunds",
          "type": "uint256"
        }
      ],
      "name": "validateUserOp",
      "outputs": [
        {
          "internalType": "uint256",
          "name": "validationData",
          "type": "uint256"
        }
      ],
      "stateMutability": "nonpayable",
      "type": "function"
    },
    {
      "inputs": [
        {
          "components": [
            {
              "internalType": "address",
              "name": "sender",
              "type": "address"
            },
            {
              "internalType": "uint256",
              "name": "nonce",
              "type": "uint256"
            },
            {
              "internalType": "bytes",
              "name": "initCode",
              "type": "bytes"
            },
            {
              "internalType": "bytes",
              "name": "callData",
              "type": "bytes"
            },
            {
              "internalType": "uint256",
              "name": "callGasLimit",
              "type": "uint256"
            },
            {
              "internalType": "uint256",
              "name": "verificationGasLimit",
              "type": "uint256"
            },
            {
              "internalType": "uint256",
              "name": "preVerificationGas",
              "type": "uint256"
            },
            {
              "internalType": "uint256",
              "name": "maxFeePerGas",
              "type": "uint256"
            },
            {
              "internalType": "uint256",
              "name": "maxPriorityFeePerGas",
              "type": "uint256"
            },
            {
              "internalType": "bytes",
              "name": "paymasterAndData",
              "type": "bytes"
            },
            {
              "internalType": "bytes",
              "name": "signature",
              "type": "bytes"
            }
          ],
          "internalType": "struct UserOperation",
          "name": "userOp",
          "type": "tuple"
        },
        {
          "internalType": "bytes32",
          "name": "userOpHash",
          "type": "bytes32"
        }
      ],
      "name": "validateUserOp",
      "outputs": [
        {
          "internalType": "bool",
          "name": "",
          "type": "bool"
        }
      ],
      "stateMutability": "nonpayable",
      "type": "function"
    },
    {
      "inputs": [
        {
          "internalType": "address payable",
          "name": "withdrawAddress",
          "type": "address"
        },
        {
          "internalType": "uint256",
          "name": "amount",
          "type": "uint256"
        }
      ],
      "name": "withdrawDepositTo",
      "outputs": [],
      "stateMutability": "nonpayable",
      "type": "function"
    },
    {
      "stateMutability": "payable",
      "type": "receive"
    }
  ],
  "bytecode": "0x60e0346200019957601f620021ec38819003918201601f19168301916001600160401b038311848410176200019e578084926040948552833981010312620001995780516001600160a01b03918282168203620001995760200151918216820362000199573060805260a05260c05260005460ff8160081c16620001445760ff8082160362000108575b6040516120379081620001b58239608051818181610576015281816109da0152610aef015260a0518181816106e0015281816107b30152818161084d01528181610c8701528181610e2701528181610fa8015281816110e60152818161185001526118a1015260c0518181816102f801528181610d3d015261193f0152f35b60ff90811916176000557f7f26b83ff96e1f2b6a682f133852f6798a09c465da95921460cefb3847402498602060405160ff8152a13862000089565b60405162461bcd60e51b815260206004820152602760248201527f496e697469616c697a61626c653a20636f6e747261637420697320696e697469604482015266616c697a696e6760c81b6064820152608490fd5b600080fd5b634e487b7160e01b600052604160045260246000fdfe6080604052600436101561001b575b361561001957600080fd5b005b60003560e01c806223de291461019a57806301ffc9a7146101955780630b699abe14610190578063150b7a021461018b5780631626ba7e1461018657806318dfb3c7146101815780633659cfe61461017c5780633a871cdd146101775780634a58db19146101725780634d44560d1461016d5780634f1ef2861461016857806352d1902d14610163578063715018a61461015e5780638da5cb5b14610159578063b0d691fe14610154578063b61d27f61461014f578063bb5032061461014a578063bc197c8114610145578063c399ec8814610140578063c4d66de81461013b578063d087d28814610136578063f23a6e6114610131578063f2fde38b1461012c5763fff35b720361000e57611094565b61106c565b611012565b610f75565b610e88565b610dfb565b610d6c565b610d27565b610cb6565b610c71565b610c48565b610ba1565b610adc565b610988565b61081c565b6107a4565b6106ab565b61054f565b610467565b6103e6565b61038c565b6102bc565b61024e565b6101e2565b6001600160a01b038116036101b057565b600080fd5b9181601f840112156101b0578235916001600160401b0383116101b057602083818601950101116101b057565b346101b05760c03660031901126101b0576101fe60043561019f565b61020960243561019f565b61021460443561019f565b6001600160401b036084358181116101b0576102349036906004016101b5565b505060a4359081116101b0576100199036906004016101b5565b346101b05760203660031901126101b05760043563ffffffff60e01b81168091036101b057602090630a85bd0160e11b81149081156102ab575b811561029a575b506040519015158152f35b6301ffc9a760e01b1490503861028f565b630271189760e51b81149150610288565b346101b05760203660031901126101b0576004356102d98161019f565b604051638da5cb5b60e01b81526001600160a01b0391906020816004817f000000000000000000000000000000000000000000000000000000000000000087165afa90811561038757600091610340575b506100199261033b91163314611f6a565b6111b9565b906020823d821161037f575b8161035960209383610915565b8101031261037c57506100199261033b91516103748161019f565b91509261032a565b80fd5b3d915061034c565b61117d565b346101b05760803660031901126101b0576103a860043561019f565b6103b360243561019f565b6064356001600160401b0381116101b0576103d29036906004016101b5565b5050604051630a85bd0160e11b8152602090f35b346101b05760403660031901126101b0576024356001600160401b0381116101b05761042461041b60209236906004016101b5565b90600435611c86565b6040516001600160e01b03199091168152f35b9181601f840112156101b0578235916001600160401b0383116101b0576020808501948460051b0101116101b057565b346101b05760403660031901126101b0576001600160401b036004358181116101b057610498903690600401610437565b90916024359081116101b0576104b2903690600401610437565b6104ba611897565b8083036105145760005b8181106104cd57005b6104fe6104e36104de83878961161d565b611632565b6104f86104f184868861166e565b3691610951565b90611be3565b600019811461050f576001016104c4565b6115f1565b60405162461bcd60e51b815260206004820152601360248201527277726f6e67206172726179206c656e6774687360681b6044820152606490fd5b346101b05760203660031901126101b05760043561056c8161019f565b6001600160a01b037f0000000000000000000000000000000000000000000000000000000000000000811691906105a530841415611202565b6105c2600080516020611fc2833981519152938285541614611263565b6105ca611c03565b604051906105d7826108df565b600082527f4910fdfa16fed3260ed0e7147f7cc6da11a60208b5b9406d12a635614ffd91435460ff16156106115750506100199150611371565b6020600491604094939451928380926352d1902d60e01b825286165afa6000918161066c575b506106595760405162461bcd60e51b81528061065560048201611322565b0390fd5b6100199361066791146112c4565b611401565b61068e91925060203d8111610695575b6106868183610915565b81019061116e565b9038610637565b503d61067c565b90816101609103126101b05790565b346101b05760603660031901126101b0576004356001600160401b0381116101b0576106db90369060040161069c565b6044357f00000000000000000000000000000000000000000000000000000000000000006001600160a01b031633036107545761071e6107369260243590611976565b908061073a575b506040519081529081906020820190565b0390f35b600080808093338219f15061074d611189565b5038610725565b60405162461bcd60e51b815260206004820152601c60248201527f6163636f756e743a206e6f742066726f6d20456e747279506f696e74000000006044820152606490fd5b60009103126101b057565b60008060031936011261037c577f00000000000000000000000000000000000000000000000000000000000000006001600160a01b031681813b1561037c5760405163b760faf960e01b8152306004820152918290602490829034905af1801561038757610810575080f35b610819906108c7565b80f35b346101b0576000604036600319011261037c5760043561083b8161019f565b610843611c03565b6001600160a01b037f0000000000000000000000000000000000000000000000000000000000000000811691839190833b156108ad5760449083604051958694859363040b850f60e31b855216600484015260243560248401525af1801561038757610810575080f35b8280fd5b634e487b7160e01b600052604160045260246000fd5b6001600160401b0381116108da57604052565b6108b1565b602081019081106001600160401b038211176108da57604052565b606081019081106001600160401b038211176108da57604052565b90601f801991011681019081106001600160401b038211176108da57604052565b6001600160401b0381116108da57601f01601f191660200190565b92919261095d82610936565b9161096b6040519384610915565b8294818452818301116101b0578281602093846000960137010152565b60403660031901126101b0576004356109a08161019f565b6024356001600160401b0381116101b057366023820112156101b0576109d0903690602481600401359101610951565b6001600160a01b037f00000000000000000000000000000000000000000000000000000000000000008116929190610a0a30851415611202565b610a27600080516020611fc2833981519152948286541614611263565b610a2f611c03565b7f4910fdfa16fed3260ed0e7147f7cc6da11a60208b5b9406d12a635614ffd91435460ff1615610a655750506100199150611371565b6020600491604094939451928380926352d1902d60e01b825286165afa60009181610abc575b50610aa95760405162461bcd60e51b81528061065560048201611322565b61001993610ab791146112c4565b6114bd565b610ad591925060203d8111610695576106868183610915565b9038610a8b565b346101b05760003660031901126101b0577f00000000000000000000000000000000000000000000000000000000000000006001600160a01b03163003610b3657604051600080516020611fc28339815191528152602090f35b60405162461bcd60e51b815260206004820152603860248201527f555550535570677261646561626c653a206d757374206e6f742062652063616c60448201527f6c6564207468726f7567682064656c656761746563616c6c00000000000000006064820152608490fd5b346101b05760008060031936011261037c576033546001600160a01b038116338103610c045782916bffffffffffffffffffffffff60a01b166033557f8be0079c531659141344cd1fd0a4f28419497f9722a3daafe3b4186f6b6457e08280a380f35b606460405162461bcd60e51b815260206004820152602060248201527f4f776e61626c653a2063616c6c6572206973206e6f7420746865206f776e65726044820152fd5b346101b05760003660031901126101b0576033546040516001600160a01b039091168152602090f35b346101b05760003660031901126101b0576040517f00000000000000000000000000000000000000000000000000000000000000006001600160a01b03168152602090f35b346101b05760603660031901126101b057600435610cd38161019f565b6044356001600160401b0381116101b057600091610d01610cf9849336906004016101b5565b6104f1611897565b9060208251920190602435905af1610d17611189565b9015610d1f57005b602081519101fd5b346101b05760003660031901126101b0576040517f00000000000000000000000000000000000000000000000000000000000000006001600160a01b03168152602090f35b346101b05760a03660031901126101b057610d8860043561019f565b610d9360243561019f565b6001600160401b036044358181116101b057610db3903690600401610437565b50506064358181116101b057610dcd903690600401610437565b50506084359081116101b057610de79036906004016101b5565b505060405163bc197c8160e01b8152602090f35b346101b05760003660031901126101b0576040516370a0823160e01b81523060048201526020816024817f00000000000000000000000000000000000000000000000000000000000000006001600160a01b03165afa801561038757602091600091610e6b575b50604051908152f35b610e829150823d8111610695576106868183610915565b38610e62565b346101b05760203660031901126101b057600435610ea58161019f565b610ee960005491610ecd60ff8460081c161580948195610f67575b8115610f47575b50611689565b82610ee0600160ff196000541617600055565b610f2e576116ec565b610eef57005b610eff61ff001960005416600055565b604051600181527f7f26b83ff96e1f2b6a682f133852f6798a09c465da95921460cefb384740249890602090a1005b610f4261010061ff00196000541617600055565b6116ec565b303b15915081610f59575b5038610ec7565b6001915060ff161438610f52565b600160ff8216109150610ec0565b346101b05760003660031901126101b057604051631aab3f0d60e11b8152306004820152600060248201526020816044817f00000000000000000000000000000000000000000000000000000000000000006001600160a01b03165afa80156103875761073691600091610ff457506040519081529081906020820190565b61100c915060203d8111610695576106868183610915565b38610725565b346101b05760a03660031901126101b05761102e60043561019f565b61103960243561019f565b6084356001600160401b0381116101b0576110589036906004016101b5565b505060405163f23a6e6160e01b8152602090f35b346101b05760203660031901126101b05761001960043561108c8161019f565b61033b611c03565b346101b05760403660031901126101b0576004356001600160401b0381116101b0576110c490369060040161069c565b6110d060243582611976565b15806110e4575b6040519015158152602090f35b7f00000000000000000000000000000000000000000000000000000000000000006001600160a01b0316803b156101b05760408051630bd28e3b60e01b815260209490940135901c60048401526000908390602490829084905af19182156103875761073692611155575b506110d7565b80611162611168926108c7565b80610799565b3861114f565b908160209103126101b0575190565b6040513d6000823e3d90fd5b3d156111b4573d9061119a82610936565b916111a86040519384610915565b82523d6000602084013e565b606090565b603380546001600160a01b039283166001600160a01b0319821681179092559091167f8be0079c531659141344cd1fd0a4f28419497f9722a3daafe3b4186f6b6457e0600080a3565b1561120957565b60405162461bcd60e51b815260206004820152602c60248201527f46756e6374696f6e206d7573742062652063616c6c6564207468726f7567682060448201526b19195b1959d85d1958d85b1b60a21b6064820152608490fd5b1561126a57565b60405162461bcd60e51b815260206004820152602c60248201527f46756e6374696f6e206d7573742062652063616c6c6564207468726f7567682060448201526b6163746976652070726f787960a01b6064820152608490fd5b156112cb57565b60405162461bcd60e51b815260206004820152602960248201527f45524331393637557067726164653a20756e737570706f727465642070726f786044820152681a58589b195555525160ba1b6064820152608490fd5b60809060208152602e60208201527f45524331393637557067726164653a206e657720696d706c656d656e7461746960408201526d6f6e206973206e6f74205555505360901b60608201520190565b803b156113a657600080516020611fc283398151915280546001600160a01b0319166001600160a01b03909216919091179055565b60405162461bcd60e51b815260206004820152602d60248201527f455243313936373a206e657720696d706c656d656e746174696f6e206973206e60448201526c1bdd08184818dbdb9d1c9858dd609a1b6064820152608490fd5b9061140b82611371565b6001600160a01b0382167fbc7cd75a20ee27fd9adebab32041f755214dbc6bffa90cc0225b39da2e5c2d3b600080a28051158015906114b5575b61144d575050565b6114b29160008060405193611461856108fa565b602785527f416464726573733a206c6f772d6c6576656c2064656c65676174652063616c6c6020860152660819985a5b195960ca1b6040860152602081519101845af46114ac611189565b9161155c565b50565b506000611445565b906114c782611371565b6001600160a01b0382167fbc7cd75a20ee27fd9adebab32041f755214dbc6bffa90cc0225b39da2e5c2d3b600080a28051158015906115085761144d575050565b506001611445565b1561151757565b60405162461bcd60e51b815260206004820152601d60248201527f416464726573733a2063616c6c20746f206e6f6e2d636f6e74726163740000006044820152606490fd5b9192901561157f5750815115611570575090565b61157c903b1515611510565b90565b8251909150156115925750805190602001fd5b6040519062461bcd60e51b82528160208060048301528251908160248401526000935b8285106115d8575050604492506000838284010152601f80199101168101030190fd5b84810182015186860160440152938101938593506115b5565b634e487b7160e01b600052601160045260246000fd5b634e487b7160e01b600052603260045260246000fd5b919081101561162d5760051b0190565b611607565b3561157c8161019f565b903590601e19813603018212156101b057018035906001600160401b0382116101b0576020019181360383136101b057565b9082101561162d576116859160051b81019061163c565b9091565b1561169057565b60405162461bcd60e51b815260206004820152602e60248201527f496e697469616c697a61626c653a20636f6e747261637420697320616c72656160448201526d191e481a5b9a5d1a585b1a5e995960921b6064820152608490fd5b61170660ff60005460081c16611701816117d1565b6117d1565b61170f336111b9565b61172460ff60005460081c16611701816117d1565b600080516020611fc2833981519152546001600160a01b0316600081815260c9602052604090205490919060ff1661178c5761178561177861178a9360018060a01b031660005260c9602052604060002090565b805460ff19166001179055565b611831565b565b60405162461bcd60e51b815260206004820152601960248201527f4163636f756e743a20616c7265616479206d69677261746564000000000000006044820152606490fd5b156117d857565b60405162461bcd60e51b815260206004820152602b60248201527f496e697469616c697a61626c653a20636f6e7472616374206973206e6f74206960448201526a6e697469616c697a696e6760a81b6064820152608490fd5b611839611c03565b611842816111b9565b6001600160a01b03908116907f0000000000000000000000000000000000000000000000000000000000000000167f526ffefac8167421b9048ae3377810715d834479565b0182ea4155f0efa4c380600080a3565b60018060a01b03807f0000000000000000000000000000000000000000000000000000000000000000163314908115611967575b811561193b575b50156118da57565b60405162461bcd60e51b815260206004820152603360248201527f6163636f756e743a206e6f74204f776e6572206f7220456e747279506f696e74604482015272081bdc88151bdad95b915b9d1c9e541bda5b9d606a1b6064820152608490fd5b90507f0000000000000000000000000000000000000000000000000000000000000000163314386118d2565b809150603354163314906118cb565b907f19457468657265756d205369676e6564204d6573736167653a0a333200000000600052601c52603c6000206119d66119ce60018060a01b03926119c86104f185603354169661014081019061163c565b90611b26565b919091611a06565b16036119e157600090565b600190565b600511156119f057565b634e487b7160e01b600052602160045260246000fd5b611a0f816119e6565b80611a175750565b611a20816119e6565b60018103611a6d5760405162461bcd60e51b815260206004820152601860248201527f45434453413a20696e76616c6964207369676e617475726500000000000000006044820152606490fd5b611a76816119e6565b60028103611ac35760405162461bcd60e51b815260206004820152601f60248201527f45434453413a20696e76616c6964207369676e6174757265206c656e677468006044820152606490fd5b80611acf6003926119e6565b14611ad657565b60405162461bcd60e51b815260206004820152602260248201527f45434453413a20696e76616c6964207369676e6174757265202773272076616c604482015261756560f01b6064820152608490fd5b906041815114600014611b5057611685916020820151906060604084015193015160001a90611b5a565b5050600090600290565b939291906fa2a8918ca85bafe22016d0b997e4df60600160ff1b038311611bd65791611ba79160209360405196879094939260ff6060936080840197845216602083015260408201520152565b836000948592838052039060015afa156103875781516001600160a01b03811615611bd0579190565b50600190565b5050509050600090600390565b600091829182602083519301915af1611bfa611189565b9015610d1f5750565b6033546001600160a01b031633148015611c7d575b15611c1f57565b60405162461bcd60e51b815260206004820152603060248201527f4f776e61626c653a2063616c6c6572206973206e6f7420746865206f776e657260448201526f081bdc881d1a194818dbdb9d1c9858dd60821b6064820152608490fd5b50333014611c18565b9190611c93913691610951565b90611ca16041835114611e43565b611cc4611cbe611cb084611ea3565b516001600160f81b03191690565b60f81c90565b611cd6611cd084611f06565b93611f5a565b916fa2a8918ca85bafe22016d0b997e4df60600160ff1b038311611dea5760ff8216601b8114159081611dde575b50611d8557611d38600093602095604051948594859094939260ff6060936080840197845216602083015260408201520152565b838052039060015afa15610387576000516001600160a01b0316611d5d811515611eb3565b6033546001600160a01b031603611d7957630b135d3f60e11b90565b6001600160e01b031990565b60405162461bcd60e51b815260206004820152603d6024820152600080516020611fe283398151915260448201527f3a20696e76616c6964207369676e6174757265202776272076616c75650000006064820152608490fd5b601c9150141538611d04565b60405162461bcd60e51b815260206004820152603d6024820152600080516020611fe283398151915260448201527f3a20696e76616c6964207369676e6174757265202773272076616c75650000006064820152608490fd5b15611e4a57565b60405162461bcd60e51b815260206004820152603a6024820152600080516020611fe283398151915260448201527f3a20696e76616c6964207369676e6174757265206c656e6774680000000000006064820152608490fd5b80516040101561162d5760600190565b15611eba57565b60405162461bcd60e51b81526020600482015260306024820152600080516020611fe283398151915260448201526f1d1024a72b20a624a22fa9a4a3a722a960811b6064820152608490fd5b6020815110611f16576020015190565b606460405162461bcd60e51b815260206004820152602060248201527f72656164427974657333323a20696e76616c69642064617461206c656e6774686044820152fd5b6040815110611f16576040015190565b15611f7157565b60405162461bcd60e51b815260206004820152602260248201527f4f776e61626c653a206e6f7420546f6b656e456e747279506f696e74206f776e60448201526132b960f11b6064820152608490fdfe360894a13ba1a3210667c828492db98dca3e2076cc3735a920a3ca505d382bbc5369676e617475726556616c696461746f72237265636f7665725369676e6572a2646970667358221220d5a57dae87f66a0bb02370353d60f4cf61b678000cd63ea293d5453fa1c11d5864736f6c63430008140033",
  "linkReferences": {},
  "deployedLinkReferences": {}
}