{
  "_format": "hh-sol-artifact-1",
  "contractName": "SimpleFaucet",
  "sourceName": "contracts/apps/SimpleFaucet.sol",
  "abi": [
    {
      "anonymous": false,
      "inputs": [
        {
          "indexed": false,
          "internalType": "address",
          "name": "previousAdmin",
          "type": "address"
        },
        {
          "indexed": false,
          "internalType": "address",
          "name": "newAdmin",
          "type": "address"
        }
      ],
      "name": "AdminChanged",
      "type": "event"
    },
    {
      "anonymous": false,
      "inputs": [
        {
          "indexed": true,
          "internalType": "address",
          "name": "beacon",
          "type": "address"
        }
      ],
      "name": "BeaconUpgraded",
      "type": "event"
    },
    {
      "anonymous": false,
      "inputs": [
        {
          "indexed": false,
          "internalType": "uint8",
          "name": "version",
          "type": "uint8"
        }
      ],
      "name": "Initialized",
      "type": "event"
    },
    {
      "anonymous": false,
      "inputs": [
        {
          "indexed": true,
          "internalType": "address",
          "name": "previousOwner",
          "type": "address"
        },
        {
          "indexed": true,
          "internalType": "address",
          "name": "newOwner",
          "type": "address"
        }
      ],
      "name": "OwnershipTransferred",
      "type": "event"
    },
    {
      "anonymous": false,
      "inputs": [
        {
          "indexed": true,
          "internalType": "bytes32",
          "name": "role",
          "type": "bytes32"
        },
        {
          "indexed": true,
          "internalType": "bytes32",
          "name": "previousAdminRole",
          "type": "bytes32"
        },
        {
          "indexed": true,
          "internalType": "bytes32",
          "name": "newAdminRole",
          "type": "bytes32"
        }
      ],
      "name": "RoleAdminChanged",
      "type": "event"
    },
    {
      "anonymous": false,
      "inputs": [
        {
          "indexed": true,
          "internalType": "bytes32",
          "name": "role",
          "type": "bytes32"
        },
        {
          "indexed": true,
          "internalType": "address",
          "name": "account",
          "type": "address"
        },
        {
          "indexed": true,
          "internalType": "address",
          "name": "sender",
          "type": "address"
        }
      ],
      "name": "RoleGranted",
      "type": "event"
    },
    {
      "anonymous": false,
      "inputs": [
        {
          "indexed": true,
          "internalType": "bytes32",
          "name": "role",
          "type": "bytes32"
        },
        {
          "indexed": true,
          "internalType": "address",
          "name": "account",
          "type": "address"
        },
        {
          "indexed": true,
          "internalType": "address",
          "name": "sender",
          "type": "address"
        }
      ],
      "name": "RoleRevoked",
      "type": "event"
    },
    {
      "anonymous": false,
      "inputs": [
        {
          "indexed": true,
          "internalType": "address",
          "name": "implementation",
          "type": "address"
        }
      ],
      "name": "Upgraded",
      "type": "event"
    },
    {
      "inputs": [],
      "name": "DEFAULT_ADMIN_ROLE",
      "outputs": [
        {
          "internalType": "bytes32",
          "name": "",
          "type": "bytes32"
        }
      ],
      "stateMutability": "view",
      "type": "function"
    },
    {
      "inputs": [],
      "name": "REDEEM_ADMIN_ROLE",
      "outputs": [
        {
          "internalType": "bytes32",
          "name": "",
          "type": "bytes32"
        }
      ],
      "stateMutability": "view",
      "type": "function"
    },
    {
      "inputs": [],
      "name": "amount",
      "outputs": [
        {
          "internalType": "uint256",
          "name": "",
          "type": "uint256"
        }
      ],
      "stateMutability": "view",
      "type": "function"
    },
    {
      "inputs": [
        {
          "internalType": "bytes32",
          "name": "role",
          "type": "bytes32"
        }
      ],
      "name": "getRoleAdmin",
      "outputs": [
        {
          "internalType": "bytes32",
          "name": "",
          "type": "bytes32"
        }
      ],
      "stateMutability": "view",
      "type": "function"
    },
    {
      "inputs": [
        {
          "internalType": "bytes32",
          "name": "role",
          "type": "bytes32"
        },
        {
          "internalType": "address",
          "name": "account",
          "type": "address"
        }
      ],
      "name": "grantRole",
      "outputs": [],
      "stateMutability": "nonpayable",
      "type": "function"
    },
    {
      "inputs": [
        {
          "internalType": "bytes32",
          "name": "role",
          "type": "bytes32"
        },
        {
          "internalType": "address",
          "name": "account",
          "type": "address"
        }
      ],
      "name": "hasRole",
      "outputs": [
        {
          "internalType": "bool",
          "name": "",
          "type": "bool"
        }
      ],
      "stateMutability": "view",
      "type": "function"
    },
    {
      "inputs": [
        {
          "internalType": "address",
          "name": "owner",
          "type": "address"
        },
        {
          "internalType": "contract IERC20Upgradeable",
          "name": "_token",
          "type": "address"
        },
        {
          "internalType": "uint256",
          "name": "_amount",
          "type": "uint256"
        },
        {
          "internalType": "uint48",
          "name": "_redeemInterval",
          "type": "uint48"
        },
        {
          "internalType": "address",
          "name": "_redeemAdmin",
          "type": "address"
        }
      ],
      "name": "initialize",
      "outputs": [],
      "stateMutability": "nonpayable",
      "type": "function"
    },
    {
      "inputs": [],
      "name": "owner",
      "outputs": [
        {
          "internalType": "address",
          "name": "",
          "type": "address"
        }
      ],
      "stateMutability": "view",
      "type": "function"
    },
    {
      "inputs": [],
      "name": "proxiableUUID",
      "outputs": [
        {
          "internalType": "bytes32",
          "name": "",
          "type": "bytes32"
        }
      ],
      "stateMutability": "view",
      "type": "function"
    },
    {
      "inputs": [],
      "name": "redeem",
      "outputs": [],
      "stateMutability": "nonpayable",
      "type": "function"
    },
    {
      "inputs": [],
      "name": "redeemAdmin",
      "outputs": [
        {
          "internalType": "address",
          "name": "",
          "type": "address"
        }
      ],
      "stateMutability": "view",
      "type": "function"
    },
    {
      "inputs": [],
      "name": "redeemInterval",
      "outputs": [
        {
          "internalType": "uint48",
          "name": "",
          "type": "uint48"
        }
      ],
      "stateMutability": "view",
      "type": "function"
    },
    {
      "inputs": [
        {
          "internalType": "address",
          "name": "receiver",
          "type": "address"
        }
      ],
      "name": "redeemed",
      "outputs": [
        {
          "internalType": "uint48",
          "name": "time",
          "type": "uint48"
        }
      ],
      "stateMutability": "view",
      "type": "function"
    },
    {
      "inputs": [],
      "name": "renounceOwnership",
      "outputs": [],
      "stateMutability": "nonpayable",
      "type": "function"
    },
    {
      "inputs": [
        {
          "internalType": "bytes32",
          "name": "role",
          "type": "bytes32"
        },
        {
          "internalType": "address",
          "name": "account",
          "type": "address"
        }
      ],
      "name": "renounceRole",
      "outputs": [],
      "stateMutability": "nonpayable",
      "type": "function"
    },
    {
      "inputs": [
        {
          "internalType": "bytes32",
          "name": "role",
          "type": "bytes32"
        },
        {
          "internalType": "address",
          "name": "account",
          "type": "address"
        }
      ],
      "name": "revokeRole",
      "outputs": [],
      "stateMutability": "nonpayable",
      "type": "function"
    },
    {
      "inputs": [
        {
          "internalType": "bytes4",
          "name": "interfaceId",
          "type": "bytes4"
        }
      ],
      "name": "supportsInterface",
      "outputs": [
        {
          "internalType": "bool",
          "name": "",
          "type": "bool"
        }
      ],
      "stateMutability": "view",
      "type": "function"
    },
    {
      "inputs": [],
      "name": "token",
      "outputs": [
        {
          "internalType": "contract IERC20Upgradeable",
          "name": "",
          "type": "address"
        }
      ],
      "stateMutability": "view",
      "type": "function"
    },
    {
      "inputs": [
        {
          "internalType": "address",
          "name": "newOwner",
          "type": "address"
        }
      ],
      "name": "transferOwnership",
      "outputs": [],
      "stateMutability": "nonpayable",
      "type": "function"
    },
    {
      "inputs": [
        {
          "internalType": "address",
          "name": "newImplementation",
          "type": "address"
        }
      ],
      "name": "upgradeTo",
      "outputs": [],
      "stateMutability": "nonpayable",
      "type": "function"
    },
    {
      "inputs": [
        {
          "internalType": "address",
          "name": "newImplementation",
          "type": "address"
        },
        {
          "internalType": "bytes",
          "name": "data",
          "type": "bytes"
        }
      ],
      "name": "upgradeToAndCall",
      "outputs": [],
      "stateMutability": "payable",
      "type": "function"
    },
    {
      "inputs": [],
      "name": "withdraw",
      "outputs": [],
      "stateMutability": "nonpayable",
      "type": "function"
    }
  ],
  "bytecode": "0x60a080604052346100315730608052611b4e9081610037823960805181818161090001528181610a63015261101d0152f35b600080fdfe608060408181526004918236101561001657600080fd5b600092833560e01c91826301ffc9a71461135557508163248a9ca31461132a5781632f2ff15d1461127d57816336568abe146111eb5781633659cfe614610ff55781633ccfd60b14610cea5781634f1ef286146109e85781635018c209146109ad57816352d1902d146108ea578163715018a61461088a57816377202ba1146105bc5781638da5cb5b1461059357816391d148541461054c5781639f4568ef1461050a578163a217fddf146104ef578163a2d2c71c146104c1578163a5ff3f8014610499578163aa8c217c14610479578163be040fb014610215578163d547741f146101d9578163f2fde38b14610143575063fc0c546a1461011757600080fd5b3461013f578160031936011261013f5761012d5490516001600160a01b039091168152602090f35b5080fd5b9050346101d55760203660031901126101d55761015e6113c3565b916101676116d7565b6001600160a01b0383161561018357836101808461172f565b80f35b906020608492519162461bcd60e51b8352820152602660248201527f4f776e61626c653a206e6577206f776e657220697320746865207a65726f206160448201526564647265737360d01b6064820152fd5b8280fd5b919050346101d557806003193601126101d557610180913561021060016101fe6113a8565b93838752609760205286200154611465565b611661565b919050346101d557826003193601126101d55761012f5465ffffffffffff4281169391811680156104235733865261013060205281848720541601818111610410571683106103bd575b61012d5482516370a0823160e01b8152308382015260209290916001600160a01b0316908383602481855afa9283156103b3578793610380575b5061012e5480931061033257845163a9059cbb60e01b81523391810191825260208201939093528391839182908990829060400103925af18015610328579061013092916102fb575b503385525282209065ffffffffffff1982541617905580f35b61031a90823d8411610321575b6103128183611427565b810190611ae0565b50386102e2565b503d610308565b83513d87823e3d90fd5b845162461bcd60e51b8152908101849052602260248201527f53696d706c654661756365743a20696e73756666696369656e742062616c616e604482015261636560f01b6064820152608490fd5b9092508381813d83116103ac575b6103988183611427565b810103126103a857519138610299565b8680fd5b503d61038e565b85513d89823e3d90fd5b6020608492519162461bcd60e51b8352820152602860248201527f53696d706c654661756365743a2072656465656d20696e74657276616c206e6f6044820152671d081c185cdcd95960c21b6064820152fd5b634e487b7160e01b865260118352602486fd5b5033855261013060205282852054161561025f576020606492519162461bcd60e51b8352820152601e60248201527f53696d706c654661756365743a20616c72656164792072656465656d656400006044820152fd5b50503461013f578160031936011261013f5760209061012e549051908152f35b50503461013f578160031936011261013f5760209065ffffffffffff61012f54169051908152f35b50503461013f578160031936011261013f5761012f54905160309190911c6001600160a01b03168152602090f35b50503461013f578160031936011261013f5751908152602090f35b50503461013f57602036600319011261013f5760209165ffffffffffff9082906001600160a01b0361053a6113c3565b16815261013085522054169051908152f35b9050346101d557816003193601126101d5578160209360ff9261056d6113a8565b90358252609786528282206001600160a01b039091168252855220549151911615158152f35b50503461013f578160031936011261013f5760335490516001600160a01b039091168152602090f35b9050346101d55760a03660031901126101d5576105d76113c3565b6001600160a01b0391602435838116929190839003610886576064359365ffffffffffff85168095036103a857608435948186168087036108825788549160ff97888460081c161597888099610876575b8015610860575b156108065760ff198581166001178d5594896107f5575b5061065f8a8d5460081c1661065a81611a80565b611a80565b6106683361172f565b6106778a8d5460081c16611a80565b61012d80546001600160a01b031916909117905560443561012e5561012f80546001600160d01b03191690921760309190911b6601000000000000600160d01b03161790557f281081d9b36b37208f0d8dfce5adc7e00d31ece09269aaa8d0bfa43e6840a338808a5260976020908152898b20838c528152898b2054909891939116156107ac575b50505061070a6116d7565b82161561075a575061071b9061172f565b610723578280f35b7f7f26b83ff96e1f2b6a682f133852f6798a09c465da95921460cefb38474024989161ff001984541684555160018152a138808280f35b845162461bcd60e51b8152908101849052602660248201527f4f776e61626c653a206e6577206f776e657220697320746865207a65726f206160448201526564647265737360d01b6064820152608490fd5b828a5260978852888a20828b5288526001898b209182541617905533917f2f8788117e7eff1d82e926ec794901d17c78024a50270940304540a733656f0d8a80a43880806106ff565b61ffff1916610101178c5538610646565b8a5162461bcd60e51b8152602081890152602e60248201527f496e697469616c697a61626c653a20636f6e747261637420697320616c72656160448201526d191e481a5b9a5d1a585b1a5e995960921b6064820152608490fd5b50303b15801561062f575060018a86161461062f565b5060018a861610610628565b8880fd5b8580fd5b83346108e757806003193601126108e7576108a36116d7565b603380546001600160a01b0319811690915581906001600160a01b03167f8be0079c531659141344cd1fd0a4f28419497f9722a3daafe3b4186f6b6457e08280a380f35b80fd5b905082346108e757806003193601126108e757507f00000000000000000000000000000000000000000000000000000000000000006001600160a01b031630036109455760208251600080516020611af98339815191528152f35b6020608492519162461bcd60e51b8352820152603860248201527f555550535570677261646561626c653a206d757374206e6f742062652063616c60448201527f6c6564207468726f7567682064656c656761746563616c6c00000000000000006064820152fd5b50503461013f578160031936011261013f57602090517f281081d9b36b37208f0d8dfce5adc7e00d31ece09269aaa8d0bfa43e6840a3388152f35b918091506003193601126101d5576109fe6113c3565b906024359067ffffffffffffffff8211610ce65736602383011215610ce65781840135610a2a81611449565b610a3683519182611427565b818152866020948583019336602482840101116101d5578060248893018637830101526001600160a01b037f0000000000000000000000000000000000000000000000000000000000000000811690610a9130831415611778565b610aae600080516020611af98339815191529282845416146117d9565b610ab66116d7565b7f4910fdfa16fed3260ed0e7147f7cc6da11a60208b5b9406d12a635614ffd91435460ff1615610af057505050505050610180915061183a565b869293949596169085516352d1902d60e01b815287818a81865afa8a9181610cb3575b50610b7257865162461bcd60e51b8152808a01899052602e60248201527f45524331393637557067726164653a206e657720696d706c656d656e7461746960448201526d6f6e206973206e6f74205555505360901b6064820152608490fd5b979192939695949703610c5e5750610b898261183a565b7fbc7cd75a20ee27fd9adebab32041f755214dbc6bffa90cc0225b39da2e5c2d3b8780a285845115801590610c56575b610bc7575b50505050505080f35b80610c4096845196610bd8886113d9565b602788527f416464726573733a206c6f772d6c6576656c2064656c65676174652063616c6c87890152660819985a5b195960ca1b868901525190845af4913d15610c4c573d610c32610c2982611449565b92519283611427565b81528681943d92013e6118ca565b50388080808085610bbe565b50606092506118ca565b506001610bb9565b835162461bcd60e51b8152908101859052602960248201527f45524331393637557067726164653a20756e737570706f727465642070726f786044820152681a58589b195555525160ba1b6064820152608490fd5b9091508881813d8311610cdf575b610ccb8183611427565b81010312610cdb57519038610b13565b8a80fd5b503d610cc1565b8480fd5b919050346101d557826003193601126101d5577f281081d9b36b37208f0d8dfce5adc7e00d31ece09269aaa8d0bfa43e6840a3389182845260209260978452828520338652845260ff838620541615610e34575061012d5461012f5483516370a0823160e01b8152308185015286949390926001600160a01b039081169260301c16908684602481865afa938415610e2a579087949392918794610df5575b50855163a9059cbb60e01b81526001600160a01b03909216908201908152602081019390935294859283919082906040015b03925af1908115610dec5750610dcf578280f35b81610de592903d10610321576103128183611427565b5038808280f35b513d85823e3d90fd5b8581969295503d8311610e23575b610e0d8183611427565b8101031261088657925186939092610dbb610d89565b503d610e03565b85513d88823e3d90fd5b848491610e4033611982565b855191610e4c8361140b565b60428352848301936060368637835115610fe25760308553835190600191821015610fcf5790607860218601536041915b818311610f6457505050610f2257610f1e938693610f0a93610efb604894610ed29a519a8576020b1b1b2b9b9a1b7b73a3937b61d1030b1b1b7bab73a1604d1b8d978801528251928391603789019101611612565b8401917001034b99036b4b9b9b4b733903937b6329607d1b603784015251809386840190611612565b01036028810187520185611427565b5162461bcd60e51b81529283928301611635565b0390fd5b50505080606493519262461bcd60e51b845283015260248201527f537472696e67733a20686578206c656e67746820696e73756666696369656e746044820152fd5b909192600f81166010811015610fbc576f181899199a1a9b1b9c1cb0b131b232b360811b901a610f94858861195b565b53881c928015610fa957600019019190610e7d565b634e487b7160e01b825260118952602482fd5b634e487b7160e01b835260328a52602483fd5b634e487b7160e01b815260328852602490fd5b634e487b7160e01b815260328752602490fd5b919050346101d5576020806003193601126111e7576110126113c3565b916001600160a01b037f0000000000000000000000000000000000000000000000000000000000000000811661104a30821415611778565b611067600080516020611af98339815191529183835416146117d9565b61106f6116d7565b8251908482019282841067ffffffffffffffff8511176111d4578385528883527f4910fdfa16fed3260ed0e7147f7cc6da11a60208b5b9406d12a635614ffd91435460ff16156110c957505050505050610180915061183a565b869293949596169085516352d1902d60e01b815287818a81865afa8a91816111a5575b5061114b57865162461bcd60e51b8152808a01899052602e60248201527f45524331393637557067726164653a206e657720696d706c656d656e7461746960448201526d6f6e206973206e6f74205555505360901b6064820152608490fd5b979192939695949703610c5e57506111628261183a565b7fbc7cd75a20ee27fd9adebab32041f755214dbc6bffa90cc0225b39da2e5c2d3b8780a28584511580159061119e57610bc75750505050505080f35b5080610bb9565b9091508881813d83116111cd575b6111bd8183611427565b81010312610cdb575190386110ec565b503d6111b3565b634e487b7160e01b895260418852602489fd5b8380fd5b8391503461013f578260031936011261013f576112066113a8565b90336001600160a01b0383160361122257906101809135611661565b608490602085519162461bcd60e51b8352820152602f60248201527f416363657373436f6e74726f6c3a2063616e206f6e6c792072656e6f756e636560448201526e103937b632b9903337b91039b2b63360891b6064820152fd5b9050346101d557816003193601126101d55735906112996113a8565b9082845260976020526112b160018286200154611465565b828452609760209081528185206001600160a01b039093168086529290528084205460ff16156112df578380f35b82845260976020528084208285526020528320600160ff1982541617905533917f2f8788117e7eff1d82e926ec794901d17c78024a50270940304540a733656f0d8480a43880808380f35b9050346101d55760203660031901126101d55781602093600192358152609785522001549051908152f35b8491346101d55760203660031901126101d5573563ffffffff60e01b81168091036101d55760209250637965db0b60e01b8114908115611397575b5015158152f35b6301ffc9a760e01b14905083611390565b602435906001600160a01b03821682036113be57565b600080fd5b600435906001600160a01b03821682036113be57565b6060810190811067ffffffffffffffff8211176113f557604052565b634e487b7160e01b600052604160045260246000fd5b6080810190811067ffffffffffffffff8211176113f557604052565b90601f8019910116810190811067ffffffffffffffff8211176113f557604052565b67ffffffffffffffff81116113f557601f01601f191660200190565b600081815260209060978252604092838220338352835260ff84832054161561148e5750505050565b61149733611982565b8451916114a38361140b565b604283528483019360603686378351156115fe57603085538351906001918210156115fe5790607860218601536041915b8183116115905750505061154e57610ed293859361153893611529604894610f1e9951988576020b1b1b2b9b9a1b7b73a3937b61d1030b1b1b7bab73a1604d1b8b978801528251928391603789019101611612565b01036028810185520183611427565b5162461bcd60e51b815291829160048301611635565b60648486519062461bcd60e51b825280600483015260248201527f537472696e67733a20686578206c656e67746820696e73756666696369656e746044820152fd5b909192600f811660108110156115ea576f181899199a1a9b1b9c1cb0b131b232b360811b901a6115c0858861195b565b5360041c9280156115d6576000190191906114d4565b634e487b7160e01b82526011600452602482fd5b634e487b7160e01b83526032600452602483fd5b634e487b7160e01b81526032600452602490fd5b60005b8381106116255750506000910152565b8181015183820152602001611615565b604091602082526116558151809281602086015260208686019101611612565b601f01601f1916010190565b906000918083526097602052604083209160018060a01b03169182845260205260ff60408420541661169257505050565b8083526097602052604083208284526020526040832060ff1981541690557ff6391f5c32d9c69d2a47ea670b442974b53935d1edc7fd64eb21e047a839171b339380a4565b6033546001600160a01b031633036116eb57565b606460405162461bcd60e51b815260206004820152602060248201527f4f776e61626c653a2063616c6c6572206973206e6f7420746865206f776e65726044820152fd5b603380546001600160a01b039283166001600160a01b0319821681179092559091167f8be0079c531659141344cd1fd0a4f28419497f9722a3daafe3b4186f6b6457e0600080a3565b1561177f57565b60405162461bcd60e51b815260206004820152602c60248201527f46756e6374696f6e206d7573742062652063616c6c6564207468726f7567682060448201526b19195b1959d85d1958d85b1b60a21b6064820152608490fd5b156117e057565b60405162461bcd60e51b815260206004820152602c60248201527f46756e6374696f6e206d7573742062652063616c6c6564207468726f7567682060448201526b6163746976652070726f787960a01b6064820152608490fd5b803b1561186f57600080516020611af983398151915280546001600160a01b0319166001600160a01b03909216919091179055565b60405162461bcd60e51b815260206004820152602d60248201527f455243313936373a206e657720696d706c656d656e746174696f6e206973206e60448201526c1bdd08184818dbdb9d1c9858dd609a1b6064820152608490fd5b9192901561192c57508151156118de575090565b3b156118e75790565b60405162461bcd60e51b815260206004820152601d60248201527f416464726573733a2063616c6c20746f206e6f6e2d636f6e74726163740000006044820152606490fd5b82519091501561193f5750805190602001fd5b60405162461bcd60e51b8152908190610f1e9060048301611635565b90815181101561196c570160200190565b634e487b7160e01b600052603260045260246000fd5b6040519061198f826113d9565b602a825260208201604036823782511561196c5760309053815160019081101561196c57607860218401536029905b808211611a125750506119ce5790565b606460405162461bcd60e51b815260206004820152602060248201527f537472696e67733a20686578206c656e67746820696e73756666696369656e746044820152fd5b9091600f81166010811015611a6b576f181899199a1a9b1b9c1cb0b131b232b360811b901a611a41848661195b565b5360041c918015611a565760001901906119be565b60246000634e487b7160e01b81526011600452fd5b60246000634e487b7160e01b81526032600452fd5b15611a8757565b60405162461bcd60e51b815260206004820152602b60248201527f496e697469616c697a61626c653a20636f6e7472616374206973206e6f74206960448201526a6e697469616c697a696e6760a81b6064820152608490fd5b908160209103126113be575180151581036113be579056fe360894a13ba1a3210667c828492db98dca3e2076cc3735a920a3ca505d382bbca2646970667358221220229217e7a66a766715f1d09939f97ca55f7b89514363b0da51922286ca2c9bf564736f6c63430008140033",
  "linkReferences": {},
  "deployedLinkReferences": {}
}