{
  "_format": "hh-sol-artifact-1",
  "contractName": "SimpleFaucet",
  "sourceName": "contracts/apps/SimpleFaucet.sol",
  "abi": [
    {
      "anonymous": false,
      "inputs": [
        {
          "indexed": false,
          "internalType": "address",
          "name": "previousAdmin",
          "type": "address"
        },
        {
          "indexed": false,
          "internalType": "address",
          "name": "newAdmin",
          "type": "address"
        }
      ],
      "name": "AdminChanged",
      "type": "event"
    },
    {
      "anonymous": false,
      "inputs": [
        {
          "indexed": true,
          "internalType": "address",
          "name": "beacon",
          "type": "address"
        }
      ],
      "name": "BeaconUpgraded",
      "type": "event"
    },
    {
      "anonymous": false,
      "inputs": [
        {
          "indexed": false,
          "internalType": "uint8",
          "name": "version",
          "type": "uint8"
        }
      ],
      "name": "Initialized",
      "type": "event"
    },
    {
      "anonymous": false,
      "inputs": [
        {
          "indexed": true,
          "internalType": "address",
          "name": "previousOwner",
          "type": "address"
        },
        {
          "indexed": true,
          "internalType": "address",
          "name": "newOwner",
          "type": "address"
        }
      ],
      "name": "OwnershipTransferred",
      "type": "event"
    },
    {
      "anonymous": false,
      "inputs": [
        {
          "indexed": true,
          "internalType": "bytes32",
          "name": "role",
          "type": "bytes32"
        },
        {
          "indexed": true,
          "internalType": "bytes32",
          "name": "previousAdminRole",
          "type": "bytes32"
        },
        {
          "indexed": true,
          "internalType": "bytes32",
          "name": "newAdminRole",
          "type": "bytes32"
        }
      ],
      "name": "RoleAdminChanged",
      "type": "event"
    },
    {
      "anonymous": false,
      "inputs": [
        {
          "indexed": true,
          "internalType": "bytes32",
          "name": "role",
          "type": "bytes32"
        },
        {
          "indexed": true,
          "internalType": "address",
          "name": "account",
          "type": "address"
        },
        {
          "indexed": true,
          "internalType": "address",
          "name": "sender",
          "type": "address"
        }
      ],
      "name": "RoleGranted",
      "type": "event"
    },
    {
      "anonymous": false,
      "inputs": [
        {
          "indexed": true,
          "internalType": "bytes32",
          "name": "role",
          "type": "bytes32"
        },
        {
          "indexed": true,
          "internalType": "address",
          "name": "account",
          "type": "address"
        },
        {
          "indexed": true,
          "internalType": "address",
          "name": "sender",
          "type": "address"
        }
      ],
      "name": "RoleRevoked",
      "type": "event"
    },
    {
      "anonymous": false,
      "inputs": [
        {
          "indexed": true,
          "internalType": "address",
          "name": "implementation",
          "type": "address"
        }
      ],
      "name": "Upgraded",
      "type": "event"
    },
    {
      "inputs": [],
      "name": "DEFAULT_ADMIN_ROLE",
      "outputs": [
        {
          "internalType": "bytes32",
          "name": "",
          "type": "bytes32"
        }
      ],
      "stateMutability": "view",
      "type": "function"
    },
    {
      "inputs": [],
      "name": "REDEEM_ADMIN_ROLE",
      "outputs": [
        {
          "internalType": "bytes32",
          "name": "",
          "type": "bytes32"
        }
      ],
      "stateMutability": "view",
      "type": "function"
    },
    {
      "inputs": [],
      "name": "amount",
      "outputs": [
        {
          "internalType": "uint256",
          "name": "",
          "type": "uint256"
        }
      ],
      "stateMutability": "view",
      "type": "function"
    },
    {
      "inputs": [
        {
          "internalType": "bytes32",
          "name": "role",
          "type": "bytes32"
        }
      ],
      "name": "getRoleAdmin",
      "outputs": [
        {
          "internalType": "bytes32",
          "name": "",
          "type": "bytes32"
        }
      ],
      "stateMutability": "view",
      "type": "function"
    },
    {
      "inputs": [
        {
          "internalType": "bytes32",
          "name": "role",
          "type": "bytes32"
        },
        {
          "internalType": "address",
          "name": "account",
          "type": "address"
        }
      ],
      "name": "grantRole",
      "outputs": [],
      "stateMutability": "nonpayable",
      "type": "function"
    },
    {
      "inputs": [
        {
          "internalType": "bytes32",
          "name": "role",
          "type": "bytes32"
        },
        {
          "internalType": "address",
          "name": "account",
          "type": "address"
        }
      ],
      "name": "hasRole",
      "outputs": [
        {
          "internalType": "bool",
          "name": "",
          "type": "bool"
        }
      ],
      "stateMutability": "view",
      "type": "function"
    },
    {
      "inputs": [
        {
          "internalType": "address",
          "name": "owner",
          "type": "address"
        },
        {
          "internalType": "contract IERC20Upgradeable",
          "name": "_token",
          "type": "address"
        },
        {
          "internalType": "uint256",
          "name": "_amount",
          "type": "uint256"
        },
        {
          "internalType": "uint48",
          "name": "_redeemInterval",
          "type": "uint48"
        },
        {
          "internalType": "address",
          "name": "_redeemAdmin",
          "type": "address"
        }
      ],
      "name": "initialize",
      "outputs": [],
      "stateMutability": "nonpayable",
      "type": "function"
    },
    {
      "inputs": [],
      "name": "owner",
      "outputs": [
        {
          "internalType": "address",
          "name": "",
          "type": "address"
        }
      ],
      "stateMutability": "view",
      "type": "function"
    },
    {
      "inputs": [],
      "name": "proxiableUUID",
      "outputs": [
        {
          "internalType": "bytes32",
          "name": "",
          "type": "bytes32"
        }
      ],
      "stateMutability": "view",
      "type": "function"
    },
    {
      "inputs": [],
      "name": "redeem",
      "outputs": [],
      "stateMutability": "nonpayable",
      "type": "function"
    },
    {
      "inputs": [],
      "name": "redeemAdmin",
      "outputs": [
        {
          "internalType": "address",
          "name": "",
          "type": "address"
        }
      ],
      "stateMutability": "view",
      "type": "function"
    },
    {
      "inputs": [],
      "name": "redeemInterval",
      "outputs": [
        {
          "internalType": "uint48",
          "name": "",
          "type": "uint48"
        }
      ],
      "stateMutability": "view",
      "type": "function"
    },
    {
      "inputs": [
        {
          "internalType": "address",
          "name": "to",
          "type": "address"
        }
      ],
      "name": "redeemTo",
      "outputs": [],
      "stateMutability": "nonpayable",
      "type": "function"
    },
    {
      "inputs": [
        {
          "internalType": "address",
          "name": "receiver",
          "type": "address"
        }
      ],
      "name": "redeemed",
      "outputs": [
        {
          "internalType": "uint48",
          "name": "time",
          "type": "uint48"
        }
      ],
      "stateMutability": "view",
      "type": "function"
    },
    {
      "inputs": [],
      "name": "renounceOwnership",
      "outputs": [],
      "stateMutability": "nonpayable",
      "type": "function"
    },
    {
      "inputs": [
        {
          "internalType": "bytes32",
          "name": "role",
          "type": "bytes32"
        },
        {
          "internalType": "address",
          "name": "account",
          "type": "address"
        }
      ],
      "name": "renounceRole",
      "outputs": [],
      "stateMutability": "nonpayable",
      "type": "function"
    },
    {
      "inputs": [
        {
          "internalType": "bytes32",
          "name": "role",
          "type": "bytes32"
        },
        {
          "internalType": "address",
          "name": "account",
          "type": "address"
        }
      ],
      "name": "revokeRole",
      "outputs": [],
      "stateMutability": "nonpayable",
      "type": "function"
    },
    {
      "inputs": [
        {
          "internalType": "bytes4",
          "name": "interfaceId",
          "type": "bytes4"
        }
      ],
      "name": "supportsInterface",
      "outputs": [
        {
          "internalType": "bool",
          "name": "",
          "type": "bool"
        }
      ],
      "stateMutability": "view",
      "type": "function"
    },
    {
      "inputs": [],
      "name": "token",
      "outputs": [
        {
          "internalType": "contract IERC20Upgradeable",
          "name": "",
          "type": "address"
        }
      ],
      "stateMutability": "view",
      "type": "function"
    },
    {
      "inputs": [
        {
          "internalType": "address",
          "name": "newOwner",
          "type": "address"
        }
      ],
      "name": "transferOwnership",
      "outputs": [],
      "stateMutability": "nonpayable",
      "type": "function"
    },
    {
      "inputs": [
        {
          "internalType": "address",
          "name": "newImplementation",
          "type": "address"
        }
      ],
      "name": "upgradeTo",
      "outputs": [],
      "stateMutability": "nonpayable",
      "type": "function"
    },
    {
      "inputs": [
        {
          "internalType": "address",
          "name": "newImplementation",
          "type": "address"
        },
        {
          "internalType": "bytes",
          "name": "data",
          "type": "bytes"
        }
      ],
      "name": "upgradeToAndCall",
      "outputs": [],
      "stateMutability": "payable",
      "type": "function"
    },
    {
      "inputs": [],
      "name": "withdraw",
      "outputs": [],
      "stateMutability": "nonpayable",
      "type": "function"
    }
  ],
  "bytecode": "0x60a06040523060805234801561001457600080fd5b50608051611d0261004c6000396000818161055701528181610597015281816107510152818161079101526108200152611d026000f3fe6080604052600436106101405760003560e01c80638da5cb5b116100b6578063aa8c217c1161006f578063aa8c217c146103bc578063be040fb0146103d3578063d547741f146103e8578063f2fde38b14610408578063f984c55c14610428578063fc0c546a1461044857600080fd5b80638da5cb5b146102c057806391d14854146102f25780639f4568ef14610312578063a217fddf1461035f578063a2d2c71c14610374578063a5ff3f801461039c57600080fd5b80633ccfd60b116101085780633ccfd60b1461021a5780634f1ef2861461022f5780635018c2091461024257806352d1902d14610276578063715018a61461028b57806377202ba1146102a057600080fd5b806301ffc9a714610145578063248a9ca31461017a5780632f2ff15d146101b857806336568abe146101da5780633659cfe6146101fa575b600080fd5b34801561015157600080fd5b50610165610160366004611770565b610469565b60405190151581526020015b60405180910390f35b34801561018657600080fd5b506101aa61019536600461179a565b60009081526097602052604090206001015490565b604051908152602001610171565b3480156101c457600080fd5b506101d86101d33660046117c8565b6104a0565b005b3480156101e657600080fd5b506101d86101f53660046117c8565b6104ca565b34801561020657600080fd5b506101d86102153660046117f8565b61054d565b34801561022657600080fd5b506101d861062c565b6101d861023d36600461182b565b610747565b34801561024e57600080fd5b506101aa7f281081d9b36b37208f0d8dfce5adc7e00d31ece09269aaa8d0bfa43e6840a33881565b34801561028257600080fd5b506101aa610813565b34801561029757600080fd5b506101d86108c6565b3480156102ac57600080fd5b506101d86102bb3660046118ef565b6108da565b3480156102cc57600080fd5b506033546001600160a01b03165b6040516001600160a01b039091168152602001610171565b3480156102fe57600080fd5b5061016561030d3660046117c8565b610a7e565b34801561031e57600080fd5b5061034861032d3660046117f8565b6101306020526000908152604090205465ffffffffffff1681565b60405165ffffffffffff9091168152602001610171565b34801561036b57600080fd5b506101aa600081565b34801561038057600080fd5b5061012f546102da90600160301b90046001600160a01b031681565b3480156103a857600080fd5b5061012f546103489065ffffffffffff1681565b3480156103c857600080fd5b506101aa61012e5481565b3480156103df57600080fd5b506101d8610aa9565b3480156103f457600080fd5b506101d86104033660046117c8565b610cbf565b34801561041457600080fd5b506101d86104233660046117f8565b610ce4565b34801561043457600080fd5b506101d86104433660046117f8565b610d5a565b34801561045457600080fd5b5061012d546102da906001600160a01b031681565b60006001600160e01b03198216637965db0b60e01b148061049a57506301ffc9a760e01b6001600160e01b03198316145b92915050565b6000828152609760205260409020600101546104bb81610f72565b6104c58383610f7c565b505050565b6001600160a01b038116331461053f5760405162461bcd60e51b815260206004820152602f60248201527f416363657373436f6e74726f6c3a2063616e206f6e6c792072656e6f756e636560448201526e103937b632b9903337b91039b2b63360891b60648201526084015b60405180910390fd5b6105498282611002565b5050565b6001600160a01b037f00000000000000000000000000000000000000000000000000000000000000001630036105955760405162461bcd60e51b815260040161053690611962565b7f00000000000000000000000000000000000000000000000000000000000000006001600160a01b03166105de600080516020611c86833981519152546001600160a01b031690565b6001600160a01b0316146106045760405162461bcd60e51b8152600401610536906119ae565b61060d81611069565b6040805160008082526020820190925261062991839190611071565b50565b7f281081d9b36b37208f0d8dfce5adc7e00d31ece09269aaa8d0bfa43e6840a33861065681610f72565b61012d5461012f546040516370a0823160e01b81523060048201526001600160a01b039283169263a9059cbb92600160301b9004169083906370a0823190602401602060405180830381865afa1580156106b4573d6000803e3d6000fd5b505050506040513d601f19601f820116820180604052508101906106d891906119fa565b6040516001600160e01b031960e085901b1681526001600160a01b03909216600483015260248201526044016020604051808303816000875af1158015610723573d6000803e3d6000fd5b505050506040513d601f19601f820116820180604052508101906105499190611a13565b6001600160a01b037f000000000000000000000000000000000000000000000000000000000000000016300361078f5760405162461bcd60e51b815260040161053690611962565b7f00000000000000000000000000000000000000000000000000000000000000006001600160a01b03166107d8600080516020611c86833981519152546001600160a01b031690565b6001600160a01b0316146107fe5760405162461bcd60e51b8152600401610536906119ae565b61080782611069565b61054982826001611071565b6000306001600160a01b037f000000000000000000000000000000000000000000000000000000000000000016146108b35760405162461bcd60e51b815260206004820152603860248201527f555550535570677261646561626c653a206d757374206e6f742062652063616c60448201527f6c6564207468726f7567682064656c656761746563616c6c00000000000000006064820152608401610536565b50600080516020611c8683398151915290565b6108ce6111dc565b6108d86000611236565b565b600054610100900460ff16158080156108fa5750600054600160ff909116105b806109145750303b158015610914575060005460ff166001145b6109775760405162461bcd60e51b815260206004820152602e60248201527f496e697469616c697a61626c653a20636f6e747261637420697320616c72656160448201526d191e481a5b9a5d1a585b1a5e995960921b6064820152608401610536565b6000805460ff19166001179055801561099a576000805461ff0019166101001790555b6109a2611288565b6109aa6112b7565b61012d80546001600160a01b038088166001600160a01b03199092169190911790915561012e85905561012f8054918416600160301b026001600160d01b031990921665ffffffffffff861617919091179055610a277f281081d9b36b37208f0d8dfce5adc7e00d31ece09269aaa8d0bfa43e6840a338836112de565b610a3086610ce4565b8015610a76576000805461ff0019169055604051600181527f7f26b83ff96e1f2b6a682f133852f6798a09c465da95921460cefb38474024989060200160405180910390a15b505050505050565b60009182526097602090815260408084206001600160a01b0393909316845291905290205460ff1690565b61012f54429065ffffffffffff1615610b205761012f5433600090815261013060205260408120549091610ae89165ffffffffffff9182169116611a4b565b90508065ffffffffffff168265ffffffffffff161015610b1a5760405162461bcd60e51b815260040161053690611a71565b50610b86565b336000908152610130602052604090205465ffffffffffff1615610b865760405162461bcd60e51b815260206004820152601e60248201527f53696d706c654661756365743a20616c72656164792072656465656d656400006044820152606401610536565b61012e5461012d546040516370a0823160e01b81523060048201526001600160a01b03909116906370a0823190602401602060405180830381865afa158015610bd3573d6000803e3d6000fd5b505050506040513d601f19601f82011682018060405250810190610bf791906119fa565b1015610c155760405162461bcd60e51b815260040161053690611ab9565b61012d5461012e5460405163a9059cbb60e01b815233600482015260248101919091526001600160a01b039091169063a9059cbb906044016020604051808303816000875af1158015610c6c573d6000803e3d6000fd5b505050506040513d601f19601f82011682018060405250810190610c909190611a13565b5033600090815261013060205260409020805465ffffffffffff191665ffffffffffff92909216919091179055565b600082815260976020526040902060010154610cda81610f72565b6104c58383611002565b610cec6111dc565b6001600160a01b038116610d515760405162461bcd60e51b815260206004820152602660248201527f4f776e61626c653a206e6577206f776e657220697320746865207a65726f206160448201526564647265737360d01b6064820152608401610536565b61062981611236565b61012f54429065ffffffffffff1615610dd15761012f5433600090815261013060205260408120549091610d999165ffffffffffff9182169116611a4b565b90508065ffffffffffff168265ffffffffffff161015610dcb5760405162461bcd60e51b815260040161053690611a71565b50610e37565b336000908152610130602052604090205465ffffffffffff1615610e375760405162461bcd60e51b815260206004820152601e60248201527f53696d706c654661756365743a20616c72656164792072656465656d656400006044820152606401610536565b61012e5461012d546040516370a0823160e01b81523060048201526001600160a01b03909116906370a0823190602401602060405180830381865afa158015610e84573d6000803e3d6000fd5b505050506040513d601f19601f82011682018060405250810190610ea891906119fa565b1015610ec65760405162461bcd60e51b815260040161053690611ab9565b61012d5461012e5460405163a9059cbb60e01b81526001600160a01b038581166004830152602482019290925291169063a9059cbb906044016020604051808303816000875af1158015610f1e573d6000803e3d6000fd5b505050506040513d601f19601f82011682018060405250810190610f429190611a13565b5033600090815261013060205260409020805465ffffffffffff191665ffffffffffff9290921691909117905550565b61062981336112e8565b610f868282610a7e565b6105495760008281526097602090815260408083206001600160a01b03851684529091529020805460ff19166001179055610fbe3390565b6001600160a01b0316816001600160a01b0316837f2f8788117e7eff1d82e926ec794901d17c78024a50270940304540a733656f0d60405160405180910390a45050565b61100c8282610a7e565b156105495760008281526097602090815260408083206001600160a01b0385168085529252808320805460ff1916905551339285917ff6391f5c32d9c69d2a47ea670b442974b53935d1edc7fd64eb21e047a839171b9190a45050565b6106296111dc565b7f4910fdfa16fed3260ed0e7147f7cc6da11a60208b5b9406d12a635614ffd91435460ff16156110a4576104c583611341565b826001600160a01b03166352d1902d6040518163ffffffff1660e01b8152600401602060405180830381865afa9250505080156110fe575060408051601f3d908101601f191682019092526110fb918101906119fa565b60015b6111615760405162461bcd60e51b815260206004820152602e60248201527f45524331393637557067726164653a206e657720696d706c656d656e7461746960448201526d6f6e206973206e6f74205555505360901b6064820152608401610536565b600080516020611c8683398151915281146111d05760405162461bcd60e51b815260206004820152602960248201527f45524331393637557067726164653a20756e737570706f727465642070726f786044820152681a58589b195555525160ba1b6064820152608401610536565b506104c58383836113dd565b6033546001600160a01b031633146108d85760405162461bcd60e51b815260206004820181905260248201527f4f776e61626c653a2063616c6c6572206973206e6f7420746865206f776e65726044820152606401610536565b603380546001600160a01b038381166001600160a01b0319831681179093556040519116919082907f8be0079c531659141344cd1fd0a4f28419497f9722a3daafe3b4186f6b6457e090600090a35050565b600054610100900460ff166112af5760405162461bcd60e51b815260040161053690611afb565b6108d8611408565b600054610100900460ff166108d85760405162461bcd60e51b815260040161053690611afb565b6105498282610f7c565b6112f28282610a7e565b610549576112ff81611438565b61130a83602061144a565b60405160200161131b929190611b6a565b60408051601f198184030181529082905262461bcd60e51b825261053691600401611bdf565b6001600160a01b0381163b6113ae5760405162461bcd60e51b815260206004820152602d60248201527f455243313936373a206e657720696d706c656d656e746174696f6e206973206e60448201526c1bdd08184818dbdb9d1c9858dd609a1b6064820152608401610536565b600080516020611c8683398151915280546001600160a01b0319166001600160a01b0392909216919091179055565b6113e6836115ed565b6000825111806113f35750805b156104c557611402838361162d565b50505050565b600054610100900460ff1661142f5760405162461bcd60e51b815260040161053690611afb565b6108d833611236565b606061049a6001600160a01b03831660145b60606000611459836002611c12565b611464906002611c29565b67ffffffffffffffff81111561147c5761147c611815565b6040519080825280601f01601f1916602001820160405280156114a6576020820181803683370190505b509050600360fc1b816000815181106114c1576114c1611c3c565b60200101906001600160f81b031916908160001a905350600f60fb1b816001815181106114f0576114f0611c3c565b60200101906001600160f81b031916908160001a9053506000611514846002611c12565b61151f906001611c29565b90505b6001811115611597576f181899199a1a9b1b9c1cb0b131b232b360811b85600f166010811061155357611553611c3c565b1a60f81b82828151811061156957611569611c3c565b60200101906001600160f81b031916908160001a90535060049490941c9361159081611c52565b9050611522565b5083156115e65760405162461bcd60e51b815260206004820181905260248201527f537472696e67733a20686578206c656e67746820696e73756666696369656e746044820152606401610536565b9392505050565b6115f681611341565b6040516001600160a01b038216907fbc7cd75a20ee27fd9adebab32041f755214dbc6bffa90cc0225b39da2e5c2d3b90600090a250565b60606115e68383604051806060016040528060278152602001611ca6602791396060600080856001600160a01b03168560405161166a9190611c69565b600060405180830381855af49150503d80600081146116a5576040519150601f19603f3d011682016040523d82523d6000602084013e6116aa565b606091505b50915091506116bb868383876116c5565b9695505050505050565b6060831561173457825160000361172d576001600160a01b0385163b61172d5760405162461bcd60e51b815260206004820152601d60248201527f416464726573733a2063616c6c20746f206e6f6e2d636f6e74726163740000006044820152606401610536565b508161173e565b61173e8383611746565b949350505050565b8151156117565781518083602001fd5b8060405162461bcd60e51b81526004016105369190611bdf565b60006020828403121561178257600080fd5b81356001600160e01b0319811681146115e657600080fd5b6000602082840312156117ac57600080fd5b5035919050565b6001600160a01b038116811461062957600080fd5b600080604083850312156117db57600080fd5b8235915060208301356117ed816117b3565b809150509250929050565b60006020828403121561180a57600080fd5b81356115e6816117b3565b634e487b7160e01b600052604160045260246000fd5b6000806040838503121561183e57600080fd5b8235611849816117b3565b9150602083013567ffffffffffffffff8082111561186657600080fd5b818501915085601f83011261187a57600080fd5b81358181111561188c5761188c611815565b604051601f8201601f19908116603f011681019083821181831017156118b4576118b4611815565b816040528281528860208487010111156118cd57600080fd5b8260208601602083013760006020848301015280955050505050509250929050565b600080600080600060a0868803121561190757600080fd5b8535611912816117b3565b94506020860135611922816117b3565b935060408601359250606086013565ffffffffffff8116811461194457600080fd5b91506080860135611954816117b3565b809150509295509295909350565b6020808252602c908201527f46756e6374696f6e206d7573742062652063616c6c6564207468726f7567682060408201526b19195b1959d85d1958d85b1b60a21b606082015260800190565b6020808252602c908201527f46756e6374696f6e206d7573742062652063616c6c6564207468726f7567682060408201526b6163746976652070726f787960a01b606082015260800190565b600060208284031215611a0c57600080fd5b5051919050565b600060208284031215611a2557600080fd5b815180151581146115e657600080fd5b634e487b7160e01b600052601160045260246000fd5b65ffffffffffff818116838216019080821115611a6a57611a6a611a35565b5092915050565b60208082526028908201527f53696d706c654661756365743a2072656465656d20696e74657276616c206e6f6040820152671d081c185cdcd95960c21b606082015260800190565b60208082526022908201527f53696d706c654661756365743a20696e73756666696369656e742062616c616e604082015261636560f01b606082015260800190565b6020808252602b908201527f496e697469616c697a61626c653a20636f6e7472616374206973206e6f74206960408201526a6e697469616c697a696e6760a81b606082015260800190565b60005b83811015611b61578181015183820152602001611b49565b50506000910152565b7f416363657373436f6e74726f6c3a206163636f756e7420000000000000000000815260008351611ba2816017850160208801611b46565b7001034b99036b4b9b9b4b733903937b6329607d1b6017918401918201528351611bd3816028840160208801611b46565b01602801949350505050565b6020815260008251806020840152611bfe816040850160208701611b46565b601f01601f19169190910160400192915050565b808202811582820484141761049a5761049a611a35565b8082018082111561049a5761049a611a35565b634e487b7160e01b600052603260045260246000fd5b600081611c6157611c61611a35565b506000190190565b60008251611c7b818460208701611b46565b919091019291505056fe360894a13ba1a3210667c828492db98dca3e2076cc3735a920a3ca505d382bbc416464726573733a206c6f772d6c6576656c2064656c65676174652063616c6c206661696c6564a264697066735822122040a62ad67439f99b2c45a800c4a6c260bd90636e483dc54718319e7eeb24de6d64736f6c63430008140033",
  "linkReferences": {},
  "deployedLinkReferences": {}
}