{
  "_format": "hh-sol-artifact-1",
  "contractName": "GratitudeToken",
  "sourceName": "contracts/tokens/GratitudeToken.sol",
  "abi": [
    {
      "anonymous": false,
      "inputs": [
        {
          "indexed": false,
          "internalType": "address",
          "name": "previousAdmin",
          "type": "address"
        },
        {
          "indexed": false,
          "internalType": "address",
          "name": "newAdmin",
          "type": "address"
        }
      ],
      "name": "AdminChanged",
      "type": "event"
    },
    {
      "anonymous": false,
      "inputs": [
        {
          "indexed": true,
          "internalType": "address",
          "name": "owner",
          "type": "address"
        },
        {
          "indexed": true,
          "internalType": "address",
          "name": "spender",
          "type": "address"
        },
        {
          "indexed": false,
          "internalType": "uint256",
          "name": "value",
          "type": "uint256"
        }
      ],
      "name": "Approval",
      "type": "event"
    },
    {
      "anonymous": false,
      "inputs": [
        {
          "indexed": true,
          "internalType": "address",
          "name": "beacon",
          "type": "address"
        }
      ],
      "name": "BeaconUpgraded",
      "type": "event"
    },
    {
      "anonymous": false,
      "inputs": [
        {
          "indexed": false,
          "internalType": "uint8",
          "name": "version",
          "type": "uint8"
        }
      ],
      "name": "Initialized",
      "type": "event"
    },
    {
      "anonymous": false,
      "inputs": [
        {
          "indexed": true,
          "internalType": "address",
          "name": "to",
          "type": "address"
        },
        {
          "indexed": false,
          "internalType": "uint256",
          "name": "amount",
          "type": "uint256"
        }
      ],
      "name": "Minted",
      "type": "event"
    },
    {
      "anonymous": false,
      "inputs": [
        {
          "indexed": true,
          "internalType": "address",
          "name": "previousOwner",
          "type": "address"
        },
        {
          "indexed": true,
          "internalType": "address",
          "name": "newOwner",
          "type": "address"
        }
      ],
      "name": "OwnershipTransferred",
      "type": "event"
    },
    {
      "anonymous": false,
      "inputs": [
        {
          "indexed": false,
          "internalType": "address",
          "name": "account",
          "type": "address"
        }
      ],
      "name": "Paused",
      "type": "event"
    },
    {
      "anonymous": false,
      "inputs": [
        {
          "indexed": true,
          "internalType": "bytes32",
          "name": "role",
          "type": "bytes32"
        },
        {
          "indexed": true,
          "internalType": "bytes32",
          "name": "previousAdminRole",
          "type": "bytes32"
        },
        {
          "indexed": true,
          "internalType": "bytes32",
          "name": "newAdminRole",
          "type": "bytes32"
        }
      ],
      "name": "RoleAdminChanged",
      "type": "event"
    },
    {
      "anonymous": false,
      "inputs": [
        {
          "indexed": true,
          "internalType": "bytes32",
          "name": "role",
          "type": "bytes32"
        },
        {
          "indexed": true,
          "internalType": "address",
          "name": "account",
          "type": "address"
        },
        {
          "indexed": true,
          "internalType": "address",
          "name": "sender",
          "type": "address"
        }
      ],
      "name": "RoleGranted",
      "type": "event"
    },
    {
      "anonymous": false,
      "inputs": [
        {
          "indexed": true,
          "internalType": "bytes32",
          "name": "role",
          "type": "bytes32"
        },
        {
          "indexed": true,
          "internalType": "address",
          "name": "account",
          "type": "address"
        },
        {
          "indexed": true,
          "internalType": "address",
          "name": "sender",
          "type": "address"
        }
      ],
      "name": "RoleRevoked",
      "type": "event"
    },
    {
      "anonymous": false,
      "inputs": [
        {
          "indexed": true,
          "internalType": "address",
          "name": "from",
          "type": "address"
        },
        {
          "indexed": true,
          "internalType": "address",
          "name": "to",
          "type": "address"
        },
        {
          "indexed": false,
          "internalType": "uint256",
          "name": "value",
          "type": "uint256"
        }
      ],
      "name": "Transfer",
      "type": "event"
    },
    {
      "anonymous": false,
      "inputs": [
        {
          "indexed": false,
          "internalType": "address",
          "name": "account",
          "type": "address"
        }
      ],
      "name": "Unpaused",
      "type": "event"
    },
    {
      "anonymous": false,
      "inputs": [
        {
          "indexed": true,
          "internalType": "address",
          "name": "implementation",
          "type": "address"
        }
      ],
      "name": "Upgraded",
      "type": "event"
    },
    {
      "inputs": [],
      "name": "DEFAULT_ADMIN_ROLE",
      "outputs": [
        {
          "internalType": "bytes32",
          "name": "",
          "type": "bytes32"
        }
      ],
      "stateMutability": "view",
      "type": "function"
    },
    {
      "inputs": [],
      "name": "MINTER_ROLE",
      "outputs": [
        {
          "internalType": "bytes32",
          "name": "",
          "type": "bytes32"
        }
      ],
      "stateMutability": "view",
      "type": "function"
    },
    {
      "inputs": [],
      "name": "PAUSER_ROLE",
      "outputs": [
        {
          "internalType": "bytes32",
          "name": "",
          "type": "bytes32"
        }
      ],
      "stateMutability": "view",
      "type": "function"
    },
    {
      "inputs": [
        {
          "internalType": "address",
          "name": "owner",
          "type": "address"
        },
        {
          "internalType": "address",
          "name": "spender",
          "type": "address"
        }
      ],
      "name": "allowance",
      "outputs": [
        {
          "internalType": "uint256",
          "name": "",
          "type": "uint256"
        }
      ],
      "stateMutability": "view",
      "type": "function"
    },
    {
      "inputs": [
        {
          "internalType": "address",
          "name": "spender",
          "type": "address"
        },
        {
          "internalType": "uint256",
          "name": "amount",
          "type": "uint256"
        }
      ],
      "name": "approve",
      "outputs": [
        {
          "internalType": "bool",
          "name": "",
          "type": "bool"
        }
      ],
      "stateMutability": "nonpayable",
      "type": "function"
    },
    {
      "inputs": [
        {
          "internalType": "address",
          "name": "account",
          "type": "address"
        }
      ],
      "name": "balanceOf",
      "outputs": [
        {
          "internalType": "uint256",
          "name": "",
          "type": "uint256"
        }
      ],
      "stateMutability": "view",
      "type": "function"
    },
    {
      "inputs": [
        {
          "internalType": "uint256",
          "name": "amount",
          "type": "uint256"
        }
      ],
      "name": "burn",
      "outputs": [],
      "stateMutability": "nonpayable",
      "type": "function"
    },
    {
      "inputs": [
        {
          "internalType": "address",
          "name": "account",
          "type": "address"
        },
        {
          "internalType": "uint256",
          "name": "amount",
          "type": "uint256"
        }
      ],
      "name": "burnFrom",
      "outputs": [],
      "stateMutability": "nonpayable",
      "type": "function"
    },
    {
      "inputs": [],
      "name": "decimals",
      "outputs": [
        {
          "internalType": "uint8",
          "name": "",
          "type": "uint8"
        }
      ],
      "stateMutability": "view",
      "type": "function"
    },
    {
      "inputs": [
        {
          "internalType": "address",
          "name": "spender",
          "type": "address"
        },
        {
          "internalType": "uint256",
          "name": "subtractedValue",
          "type": "uint256"
        }
      ],
      "name": "decreaseAllowance",
      "outputs": [
        {
          "internalType": "bool",
          "name": "",
          "type": "bool"
        }
      ],
      "stateMutability": "nonpayable",
      "type": "function"
    },
    {
      "inputs": [
        {
          "internalType": "bytes32",
          "name": "role",
          "type": "bytes32"
        }
      ],
      "name": "getRoleAdmin",
      "outputs": [
        {
          "internalType": "bytes32",
          "name": "",
          "type": "bytes32"
        }
      ],
      "stateMutability": "view",
      "type": "function"
    },
    {
      "inputs": [
        {
          "internalType": "bytes32",
          "name": "role",
          "type": "bytes32"
        },
        {
          "internalType": "address",
          "name": "account",
          "type": "address"
        }
      ],
      "name": "grantRole",
      "outputs": [],
      "stateMutability": "nonpayable",
      "type": "function"
    },
    {
      "inputs": [
        {
          "internalType": "bytes32",
          "name": "role",
          "type": "bytes32"
        },
        {
          "internalType": "address",
          "name": "account",
          "type": "address"
        }
      ],
      "name": "hasRole",
      "outputs": [
        {
          "internalType": "bool",
          "name": "",
          "type": "bool"
        }
      ],
      "stateMutability": "view",
      "type": "function"
    },
    {
      "inputs": [
        {
          "internalType": "address",
          "name": "spender",
          "type": "address"
        },
        {
          "internalType": "uint256",
          "name": "addedValue",
          "type": "uint256"
        }
      ],
      "name": "increaseAllowance",
      "outputs": [
        {
          "internalType": "bool",
          "name": "",
          "type": "bool"
        }
      ],
      "stateMutability": "nonpayable",
      "type": "function"
    },
    {
      "inputs": [
        {
          "internalType": "address[]",
          "name": "minters",
          "type": "address[]"
        },
        {
          "internalType": "string",
          "name": "name",
          "type": "string"
        },
        {
          "internalType": "string",
          "name": "symbol",
          "type": "string"
        }
      ],
      "name": "initialize",
      "outputs": [],
      "stateMutability": "nonpayable",
      "type": "function"
    },
    {
      "inputs": [],
      "name": "name",
      "outputs": [
        {
          "internalType": "string",
          "name": "",
          "type": "string"
        }
      ],
      "stateMutability": "view",
      "type": "function"
    },
    {
      "inputs": [],
      "name": "owner",
      "outputs": [
        {
          "internalType": "address",
          "name": "",
          "type": "address"
        }
      ],
      "stateMutability": "view",
      "type": "function"
    },
    {
      "inputs": [],
      "name": "pause",
      "outputs": [],
      "stateMutability": "nonpayable",
      "type": "function"
    },
    {
      "inputs": [],
      "name": "paused",
      "outputs": [
        {
          "internalType": "bool",
          "name": "",
          "type": "bool"
        }
      ],
      "stateMutability": "view",
      "type": "function"
    },
    {
      "inputs": [],
      "name": "proxiableUUID",
      "outputs": [
        {
          "internalType": "bytes32",
          "name": "",
          "type": "bytes32"
        }
      ],
      "stateMutability": "view",
      "type": "function"
    },
    {
      "inputs": [],
      "name": "renounceOwnership",
      "outputs": [],
      "stateMutability": "nonpayable",
      "type": "function"
    },
    {
      "inputs": [
        {
          "internalType": "bytes32",
          "name": "role",
          "type": "bytes32"
        },
        {
          "internalType": "address",
          "name": "account",
          "type": "address"
        }
      ],
      "name": "renounceRole",
      "outputs": [],
      "stateMutability": "nonpayable",
      "type": "function"
    },
    {
      "inputs": [
        {
          "internalType": "bytes32",
          "name": "role",
          "type": "bytes32"
        },
        {
          "internalType": "address",
          "name": "account",
          "type": "address"
        }
      ],
      "name": "revokeRole",
      "outputs": [],
      "stateMutability": "nonpayable",
      "type": "function"
    },
    {
      "inputs": [
        {
          "internalType": "bytes4",
          "name": "interfaceId",
          "type": "bytes4"
        }
      ],
      "name": "supportsInterface",
      "outputs": [
        {
          "internalType": "bool",
          "name": "",
          "type": "bool"
        }
      ],
      "stateMutability": "view",
      "type": "function"
    },
    {
      "inputs": [],
      "name": "symbol",
      "outputs": [
        {
          "internalType": "string",
          "name": "",
          "type": "string"
        }
      ],
      "stateMutability": "view",
      "type": "function"
    },
    {
      "inputs": [],
      "name": "totalSupply",
      "outputs": [
        {
          "internalType": "uint256",
          "name": "",
          "type": "uint256"
        }
      ],
      "stateMutability": "view",
      "type": "function"
    },
    {
      "inputs": [
        {
          "internalType": "address",
          "name": "recipient",
          "type": "address"
        },
        {
          "internalType": "uint256",
          "name": "amount",
          "type": "uint256"
        }
      ],
      "name": "transfer",
      "outputs": [
        {
          "internalType": "bool",
          "name": "",
          "type": "bool"
        }
      ],
      "stateMutability": "nonpayable",
      "type": "function"
    },
    {
      "inputs": [
        {
          "internalType": "address",
          "name": "sender",
          "type": "address"
        },
        {
          "internalType": "address",
          "name": "recipient",
          "type": "address"
        },
        {
          "internalType": "uint256",
          "name": "amount",
          "type": "uint256"
        }
      ],
      "name": "transferFrom",
      "outputs": [
        {
          "internalType": "bool",
          "name": "",
          "type": "bool"
        }
      ],
      "stateMutability": "nonpayable",
      "type": "function"
    },
    {
      "inputs": [
        {
          "internalType": "address",
          "name": "newOwner",
          "type": "address"
        }
      ],
      "name": "transferOwnership",
      "outputs": [],
      "stateMutability": "nonpayable",
      "type": "function"
    },
    {
      "inputs": [],
      "name": "unpause",
      "outputs": [],
      "stateMutability": "nonpayable",
      "type": "function"
    },
    {
      "inputs": [
        {
          "internalType": "address",
          "name": "newImplementation",
          "type": "address"
        }
      ],
      "name": "upgradeTo",
      "outputs": [],
      "stateMutability": "nonpayable",
      "type": "function"
    },
    {
      "inputs": [
        {
          "internalType": "address",
          "name": "newImplementation",
          "type": "address"
        },
        {
          "internalType": "bytes",
          "name": "data",
          "type": "bytes"
        }
      ],
      "name": "upgradeToAndCall",
      "outputs": [],
      "stateMutability": "payable",
      "type": "function"
    }
  ],
  "bytecode": "0x60a08060405234610031573060805261260c90816100378239608051818181610da601528181610ea6015261123f0152f35b600080fdfe608080604052600436101561001357600080fd5b60003560e01c90816301ffc9a7146117265750806306fdde0314611692578063095ea7b31461166c57806318160ddd1461164e57806323b872dd1461160d578063248a9ca3146115de5780632f2ff15d1461153d578063313ce567146103fa57806336568abe146114ab5780633659cfe61461121a57806339509351146111c85780633f4ba83a1461113357806342966c68146111165780634f1ef28614610e5757806352d1902d14610d935780635c975abb14610d6f57806370a0823114610d1e578063715018a614610cc157806379cc679014610c915780638456cb5914610bfd5780638da5cb5b14610bd457806391d1485414610b8757806395d89b4114610abb578063978d55b914610416578063a217fddf146103fa578063a457c2d714610353578063a9059cbb14610319578063d5391393146102de578063d547741f1461029f578063dd62ed3e1461024e578063e63ab1e9146102135763f2fde38b1461017f57600080fd5b3461020e57602036600319011261020e576101986117c8565b6101a0611c55565b6001600160a01b038116156101ba576101b890611cad565b005b60405162461bcd60e51b815260206004820152602660248201527f4f776e61626c653a206e6577206f776e657220697320746865207a65726f206160448201526564647265737360d01b6064820152608490fd5b600080fd5b3461020e57600036600319011261020e5760206040517f65d7a28e3265b37a6474929f336521b332c1681b933f6cb9f3376673440d862a8152f35b3461020e57604036600319011261020e576102676117c8565b61026f6117de565b9060018060a01b038091166000526034602052604060002091166000526020526020604060002054604051908152f35b3461020e57604036600319011261020e576101b86004356102be6117de565b908060005260fb6020526102d9600160406000200154611ad5565b611bdf565b3461020e57600036600319011261020e5760206040517f9f2df0fed2c77648de5860a4cc508cd0818c85b8b8a1ab4ceeef8d981c8956a68152f35b3461020e57604036600319011261020e576103486103356117c8565b61033e336124ad565b602435903361233d565b602060405160018152f35b3461020e57604036600319011261020e5761036c6117c8565b60243590336000526034602052604060002060018060a01b038216600052602052604060002054918083106103a75761034892039033611e82565b60405162461bcd60e51b815260206004820152602560248201527f45524332303a2064656372656173656420616c6c6f77616e63652062656c6f77604482015264207a65726f60d81b6064820152608490fd5b3461020e57600036600319011261020e57602060405160008152f35b3461020e57606036600319011261020e5760043567ffffffffffffffff811161020e573660238201121561020e5780600401359067ffffffffffffffff821161090a578160051b906040519261046f602084018561182c565b8352602460208401928201019036821161020e57602401915b818310610a9b578360243567ffffffffffffffff811161020e576104b09036906004016118a1565b9060443567ffffffffffffffff811161020e576104d19036906004016118a1565b906000549060ff8260081c161591828093610a8e575b8015610a77575b15610a1b5760ff19811660011760005582610a09575b5061051f60ff60005460081c1661051a816122dd565b6122dd565b835167ffffffffffffffff811161090a5761053b603654611e48565b601f81116109a0575b506020601f821160011461092b578192939495600092610920575b50508160011b916000199060031b1c1916176036555b825167ffffffffffffffff811161090a57610591603754611e48565b601f811161089d575b506020601f8211600114610829578192939460009261081e575b50508160011b916000199060031b1c1916176037555b6105e860ff60005460081c166105df816122dd565b61051a816122dd565b6105f133611cad565b61060660ff60005460081c166105df816122dd565b61012d805460ff191690553360009081527fc81858b0fc5e8d7d2c7a341b4e13a62a27b51e1da1072bf5f7fee8fdef673e94602052604090205460fb91907f65d7a28e3265b37a6474929f336521b332c1681b933f6cb9f3376673440d862a9060ff16156107dd575b50600080528160205260406000203360005260205260ff604060002054161561079e575b60005b815181101561075f5760018060a01b0360208260051b84010151167f9f2df0fed2c77648de5860a4cc508cd0818c85b8b8a1ab4ceeef8d981c8956a690816000528460205260406000208160005260205260ff604060002054161561071f575b5050600019811461070957600101610696565b634e487b7160e01b600052601160045260246000fd5b81600052846020526040600020816000526020526040600020600160ff198254161790553391600080516020612557833981519152600080a484806106f6565b8361076657005b61ff0019600054166000557f7f26b83ff96e1f2b6a682f133852f6798a09c465da95921460cefb3847402498602060405160018152a1005b60008052816020526040600020336000526020526040600020600160ff19825416179055333360006000805160206125578339815191528180a4610693565b80600052826020526040600020336000526020526040600020600160ff1982541617905533903390600080516020612557833981519152600080a48361066f565b0151905084806105b4565b60376000526000805160206125b78339815191529060005b601f19841681106108855750600193949583601f1981161061086c575b505050811b016037556105ca565b015160001960f88460031b161c1916905584808061085e565b9091602060018192858a015181550193019101610841565b6037600052601f820160051c6000805160206125b78339815191520190602083106108f4575b601f0160051c6000805160206125b783398151915201905b8181106108e8575061059a565b600081556001016108db565b6000805160206125b783398151915291506108c3565b634e487b7160e01b600052604160045260246000fd5b01519050858061055f565b60366000526000805160206125778339815191529060005b601f1984168110610988575060019394959683601f1981161061096f575b505050811b01603655610575565b015160001960f88460031b161c19169055858080610961565b9091602060018192858b015181550193019101610943565b6036600052601f820160051c60008051602061257783398151915201602083106109f4575b601f820160051c6000805160206125778339815191520181106109e85750610544565b600081556001016109c5565b506000805160206125778339815191526109c5565b61ffff19166101011760005584610504565b60405162461bcd60e51b815260206004820152602e60248201527f496e697469616c697a61626c653a20636f6e747261637420697320616c72656160448201526d191e481a5b9a5d1a585b1a5e995960921b6064820152608490fd5b50303b1580156104ee5750600160ff8216146104ee565b50600160ff8216106104e7565b82356001600160a01b038116810361020e57815260209283019201610488565b3461020e57600036600319011261020e576040516000603754610add81611e48565b80845290600190818116908115610b605750600114610b17575b610b1384610b078186038261182c565b6040519182918261179c565b0390f35b6037600090815292506000805160206125b78339815191525b828410610b48575050508101602001610b0782610af7565b80546020858701810191909152909301928101610b30565b60ff191660208087019190915292151560051b85019092019250610b079150839050610af7565b3461020e57604036600319011261020e57610ba06117de565b60043560005260fb60205260406000209060018060a01b0316600052602052602060ff604060002054166040519015158152f35b3461020e57600036600319011261020e576097546040516001600160a01b039091168152602090f35b3461020e57600036600319011261020e57610c166118bf565b61012d805460ff8116610c595760019060ff19161790557f62e78cea01bee320cd4e420270b5ea74000d11b0c9f74754ebdbfc544b05a2586020604051338152a1005b60405162461bcd60e51b815260206004820152601060248201526f14185d5cd8589b194e881c185d5cd95960821b6044820152606490fd5b3461020e57604036600319011261020e576101b8610cad6117c8565b60243590610cbc82338361208f565b611f84565b3461020e57600036600319011261020e57610cda611c55565b609780546001600160a01b031981169091556000906001600160a01b03167f8be0079c531659141344cd1fd0a4f28419497f9722a3daafe3b4186f6b6457e08280a3005b3461020e57602036600319011261020e576001600160a01b03610d3f6117c8565b16600052603360205260406000205460018111600014610d65576020905b604051908152f35b5060206001610d5d565b3461020e57600036600319011261020e57602060ff61012d54166040519015158152f35b3461020e57600036600319011261020e577f00000000000000000000000000000000000000000000000000000000000000006001600160a01b03163003610dec5760206040516000805160206125978339815191528152f35b60405162461bcd60e51b815260206004820152603860248201527f555550535570677261646561626c653a206d757374206e6f742062652063616c60448201527f6c6564207468726f7567682064656c656761746563616c6c00000000000000006064820152608490fd5b604036600319011261020e57610e6b6117c8565b60243567ffffffffffffffff811161020e573660238201121561020e57610e9c90369060248160040135910161186a565b6001600160a01b037f000000000000000000000000000000000000000000000000000000000000000081169190610ed530841415611cf6565b610ef2600080516020612597833981519152938285541614611d57565b610efa611c55565b7f4910fdfa16fed3260ed0e7147f7cc6da11a60208b5b9406d12a635614ffd91435460ff1615610f30575050506101b890611db8565b8316604051926352d1902d60e01b84526020938481600481865afa600091816110e7575b50610fb55760405162461bcd60e51b815260048101869052602e60248201527f45524331393637557067726164653a206e657720696d706c656d656e7461746960448201526d6f6e206973206e6f74205555505360901b6064820152608490fd5b9392930361109057610fc684611db8565b7fbc7cd75a20ee27fd9adebab32041f755214dbc6bffa90cc0225b39da2e5c2d3b600080a2815115801590611088575b610ffc57005b6101b89260008060405194611010866117f4565b602786527f416464726573733a206c6f772d6c6576656c2064656c65676174652063616c6c85870152660819985a5b195960ca1b60408701528481519101845af4903d1561107f573d6110628161184e565b90611070604051928361182c565b8152600081943d92013e612127565b60609250612127565b506001610ff6565b60405162461bcd60e51b815260048101839052602960248201527f45524331393637557067726164653a20756e737570706f727465642070726f786044820152681a58589b195555525160ba1b6064820152608490fd5b9091508581813d831161110f575b6110ff818361182c565b8101031261020e57519087610f54565b503d6110f5565b3461020e57602036600319011261020e576101b860043533611f84565b3461020e57600036600319011261020e5761114c6118bf565b61012d805460ff81161561118c5760ff191690557f5db9ee0a495bf2e6ff9c91a7834c1ba4fdd244a5e8aa4e537bd38aeae4b073aa6020604051338152a1005b60405162461bcd60e51b815260206004820152601460248201527314185d5cd8589b194e881b9bdd081c185d5cd95960621b6044820152606490fd5b3461020e57604036600319011261020e576111e16117c8565b336000526034602052604060002060018060a01b0382166000526020526040600020546024358101809111610709576103489133611e82565b3461020e5760208060031936011261020e576112346117c8565b6001600160a01b03917f0000000000000000000000000000000000000000000000000000000000000000831661126c30821415611cf6565b611289600080516020612597833981519152918583541614611d57565b611291611c55565b604051908282019482861067ffffffffffffffff87111761090a57856040526000835260ff7f4910fdfa16fed3260ed0e7147f7cc6da11a60208b5b9406d12a635614ffd914354166000146112ee57505050506101b89150611db8565b8492939416906040516352d1902d60e01b81528581600481865afa6000918161147c575b506113735760405162461bcd60e51b815260048101879052602e60248201527f45524331393637557067726164653a206e657720696d706c656d656e7461746960448201526d6f6e206973206e6f74205555505360901b6064820152608490fd5b949394036114255761138482611db8565b7fbc7cd75a20ee27fd9adebab32041f755214dbc6bffa90cc0225b39da2e5c2d3b600080a282511580159061141d575b6113ba57005b6000806101b895604051956113ce876117f4565b602787527f416464726573733a206c6f772d6c6576656c2064656c65676174652063616c6c86880152660819985a5b195960ca1b60408801525190845af4903d1561107f573d6110628161184e565b5060006113b4565b60405162461bcd60e51b815260048101849052602960248201527f45524331393637557067726164653a20756e737570706f727465642070726f786044820152681a58589b195555525160ba1b6064820152608490fd5b9091508681813d83116114a4575b611494818361182c565b8101031261020e57519088611312565b503d61148a565b3461020e57604036600319011261020e576114c46117de565b336001600160a01b038216036114e0576101b890600435611bdf565b60405162461bcd60e51b815260206004820152602f60248201527f416363657373436f6e74726f6c3a2063616e206f6e6c792072656e6f756e636560448201526e103937b632b9903337b91039b2b63360891b6064820152608490fd5b3461020e57604036600319011261020e576004356115596117de565b8160005260fb602052611573600160406000200154611ad5565b8160005260fb60205260406000209060018060a01b0316908160005260205260ff60406000205416156115a257005b8160005260fb6020526040600020816000526020526040600020600160ff198254161790553391600080516020612557833981519152600080a4005b3461020e57602036600319011261020e5760043560005260fb6020526020600160406000200154604051908152f35b3461020e57606036600319011261020e576103486116296117c8565b6116316117de565b6044359161163e816124ad565b61164983338361208f565b61233d565b3461020e57600036600319011261020e576020603554604051908152f35b3461020e57604036600319011261020e576103486116886117c8565b6024359033611e82565b3461020e57600036600319011261020e5760405160006036546116b481611e48565b80845290600190818116908115610b6057506001146116dd57610b1384610b078186038261182c565b6036600090815292506000805160206125778339815191525b82841061170e575050508101602001610b0782610af7565b805460208587018101919091529093019281016116f6565b3461020e57602036600319011261020e576004359063ffffffff60e01b821680920361020e57602091637965db0b60e01b8114908115611768575b5015158152f35b6301ffc9a760e01b14905083611761565b60005b83811061178c5750506000910152565b818101518382015260200161177c565b604091602082526117bc8151809281602086015260208686019101611779565b601f01601f1916010190565b600435906001600160a01b038216820361020e57565b602435906001600160a01b038216820361020e57565b6060810190811067ffffffffffffffff82111761090a57604052565b6080810190811067ffffffffffffffff82111761090a57604052565b90601f8019910116810190811067ffffffffffffffff82111761090a57604052565b67ffffffffffffffff811161090a57601f01601f191660200190565b9291926118768261184e565b91611884604051938461182c565b82948184528183011161020e578281602093846000960137010152565b9080601f8301121561020e578160206118bc9335910161186a565b90565b3360009081527fc81858b0fc5e8d7d2c7a341b4e13a62a27b51e1da1072bf5f7fee8fdef673e9460209081526040808320549092907f65d7a28e3265b37a6474929f336521b332c1681b933f6cb9f3376673440d862a9060ff16156119245750505050565b61192d336121df565b84519161193983611810565b60428352848301936060368637835115611ac15760308553835190600191821015611ac15790607860218601536041915b818311611a5357505050611a11576119bf9385936119f7936119e8604894611a0d9951988576020b1b1b2b9b9a1b7b73a3937b61d1030b1b1b7bab73a1604d1b8b978801528251928391603789019101611779565b8401917001034b99036b4b9b9b4b733903937b6329607d1b603784015251809386840190611779565b0103602881018552018361182c565b5162461bcd60e51b81529182916004830161179c565b0390fd5b60648486519062461bcd60e51b825280600483015260248201527f537472696e67733a20686578206c656e67746820696e73756666696369656e746044820152fd5b909192600f81166010811015611aad576f181899199a1a9b1b9c1cb0b131b232b360811b901a611a8385886121b8565b5360041c928015611a995760001901919061196a565b634e487b7160e01b82526011600452602482fd5b634e487b7160e01b83526032600452602483fd5b634e487b7160e01b81526032600452602490fd5b600081815260209060fb8252604092838220338352835260ff848320541615611afe5750505050565b611b07336121df565b845191611b1383611810565b60428352848301936060368637835115611ac15760308553835190600191821015611ac15790607860218601536041915b818311611b9957505050611a11576119bf9385936119f7936119e8604894611a0d9951988576020b1b1b2b9b9a1b7b73a3937b61d1030b1b1b7bab73a1604d1b8b978801528251928391603789019101611779565b909192600f81166010811015611aad576f181899199a1a9b1b9c1cb0b131b232b360811b901a611bc985886121b8565b5360041c928015611a9957600019019190611b44565b9060009180835260fb602052604083209160018060a01b03169182845260205260ff604084205416611c1057505050565b80835260fb602052604083208284526020526040832060ff1981541690557ff6391f5c32d9c69d2a47ea670b442974b53935d1edc7fd64eb21e047a839171b339380a4565b6097546001600160a01b03163303611c6957565b606460405162461bcd60e51b815260206004820152602060248201527f4f776e61626c653a2063616c6c6572206973206e6f7420746865206f776e65726044820152fd5b609780546001600160a01b039283166001600160a01b0319821681179092559091167f8be0079c531659141344cd1fd0a4f28419497f9722a3daafe3b4186f6b6457e0600080a3565b15611cfd57565b60405162461bcd60e51b815260206004820152602c60248201527f46756e6374696f6e206d7573742062652063616c6c6564207468726f7567682060448201526b19195b1959d85d1958d85b1b60a21b6064820152608490fd5b15611d5e57565b60405162461bcd60e51b815260206004820152602c60248201527f46756e6374696f6e206d7573742062652063616c6c6564207468726f7567682060448201526b6163746976652070726f787960a01b6064820152608490fd5b803b15611ded5760008051602061259783398151915280546001600160a01b0319166001600160a01b03909216919091179055565b60405162461bcd60e51b815260206004820152602d60248201527f455243313936373a206e657720696d706c656d656e746174696f6e206973206e60448201526c1bdd08184818dbdb9d1c9858dd609a1b6064820152608490fd5b90600182811c92168015611e78575b6020831014611e6257565b634e487b7160e01b600052602260045260246000fd5b91607f1691611e57565b6001600160a01b03908116918215611f335716918215611ee35760207f8c5be1e5ebec7d5bd14f71427d1e84f3dd0314c0f7b2291e5b200ac8c7c3b925918360005260348252604060002085600052825280604060002055604051908152a3565b60405162461bcd60e51b815260206004820152602260248201527f45524332303a20617070726f766520746f20746865207a65726f206164647265604482015261737360f01b6064820152608490fd5b60405162461bcd60e51b8152602060048201526024808201527f45524332303a20617070726f76652066726f6d20746865207a65726f206164646044820152637265737360e01b6064820152608490fd5b6001600160a01b031680156120405780600052603360205260406000205491808310611ff0576020817fddf252ad1be2c89b69c2b068fc378daa952ba7f163c4a11628f55a4df523b3ef92600095858752603384520360408620558060355403603555604051908152a3565b60405162461bcd60e51b815260206004820152602260248201527f45524332303a206275726e20616d6f756e7420657863656564732062616c616e604482015261636560f01b6064820152608490fd5b60405162461bcd60e51b815260206004820152602160248201527f45524332303a206275726e2066726f6d20746865207a65726f206164647265736044820152607360f81b6064820152608490fd5b9060018060a01b03808316600052603460205260406000209082166000526020526040600020549260001984036120c7575b50505050565b8084106120e2576120d9930391611e82565b388080806120c1565b60405162461bcd60e51b815260206004820152601d60248201527f45524332303a20696e73756666696369656e7420616c6c6f77616e63650000006044820152606490fd5b91929015612189575081511561213b575090565b3b156121445790565b60405162461bcd60e51b815260206004820152601d60248201527f416464726573733a2063616c6c20746f206e6f6e2d636f6e74726163740000006044820152606490fd5b82519091501561219c5750805190602001fd5b60405162461bcd60e51b8152908190611a0d906004830161179c565b9081518110156121c9570160200190565b634e487b7160e01b600052603260045260246000fd5b604051906121ec826117f4565b602a82526020820160403682378251156121c9576030905381516001908110156121c957607860218401536029905b80821161226f57505061222b5790565b606460405162461bcd60e51b815260206004820152602060248201527f537472696e67733a20686578206c656e67746820696e73756666696369656e746044820152fd5b9091600f811660108110156122c8576f181899199a1a9b1b9c1cb0b131b232b360811b901a61229e84866121b8565b5360041c9180156122b357600019019061221b565b60246000634e487b7160e01b81526011600452fd5b60246000634e487b7160e01b81526032600452fd5b156122e457565b60405162461bcd60e51b815260206004820152602b60248201527f496e697469616c697a61626c653a20636f6e7472616374206973206e6f74206960448201526a6e697469616c697a696e6760a81b6064820152608490fd5b6001600160a01b0390811691821561245a571691821561240957600082815260336020526040812054918083106123b557604082827fddf252ad1be2c89b69c2b068fc378daa952ba7f163c4a11628f55a4df523b3ef95876020965260338652038282205586815220818154019055604051908152a3565b60405162461bcd60e51b815260206004820152602660248201527f45524332303a207472616e7366657220616d6f756e7420657863656564732062604482015265616c616e636560d01b6064820152608490fd5b60405162461bcd60e51b815260206004820152602360248201527f45524332303a207472616e7366657220746f20746865207a65726f206164647260448201526265737360e81b6064820152608490fd5b60405162461bcd60e51b815260206004820152602560248201527f45524332303a207472616e736665722066726f6d20746865207a65726f206164604482015264647265737360d81b6064820152608490fd5b6001600160a01b0316801561251157603554600181018091116107095760355580600052603360205260406000206001815401905560007fddf252ad1be2c89b69c2b068fc378daa952ba7f163c4a11628f55a4df523b3ef602060405160018152a3565b60405162461bcd60e51b815260206004820152601f60248201527f45524332303a206d696e7420746f20746865207a65726f2061646472657373006044820152606490fdfe2f8788117e7eff1d82e926ec794901d17c78024a50270940304540a733656f0d4a11f94e20a93c79f6ec743a1954ec4fc2c08429ae2122118bf234b2185c81b8360894a13ba1a3210667c828492db98dca3e2076cc3735a920a3ca505d382bbc42a7b7dd785cd69714a189dffb3fd7d7174edc9ece837694ce50f7078f7c31aea264697066735822122071f5425b268e7c40dbdbff1b926104075000959c4f83f2c5a678bdf55b4083e564736f6c63430008140033",
  "linkReferences": {},
  "deployedLinkReferences": {}
}