{
  "_format": "hh-sol-artifact-1",
  "contractName": "GratitudeToken",
  "sourceName": "contracts/tokens/GratitudeToken.sol",
  "abi": [
    {
      "anonymous": false,
      "inputs": [
        {
          "indexed": false,
          "internalType": "address",
          "name": "previousAdmin",
          "type": "address"
        },
        {
          "indexed": false,
          "internalType": "address",
          "name": "newAdmin",
          "type": "address"
        }
      ],
      "name": "AdminChanged",
      "type": "event"
    },
    {
      "anonymous": false,
      "inputs": [
        {
          "indexed": true,
          "internalType": "address",
          "name": "owner",
          "type": "address"
        },
        {
          "indexed": true,
          "internalType": "address",
          "name": "spender",
          "type": "address"
        },
        {
          "indexed": false,
          "internalType": "uint256",
          "name": "value",
          "type": "uint256"
        }
      ],
      "name": "Approval",
      "type": "event"
    },
    {
      "anonymous": false,
      "inputs": [
        {
          "indexed": true,
          "internalType": "address",
          "name": "beacon",
          "type": "address"
        }
      ],
      "name": "BeaconUpgraded",
      "type": "event"
    },
    {
      "anonymous": false,
      "inputs": [
        {
          "indexed": false,
          "internalType": "uint8",
          "name": "version",
          "type": "uint8"
        }
      ],
      "name": "Initialized",
      "type": "event"
    },
    {
      "anonymous": false,
      "inputs": [
        {
          "indexed": true,
          "internalType": "address",
          "name": "to",
          "type": "address"
        },
        {
          "indexed": false,
          "internalType": "uint256",
          "name": "amount",
          "type": "uint256"
        }
      ],
      "name": "Minted",
      "type": "event"
    },
    {
      "anonymous": false,
      "inputs": [
        {
          "indexed": true,
          "internalType": "address",
          "name": "previousOwner",
          "type": "address"
        },
        {
          "indexed": true,
          "internalType": "address",
          "name": "newOwner",
          "type": "address"
        }
      ],
      "name": "OwnershipTransferred",
      "type": "event"
    },
    {
      "anonymous": false,
      "inputs": [
        {
          "indexed": false,
          "internalType": "address",
          "name": "account",
          "type": "address"
        }
      ],
      "name": "Paused",
      "type": "event"
    },
    {
      "anonymous": false,
      "inputs": [
        {
          "indexed": true,
          "internalType": "bytes32",
          "name": "role",
          "type": "bytes32"
        },
        {
          "indexed": true,
          "internalType": "bytes32",
          "name": "previousAdminRole",
          "type": "bytes32"
        },
        {
          "indexed": true,
          "internalType": "bytes32",
          "name": "newAdminRole",
          "type": "bytes32"
        }
      ],
      "name": "RoleAdminChanged",
      "type": "event"
    },
    {
      "anonymous": false,
      "inputs": [
        {
          "indexed": true,
          "internalType": "bytes32",
          "name": "role",
          "type": "bytes32"
        },
        {
          "indexed": true,
          "internalType": "address",
          "name": "account",
          "type": "address"
        },
        {
          "indexed": true,
          "internalType": "address",
          "name": "sender",
          "type": "address"
        }
      ],
      "name": "RoleGranted",
      "type": "event"
    },
    {
      "anonymous": false,
      "inputs": [
        {
          "indexed": true,
          "internalType": "bytes32",
          "name": "role",
          "type": "bytes32"
        },
        {
          "indexed": true,
          "internalType": "address",
          "name": "account",
          "type": "address"
        },
        {
          "indexed": true,
          "internalType": "address",
          "name": "sender",
          "type": "address"
        }
      ],
      "name": "RoleRevoked",
      "type": "event"
    },
    {
      "anonymous": false,
      "inputs": [
        {
          "indexed": true,
          "internalType": "address",
          "name": "from",
          "type": "address"
        },
        {
          "indexed": true,
          "internalType": "address",
          "name": "to",
          "type": "address"
        },
        {
          "indexed": false,
          "internalType": "uint256",
          "name": "value",
          "type": "uint256"
        }
      ],
      "name": "Transfer",
      "type": "event"
    },
    {
      "anonymous": false,
      "inputs": [
        {
          "indexed": false,
          "internalType": "address",
          "name": "account",
          "type": "address"
        }
      ],
      "name": "Unpaused",
      "type": "event"
    },
    {
      "anonymous": false,
      "inputs": [
        {
          "indexed": true,
          "internalType": "address",
          "name": "implementation",
          "type": "address"
        }
      ],
      "name": "Upgraded",
      "type": "event"
    },
    {
      "inputs": [],
      "name": "DEFAULT_ADMIN_ROLE",
      "outputs": [
        {
          "internalType": "bytes32",
          "name": "",
          "type": "bytes32"
        }
      ],
      "stateMutability": "view",
      "type": "function"
    },
    {
      "inputs": [],
      "name": "MINTER_ROLE",
      "outputs": [
        {
          "internalType": "bytes32",
          "name": "",
          "type": "bytes32"
        }
      ],
      "stateMutability": "view",
      "type": "function"
    },
    {
      "inputs": [],
      "name": "PAUSER_ROLE",
      "outputs": [
        {
          "internalType": "bytes32",
          "name": "",
          "type": "bytes32"
        }
      ],
      "stateMutability": "view",
      "type": "function"
    },
    {
      "inputs": [
        {
          "internalType": "address",
          "name": "owner",
          "type": "address"
        },
        {
          "internalType": "address",
          "name": "spender",
          "type": "address"
        }
      ],
      "name": "allowance",
      "outputs": [
        {
          "internalType": "uint256",
          "name": "",
          "type": "uint256"
        }
      ],
      "stateMutability": "view",
      "type": "function"
    },
    {
      "inputs": [
        {
          "internalType": "address",
          "name": "spender",
          "type": "address"
        },
        {
          "internalType": "uint256",
          "name": "amount",
          "type": "uint256"
        }
      ],
      "name": "approve",
      "outputs": [
        {
          "internalType": "bool",
          "name": "",
          "type": "bool"
        }
      ],
      "stateMutability": "nonpayable",
      "type": "function"
    },
    {
      "inputs": [
        {
          "internalType": "address",
          "name": "account",
          "type": "address"
        }
      ],
      "name": "balanceOf",
      "outputs": [
        {
          "internalType": "uint256",
          "name": "",
          "type": "uint256"
        }
      ],
      "stateMutability": "view",
      "type": "function"
    },
    {
      "inputs": [
        {
          "internalType": "uint256",
          "name": "amount",
          "type": "uint256"
        }
      ],
      "name": "burn",
      "outputs": [],
      "stateMutability": "nonpayable",
      "type": "function"
    },
    {
      "inputs": [
        {
          "internalType": "address",
          "name": "account",
          "type": "address"
        },
        {
          "internalType": "uint256",
          "name": "amount",
          "type": "uint256"
        }
      ],
      "name": "burnFrom",
      "outputs": [],
      "stateMutability": "nonpayable",
      "type": "function"
    },
    {
      "inputs": [],
      "name": "decimals",
      "outputs": [
        {
          "internalType": "uint8",
          "name": "",
          "type": "uint8"
        }
      ],
      "stateMutability": "view",
      "type": "function"
    },
    {
      "inputs": [
        {
          "internalType": "address",
          "name": "spender",
          "type": "address"
        },
        {
          "internalType": "uint256",
          "name": "subtractedValue",
          "type": "uint256"
        }
      ],
      "name": "decreaseAllowance",
      "outputs": [
        {
          "internalType": "bool",
          "name": "",
          "type": "bool"
        }
      ],
      "stateMutability": "nonpayable",
      "type": "function"
    },
    {
      "inputs": [
        {
          "internalType": "bytes32",
          "name": "role",
          "type": "bytes32"
        }
      ],
      "name": "getRoleAdmin",
      "outputs": [
        {
          "internalType": "bytes32",
          "name": "",
          "type": "bytes32"
        }
      ],
      "stateMutability": "view",
      "type": "function"
    },
    {
      "inputs": [
        {
          "internalType": "bytes32",
          "name": "role",
          "type": "bytes32"
        },
        {
          "internalType": "address",
          "name": "account",
          "type": "address"
        }
      ],
      "name": "grantRole",
      "outputs": [],
      "stateMutability": "nonpayable",
      "type": "function"
    },
    {
      "inputs": [
        {
          "internalType": "bytes32",
          "name": "role",
          "type": "bytes32"
        },
        {
          "internalType": "address",
          "name": "account",
          "type": "address"
        }
      ],
      "name": "hasRole",
      "outputs": [
        {
          "internalType": "bool",
          "name": "",
          "type": "bool"
        }
      ],
      "stateMutability": "view",
      "type": "function"
    },
    {
      "inputs": [
        {
          "internalType": "address",
          "name": "spender",
          "type": "address"
        },
        {
          "internalType": "uint256",
          "name": "addedValue",
          "type": "uint256"
        }
      ],
      "name": "increaseAllowance",
      "outputs": [
        {
          "internalType": "bool",
          "name": "",
          "type": "bool"
        }
      ],
      "stateMutability": "nonpayable",
      "type": "function"
    },
    {
      "inputs": [
        {
          "internalType": "address[]",
          "name": "minters",
          "type": "address[]"
        },
        {
          "internalType": "string",
          "name": "name",
          "type": "string"
        },
        {
          "internalType": "string",
          "name": "symbol",
          "type": "string"
        }
      ],
      "name": "initialize",
      "outputs": [],
      "stateMutability": "nonpayable",
      "type": "function"
    },
    {
      "inputs": [],
      "name": "name",
      "outputs": [
        {
          "internalType": "string",
          "name": "",
          "type": "string"
        }
      ],
      "stateMutability": "view",
      "type": "function"
    },
    {
      "inputs": [],
      "name": "owner",
      "outputs": [
        {
          "internalType": "address",
          "name": "",
          "type": "address"
        }
      ],
      "stateMutability": "view",
      "type": "function"
    },
    {
      "inputs": [],
      "name": "pause",
      "outputs": [],
      "stateMutability": "nonpayable",
      "type": "function"
    },
    {
      "inputs": [],
      "name": "paused",
      "outputs": [
        {
          "internalType": "bool",
          "name": "",
          "type": "bool"
        }
      ],
      "stateMutability": "view",
      "type": "function"
    },
    {
      "inputs": [],
      "name": "proxiableUUID",
      "outputs": [
        {
          "internalType": "bytes32",
          "name": "",
          "type": "bytes32"
        }
      ],
      "stateMutability": "view",
      "type": "function"
    },
    {
      "inputs": [],
      "name": "renounceOwnership",
      "outputs": [],
      "stateMutability": "nonpayable",
      "type": "function"
    },
    {
      "inputs": [
        {
          "internalType": "bytes32",
          "name": "role",
          "type": "bytes32"
        },
        {
          "internalType": "address",
          "name": "account",
          "type": "address"
        }
      ],
      "name": "renounceRole",
      "outputs": [],
      "stateMutability": "nonpayable",
      "type": "function"
    },
    {
      "inputs": [
        {
          "internalType": "bytes32",
          "name": "role",
          "type": "bytes32"
        },
        {
          "internalType": "address",
          "name": "account",
          "type": "address"
        }
      ],
      "name": "revokeRole",
      "outputs": [],
      "stateMutability": "nonpayable",
      "type": "function"
    },
    {
      "inputs": [
        {
          "internalType": "bytes4",
          "name": "interfaceId",
          "type": "bytes4"
        }
      ],
      "name": "supportsInterface",
      "outputs": [
        {
          "internalType": "bool",
          "name": "",
          "type": "bool"
        }
      ],
      "stateMutability": "view",
      "type": "function"
    },
    {
      "inputs": [],
      "name": "symbol",
      "outputs": [
        {
          "internalType": "string",
          "name": "",
          "type": "string"
        }
      ],
      "stateMutability": "view",
      "type": "function"
    },
    {
      "inputs": [],
      "name": "totalSupply",
      "outputs": [
        {
          "internalType": "uint256",
          "name": "",
          "type": "uint256"
        }
      ],
      "stateMutability": "view",
      "type": "function"
    },
    {
      "inputs": [
        {
          "internalType": "address",
          "name": "recipient",
          "type": "address"
        },
        {
          "internalType": "uint256",
          "name": "amount",
          "type": "uint256"
        }
      ],
      "name": "transfer",
      "outputs": [
        {
          "internalType": "bool",
          "name": "",
          "type": "bool"
        }
      ],
      "stateMutability": "nonpayable",
      "type": "function"
    },
    {
      "inputs": [
        {
          "internalType": "address",
          "name": "sender",
          "type": "address"
        },
        {
          "internalType": "address",
          "name": "recipient",
          "type": "address"
        },
        {
          "internalType": "uint256",
          "name": "amount",
          "type": "uint256"
        }
      ],
      "name": "transferFrom",
      "outputs": [
        {
          "internalType": "bool",
          "name": "",
          "type": "bool"
        }
      ],
      "stateMutability": "nonpayable",
      "type": "function"
    },
    {
      "inputs": [
        {
          "internalType": "address",
          "name": "newOwner",
          "type": "address"
        }
      ],
      "name": "transferOwnership",
      "outputs": [],
      "stateMutability": "nonpayable",
      "type": "function"
    },
    {
      "inputs": [],
      "name": "unpause",
      "outputs": [],
      "stateMutability": "nonpayable",
      "type": "function"
    },
    {
      "inputs": [
        {
          "internalType": "address",
          "name": "newImplementation",
          "type": "address"
        }
      ],
      "name": "upgradeTo",
      "outputs": [],
      "stateMutability": "nonpayable",
      "type": "function"
    },
    {
      "inputs": [
        {
          "internalType": "address",
          "name": "newImplementation",
          "type": "address"
        },
        {
          "internalType": "bytes",
          "name": "data",
          "type": "bytes"
        }
      ],
      "name": "upgradeToAndCall",
      "outputs": [],
      "stateMutability": "payable",
      "type": "function"
    }
  ],
  "bytecode": "0x60a06040523060805234801561001457600080fd5b506080516124cc61004c6000396000818161078c015281816107cc015281816108b7015281816108f7015261098601526124cc6000f3fe6080604052600436106101e35760003560e01c806370a0823111610102578063a217fddf11610095578063d547741f11610064578063d547741f14610552578063dd62ed3e14610572578063e63ab1e914610592578063f2fde38b146105b457600080fd5b8063a217fddf146104c9578063a457c2d7146104de578063a9059cbb146104fe578063d53913931461051e57600080fd5b80638da5cb5b116100d15780638da5cb5b1461044c57806391d148541461047457806395d89b4114610494578063978d55b9146104a957600080fd5b806370a08231146103e2578063715018a61461040257806379cc6790146104175780638456cb591461043757600080fd5b806336568abe1161017a57806342966c681161014957806342966c68146103815780634f1ef286146103a157806352d1902d146103b45780635c975abb146103c957600080fd5b806336568abe1461030c5780633659cfe61461032c578063395093511461034c5780633f4ba83a1461036c57600080fd5b806323b872dd116101b657806323b872dd1461027e578063248a9ca31461029e5780632f2ff15d146102ce578063313ce567146102f057600080fd5b806301ffc9a7146101e857806306fdde031461021d578063095ea7b31461023f57806318160ddd1461025f575b600080fd5b3480156101f457600080fd5b50610208610203366004611d33565b6105d4565b60405190151581526020015b60405180910390f35b34801561022957600080fd5b5061023261060b565b6040516102149190611d81565b34801561024b57600080fd5b5061020861025a366004611dd0565b61069d565b34801561026b57600080fd5b506035545b604051908152602001610214565b34801561028a57600080fd5b50610208610299366004611dfa565b6106b5565b3480156102aa57600080fd5b506102706102b9366004611e36565b600090815260fb602052604090206001015490565b3480156102da57600080fd5b506102ee6102e9366004611e4f565b6106d5565b005b3480156102fc57600080fd5b5060405160008152602001610214565b34801561031857600080fd5b506102ee610327366004611e4f565b6106ff565b34801561033857600080fd5b506102ee610347366004611e7b565b610782565b34801561035857600080fd5b50610208610367366004611dd0565b610861565b34801561037857600080fd5b506102ee610883565b34801561038d57600080fd5b506102ee61039c366004611e36565b6108a3565b6102ee6103af366004611f35565b6108ad565b3480156103c057600080fd5b50610270610979565b3480156103d557600080fd5b5061012d5460ff16610208565b3480156103ee57600080fd5b506102706103fd366004611e7b565b610a2c565b34801561040e57600080fd5b506102ee610a5d565b34801561042357600080fd5b506102ee610432366004611dd0565b610a71565b34801561044357600080fd5b506102ee610a86565b34801561045857600080fd5b506097546040516001600160a01b039091168152602001610214565b34801561048057600080fd5b5061020861048f366004611e4f565b610aa6565b3480156104a057600080fd5b50610232610ad1565b3480156104b557600080fd5b506102ee6104c4366004611fb7565b610ae0565b3480156104d557600080fd5b50610270600081565b3480156104ea57600080fd5b506102086104f9366004611dd0565b610c9b565b34801561050a57600080fd5b50610208610519366004611dd0565b610d21565b34801561052a57600080fd5b506102707f9f2df0fed2c77648de5860a4cc508cd0818c85b8b8a1ab4ceeef8d981c8956a681565b34801561055e57600080fd5b506102ee61056d366004611e4f565b610d38565b34801561057e57600080fd5b5061027061058d3660046120aa565b610d5d565b34801561059e57600080fd5b5061027060008051602061245083398151915281565b3480156105c057600080fd5b506102ee6105cf366004611e7b565b610d88565b60006001600160e01b03198216637965db0b60e01b148061060557506301ffc9a760e01b6001600160e01b03198316145b92915050565b60606036805461061a906120d4565b80601f0160208091040260200160405190810160405280929190818152602001828054610646906120d4565b80156106935780601f1061066857610100808354040283529160200191610693565b820191906000526020600020905b81548152906001019060200180831161067657829003601f168201915b5050505050905090565b6000336106ab818585610dfe565b5060019392505050565b60006106c2846001610f22565b6106cd848484610fe3565b949350505050565b600082815260fb60205260409020600101546106f081610ffc565b6106fa8383611006565b505050565b6001600160a01b03811633146107745760405162461bcd60e51b815260206004820152602f60248201527f416363657373436f6e74726f6c3a2063616e206f6e6c792072656e6f756e636560448201526e103937b632b9903337b91039b2b63360891b60648201526084015b60405180910390fd5b61077e828261108c565b5050565b6001600160a01b037f00000000000000000000000000000000000000000000000000000000000000001630036107ca5760405162461bcd60e51b815260040161076b9061210e565b7f00000000000000000000000000000000000000000000000000000000000000006001600160a01b0316610813600080516020612430833981519152546001600160a01b031690565b6001600160a01b0316146108395760405162461bcd60e51b815260040161076b9061215a565b610842816110f3565b6040805160008082526020820190925261085e918391906110fb565b50565b6000336106ab8185856108748383610d5d565b61087e91906121bc565b610dfe565b60008051602061245083398151915261089b81610ffc565b61085e611266565b61085e33826112b9565b6001600160a01b037f00000000000000000000000000000000000000000000000000000000000000001630036108f55760405162461bcd60e51b815260040161076b9061210e565b7f00000000000000000000000000000000000000000000000000000000000000006001600160a01b031661093e600080516020612430833981519152546001600160a01b031690565b6001600160a01b0316146109645760405162461bcd60e51b815260040161076b9061215a565b61096d826110f3565b61077e828260016110fb565b6000306001600160a01b037f00000000000000000000000000000000000000000000000000000000000000001614610a195760405162461bcd60e51b815260206004820152603860248201527f555550535570677261646561626c653a206d757374206e6f742062652063616c60448201527f6c6564207468726f7567682064656c656761746563616c6c0000000000000000606482015260840161076b565b5060008051602061243083398151915290565b6001600160a01b03811660009081526033602052604081205460018111610a54576001610a56565b805b9392505050565b610a656113ed565b610a6f6000611447565b565b610a7c823383611499565b61077e82826112b9565b600080516020612450833981519152610a9e81610ffc565b61085e61150d565b600091825260fb602090815260408084206001600160a01b0393909316845291905290205460ff1690565b60606037805461061a906120d4565b600054610100900460ff1615808015610b005750600054600160ff909116105b80610b1a5750303b158015610b1a575060005460ff166001145b610b7d5760405162461bcd60e51b815260206004820152602e60248201527f496e697469616c697a61626c653a20636f6e747261637420697320616c72656160448201526d191e481a5b9a5d1a585b1a5e995960921b606482015260840161076b565b6000805460ff191660011790558015610ba0576000805461ff0019166101001790555b610baa838361154b565b610bb261157c565b610bba6115a3565b610bc261157c565b610bca6115d2565b610be260008051602061245083398151915233611601565b610bed600033611601565b60005b8451811015610c4e57610c3c7f9f2df0fed2c77648de5860a4cc508cd0818c85b8b8a1ab4ceeef8d981c8956a6868381518110610c2f57610c2f6121cf565b6020026020010151611601565b80610c46816121e5565b915050610bf0565b508015610c95576000805461ff0019169055604051600181527f7f26b83ff96e1f2b6a682f133852f6798a09c465da95921460cefb38474024989060200160405180910390a15b50505050565b60003381610ca98286610d5d565b905083811015610d095760405162461bcd60e51b815260206004820152602560248201527f45524332303a2064656372656173656420616c6c6f77616e63652062656c6f77604482015264207a65726f60d81b606482015260840161076b565b610d168286868403610dfe565b506001949350505050565b6000610d2e336001610f22565b610a56838361160b565b600082815260fb6020526040902060010154610d5381610ffc565b6106fa838361108c565b6001600160a01b03918216600090815260346020908152604080832093909416825291909152205490565b610d906113ed565b6001600160a01b038116610df55760405162461bcd60e51b815260206004820152602660248201527f4f776e61626c653a206e6577206f776e657220697320746865207a65726f206160448201526564647265737360d01b606482015260840161076b565b61085e81611447565b6001600160a01b038316610e605760405162461bcd60e51b8152602060048201526024808201527f45524332303a20617070726f76652066726f6d20746865207a65726f206164646044820152637265737360e01b606482015260840161076b565b6001600160a01b038216610ec15760405162461bcd60e51b815260206004820152602260248201527f45524332303a20617070726f766520746f20746865207a65726f206164647265604482015261737360f01b606482015260840161076b565b6001600160a01b0383811660008181526034602090815260408083209487168084529482529182902085905590518481527f8c5be1e5ebec7d5bd14f71427d1e84f3dd0314c0f7b2291e5b200ac8c7c3b925910160405180910390a3505050565b6001600160a01b038216610f785760405162461bcd60e51b815260206004820152601f60248201527f45524332303a206d696e7420746f20746865207a65726f206164647265737300604482015260640161076b565b8060356000828254610f8a91906121bc565b90915550506001600160a01b0382166000818152603360209081526040808320805486019055518481527fddf252ad1be2c89b69c2b068fc378daa952ba7f163c4a11628f55a4df523b3ef910160405180910390a35050565b600033610ff1858285611499565b610d16858585611615565b61085e81336117c0565b6110108282610aa6565b61077e57600082815260fb602090815260408083206001600160a01b03851684529091529020805460ff191660011790556110483390565b6001600160a01b0316816001600160a01b0316837f2f8788117e7eff1d82e926ec794901d17c78024a50270940304540a733656f0d60405160405180910390a45050565b6110968282610aa6565b1561077e57600082815260fb602090815260408083206001600160a01b0385168085529252808320805460ff1916905551339285917ff6391f5c32d9c69d2a47ea670b442974b53935d1edc7fd64eb21e047a839171b9190a45050565b61085e6113ed565b7f4910fdfa16fed3260ed0e7147f7cc6da11a60208b5b9406d12a635614ffd91435460ff161561112e576106fa83611819565b826001600160a01b03166352d1902d6040518163ffffffff1660e01b8152600401602060405180830381865afa925050508015611188575060408051601f3d908101601f19168201909252611185918101906121fe565b60015b6111eb5760405162461bcd60e51b815260206004820152602e60248201527f45524331393637557067726164653a206e657720696d706c656d656e7461746960448201526d6f6e206973206e6f74205555505360901b606482015260840161076b565b600080516020612430833981519152811461125a5760405162461bcd60e51b815260206004820152602960248201527f45524331393637557067726164653a20756e737570706f727465642070726f786044820152681a58589b195555525160ba1b606482015260840161076b565b506106fa8383836118b5565b61126e6118da565b61012d805460ff191690557f5db9ee0a495bf2e6ff9c91a7834c1ba4fdd244a5e8aa4e537bd38aeae4b073aa335b6040516001600160a01b03909116815260200160405180910390a1565b6001600160a01b0382166113195760405162461bcd60e51b815260206004820152602160248201527f45524332303a206275726e2066726f6d20746865207a65726f206164647265736044820152607360f81b606482015260840161076b565b6001600160a01b0382166000908152603360205260409020548181101561138d5760405162461bcd60e51b815260206004820152602260248201527f45524332303a206275726e20616d6f756e7420657863656564732062616c616e604482015261636560f01b606482015260840161076b565b6001600160a01b03831660008181526033602090815260408083208686039055603580548790039055518581529192917fddf252ad1be2c89b69c2b068fc378daa952ba7f163c4a11628f55a4df523b3ef910160405180910390a3505050565b6097546001600160a01b03163314610a6f5760405162461bcd60e51b815260206004820181905260248201527f4f776e61626c653a2063616c6c6572206973206e6f7420746865206f776e6572604482015260640161076b565b609780546001600160a01b038381166001600160a01b0319831681179093556040519116919082907f8be0079c531659141344cd1fd0a4f28419497f9722a3daafe3b4186f6b6457e090600090a35050565b60006114a58484610d5d565b90506000198114610c9557818110156115005760405162461bcd60e51b815260206004820152601d60248201527f45524332303a20696e73756666696369656e7420616c6c6f77616e6365000000604482015260640161076b565b610c958484848403610dfe565b611515611924565b61012d805460ff191660011790557f62e78cea01bee320cd4e420270b5ea74000d11b0c9f74754ebdbfc544b05a25861129c3390565b600054610100900460ff166115725760405162461bcd60e51b815260040161076b90612217565b61077e828261196b565b600054610100900460ff16610a6f5760405162461bcd60e51b815260040161076b90612217565b600054610100900460ff166115ca5760405162461bcd60e51b815260040161076b90612217565b610a6f6119ab565b600054610100900460ff166115f95760405162461bcd60e51b815260040161076b90612217565b610a6f6119db565b61077e8282611006565b6000336106ab8185855b6001600160a01b0383166116795760405162461bcd60e51b815260206004820152602560248201527f45524332303a207472616e736665722066726f6d20746865207a65726f206164604482015264647265737360d81b606482015260840161076b565b6001600160a01b0382166116db5760405162461bcd60e51b815260206004820152602360248201527f45524332303a207472616e7366657220746f20746865207a65726f206164647260448201526265737360e81b606482015260840161076b565b6001600160a01b038316600090815260336020526040902054818110156117535760405162461bcd60e51b815260206004820152602660248201527f45524332303a207472616e7366657220616d6f756e7420657863656564732062604482015265616c616e636560d01b606482015260840161076b565b6001600160a01b0380851660008181526033602052604080822086860390559286168082529083902080548601905591517fddf252ad1be2c89b69c2b068fc378daa952ba7f163c4a11628f55a4df523b3ef906117b39086815260200190565b60405180910390a3610c95565b6117ca8282610aa6565b61077e576117d781611a0f565b6117e2836020611a21565b6040516020016117f3929190612262565b60408051601f198184030181529082905262461bcd60e51b825261076b91600401611d81565b6001600160a01b0381163b6118865760405162461bcd60e51b815260206004820152602d60248201527f455243313936373a206e657720696d706c656d656e746174696f6e206973206e60448201526c1bdd08184818dbdb9d1c9858dd609a1b606482015260840161076b565b60008051602061243083398151915280546001600160a01b0319166001600160a01b0392909216919091179055565b6118be83611bbd565b6000825111806118cb5750805b156106fa57610c958383611bfd565b61012d5460ff16610a6f5760405162461bcd60e51b815260206004820152601460248201527314185d5cd8589b194e881b9bdd081c185d5cd95960621b604482015260640161076b565b61012d5460ff1615610a6f5760405162461bcd60e51b815260206004820152601060248201526f14185d5cd8589b194e881c185d5cd95960821b604482015260640161076b565b600054610100900460ff166119925760405162461bcd60e51b815260040161076b90612217565b603661199e8382612325565b5060376106fa8282612325565b600054610100900460ff166119d25760405162461bcd60e51b815260040161076b90612217565b610a6f33611447565b600054610100900460ff16611a025760405162461bcd60e51b815260040161076b90612217565b61012d805460ff19169055565b60606106056001600160a01b03831660145b60606000611a308360026123e5565b611a3b9060026121bc565b67ffffffffffffffff811115611a5357611a53611e96565b6040519080825280601f01601f191660200182016040528015611a7d576020820181803683370190505b509050600360fc1b81600081518110611a9857611a986121cf565b60200101906001600160f81b031916908160001a905350600f60fb1b81600181518110611ac757611ac76121cf565b60200101906001600160f81b031916908160001a9053506000611aeb8460026123e5565b611af69060016121bc565b90505b6001811115611b6e576f181899199a1a9b1b9c1cb0b131b232b360811b85600f1660108110611b2a57611b2a6121cf565b1a60f81b828281518110611b4057611b406121cf565b60200101906001600160f81b031916908160001a90535060049490941c93611b67816123fc565b9050611af9565b508315610a565760405162461bcd60e51b815260206004820181905260248201527f537472696e67733a20686578206c656e67746820696e73756666696369656e74604482015260640161076b565b611bc681611819565b6040516001600160a01b038216907fbc7cd75a20ee27fd9adebab32041f755214dbc6bffa90cc0225b39da2e5c2d3b90600090a250565b6060610a568383604051806060016040528060278152602001612470602791396060600080856001600160a01b031685604051611c3a9190612413565b600060405180830381855af49150503d8060008114611c75576040519150601f19603f3d011682016040523d82523d6000602084013e611c7a565b606091505b5091509150611c8b86838387611c95565b9695505050505050565b60608315611d04578251600003611cfd576001600160a01b0385163b611cfd5760405162461bcd60e51b815260206004820152601d60248201527f416464726573733a2063616c6c20746f206e6f6e2d636f6e7472616374000000604482015260640161076b565b50816106cd565b6106cd8383815115611d195781518083602001fd5b8060405162461bcd60e51b815260040161076b9190611d81565b600060208284031215611d4557600080fd5b81356001600160e01b031981168114610a5657600080fd5b60005b83811015611d78578181015183820152602001611d60565b50506000910152565b6020815260008251806020840152611da0816040850160208701611d5d565b601f01601f19169190910160400192915050565b80356001600160a01b0381168114611dcb57600080fd5b919050565b60008060408385031215611de357600080fd5b611dec83611db4565b946020939093013593505050565b600080600060608486031215611e0f57600080fd5b611e1884611db4565b9250611e2660208501611db4565b9150604084013590509250925092565b600060208284031215611e4857600080fd5b5035919050565b60008060408385031215611e6257600080fd5b82359150611e7260208401611db4565b90509250929050565b600060208284031215611e8d57600080fd5b610a5682611db4565b634e487b7160e01b600052604160045260246000fd5b604051601f8201601f1916810167ffffffffffffffff81118282101715611ed557611ed5611e96565b604052919050565b600067ffffffffffffffff831115611ef757611ef7611e96565b611f0a601f8401601f1916602001611eac565b9050828152838383011115611f1e57600080fd5b828260208301376000602084830101529392505050565b60008060408385031215611f4857600080fd5b611f5183611db4565b9150602083013567ffffffffffffffff811115611f6d57600080fd5b8301601f81018513611f7e57600080fd5b611f8d85823560208401611edd565b9150509250929050565b600082601f830112611fa857600080fd5b610a5683833560208501611edd565b600080600060608486031215611fcc57600080fd5b833567ffffffffffffffff80821115611fe457600080fd5b818601915086601f830112611ff857600080fd5b813560208282111561200c5761200c611e96565b8160051b61201b828201611eac565b928352848101820192828101908b85111561203557600080fd5b958301955b8487101561205a5761204b87611db4565b8252958301959083019061203a565b985050508701359250508082111561207157600080fd5b61207d87838801611f97565b9350604086013591508082111561209357600080fd5b506120a086828701611f97565b9150509250925092565b600080604083850312156120bd57600080fd5b6120c683611db4565b9150611e7260208401611db4565b600181811c908216806120e857607f821691505b60208210810361210857634e487b7160e01b600052602260045260246000fd5b50919050565b6020808252602c908201527f46756e6374696f6e206d7573742062652063616c6c6564207468726f7567682060408201526b19195b1959d85d1958d85b1b60a21b606082015260800190565b6020808252602c908201527f46756e6374696f6e206d7573742062652063616c6c6564207468726f7567682060408201526b6163746976652070726f787960a01b606082015260800190565b634e487b7160e01b600052601160045260246000fd5b80820180821115610605576106056121a6565b634e487b7160e01b600052603260045260246000fd5b6000600182016121f7576121f76121a6565b5060010190565b60006020828403121561221057600080fd5b5051919050565b6020808252602b908201527f496e697469616c697a61626c653a20636f6e7472616374206973206e6f74206960408201526a6e697469616c697a696e6760a81b606082015260800190565b7f416363657373436f6e74726f6c3a206163636f756e742000000000000000000081526000835161229a816017850160208801611d5d565b7001034b99036b4b9b9b4b733903937b6329607d1b60179184019182015283516122cb816028840160208801611d5d565b01602801949350505050565b601f8211156106fa57600081815260208120601f850160051c810160208610156122fe5750805b601f850160051c820191505b8181101561231d5782815560010161230a565b505050505050565b815167ffffffffffffffff81111561233f5761233f611e96565b6123538161234d84546120d4565b846122d7565b602080601f83116001811461238857600084156123705750858301515b600019600386901b1c1916600185901b17855561231d565b600085815260208120601f198616915b828110156123b757888601518255948401946001909101908401612398565b50858210156123d55787850151600019600388901b60f8161c191681555b5050505050600190811b01905550565b8082028115828204841417610605576106056121a6565b60008161240b5761240b6121a6565b506000190190565b60008251612425818460208701611d5d565b919091019291505056fe360894a13ba1a3210667c828492db98dca3e2076cc3735a920a3ca505d382bbc65d7a28e3265b37a6474929f336521b332c1681b933f6cb9f3376673440d862a416464726573733a206c6f772d6c6576656c2064656c65676174652063616c6c206661696c6564a2646970667358221220e533c761cc39e8f6dd7fd0fb5f48c91a048b31cd593d86ba98703d905bbd2b5b64736f6c63430008140033",
  "linkReferences": {},
  "deployedLinkReferences": {}
}