{
  "_format": "hh-sol-artifact-1",
  "contractName": "TokenEntryPoint",
  "sourceName": "contracts/accounts/TokenEntryPoint.sol",
  "abi": [
    {
      "inputs": [
        {
          "internalType": "contract INonceManager",
          "name": "anEntryPoint",
          "type": "address"
        }
      ],
      "stateMutability": "nonpayable",
      "type": "constructor"
    },
    {
      "anonymous": false,
      "inputs": [
        {
          "indexed": false,
          "internalType": "address",
          "name": "previousAdmin",
          "type": "address"
        },
        {
          "indexed": false,
          "internalType": "address",
          "name": "newAdmin",
          "type": "address"
        }
      ],
      "name": "AdminChanged",
      "type": "event"
    },
    {
      "anonymous": false,
      "inputs": [
        {
          "indexed": true,
          "internalType": "address",
          "name": "beacon",
          "type": "address"
        }
      ],
      "name": "BeaconUpgraded",
      "type": "event"
    },
    {
      "anonymous": false,
      "inputs": [
        {
          "indexed": false,
          "internalType": "uint8",
          "name": "version",
          "type": "uint8"
        }
      ],
      "name": "Initialized",
      "type": "event"
    },
    {
      "anonymous": false,
      "inputs": [
        {
          "indexed": true,
          "internalType": "address",
          "name": "previousOwner",
          "type": "address"
        },
        {
          "indexed": true,
          "internalType": "address",
          "name": "newOwner",
          "type": "address"
        }
      ],
      "name": "OwnershipTransferred",
      "type": "event"
    },
    {
      "anonymous": false,
      "inputs": [
        {
          "indexed": true,
          "internalType": "address",
          "name": "implementation",
          "type": "address"
        }
      ],
      "name": "Upgraded",
      "type": "event"
    },
    {
      "inputs": [
        {
          "internalType": "address",
          "name": "sender",
          "type": "address"
        },
        {
          "internalType": "uint192",
          "name": "key",
          "type": "uint192"
        }
      ],
      "name": "getNonce",
      "outputs": [
        {
          "internalType": "uint256",
          "name": "nonce",
          "type": "uint256"
        }
      ],
      "stateMutability": "view",
      "type": "function"
    },
    {
      "inputs": [
        {
          "components": [
            {
              "internalType": "address",
              "name": "sender",
              "type": "address"
            },
            {
              "internalType": "uint256",
              "name": "nonce",
              "type": "uint256"
            },
            {
              "internalType": "bytes",
              "name": "initCode",
              "type": "bytes"
            },
            {
              "internalType": "bytes",
              "name": "callData",
              "type": "bytes"
            },
            {
              "internalType": "uint256",
              "name": "callGasLimit",
              "type": "uint256"
            },
            {
              "internalType": "uint256",
              "name": "verificationGasLimit",
              "type": "uint256"
            },
            {
              "internalType": "uint256",
              "name": "preVerificationGas",
              "type": "uint256"
            },
            {
              "internalType": "uint256",
              "name": "maxFeePerGas",
              "type": "uint256"
            },
            {
              "internalType": "uint256",
              "name": "maxPriorityFeePerGas",
              "type": "uint256"
            },
            {
              "internalType": "bytes",
              "name": "paymasterAndData",
              "type": "bytes"
            },
            {
              "internalType": "bytes",
              "name": "signature",
              "type": "bytes"
            }
          ],
          "internalType": "struct UserOperation",
          "name": "userOp",
          "type": "tuple"
        }
      ],
      "name": "getUserOpHash",
      "outputs": [
        {
          "internalType": "bytes32",
          "name": "",
          "type": "bytes32"
        }
      ],
      "stateMutability": "view",
      "type": "function"
    },
    {
      "inputs": [
        {
          "components": [
            {
              "internalType": "address",
              "name": "sender",
              "type": "address"
            },
            {
              "internalType": "uint256",
              "name": "nonce",
              "type": "uint256"
            },
            {
              "internalType": "bytes",
              "name": "initCode",
              "type": "bytes"
            },
            {
              "internalType": "bytes",
              "name": "callData",
              "type": "bytes"
            },
            {
              "internalType": "uint256",
              "name": "callGasLimit",
              "type": "uint256"
            },
            {
              "internalType": "uint256",
              "name": "verificationGasLimit",
              "type": "uint256"
            },
            {
              "internalType": "uint256",
              "name": "preVerificationGas",
              "type": "uint256"
            },
            {
              "internalType": "uint256",
              "name": "maxFeePerGas",
              "type": "uint256"
            },
            {
              "internalType": "uint256",
              "name": "maxPriorityFeePerGas",
              "type": "uint256"
            },
            {
              "internalType": "bytes",
              "name": "paymasterAndData",
              "type": "bytes"
            },
            {
              "internalType": "bytes",
              "name": "signature",
              "type": "bytes"
            }
          ],
          "internalType": "struct UserOperation[]",
          "name": "ops",
          "type": "tuple[]"
        },
        {
          "internalType": "address payable",
          "name": "beneficiary",
          "type": "address"
        }
      ],
      "name": "handleOps",
      "outputs": [],
      "stateMutability": "nonpayable",
      "type": "function"
    },
    {
      "inputs": [
        {
          "internalType": "uint192",
          "name": "key",
          "type": "uint192"
        }
      ],
      "name": "incrementNonce",
      "outputs": [],
      "stateMutability": "nonpayable",
      "type": "function"
    },
    {
      "inputs": [
        {
          "internalType": "address",
          "name": "anOwner",
          "type": "address"
        },
        {
          "internalType": "address",
          "name": "aPaymaster",
          "type": "address"
        },
        {
          "internalType": "address[]",
          "name": "addresses",
          "type": "address[]"
        }
      ],
      "name": "initialize",
      "outputs": [],
      "stateMutability": "nonpayable",
      "type": "function"
    },
    {
      "inputs": [
        {
          "internalType": "address",
          "name": "",
          "type": "address"
        },
        {
          "internalType": "uint192",
          "name": "",
          "type": "uint192"
        }
      ],
      "name": "nonceSequenceNumber",
      "outputs": [
        {
          "internalType": "uint256",
          "name": "",
          "type": "uint256"
        }
      ],
      "stateMutability": "view",
      "type": "function"
    },
    {
      "inputs": [],
      "name": "owner",
      "outputs": [
        {
          "internalType": "address",
          "name": "",
          "type": "address"
        }
      ],
      "stateMutability": "view",
      "type": "function"
    },
    {
      "inputs": [],
      "name": "paymaster",
      "outputs": [
        {
          "internalType": "address",
          "name": "",
          "type": "address"
        }
      ],
      "stateMutability": "view",
      "type": "function"
    },
    {
      "inputs": [],
      "name": "proxiableUUID",
      "outputs": [
        {
          "internalType": "bytes32",
          "name": "",
          "type": "bytes32"
        }
      ],
      "stateMutability": "view",
      "type": "function"
    },
    {
      "inputs": [],
      "name": "renounceOwnership",
      "outputs": [],
      "stateMutability": "nonpayable",
      "type": "function"
    },
    {
      "inputs": [
        {
          "internalType": "address",
          "name": "newOwner",
          "type": "address"
        }
      ],
      "name": "transferOwnership",
      "outputs": [],
      "stateMutability": "nonpayable",
      "type": "function"
    },
    {
      "inputs": [
        {
          "internalType": "address",
          "name": "newPaymaster",
          "type": "address"
        }
      ],
      "name": "updatePaymaster",
      "outputs": [],
      "stateMutability": "nonpayable",
      "type": "function"
    },
    {
      "inputs": [
        {
          "internalType": "address[]",
          "name": "addresses",
          "type": "address[]"
        }
      ],
      "name": "updateWhitelist",
      "outputs": [],
      "stateMutability": "nonpayable",
      "type": "function"
    },
    {
      "inputs": [
        {
          "internalType": "address",
          "name": "newImplementation",
          "type": "address"
        }
      ],
      "name": "upgradeTo",
      "outputs": [],
      "stateMutability": "nonpayable",
      "type": "function"
    },
    {
      "inputs": [
        {
          "internalType": "address",
          "name": "newImplementation",
          "type": "address"
        },
        {
          "internalType": "bytes",
          "name": "data",
          "type": "bytes"
        }
      ],
      "name": "upgradeToAndCall",
      "outputs": [],
      "stateMutability": "payable",
      "type": "function"
    }
  ],
  "bytecode": "0x60c0346200013757601f6200279938819003918201601f19168301916001600160401b038311848410176200013c578084926020946040528339810103126200013757516001600160a01b038116810362000137573060805260a05260005460ff8160081c16620000e25760ff80821603620000a6575b6040516126469081620001538239608051818181610489015281816106d201526107e7015260a051816113e40152f35b60ff90811916176000557f7f26b83ff96e1f2b6a682f133852f6798a09c465da95921460cefb3847402498602060405160ff8152a13862000076565b60405162461bcd60e51b815260206004820152602760248201527f496e697469616c697a61626c653a20636f6e747261637420697320696e697469604482015266616c697a696e6760c81b6064820152608490fd5b600080fd5b634e487b7160e01b600052604160045260246000fdfe6080604052600436101561001257600080fd5b60003560e01c80630bd28e3b1461010757806316e4cbf9146101025780631b2e01b8146100fd5780631fad948c146100f857806335377214146100f357806335567e1a146100ee5780633659cfe6146100e95780634f1ef286146100e457806352d1902d146100df578063715018a6146100da57806377a24f36146100d55780638da5cb5b146100d0578063a6193531146100cb578063daf6a3f6146100c65763f2fde38b146100c157600080fd5b610b03565b610a7c565b610a3d565b610a14565b6108fa565b610899565b6107d4565b610691565b610462565b61042a565b61039e565b610225565b61019b565b610154565b610127565b602435906001600160c01b038216820361012257565b600080fd5b34610122576020366003190112610122576004356001600160c01b0381160361012257610152610b94565b005b346101225760003660031901126101225760fc546040516001600160a01b039091168152602090f35b6001600160a01b0381160361012257565b35906101998261017d565b565b34610122576040366003190112610122576004356101b88161017d565b6101c061010c565b9060018060a01b031660005260fd60205260406000209060018060c01b03166000526020526020604060002054604051908152f35b9181601f84011215610122578235916001600160401b038311610122576020808501948460051b01011161012257565b34610122576040366003190112610122576004356001600160401b038111610122576102559036906004016101f5565b61026060243561017d565b6001916002835414610359576002835581156103055760005b8281106102895761015260018055565b806102ff6102998693868661145c565b80356001600160a01b0316906102f9906102f2906102df60208201356001600160401b038116906102ce9060401c87856114b6565b6102d88684612015565b85836116b3565b6102e881611ade565b6060810190611484565b369161063c565b90612434565b01610279565b60405162461bcd60e51b815260206004820152602660248201527f41413432206e65656473206174206c65617374206f6e652075736572206f70656044820152653930ba34b7b760d11b6064820152608490fd5b60405162461bcd60e51b815260206004820152601f60248201527f5265656e7472616e637947756172643a207265656e7472616e742063616c6c006044820152606490fd5b3461012257602080600319360112610122576004356001600160401b038111610122576103cf9036906004016101f5565b906103d8610b94565b60ff6103e48154611fdc565b815560005b8381106103f257005b6104259082548160051b8501356104088161017d565b6001600160a01b0316600090815261010088526040902055611fdc565b6103e9565b3461012257604036600319011261012257602061045a60043561044c8161017d565b61045461010c565b906113ab565b604051908152f35b346101225760203660031901126101225760043561047f8161017d565b6001600160a01b037f0000000000000000000000000000000000000000000000000000000000000000811691906104b830841415610c35565b6104d56000805160206125f1833981519152938285541614610c96565b6104dd610b94565b604051906104ea826105e5565b600082527f4910fdfa16fed3260ed0e7147f7cc6da11a60208b5b9406d12a635614ffd91435460ff16156105245750506101529150610dbf565b6020600491604094939451928380926352d1902d60e01b825286165afa6000918161057f575b5061056c5760405162461bcd60e51b81528061056860048201610d70565b0390fd5b6101529361057a9114610d12565b610e4f565b6105a191925060203d81116105a8575b6105998183610600565b810190610cf7565b903861054a565b503d61058f565b634e487b7160e01b600052604160045260246000fd5b606081019081106001600160401b038211176105e057604052565b6105af565b602081019081106001600160401b038211176105e057604052565b90601f801991011681019081106001600160401b038211176105e057604052565b6001600160401b0381116105e057601f01601f191660200190565b92919261064882610621565b916106566040519384610600565b829481845281830111610122578281602093846000960137010152565b9080601f830112156101225781602061068e9335910161063c565b90565b6040366003190112610122576004356106a98161017d565b6024356001600160401b038111610122576106c8903690600401610673565b6001600160a01b037f0000000000000000000000000000000000000000000000000000000000000000811692919061070230851415610c35565b61071f6000805160206125f1833981519152948286541614610c96565b610727610b94565b7f4910fdfa16fed3260ed0e7147f7cc6da11a60208b5b9406d12a635614ffd91435460ff161561075d5750506101529150610dbf565b6020600491604094939451928380926352d1902d60e01b825286165afa600091816107b4575b506107a15760405162461bcd60e51b81528061056860048201610d70565b610152936107af9114610d12565b610f0b565b6107cd91925060203d81116105a8576105998183610600565b9038610783565b34610122576000366003190112610122577f00000000000000000000000000000000000000000000000000000000000000006001600160a01b0316300361082e576040516000805160206125f18339815191528152602090f35b60405162461bcd60e51b815260206004820152603860248201527f555550535570677261646561626c653a206d757374206e6f742062652063616c60448201527f6c6564207468726f7567682064656c656761746563616c6c00000000000000006064820152608490fd5b34610122576000806003193601126108f7576108b3610b94565b606580546001600160a01b0319811690915581906001600160a01b03167f8be0079c531659141344cd1fd0a4f28419497f9722a3daafe3b4186f6b6457e08280a380f35b80fd5b34610122576060366003190112610122576004356109178161017d565b6024356109238161017d565b604435906001600160401b038211610122576109466109889236906004016101f5565b916000549461096c60ff8760081c161580978198610a06575b81156109e6575b5061106e565b8561097f600160ff196000541617600055565b6109cd576110d1565b61098e57005b61099e61ff001960005416600055565b604051600181527f7f26b83ff96e1f2b6a682f133852f6798a09c465da95921460cefb384740249890602090a1005b6109e161010061ff00196000541617600055565b6110d1565b303b159150816109f8575b5038610966565b6001915060ff1614386109f1565b600160ff821610915061095f565b34610122576000366003190112610122576065546040516001600160a01b039091168152602090f35b346101225760031960203682011261012257600435906001600160401b038211610122576101609082360301126101225761045a6020916004016123f2565b3461012257602036600319011261012257600435610a998161017d565b610aa1610b94565b803b15610aca5760fc80546001600160a01b0319166001600160a01b0392909216919091179055005b60405162461bcd60e51b815260206004820152601160248201527034b73b30b634b2103830bcb6b0b9ba32b960791b6044820152606490fd5b3461012257602036600319011261012257600435610b208161017d565b610b28610b94565b6001600160a01b03811615610b405761015290610bec565b60405162461bcd60e51b815260206004820152602660248201527f4f776e61626c653a206e6577206f776e657220697320746865207a65726f206160448201526564647265737360d01b6064820152608490fd5b6065546001600160a01b03163303610ba857565b606460405162461bcd60e51b815260206004820152602060248201527f4f776e61626c653a2063616c6c6572206973206e6f7420746865206f776e65726044820152fd5b606580546001600160a01b039283166001600160a01b0319821681179092559091167f8be0079c531659141344cd1fd0a4f28419497f9722a3daafe3b4186f6b6457e0600080a3565b15610c3c57565b60405162461bcd60e51b815260206004820152602c60248201527f46756e6374696f6e206d7573742062652063616c6c6564207468726f7567682060448201526b19195b1959d85d1958d85b1b60a21b6064820152608490fd5b15610c9d57565b60405162461bcd60e51b815260206004820152602c60248201527f46756e6374696f6e206d7573742062652063616c6c6564207468726f7567682060448201526b6163746976652070726f787960a01b6064820152608490fd5b90816020910312610122575190565b6040513d6000823e3d90fd5b15610d1957565b60405162461bcd60e51b815260206004820152602960248201527f45524331393637557067726164653a20756e737570706f727465642070726f786044820152681a58589b195555525160ba1b6064820152608490fd5b60809060208152602e60208201527f45524331393637557067726164653a206e657720696d706c656d656e7461746960408201526d6f6e206973206e6f74205555505360901b60608201520190565b803b15610df4576000805160206125f183398151915280546001600160a01b0319166001600160a01b03909216919091179055565b60405162461bcd60e51b815260206004820152602d60248201527f455243313936373a206e657720696d706c656d656e746174696f6e206973206e60448201526c1bdd08184818dbdb9d1c9858dd609a1b6064820152608490fd5b90610e5982610dbf565b6001600160a01b0382167fbc7cd75a20ee27fd9adebab32041f755214dbc6bffa90cc0225b39da2e5c2d3b600080a2805115801590610f03575b610e9b575050565b610f009160008060405193610eaf856105c5565b602785527f416464726573733a206c6f772d6c6576656c2064656c65676174652063616c6c6020860152660819985a5b195960ca1b6040860152602081519101845af4610efa610f5e565b91610fda565b50565b506000610e93565b90610f1582610dbf565b6001600160a01b0382167fbc7cd75a20ee27fd9adebab32041f755214dbc6bffa90cc0225b39da2e5c2d3b600080a2805115801590610f5657610e9b575050565b506001610e93565b3d15610f89573d90610f6f82610621565b91610f7d6040519384610600565b82523d6000602084013e565b606090565b15610f9557565b60405162461bcd60e51b815260206004820152601d60248201527f416464726573733a2063616c6c20746f206e6f6e2d636f6e74726163740000006044820152606490fd5b91929015610ffa5750815115610fee575090565b61068e903b1515610f8e565b82519091501561100d5750805190602001fd5b6044604051809262461bcd60e51b82526020600483015261103d815180928160248601526020868601910161104b565b601f01601f19168101030190fd5b60005b83811061105e5750506000910152565b818101518382015260200161104e565b1561107557565b60405162461bcd60e51b815260206004820152602e60248201527f496e697469616c697a61626c653a20636f6e747261637420697320616c72656160448201526d191e481a5b9a5d1a585b1a5e995960921b6064820152608490fd5b909161115b610199946110f460ff60005460081c166110ef816111bb565b6111bb565b6110fd33610bec565b6000549261113f60ff8560081c16611114816111bb565b61111d816111bb565b611126816111bb565b600180551580958196610a065781156109e6575061106e565b83611152600160ff196000541617600055565b6111a257612399565b156112af5761117061ff001960005416600055565b604051600181527f7f26b83ff96e1f2b6a682f133852f6798a09c465da95921460cefb384740249890602090a16112af565b6111b661010061ff00196000541617600055565b612399565b156111c257565b60405162461bcd60e51b815260206004820152602b60248201527f496e697469616c697a61626c653a20636f6e7472616374206973206e6f74206960448201526a6e697469616c697a696e6760a81b6064820152608490fd5b60405190604082018281106001600160401b038211176105e057604052601e82527f6578656375746528616464726573732c75696e743235362c62797465732900006020830152565b60405190611271826105c5565b60298252682c62797465735b5d2960b81b6040837f65786563757465426174636828616464726573735b5d2c75696e743235365b5d60208201520152565b906112b8610b94565b6001600160a01b03821615610b40576112d36112f592610bec565b60018060a01b03166bffffffffffffffffffffffff60a01b60fc54161760fc55565b6040516101948082018281106001600160401b038211176105e057829161245d833903906000f080156113a65760fb80546001600160a01b0319166001600160a01b0390921691909117905561137561136261134f61121b565b6020815191012063ffffffff60e01b1690565b60e01c63ffffffff1960fe54161760fe55565b61019961138361134f611264565b67ffffffff0000000060fe549160c01c169067ffffffff0000000019161760fe55565b610d06565b604051631aab3f0d60e11b81526001600160a01b0391821660048201526001600160c01b039092166024830152602090829060449082907f0000000000000000000000000000000000000000000000000000000000000000165afa9081156113a657600091611418575090565b906020823d821161143e575b8161143160209383610600565b810103126108f757505190565b3d9150611424565b634e487b7160e01b600052603260045260246000fd5b919081101561147f5760051b8101359061015e1981360301821215610122570190565b611446565b903590601e198136030182121561012257018035906001600160401b0382116101225760200191813603831361012257565b916114c3906020926113ab565b910135036114cd57565b60405162461bcd60e51b815260206004820152601a60248201527f4141323520696e76616c6964206163636f756e74206e6f6e63650000000000006044820152606490fd5b90816020910312610122575180151581036101225790565b9035601e19823603018112156101225701602081359101916001600160401b03821161012257813603831361012257565b908060209392818452848401376000828201840152601f01601f1916010190565b61068e9161159a8161158d8461018e565b6001600160a01b03169052565b602082013560208201526116356115e66115cb6115ba604086018661152a565b61016080604088015286019161155b565b6115d8606086018661152a565b90858303606087015261155b565b6080840135608084015260a084013560a084015260c084013560c084015260e084013560e084015261010080850135908401526101206116288186018661152a565b918584039086015261155b565b91611646610140918281019061152a565b92909181850391015261155b565b92919061166b60209160408652604086019061157c565b930152565b1561167757565b60405162461bcd60e51b815260206004820152601460248201527320a0991a1039b4b3b730ba3ab9329032b93937b960611b6044820152606490fd5b916001600160401b03161580611853575b61174b575b816020916116d96116f8946123f2565b916000604051809681958294637ff9adb960e11b845260048401611654565b03926001600160a01b03165af180156113a6576101999160009161171d575b50611670565b61173e915060203d8111611744575b6117368183610600565b810190611512565b38611717565b503d61172c565b81602061175e60406117d5950183611484565b9061176c601483101561185c565b61179961179461178e61178861178286866118a0565b906118bc565b60601c90565b3b151590565b6118ed565b60fb546117b6906001600160a01b03165b6001600160a01b031690565b906000604051809881958294632b870d1b60e11b84526004840161195d565b03925af19182156113a65761181d6020936116f895600091611826575b506118156001600160a01b038481169061180d82151561196e565b8316146119ba565b3b1515611a05565b915091506116c9565b6118469150853d811161184c575b61183e8183610600565b810190611948565b386117f2565b503d611834565b50803b156116c4565b1561186357565b60405162461bcd60e51b81526020600482015260156024820152744141313720696e76616c696420696e6974436f646560581b6044820152606490fd5b906014116101225790601490565b906004116101225790600490565b6bffffffffffffffffffffffff1990358181169392601481106118de57505050565b60140360031b82901b16169150565b156118f457565b60405162461bcd60e51b815260206004820152602660248201527f4141313620696e76616c696420666163746f7279206f7220646f6573206e6f7460448201526508195e1a5cdd60d21b6064820152608490fd5b90816020910312610122575161068e8161017d565b91602061068e93818152019161155b565b1561197557565b60405162461bcd60e51b815260206004820152601b60248201527f4141313320696e6974436f6465206661696c6564206f72204f4f4700000000006044820152606490fd5b156119c157565b606460405162461bcd60e51b815260206004820152602060248201527f4141313420696e6974436f6465206d7573742072657475726e2073656e6465726044820152fd5b15611a0c57565b606460405162461bcd60e51b815260206004820152602060248201527f4141313520696e6974436f6465206d757374206372656174652073656e6465726044820152fd5b91906040838203126101225782516001600160401b0381116101225783019080601f8301121561012257815191611a8683610621565b91611a946040519384610600565b8383526020848301011161012257602092611ab49184808501910161104b565b92015190565b604090611ad460009395949560608352606083019061157c565b9460208201520152565b6000611b1a91611af36117aa6117aa83611e01565b611afc82611bf8565b9183604051809681958294637a32e3bf60e11b845260048401611aba565b03925af180156113a657611b3691600091611bd5575b50611ce2565b906001600160a01b0316611b9957611b4a57565b60405162461bcd60e51b815260206004820152602160248201527f41413332207061796d61737465722065787069726564206f72206e6f742064756044820152606560f81b6064820152608490fd5b60405162461bcd60e51b815260206004820152601460248201527320a0999a1039b4b3b730ba3ab9329032b93937b960611b6044820152606490fd5b611bf0913d8091833e611be88183610600565b810190611a50565b905038611b30565b611c056040820182611484565b908160405191823720611cd1611c1e6060840184611484565b90816040519182372092611cc3611c42611c3c610120840184611484565b90611cd7565b6040805184356001600160a01b031660208083019182528601359282019290925260608101969096526080808701979097529583013560a08087019190915283013560c08087019190915283013560e08087019190915283013561010080870191909152909201356101208501526101408401919091528290610160820190565b03601f198101835282610600565b51902090565b816040519182372090565b8015611db357600060408051611cf7816105c5565b828152826020820152015265ffffffffffff90818160a01c16918215611da9575b50611d8b90611d72611d6760405194611d30866105c5565b6001600160a01b0384168652611d55602087019460d01c859065ffffffffffff169052565b65ffffffffffff166040860181905290565b65ffffffffffff1690565b4211908115611d8e575b5091516001600160a01b031690565b91565b51611da1915065ffffffffffff16611d67565b421038611d7c565b9150611d8b611d18565b50600090600090565b15611dc357565b60405162461bcd60e51b815260206004820152601660248201527520a0999a9034b73b30b634b2103830bcb6b0b9ba32b960511b6044820152606490fd5b611e1090610120810190611484565b60148110611e8f57601411610122573560601c803b15611e4a5760fc5461068e90611e43906001600160a01b03166117aa565b8214611dbc565b60405162461bcd60e51b815260206004820152601b60248201527f41413330207061796d6173746572206e6f74206465706c6f79656400000000006044820152606490fd5b60405162461bcd60e51b815260206004820152601b60248201527f4141333620696e76616c6964207061796d6173746572206461746100000000006044820152606490fd5b15611edb57565b60405162461bcd60e51b81526020600482015260156024820152744141323620696e76616c69642063616c6c6461746160581b6044820152606490fd5b6001600160e01b03199035818116939260048110611f3557505050565b60040360031b82901b16169150565b15611f4b57565b60405162461bcd60e51b815260206004820152601e60248201527f4141323720696e76616c69642066756e6374696f6e2073656c6563746f7200006044820152606490fd5b15611f9757565b60405162461bcd60e51b815260206004820152601d60248201527f4141323820636f6e7472616374206e6f742077686974656c69737465640000006044820152606490fd5b6000198114611feb5760010190565b634e487b7160e01b600052601160045260246000fd5b805182101561147f5760209160051b010190565b9190916060810190612035600461202c8484611484565b90501015611ed4565b6120486120428383611484565b906118ae565b6001600160e01b031991829161205d91611f18565b169061206a821515611f44565b60fe54818160e01b16831480801561216a575b61208690611f44565b612133575b60c01b161461209b575b50509050565b6120ae916120a891611484565b906122c5565b60005b815181101561212757806120f86120db6120ce6120fd9486612001565b516001600160a01b031690565b6001600160a01b0381811690881614908115612102575b50611f90565b611fdc565b6120b1565b6001600160a01b03166000908152610100602052604090205460ff54149050386120f2565b50509050803880612095565b6121656121496121438787611484565b90612179565b6001600160a01b03818116908a16149081156121025750611f90565b61208b565b5060c082901b8316841461207d565b90806004116101225781019060608183036003190112610122576004810135916121a28361017d565b6044820135916001600160401b038311610122576121c39201600401610673565b506001600160a01b031690565b6001600160401b0381116105e05760051b60200190565b81601f82011215610122578035916121fe836121d0565b9261220c6040519485610600565b808452602092838086019260051b820101928311610122578301905b828210612236575050505090565b81358152908301908301612228565b9080601f830112156101225781359061225d826121d0565b9261226b6040519485610600565b828452602092838086019160051b8301019280841161012257848301915b8483106122995750505050505090565b82356001600160401b0381116101225786916122ba84848094890101610673565b815201920191612289565b908060041161012257810160608282036003190112610122576001600160401b03906004830135828111610122578301928160238501121561012257600484013561230f816121d0565b9461231d6040519687610600565b81865260209160248388019160051b8301019185831161012257602401905b8282106123805750505050602481013583811161012257826004612362928401016121e7565b5060448101359283116101225761237c9201600401612245565b5090565b838091833561238e8161017d565b81520191019061233c565b600060ff8181556123a8610b94565b60018155815b8481106123bc575050505050565b6123ed9082548160051b8601356123d28161017d565b6001600160a01b031685526101006020526040852055611fdc565b6123ae565b6123fb90611bf8565b6040516020810191825230604082015246606082015260608152608081018181106001600160401b038211176105e05760405251902090565b600091829182602083519301915af161244b610f5e565b90156124545750565b602081519101fdfe6080806040523461001657610178908161001c8239f35b600080fdfe6080604052600436101561001257600080fd5b6000803560e01c63570e1a361461002857600080fd5b3461009e57602036600319011261009e5760043567ffffffffffffffff9182821161009e573660238301121561009e57816004013592831161009e57366024848401011161009e5761009a61008084602485016100b7565b6040516001600160a01b0390911681529081906020820190565b0390f35b80fd5b634e487b7160e01b600052604160045260246000fd5b90806014116101385767ffffffffffffffff91601319820183811161013d5760405193600b8401601f19908116603f011685019081118582101761013d5760405280845260208401903684840111610138576020946000600c819682946014880187378301015251923560601c5af190600051911561013257565b60009150565b600080fd5b6100a156fea2646970667358221220751eda83228c38938c5753603072c689c31aace818d807699015f918c718c8f964736f6c63430008140033360894a13ba1a3210667c828492db98dca3e2076cc3735a920a3ca505d382bbca26469706673582212208f10615b181a6748e075e557c6172aaa30b212d87209c33973906e3f8813bad764736f6c63430008140033",
  "linkReferences": {},
  "deployedLinkReferences": {}
}