{
  "_format": "hh-sol-artifact-1",
  "contractName": "ProfileFactory",
  "sourceName": "contracts/accounts/ProfileFactory.sol",
  "abi": [
    {
      "inputs": [],
      "stateMutability": "nonpayable",
      "type": "constructor"
    },
    {
      "anonymous": false,
      "inputs": [
        {
          "indexed": true,
          "internalType": "address",
          "name": "owner",
          "type": "address"
        },
        {
          "indexed": false,
          "internalType": "address",
          "name": "profile",
          "type": "address"
        }
      ],
      "name": "ProfileCreated",
      "type": "event"
    },
    {
      "inputs": [
        {
          "internalType": "address",
          "name": "owner",
          "type": "address"
        },
        {
          "internalType": "uint256",
          "name": "salt",
          "type": "uint256"
        }
      ],
      "name": "create",
      "outputs": [
        {
          "internalType": "contract Profile",
          "name": "profile",
          "type": "address"
        }
      ],
      "stateMutability": "nonpayable",
      "type": "function"
    },
    {
      "inputs": [
        {
          "internalType": "address",
          "name": "owner",
          "type": "address"
        },
        {
          "internalType": "uint256",
          "name": "salt",
          "type": "uint256"
        }
      ],
      "name": "get",
      "outputs": [
        {
          "internalType": "address",
          "name": "",
          "type": "address"
        }
      ],
      "stateMutability": "view",
      "type": "function"
    },
    {
      "inputs": [],
      "name": "profileImplementation",
      "outputs": [
        {
          "internalType": "contract Profile",
          "name": "",
          "type": "address"
        }
      ],
      "stateMutability": "view",
      "type": "function"
    }
  ],
  "bytecode": "0x60a060405234801561001057600080fd5b5060405161001d9061004b565b604051809103906000f080158015610039573d6000803e3d6000fd5b506001600160a01b0316608052610058565b61329f806109f283390190565b60805161097261008060003960008181607a0152818161014201526102d901526109726000f3fe608060405234801561001057600080fd5b50600436106100415760003560e01c80630ecaea7314610046578063947aa29d14610075578063b464631b1461009c575b600080fd5b61005961005436600461038e565b6100af565b6040516001600160a01b03909116815260200160405180910390f35b6100597f000000000000000000000000000000000000000000000000000000000000000081565b6100596100aa36600461038e565b61023f565b6000806100bc848461023f565b90506001600160a01b0381163b156100d5579050610239565b6040516bffffffffffffffffffffffff19606086901b1660208201526034810184905260009060540160408051601f1981840301815282825280516020918201206004845260248401835290830180516001600160e01b031663204a7f0760e21b179052905190925082917f00000000000000000000000000000000000000000000000000000000000000009161016b90610381565b6101769291906103ea565b8190604051809103906000f5905080158015610196573d6000803e3d6000fd5b5060405163f2fde38b60e01b81526001600160a01b0387811660048301529194509084169063f2fde38b90602401600060405180830381600087803b1580156101de57600080fd5b505af11580156101f2573d6000803e3d6000fd5b50506040516001600160a01b038681168252881692507f0e3805ab5ed81d70cc14ca89a9d933b5cb074fe2cd9a0c48c3c4a6f404304bbc915060200160405180910390a250505b92915050565b6040516bffffffffffffffffffffffff19606084901b166020820152603481018290526000908190605401604051602081830303815290604052805190602001209050600061033a826040518060200161029890610381565b601f19828203810183526004601f90920116908152602481016040908152602082810180516001600160e01b031663204a7f0760e21b1790529051610301927f0000000000000000000000000000000000000000000000000000000000000000929091016103ea565b60408051601f198184030181529082905261031f929160200161042c565b60405160208183030381529060405280519060200120610343565b95945050505050565b6000610350838330610357565b9392505050565b6000604051836040820152846020820152828152600b8101905060ff815360559020949350505050565b6104e18061045c83390190565b600080604083850312156103a157600080fd5b82356001600160a01b03811681146103b857600080fd5b946020939093013593505050565b60005b838110156103e15781810151838201526020016103c9565b50506000910152565b60018060a01b038316815260406020820152600082518060408401526104178160608501602087016103c6565b601f01601f1916919091016060019392505050565b6000835161043e8184602088016103c6565b8351908301906104528183602088016103c6565b0194935050505056fe60806040526040516104e13803806104e1833981016040819052610022916102de565b61002e82826000610035565b50506103fb565b61003e83610061565b60008251118061004b5750805b1561005c5761005a83836100a1565b505b505050565b61006a816100cd565b6040516001600160a01b038216907fbc7cd75a20ee27fd9adebab32041f755214dbc6bffa90cc0225b39da2e5c2d3b90600090a250565b60606100c683836040518060600160405280602781526020016104ba60279139610180565b9392505050565b6001600160a01b0381163b61013f5760405162461bcd60e51b815260206004820152602d60248201527f455243313936373a206e657720696d706c656d656e746174696f6e206973206e60448201526c1bdd08184818dbdb9d1c9858dd609a1b60648201526084015b60405180910390fd5b7f360894a13ba1a3210667c828492db98dca3e2076cc3735a920a3ca505d382bbc80546001600160a01b0319166001600160a01b0392909216919091179055565b6060600080856001600160a01b03168560405161019d91906103ac565b600060405180830381855af49150503d80600081146101d8576040519150601f19603f3d011682016040523d82523d6000602084013e6101dd565b606091505b5090925090506101ef868383876101f9565b9695505050505050565b60608315610268578251600003610261576001600160a01b0385163b6102615760405162461bcd60e51b815260206004820152601d60248201527f416464726573733a2063616c6c20746f206e6f6e2d636f6e74726163740000006044820152606401610136565b5081610272565b610272838361027a565b949350505050565b81511561028a5781518083602001fd5b8060405162461bcd60e51b815260040161013691906103c8565b634e487b7160e01b600052604160045260246000fd5b60005b838110156102d55781810151838201526020016102bd565b50506000910152565b600080604083850312156102f157600080fd5b82516001600160a01b038116811461030857600080fd5b60208401519092506001600160401b038082111561032557600080fd5b818501915085601f83011261033957600080fd5b81518181111561034b5761034b6102a4565b604051601f8201601f19908116603f01168101908382118183101715610373576103736102a4565b8160405282815288602084870101111561038c57600080fd5b61039d8360208301602088016102ba565b80955050505050509250929050565b600082516103be8184602087016102ba565b9190910192915050565b60208152600082518060208401526103e78160408501602087016102ba565b601f01601f19169190910160400192915050565b60b1806104096000396000f3fe608060405236601057600e6013565b005b600e5b601f601b6021565b6058565b565b600060537f360894a13ba1a3210667c828492db98dca3e2076cc3735a920a3ca505d382bbc546001600160a01b031690565b905090565b3660008037600080366000845af43d6000803e8080156076573d6000f35b3d6000fdfea264697066735822122004eafc12009ddd1bac09a0fbcdbbc0e38fdd09caf7f585983e4d324fd8f99a7364736f6c63430008140033416464726573733a206c6f772d6c6576656c2064656c65676174652063616c6c206661696c6564a264697066735822122037838f1f64607f65f55dd470f4c123e7f7c52b4e3c6889fccf8e56d11ef712fc64736f6c6343000814003360a0604052306080523480156200001557600080fd5b506200002062000026565b620000e7565b600054610100900460ff1615620000935760405162461bcd60e51b815260206004820152602760248201527f496e697469616c697a61626c653a20636f6e747261637420697320696e697469604482015266616c697a696e6760c81b606482015260840160405180910390fd5b60005460ff90811614620000e5576000805460ff191660ff9081179091556040519081527f7f26b83ff96e1f2b6a682f133852f6798a09c465da95921460cefb38474024989060200160405180910390a15b565b6080516131806200011f600039600081816109400152818161098001528181610afe01528181610b3e0152610bcd01526131806000f3fe6080604052600436106101ee5760003560e01c806370a082311161010d578063a22cb465116100a0578063c87b56dd1161006f578063c87b56dd146105a7578063d547741f146105c7578063e985e9c5146105e7578063ee91877c14610630578063f2fde38b1461065e57600080fd5b8063a22cb46514610527578063b88d4fde14610547578063be83cdc914610567578063c2bc2efc1461058757600080fd5b806391d14854116100dc57806391d14854146104bd57806395d89b41146104dd5780639d91dd7d146104f2578063a217fddf1461051257600080fd5b806370a0823114610455578063715018a6146104755780638129fc1c1461048a5780638da5cb5b1461049f57600080fd5b80633659cfe61161018557806352d1902d1161015457806352d1902d146103b557806352f33682146103ca5780635971834a146104015780636352211e1461043557600080fd5b80633659cfe61461034257806342842e0e1461036257806342966c68146103825780634f1ef286146103a257600080fd5b806323b872dd116101c157806323b872dd146102a4578063248a9ca3146102c45780632f2ff15d1461030257806336568abe1461032257600080fd5b806301ffc9a7146101f357806306fdde0314610228578063081812fc1461024a578063095ea7b314610282575b600080fd5b3480156101ff57600080fd5b5061021361020e3660046128c9565b61067e565b60405190151581526020015b60405180910390f35b34801561023457600080fd5b5061023d61068f565b60405161021f9190612936565b34801561025657600080fd5b5061026a610265366004612949565b610721565b6040516001600160a01b03909116815260200161021f565b34801561028e57600080fd5b506102a261029d36600461297e565b610748565b005b3480156102b057600080fd5b506102a26102bf3660046129a8565b610862565b3480156102d057600080fd5b506102f46102df366004612949565b600090815260fb602052604090206001015490565b60405190815260200161021f565b34801561030e57600080fd5b506102a261031d3660046129e4565b610893565b34801561032e57600080fd5b506102a261033d3660046129e4565b6108b8565b34801561034e57600080fd5b506102a261035d366004612a10565b610936565b34801561036e57600080fd5b506102a261037d3660046129a8565b610a15565b34801561038e57600080fd5b506102a261039d366004612949565b610a30565b6102a26103b0366004612ad7565b610af4565b3480156103c157600080fd5b506102f4610bc0565b3480156103d657600080fd5b5061026a6103e5366004612949565b610192602052600090815260409020546001600160a01b031681565b34801561040d57600080fd5b506102f47f224b562a599bb6f57441f98a50de513dff0de3d9b620f342c27a4e4a898ce8e281565b34801561044157600080fd5b5061026a610450366004612949565b610c73565b34801561046157600080fd5b506102f4610470366004612a10565b610cd3565b34801561048157600080fd5b506102a2610d59565b34801561049657600080fd5b506102a2610d6d565b3480156104ab57600080fd5b5060c9546001600160a01b031661026a565b3480156104c957600080fd5b506102136104d83660046129e4565b610edc565b3480156104e957600080fd5b5061023d610f07565b3480156104fe57600080fd5b506102f461050d366004612b25565b610f16565b34801561051e57600080fd5b506102f4600081565b34801561053357600080fd5b506102a2610542366004612b90565b611176565b34801561055357600080fd5b506102a2610562366004612bcc565b611181565b34801561057357600080fd5b5061023d610582366004612949565b6111b9565b34801561059357600080fd5b5061023d6105a2366004612a10565b61123d565b3480156105b357600080fd5b5061023d6105c2366004612949565b611259565b3480156105d357600080fd5b506102a26105e23660046129e4565b611361565b3480156105f357600080fd5b50610213610602366004612c34565b6001600160a01b039182166000908152606a6020908152604080832093909416825291909152205460ff1690565b34801561063c57600080fd5b506102f461064b366004612a10565b6101916020526000908152604090205481565b34801561066a57600080fd5b506102a2610679366004612a10565b611386565b6000610689826113fc565b92915050565b60606065805461069e90612c5e565b80601f01602080910402602001604051908101604052809291908181526020018280546106ca90612c5e565b80156107175780601f106106ec57610100808354040283529160200191610717565b820191906000526020600020905b8154815290600101906020018083116106fa57829003601f168201915b5050505050905090565b600061072c82611421565b506000908152606960205260409020546001600160a01b031690565b600061075382610c73565b9050806001600160a01b0316836001600160a01b0316036107c55760405162461bcd60e51b815260206004820152602160248201527f4552433732313a20617070726f76616c20746f2063757272656e74206f776e656044820152603960f91b60648201526084015b60405180910390fd5b336001600160a01b03821614806107e157506107e18133610602565b6108535760405162461bcd60e51b815260206004820152603d60248201527f4552433732313a20617070726f76652063616c6c6572206973206e6f7420746f60448201527f6b656e206f776e6572206f7220617070726f76656420666f7220616c6c00000060648201526084016107bc565b61085d8383611480565b505050565b61086c33826114ee565b6108885760405162461bcd60e51b81526004016107bc90612c98565b61085d83838361156c565b600082815260fb60205260409020600101546108ae816116dd565b61085d83836116e7565b6001600160a01b03811633146109285760405162461bcd60e51b815260206004820152602f60248201527f416363657373436f6e74726f6c3a2063616e206f6e6c792072656e6f756e636560448201526e103937b632b9903337b91039b2b63360891b60648201526084016107bc565b610932828261176d565b5050565b6001600160a01b037f000000000000000000000000000000000000000000000000000000000000000016300361097e5760405162461bcd60e51b81526004016107bc90612ce5565b7f00000000000000000000000000000000000000000000000000000000000000006001600160a01b03166109c7600080516020613104833981519152546001600160a01b031690565b6001600160a01b0316146109ed5760405162461bcd60e51b81526004016107bc90612d31565b6109f6816117d4565b60408051600080825260208201909252610a12918391906117dc565b50565b61085d83838360405180602001604052806000815250611181565b60c95481906001600160a01b0316331480610a5357506001600160a01b03811633145b80610a835750610a837f224b562a599bb6f57441f98a50de513dff0de3d9b620f342c27a4e4a898ce8e233610edc565b610aeb5760405162461bcd60e51b815260206004820152603360248201527f4f6e6c7920746865206f776e6572206f662074686520746f6b656e206f7220706044820152723937b334b6329031b0b710313ab9371034ba1760691b60648201526084016107bc565b61093282611947565b6001600160a01b037f0000000000000000000000000000000000000000000000000000000000000000163003610b3c5760405162461bcd60e51b81526004016107bc90612ce5565b7f00000000000000000000000000000000000000000000000000000000000000006001600160a01b0316610b85600080516020613104833981519152546001600160a01b031690565b6001600160a01b031614610bab5760405162461bcd60e51b81526004016107bc90612d31565b610bb4826117d4565b610932828260016117dc565b6000306001600160a01b037f00000000000000000000000000000000000000000000000000000000000000001614610c605760405162461bcd60e51b815260206004820152603860248201527f555550535570677261646561626c653a206d757374206e6f742062652063616c60448201527f6c6564207468726f7567682064656c656761746563616c6c000000000000000060648201526084016107bc565b5060008051602061310483398151915290565b6000818152606760205260408120546001600160a01b0316806106895760405162461bcd60e51b8152602060048201526018602482015277115490cdcc8c4e881a5b9d985b1a59081d1bdad95b88125160421b60448201526064016107bc565b60006001600160a01b038216610d3d5760405162461bcd60e51b815260206004820152602960248201527f4552433732313a2061646472657373207a65726f206973206e6f7420612076616044820152683634b21037bbb732b960b91b60648201526084016107bc565b506001600160a01b031660009081526068602052604090205490565b610d61611991565b610d6b60006119eb565b565b600054610100900460ff1615808015610d8d5750600054600160ff909116105b80610da75750303b158015610da7575060005460ff166001145b610e0a5760405162461bcd60e51b815260206004820152602e60248201527f496e697469616c697a61626c653a20636f6e747261637420697320616c72656160448201526d191e481a5b9a5d1a585b1a5e995960921b60648201526084016107bc565b6000805460ff191660011790558015610e2d576000805461ff0019166101001790555b610e716040518060400160405280600781526020016650726f66696c6560c81b8152506040518060400160405280600381526020016228292360e91b815250611a3d565b610e79611a6e565b610e81611a9d565b610e89611a9d565b610e94600033611ac4565b8015610a12576000805461ff0019169055604051600181527f7f26b83ff96e1f2b6a682f133852f6798a09c465da95921460cefb38474024989060200160405180910390a150565b600091825260fb602090815260408084206001600160a01b0393909316845291905290205460ff1690565b60606066805461069e90612c5e565b600033610f2b60c9546001600160a01b031690565b6001600160a01b03161480610f4857506001600160a01b03841633145b80610f785750610f787f224b562a599bb6f57441f98a50de513dff0de3d9b620f342c27a4e4a898ce8e233610edc565b610fe15760405162461bcd60e51b815260206004820152603460248201527f4f6e6c79207468652070726f66696c65206f776e6572206f7220636f6e74726160448201527331ba1037bbb732b91031b0b71039b2ba1034ba1760611b60648201526084016107bc565b6001600160a01b03841660009081526101916020526040902054801580156110435750600084815261019260205260409020546001600160a01b031615806110435750600084815261019260205260409020546001600160a01b038681169116145b80611072575080158015906110725750600081815261019260205260409020546001600160a01b038681169116145b6110be5760405162461bcd60e51b815260206004820152601f60248201527f5468697320757365726e616d6520697320616c72656164792074616b656e2e0060448201526064016107bc565b6001600160a01b0385166110e9816000908152606760205260409020546001600160a01b0316151590565b6110f7576110f78682611ace565b848214611108576111088686611c67565b836040516020016111199190612d7d565b6040516020818303038152906040528051906020012061113882611259565b6040516020016111489190612d7d565b604051602081830303815290604052805190602001201461116d5761116d8185611cfa565b95945050505050565b610932338383611dc5565b61118b33836114ee565b6111a75760405162461bcd60e51b81526004016107bc90612c98565b6111b384848484611e93565b50505050565b600081815261019260205260409020546060906001600160a01b0316806112225760405162461bcd60e51b815260206004820152601d60248201527f5468697320757365726e616d6520646f6573206e6f742065786973742e00000060448201526064016107bc565b6001600160a01b03811661123581611259565b949350505050565b60606001600160a01b03821661125281611259565b9392505050565b606061126482611421565b6000828152609760205260408120805461127d90612c5e565b80601f01602080910402602001604051908101604052809291908181526020018280546112a990612c5e565b80156112f65780601f106112cb576101008083540402835291602001916112f6565b820191906000526020600020905b8154815290600101906020018083116112d957829003601f168201915b50505050509050600061131460408051602081019091526000815290565b90508051600003611326575092915050565b815115611358578082604051602001611340929190612d99565b60405160208183030381529060405292505050919050565b61123584611ec6565b600082815260fb602052604090206001015461137c816116dd565b61085d838361176d565b61138e611991565b6001600160a01b0381166113f35760405162461bcd60e51b815260206004820152602660248201527f4f776e61626c653a206e6577206f776e657220697320746865207a65726f206160448201526564647265737360d01b60648201526084016107bc565b610a12816119eb565b60006001600160e01b03198216637965db0b60e01b1480610689575061068982611f39565b6000818152606760205260409020546001600160a01b0316610a125760405162461bcd60e51b8152602060048201526018602482015277115490cdcc8c4e881a5b9d985b1a59081d1bdad95b88125160421b60448201526064016107bc565b600081815260696020526040902080546001600160a01b0319166001600160a01b03841690811790915581906114b582610c73565b6001600160a01b03167f8c5be1e5ebec7d5bd14f71427d1e84f3dd0314c0f7b2291e5b200ac8c7c3b92560405160405180910390a45050565b6000806114fa83610c73565b9050806001600160a01b0316846001600160a01b0316148061154157506001600160a01b038082166000908152606a602090815260408083209388168352929052205460ff165b806112355750836001600160a01b031661155a84610721565b6001600160a01b031614949350505050565b826001600160a01b031661157f82610c73565b6001600160a01b0316146115a55760405162461bcd60e51b81526004016107bc90612dc8565b6001600160a01b0382166116075760405162461bcd60e51b8152602060048201526024808201527f4552433732313a207472616e7366657220746f20746865207a65726f206164646044820152637265737360e01b60648201526084016107bc565b6116148383836001611f5e565b826001600160a01b031661162782610c73565b6001600160a01b03161461164d5760405162461bcd60e51b81526004016107bc90612dc8565b600081815260696020908152604080832080546001600160a01b03199081169091556001600160a01b0387811680865260688552838620805460001901905590871680865283862080546001019055868652606790945282852080549092168417909155905184937fddf252ad1be2c89b69c2b068fc378daa952ba7f163c4a11628f55a4df523b3ef91a4505050565b610a128133612013565b6116f18282610edc565b61093257600082815260fb602090815260408083206001600160a01b03851684529091529020805460ff191660011790556117293390565b6001600160a01b0316816001600160a01b0316837f2f8788117e7eff1d82e926ec794901d17c78024a50270940304540a733656f0d60405160405180910390a45050565b6117778282610edc565b1561093257600082815260fb602090815260408083206001600160a01b0385168085529252808320805460ff1916905551339285917ff6391f5c32d9c69d2a47ea670b442974b53935d1edc7fd64eb21e047a839171b9190a45050565b610a12611991565b7f4910fdfa16fed3260ed0e7147f7cc6da11a60208b5b9406d12a635614ffd91435460ff161561180f5761085d8361206c565b826001600160a01b03166352d1902d6040518163ffffffff1660e01b8152600401602060405180830381865afa925050508015611869575060408051601f3d908101601f1916820190925261186691810190612e0d565b60015b6118cc5760405162461bcd60e51b815260206004820152602e60248201527f45524331393637557067726164653a206e657720696d706c656d656e7461746960448201526d6f6e206973206e6f74205555505360901b60648201526084016107bc565b600080516020613104833981519152811461193b5760405162461bcd60e51b815260206004820152602960248201527f45524331393637557067726164653a20756e737570706f727465642070726f786044820152681a58589b195555525160ba1b60648201526084016107bc565b5061085d838383612108565b611988816001600160a01b031660008181526101916020818152604080842080548552610192835290842080546001600160a01b0319169055938352529055565b610a128161212d565b60c9546001600160a01b03163314610d6b5760405162461bcd60e51b815260206004820181905260248201527f4f776e61626c653a2063616c6c6572206973206e6f7420746865206f776e657260448201526064016107bc565b60c980546001600160a01b038381166001600160a01b0319831681179093556040519116919082907f8be0079c531659141344cd1fd0a4f28419497f9722a3daafe3b4186f6b6457e090600090a35050565b600054610100900460ff16611a645760405162461bcd60e51b81526004016107bc90612e26565b610932828261216d565b600054610100900460ff16611a955760405162461bcd60e51b81526004016107bc90612e26565b610d6b6121ad565b600054610100900460ff16610d6b5760405162461bcd60e51b81526004016107bc90612e26565b61093282826116e7565b6001600160a01b038216611b245760405162461bcd60e51b815260206004820181905260248201527f4552433732313a206d696e7420746f20746865207a65726f206164647265737360448201526064016107bc565b6000818152606760205260409020546001600160a01b031615611b895760405162461bcd60e51b815260206004820152601c60248201527f4552433732313a20746f6b656e20616c7265616479206d696e7465640000000060448201526064016107bc565b611b97600083836001611f5e565b6000818152606760205260409020546001600160a01b031615611bfc5760405162461bcd60e51b815260206004820152601c60248201527f4552433732313a20746f6b656e20616c7265616479206d696e7465640000000060448201526064016107bc565b6001600160a01b038216600081815260686020908152604080832080546001019055848352606790915280822080546001600160a01b0319168417905551839291907fddf252ad1be2c89b69c2b068fc378daa952ba7f163c4a11628f55a4df523b3ef908290a45050565b6001600160a01b0382166000908152610191602052604090205415611cbc576001600160a01b038216600090815261019160209081526040808320548352610192909152902080546001600160a01b03191690555b60008181526101926020908152604080832080546001600160a01b039096166001600160a01b03199096168617905593825261019190529190912055565b6000828152606760205260409020546001600160a01b0316611d755760405162461bcd60e51b815260206004820152602e60248201527f45524337323155524953746f726167653a2055524920736574206f66206e6f6e60448201526d32bc34b9ba32b73a103a37b5b2b760911b60648201526084016107bc565b6000828152609760205260409020611d8d8282612ebf565b506040518281527ff8e1a15aba9398e019f0b49df1a4fde98ee17ae345cb5f6b5e2c27f5033e8ce79060200160405180910390a15050565b816001600160a01b0316836001600160a01b031603611e265760405162461bcd60e51b815260206004820152601960248201527f4552433732313a20617070726f766520746f2063616c6c65720000000000000060448201526064016107bc565b6001600160a01b038381166000818152606a6020908152604080832094871680845294825291829020805460ff191686151590811790915591519182527f17307eab39ab6107e8899845ad3d59bd9653f200f220920489ca2b5937696c31910160405180910390a3505050565b611e9e84848461156c565b611eaa848484846121dd565b6111b35760405162461bcd60e51b81526004016107bc90612f7f565b6060611ed182611421565b6000611ee860408051602081019091526000815290565b90506000815111611f085760405180602001604052806000815250611252565b80611f12846122de565b604051602001611f23929190612d99565b6040516020818303038152906040529392505050565b60006001600160e01b03198216632483248360e11b1480610689575061068982612371565b6001600160a01b0384161580611f7b57506001600160a01b038316155b6111b35760405162461bcd60e51b815260206004820152605b60248201527f54686973206120536f756c626f756e6420746f6b656e2e2049742063616e6e6f60448201527f74206265207472616e736665727265642e2049742063616e206f6e6c7920626560648201527f206275726e65642062792074686520746f6b656e206f776e65722e0000000000608482015260a4016107bc565b61201d8282610edc565b6109325761202a816123c1565b6120358360206123d3565b604051602001612046929190612fd1565b60408051601f198184030181529082905262461bcd60e51b82526107bc91600401612936565b6001600160a01b0381163b6120d95760405162461bcd60e51b815260206004820152602d60248201527f455243313936373a206e657720696d706c656d656e746174696f6e206973206e60448201526c1bdd08184818dbdb9d1c9858dd609a1b60648201526084016107bc565b60008051602061310483398151915280546001600160a01b0319166001600160a01b0392909216919091179055565b6121118361256f565b60008251118061211e5750805b1561085d576111b383836125af565b612136816125d4565b6000818152609760205260409020805461214f90612c5e565b159050610a12576000818152609760205260408120610a1291612865565b600054610100900460ff166121945760405162461bcd60e51b81526004016107bc90612e26565b60656121a08382612ebf565b50606661085d8282612ebf565b600054610100900460ff166121d45760405162461bcd60e51b81526004016107bc90612e26565b610d6b336119eb565b60006001600160a01b0384163b156122d357604051630a85bd0160e11b81526001600160a01b0385169063150b7a0290612221903390899088908890600401613046565b6020604051808303816000875af192505050801561225c575060408051601f3d908101601f1916820190925261225991810190613079565b60015b6122b9573d80801561228a576040519150601f19603f3d011682016040523d82523d6000602084013e61228f565b606091505b5080516000036122b15760405162461bcd60e51b81526004016107bc90612f7f565b805181602001fd5b6001600160e01b031916630a85bd0160e11b149050611235565b506001949350505050565b606060006122eb83612677565b600101905060008167ffffffffffffffff81111561230b5761230b612a2b565b6040519080825280601f01601f191660200182016040528015612335576020820181803683370190505b5090508181016020015b600019016f181899199a1a9b1b9c1cb0b131b232b360811b600a86061a8153600a850494508461233f57509392505050565b60006001600160e01b031982166380ac58cd60e01b14806123a257506001600160e01b03198216635b5e139f60e01b145b8061068957506301ffc9a760e01b6001600160e01b0319831614610689565b60606106896001600160a01b03831660145b606060006123e28360026130ac565b6123ed9060026130c3565b67ffffffffffffffff81111561240557612405612a2b565b6040519080825280601f01601f19166020018201604052801561242f576020820181803683370190505b509050600360fc1b8160008151811061244a5761244a6130d6565b60200101906001600160f81b031916908160001a905350600f60fb1b81600181518110612479576124796130d6565b60200101906001600160f81b031916908160001a905350600061249d8460026130ac565b6124a89060016130c3565b90505b6001811115612520576f181899199a1a9b1b9c1cb0b131b232b360811b85600f16601081106124dc576124dc6130d6565b1a60f81b8282815181106124f2576124f26130d6565b60200101906001600160f81b031916908160001a90535060049490941c93612519816130ec565b90506124ab565b5083156112525760405162461bcd60e51b815260206004820181905260248201527f537472696e67733a20686578206c656e67746820696e73756666696369656e7460448201526064016107bc565b6125788161206c565b6040516001600160a01b038216907fbc7cd75a20ee27fd9adebab32041f755214dbc6bffa90cc0225b39da2e5c2d3b90600090a250565b606061125283836040518060600160405280602781526020016131246027913961274f565b60006125df82610c73565b90506125ef816000846001611f5e565b6125f882610c73565b600083815260696020908152604080832080546001600160a01b03199081169091556001600160a01b0385168085526068845282852080546000190190558785526067909352818420805490911690555192935084927fddf252ad1be2c89b69c2b068fc378daa952ba7f163c4a11628f55a4df523b3ef908390a45050565b60008072184f03e93ff9f4daa797ed6e38ed64bf6a1f0160401b83106126b65772184f03e93ff9f4daa797ed6e38ed64bf6a1f0160401b830492506040015b6d04ee2d6d415b85acef810000000083106126e2576d04ee2d6d415b85acef8100000000830492506020015b662386f26fc10000831061270057662386f26fc10000830492506010015b6305f5e1008310612718576305f5e100830492506008015b612710831061272c57612710830492506004015b6064831061273e576064830492506002015b600a83106106895760010192915050565b6060600080856001600160a01b03168560405161276c9190612d7d565b600060405180830381855af49150503d80600081146127a7576040519150601f19603f3d011682016040523d82523d6000602084013e6127ac565b606091505b50915091506127bd868383876127c7565b9695505050505050565b6060831561283657825160000361282f576001600160a01b0385163b61282f5760405162461bcd60e51b815260206004820152601d60248201527f416464726573733a2063616c6c20746f206e6f6e2d636f6e747261637400000060448201526064016107bc565b5081611235565b611235838381511561284b5781518083602001fd5b8060405162461bcd60e51b81526004016107bc9190612936565b50805461287190612c5e565b6000825580601f10612881575050565b601f016020900490600052602060002090810190610a1291905b808211156128af576000815560010161289b565b5090565b6001600160e01b031981168114610a1257600080fd5b6000602082840312156128db57600080fd5b8135611252816128b3565b60005b838110156129015781810151838201526020016128e9565b50506000910152565b600081518084526129228160208601602086016128e6565b601f01601f19169290920160200192915050565b602081526000611252602083018461290a565b60006020828403121561295b57600080fd5b5035919050565b80356001600160a01b038116811461297957600080fd5b919050565b6000806040838503121561299157600080fd5b61299a83612962565b946020939093013593505050565b6000806000606084860312156129bd57600080fd5b6129c684612962565b92506129d460208501612962565b9150604084013590509250925092565b600080604083850312156129f757600080fd5b82359150612a0760208401612962565b90509250929050565b600060208284031215612a2257600080fd5b61125282612962565b634e487b7160e01b600052604160045260246000fd5b600067ffffffffffffffff80841115612a5c57612a5c612a2b565b604051601f8501601f19908116603f01168101908282118183101715612a8457612a84612a2b565b81604052809350858152868686011115612a9d57600080fd5b858560208301376000602087830101525050509392505050565b600082601f830112612ac857600080fd5b61125283833560208501612a41565b60008060408385031215612aea57600080fd5b612af383612962565b9150602083013567ffffffffffffffff811115612b0f57600080fd5b612b1b85828601612ab7565b9150509250929050565b600080600060608486031215612b3a57600080fd5b612b4384612962565b925060208401359150604084013567ffffffffffffffff811115612b6657600080fd5b8401601f81018613612b7757600080fd5b612b8686823560208401612a41565b9150509250925092565b60008060408385031215612ba357600080fd5b612bac83612962565b915060208301358015158114612bc157600080fd5b809150509250929050565b60008060008060808587031215612be257600080fd5b612beb85612962565b9350612bf960208601612962565b925060408501359150606085013567ffffffffffffffff811115612c1c57600080fd5b612c2887828801612ab7565b91505092959194509250565b60008060408385031215612c4757600080fd5b612c5083612962565b9150612a0760208401612962565b600181811c90821680612c7257607f821691505b602082108103612c9257634e487b7160e01b600052602260045260246000fd5b50919050565b6020808252602d908201527f4552433732313a2063616c6c6572206973206e6f7420746f6b656e206f776e6560408201526c1c881bdc88185c1c1c9bdd9959609a1b606082015260800190565b6020808252602c908201527f46756e6374696f6e206d7573742062652063616c6c6564207468726f7567682060408201526b19195b1959d85d1958d85b1b60a21b606082015260800190565b6020808252602c908201527f46756e6374696f6e206d7573742062652063616c6c6564207468726f7567682060408201526b6163746976652070726f787960a01b606082015260800190565b60008251612d8f8184602087016128e6565b9190910192915050565b60008351612dab8184602088016128e6565b835190830190612dbf8183602088016128e6565b01949350505050565b60208082526025908201527f4552433732313a207472616e736665722066726f6d20696e636f72726563742060408201526437bbb732b960d91b606082015260800190565b600060208284031215612e1f57600080fd5b5051919050565b6020808252602b908201527f496e697469616c697a61626c653a20636f6e7472616374206973206e6f74206960408201526a6e697469616c697a696e6760a81b606082015260800190565b601f82111561085d57600081815260208120601f850160051c81016020861015612e985750805b601f850160051c820191505b81811015612eb757828155600101612ea4565b505050505050565b815167ffffffffffffffff811115612ed957612ed9612a2b565b612eed81612ee78454612c5e565b84612e71565b602080601f831160018114612f225760008415612f0a5750858301515b600019600386901b1c1916600185901b178555612eb7565b600085815260208120601f198616915b82811015612f5157888601518255948401946001909101908401612f32565b5085821015612f6f5787850151600019600388901b60f8161c191681555b5050505050600190811b01905550565b60208082526032908201527f4552433732313a207472616e7366657220746f206e6f6e20455243373231526560408201527131b2b4bb32b91034b6b83632b6b2b73a32b960711b606082015260800190565b7f416363657373436f6e74726f6c3a206163636f756e74200000000000000000008152600083516130098160178501602088016128e6565b7001034b99036b4b9b9b4b733903937b6329607d1b601791840191820152835161303a8160288401602088016128e6565b01602801949350505050565b6001600160a01b03858116825284166020820152604081018390526080606082018190526000906127bd9083018461290a565b60006020828403121561308b57600080fd5b8151611252816128b3565b634e487b7160e01b600052601160045260246000fd5b808202811582820484141761068957610689613096565b8082018082111561068957610689613096565b634e487b7160e01b600052603260045260246000fd5b6000816130fb576130fb613096565b50600019019056fe360894a13ba1a3210667c828492db98dca3e2076cc3735a920a3ca505d382bbc416464726573733a206c6f772d6c6576656c2064656c65676174652063616c6c206661696c6564a26469706673582212200079c1382e7f720e6a0e7d4ec8aca533521a33f6a3a43b81bc439e7e49668c2d64736f6c63430008140033",
  "linkReferences": {},
  "deployedLinkReferences": {}
}