{
  "_format": "hh-sol-artifact-1",
  "contractName": "ProfileFactory",
  "sourceName": "contracts/accounts/ProfileFactory.sol",
  "abi": [
    {
      "inputs": [],
      "stateMutability": "nonpayable",
      "type": "constructor"
    },
    {
      "anonymous": false,
      "inputs": [
        {
          "indexed": true,
          "internalType": "address",
          "name": "owner",
          "type": "address"
        },
        {
          "indexed": false,
          "internalType": "address",
          "name": "profile",
          "type": "address"
        }
      ],
      "name": "ProfileCreated",
      "type": "event"
    },
    {
      "inputs": [
        {
          "internalType": "address",
          "name": "owner",
          "type": "address"
        },
        {
          "internalType": "uint256",
          "name": "salt",
          "type": "uint256"
        }
      ],
      "name": "create",
      "outputs": [
        {
          "internalType": "contract Profile",
          "name": "profile",
          "type": "address"
        }
      ],
      "stateMutability": "nonpayable",
      "type": "function"
    },
    {
      "inputs": [
        {
          "internalType": "address",
          "name": "owner",
          "type": "address"
        },
        {
          "internalType": "uint256",
          "name": "salt",
          "type": "uint256"
        }
      ],
      "name": "get",
      "outputs": [
        {
          "internalType": "address",
          "name": "",
          "type": "address"
        }
      ],
      "stateMutability": "view",
      "type": "function"
    },
    {
      "inputs": [],
      "name": "profileImplementation",
      "outputs": [
        {
          "internalType": "contract Profile",
          "name": "",
          "type": "address"
        }
      ],
      "stateMutability": "view",
      "type": "function"
    }
  ],
  "bytecode": "0x60a060405234801561001057600080fd5b5060405161001d9061004b565b604051809103906000f080158015610039573d6000803e3d6000fd5b506001600160a01b0316608052610058565b6132fa806109f283390190565b60805161097261008060003960008181607a0152818161014201526102d901526109726000f3fe608060405234801561001057600080fd5b50600436106100415760003560e01c80630ecaea7314610046578063947aa29d14610075578063b464631b1461009c575b600080fd5b61005961005436600461038e565b6100af565b6040516001600160a01b03909116815260200160405180910390f35b6100597f000000000000000000000000000000000000000000000000000000000000000081565b6100596100aa36600461038e565b61023f565b6000806100bc848461023f565b90506001600160a01b0381163b156100d5579050610239565b6040516bffffffffffffffffffffffff19606086901b1660208201526034810184905260009060540160408051601f1981840301815282825280516020918201206004845260248401835290830180516001600160e01b031663204a7f0760e21b179052905190925082917f00000000000000000000000000000000000000000000000000000000000000009161016b90610381565b6101769291906103ea565b8190604051809103906000f5905080158015610196573d6000803e3d6000fd5b5060405163f2fde38b60e01b81526001600160a01b0387811660048301529194509084169063f2fde38b90602401600060405180830381600087803b1580156101de57600080fd5b505af11580156101f2573d6000803e3d6000fd5b50506040516001600160a01b038681168252881692507f0e3805ab5ed81d70cc14ca89a9d933b5cb074fe2cd9a0c48c3c4a6f404304bbc915060200160405180910390a250505b92915050565b6040516bffffffffffffffffffffffff19606084901b166020820152603481018290526000908190605401604051602081830303815290604052805190602001209050600061033a826040518060200161029890610381565b601f19828203810183526004601f90920116908152602481016040908152602082810180516001600160e01b031663204a7f0760e21b1790529051610301927f0000000000000000000000000000000000000000000000000000000000000000929091016103ea565b60408051601f198184030181529082905261031f929160200161042c565b60405160208183030381529060405280519060200120610343565b95945050505050565b6000610350838330610357565b9392505050565b6000604051836040820152846020820152828152600b8101905060ff815360559020949350505050565b6104e18061045c83390190565b600080604083850312156103a157600080fd5b82356001600160a01b03811681146103b857600080fd5b946020939093013593505050565b60005b838110156103e15781810151838201526020016103c9565b50506000910152565b60018060a01b038316815260406020820152600082518060408401526104178160608501602087016103c6565b601f01601f1916919091016060019392505050565b6000835161043e8184602088016103c6565b8351908301906104528183602088016103c6565b0194935050505056fe60806040526040516104e13803806104e1833981016040819052610022916102de565b61002e82826000610035565b50506103fb565b61003e83610061565b60008251118061004b5750805b1561005c5761005a83836100a1565b505b505050565b61006a816100cd565b6040516001600160a01b038216907fbc7cd75a20ee27fd9adebab32041f755214dbc6bffa90cc0225b39da2e5c2d3b90600090a250565b60606100c683836040518060600160405280602781526020016104ba60279139610180565b9392505050565b6001600160a01b0381163b61013f5760405162461bcd60e51b815260206004820152602d60248201527f455243313936373a206e657720696d706c656d656e746174696f6e206973206e60448201526c1bdd08184818dbdb9d1c9858dd609a1b60648201526084015b60405180910390fd5b7f360894a13ba1a3210667c828492db98dca3e2076cc3735a920a3ca505d382bbc80546001600160a01b0319166001600160a01b0392909216919091179055565b6060600080856001600160a01b03168560405161019d91906103ac565b600060405180830381855af49150503d80600081146101d8576040519150601f19603f3d011682016040523d82523d6000602084013e6101dd565b606091505b5090925090506101ef868383876101f9565b9695505050505050565b60608315610268578251600003610261576001600160a01b0385163b6102615760405162461bcd60e51b815260206004820152601d60248201527f416464726573733a2063616c6c20746f206e6f6e2d636f6e74726163740000006044820152606401610136565b5081610272565b610272838361027a565b949350505050565b81511561028a5781518083602001fd5b8060405162461bcd60e51b815260040161013691906103c8565b634e487b7160e01b600052604160045260246000fd5b60005b838110156102d55781810151838201526020016102bd565b50506000910152565b600080604083850312156102f157600080fd5b82516001600160a01b038116811461030857600080fd5b60208401519092506001600160401b038082111561032557600080fd5b818501915085601f83011261033957600080fd5b81518181111561034b5761034b6102a4565b604051601f8201601f19908116603f01168101908382118183101715610373576103736102a4565b8160405282815288602084870101111561038c57600080fd5b61039d8360208301602088016102ba565b80955050505050509250929050565b600082516103be8184602087016102ba565b9190910192915050565b60208152600082518060208401526103e78160408501602087016102ba565b601f01601f19169190910160400192915050565b60b1806104096000396000f3fe608060405236601057600e6013565b005b600e5b601f601b6021565b6058565b565b600060537f360894a13ba1a3210667c828492db98dca3e2076cc3735a920a3ca505d382bbc546001600160a01b031690565b905090565b3660008037600080366000845af43d6000803e8080156076573d6000f35b3d6000fdfea264697066735822122004eafc12009ddd1bac09a0fbcdbbc0e38fdd09caf7f585983e4d324fd8f99a7364736f6c63430008140033416464726573733a206c6f772d6c6576656c2064656c65676174652063616c6c206661696c6564a264697066735822122008dff68f9d25c9d3306d6615f7ac87863529f88ca11c6a5d428b9c6e171bb5fc64736f6c6343000814003360a0604052306080523480156200001557600080fd5b506200002062000026565b620000e7565b600054610100900460ff1615620000935760405162461bcd60e51b815260206004820152602760248201527f496e697469616c697a61626c653a20636f6e747261637420697320696e697469604482015266616c697a696e6760c81b606482015260840160405180910390fd5b60005460ff90811614620000e5576000805460ff191660ff9081179091556040519081527f7f26b83ff96e1f2b6a682f133852f6798a09c465da95921460cefb38474024989060200160405180910390a15b565b6080516131db6200011f6000396000818161099b015281816109db01528181610b5901528181610b990152610c2801526131db6000f3fe6080604052600436106102045760003560e01c8063715018a611610118578063a22cb465116100a0578063c87b56dd1161006f578063c87b56dd14610602578063d547741f14610622578063e985e9c514610642578063ee91877c1461068b578063f2fde38b146106b957600080fd5b8063a22cb46514610582578063b88d4fde146105a2578063be83cdc9146105c2578063c2bc2efc146105e257600080fd5b806391d14854116100e757806391d14854146104fa57806395d89b411461051a57806398cd54be1461052f5780639d91dd7d1461054d578063a217fddf1461056d57600080fd5b8063715018a61461048b5780638129fc1c146104a0578063892195aa146104b55780638da5cb5b146104dc57600080fd5b80633659cfe61161019b57806352d1902d1161016a57806352d1902d146103cb57806352f33682146103e05780635971834a146104175780636352211e1461044b57806370a082311461046b57600080fd5b80633659cfe61461035857806342842e0e1461037857806342966c68146103985780634f1ef286146103b857600080fd5b806323b872dd116101d757806323b872dd146102ba578063248a9ca3146102da5780632f2ff15d1461031857806336568abe1461033857600080fd5b806301ffc9a71461020957806306fdde031461023e578063081812fc14610260578063095ea7b314610298575b600080fd5b34801561021557600080fd5b50610229610224366004612924565b6106d9565b60405190151581526020015b60405180910390f35b34801561024a57600080fd5b506102536106ea565b6040516102359190612991565b34801561026c57600080fd5b5061028061027b3660046129a4565b61077c565b6040516001600160a01b039091168152602001610235565b3480156102a457600080fd5b506102b86102b33660046129d9565b6107a3565b005b3480156102c657600080fd5b506102b86102d5366004612a03565b6108bd565b3480156102e657600080fd5b5061030a6102f53660046129a4565b600090815260fb602052604090206001015490565b604051908152602001610235565b34801561032457600080fd5b506102b8610333366004612a3f565b6108ee565b34801561034457600080fd5b506102b8610353366004612a3f565b610913565b34801561036457600080fd5b506102b8610373366004612a6b565b610991565b34801561038457600080fd5b506102b8610393366004612a03565b610a70565b3480156103a457600080fd5b506102b86103b33660046129a4565b610a8b565b6102b86103c6366004612b32565b610b4f565b3480156103d757600080fd5b5061030a610c1b565b3480156103ec57600080fd5b506102806103fb3660046129a4565b610192602052600090815260409020546001600160a01b031681565b34801561042357600080fd5b5061030a7f224b562a599bb6f57441f98a50de513dff0de3d9b620f342c27a4e4a898ce8e281565b34801561045757600080fd5b506102806104663660046129a4565b610cce565b34801561047757600080fd5b5061030a610486366004612a6b565b610d2e565b34801561049757600080fd5b506102b8610db4565b3480156104ac57600080fd5b506102b8610dc8565b3480156104c157600080fd5b5061030a6104d0366004612a6b565b6001600160a01b031690565b3480156104e857600080fd5b5060c9546001600160a01b0316610280565b34801561050657600080fd5b50610229610515366004612a3f565b610f37565b34801561052657600080fd5b50610253610f62565b34801561053b57600080fd5b5061028061054a3660046129a4565b90565b34801561055957600080fd5b5061030a610568366004612b80565b610f71565b34801561057957600080fd5b5061030a600081565b34801561058e57600080fd5b506102b861059d366004612beb565b6111d1565b3480156105ae57600080fd5b506102b86105bd366004612c27565b6111dc565b3480156105ce57600080fd5b506102536105dd3660046129a4565b611214565b3480156105ee57600080fd5b506102536105fd366004612a6b565b611298565b34801561060e57600080fd5b5061025361061d3660046129a4565b6112b4565b34801561062e57600080fd5b506102b861063d366004612a3f565b6113bc565b34801561064e57600080fd5b5061022961065d366004612c8f565b6001600160a01b039182166000908152606a6020908152604080832093909416825291909152205460ff1690565b34801561069757600080fd5b5061030a6106a6366004612a6b565b6101916020526000908152604090205481565b3480156106c557600080fd5b506102b86106d4366004612a6b565b6113e1565b60006106e482611457565b92915050565b6060606580546106f990612cb9565b80601f016020809104026020016040519081016040528092919081815260200182805461072590612cb9565b80156107725780601f1061074757610100808354040283529160200191610772565b820191906000526020600020905b81548152906001019060200180831161075557829003601f168201915b5050505050905090565b60006107878261147c565b506000908152606960205260409020546001600160a01b031690565b60006107ae82610cce565b9050806001600160a01b0316836001600160a01b0316036108205760405162461bcd60e51b815260206004820152602160248201527f4552433732313a20617070726f76616c20746f2063757272656e74206f776e656044820152603960f91b60648201526084015b60405180910390fd5b336001600160a01b038216148061083c575061083c813361065d565b6108ae5760405162461bcd60e51b815260206004820152603d60248201527f4552433732313a20617070726f76652063616c6c6572206973206e6f7420746f60448201527f6b656e206f776e6572206f7220617070726f76656420666f7220616c6c0000006064820152608401610817565b6108b883836114db565b505050565b6108c73382611549565b6108e35760405162461bcd60e51b815260040161081790612cf3565b6108b88383836115c7565b600082815260fb602052604090206001015461090981611738565b6108b88383611742565b6001600160a01b03811633146109835760405162461bcd60e51b815260206004820152602f60248201527f416363657373436f6e74726f6c3a2063616e206f6e6c792072656e6f756e636560448201526e103937b632b9903337b91039b2b63360891b6064820152608401610817565b61098d82826117c8565b5050565b6001600160a01b037f00000000000000000000000000000000000000000000000000000000000000001630036109d95760405162461bcd60e51b815260040161081790612d40565b7f00000000000000000000000000000000000000000000000000000000000000006001600160a01b0316610a2260008051602061315f833981519152546001600160a01b031690565b6001600160a01b031614610a485760405162461bcd60e51b815260040161081790612d8c565b610a518161182f565b60408051600080825260208201909252610a6d91839190611837565b50565b6108b8838383604051806020016040528060008152506111dc565b60c95481906001600160a01b0316331480610aae57506001600160a01b03811633145b80610ade5750610ade7f224b562a599bb6f57441f98a50de513dff0de3d9b620f342c27a4e4a898ce8e233610f37565b610b465760405162461bcd60e51b815260206004820152603360248201527f4f6e6c7920746865206f776e6572206f662074686520746f6b656e206f7220706044820152723937b334b6329031b0b710313ab9371034ba1760691b6064820152608401610817565b61098d826119a2565b6001600160a01b037f0000000000000000000000000000000000000000000000000000000000000000163003610b975760405162461bcd60e51b815260040161081790612d40565b7f00000000000000000000000000000000000000000000000000000000000000006001600160a01b0316610be060008051602061315f833981519152546001600160a01b031690565b6001600160a01b031614610c065760405162461bcd60e51b815260040161081790612d8c565b610c0f8261182f565b61098d82826001611837565b6000306001600160a01b037f00000000000000000000000000000000000000000000000000000000000000001614610cbb5760405162461bcd60e51b815260206004820152603860248201527f555550535570677261646561626c653a206d757374206e6f742062652063616c60448201527f6c6564207468726f7567682064656c656761746563616c6c00000000000000006064820152608401610817565b5060008051602061315f83398151915290565b6000818152606760205260408120546001600160a01b0316806106e45760405162461bcd60e51b8152602060048201526018602482015277115490cdcc8c4e881a5b9d985b1a59081d1bdad95b88125160421b6044820152606401610817565b60006001600160a01b038216610d985760405162461bcd60e51b815260206004820152602960248201527f4552433732313a2061646472657373207a65726f206973206e6f7420612076616044820152683634b21037bbb732b960b91b6064820152608401610817565b506001600160a01b031660009081526068602052604090205490565b610dbc6119ec565b610dc66000611a46565b565b600054610100900460ff1615808015610de85750600054600160ff909116105b80610e025750303b158015610e02575060005460ff166001145b610e655760405162461bcd60e51b815260206004820152602e60248201527f496e697469616c697a61626c653a20636f6e747261637420697320616c72656160448201526d191e481a5b9a5d1a585b1a5e995960921b6064820152608401610817565b6000805460ff191660011790558015610e88576000805461ff0019166101001790555b610ecc6040518060400160405280600781526020016650726f66696c6560c81b8152506040518060400160405280600381526020016228292360e91b815250611a98565b610ed4611ac9565b610edc611af8565b610ee4611af8565b610eef600033611b1f565b8015610a6d576000805461ff0019169055604051600181527f7f26b83ff96e1f2b6a682f133852f6798a09c465da95921460cefb38474024989060200160405180910390a150565b600091825260fb602090815260408084206001600160a01b0393909316845291905290205460ff1690565b6060606680546106f990612cb9565b600033610f8660c9546001600160a01b031690565b6001600160a01b03161480610fa357506001600160a01b03841633145b80610fd35750610fd37f224b562a599bb6f57441f98a50de513dff0de3d9b620f342c27a4e4a898ce8e233610f37565b61103c5760405162461bcd60e51b815260206004820152603460248201527f4f6e6c79207468652070726f66696c65206f776e6572206f7220636f6e74726160448201527331ba1037bbb732b91031b0b71039b2ba1034ba1760611b6064820152608401610817565b6001600160a01b038416600090815261019160205260409020548015801561109e5750600084815261019260205260409020546001600160a01b0316158061109e5750600084815261019260205260409020546001600160a01b038681169116145b806110cd575080158015906110cd5750600081815261019260205260409020546001600160a01b038681169116145b6111195760405162461bcd60e51b815260206004820152601f60248201527f5468697320757365726e616d6520697320616c72656164792074616b656e2e006044820152606401610817565b6001600160a01b038516611144816000908152606760205260409020546001600160a01b0316151590565b611152576111528682611b29565b848214611163576111638686611cc2565b836040516020016111749190612dd8565b60405160208183030381529060405280519060200120611193826112b4565b6040516020016111a39190612dd8565b60405160208183030381529060405280519060200120146111c8576111c88185611d55565b95945050505050565b61098d338383611e20565b6111e63383611549565b6112025760405162461bcd60e51b815260040161081790612cf3565b61120e84848484611eee565b50505050565b600081815261019260205260409020546060906001600160a01b03168061127d5760405162461bcd60e51b815260206004820152601d60248201527f5468697320757365726e616d6520646f6573206e6f742065786973742e0000006044820152606401610817565b6001600160a01b038116611290816112b4565b949350505050565b60606001600160a01b0382166112ad816112b4565b9392505050565b60606112bf8261147c565b600082815260976020526040812080546112d890612cb9565b80601f016020809104026020016040519081016040528092919081815260200182805461130490612cb9565b80156113515780601f1061132657610100808354040283529160200191611351565b820191906000526020600020905b81548152906001019060200180831161133457829003601f168201915b50505050509050600061136f60408051602081019091526000815290565b90508051600003611381575092915050565b8151156113b357808260405160200161139b929190612df4565b60405160208183030381529060405292505050919050565b61129084611f21565b600082815260fb60205260409020600101546113d781611738565b6108b883836117c8565b6113e96119ec565b6001600160a01b03811661144e5760405162461bcd60e51b815260206004820152602660248201527f4f776e61626c653a206e6577206f776e657220697320746865207a65726f206160448201526564647265737360d01b6064820152608401610817565b610a6d81611a46565b60006001600160e01b03198216637965db0b60e01b14806106e457506106e482611f94565b6000818152606760205260409020546001600160a01b0316610a6d5760405162461bcd60e51b8152602060048201526018602482015277115490cdcc8c4e881a5b9d985b1a59081d1bdad95b88125160421b6044820152606401610817565b600081815260696020526040902080546001600160a01b0319166001600160a01b038416908117909155819061151082610cce565b6001600160a01b03167f8c5be1e5ebec7d5bd14f71427d1e84f3dd0314c0f7b2291e5b200ac8c7c3b92560405160405180910390a45050565b60008061155583610cce565b9050806001600160a01b0316846001600160a01b0316148061159c57506001600160a01b038082166000908152606a602090815260408083209388168352929052205460ff165b806112905750836001600160a01b03166115b58461077c565b6001600160a01b031614949350505050565b826001600160a01b03166115da82610cce565b6001600160a01b0316146116005760405162461bcd60e51b815260040161081790612e23565b6001600160a01b0382166116625760405162461bcd60e51b8152602060048201526024808201527f4552433732313a207472616e7366657220746f20746865207a65726f206164646044820152637265737360e01b6064820152608401610817565b61166f8383836001611fb9565b826001600160a01b031661168282610cce565b6001600160a01b0316146116a85760405162461bcd60e51b815260040161081790612e23565b600081815260696020908152604080832080546001600160a01b03199081169091556001600160a01b0387811680865260688552838620805460001901905590871680865283862080546001019055868652606790945282852080549092168417909155905184937fddf252ad1be2c89b69c2b068fc378daa952ba7f163c4a11628f55a4df523b3ef91a4505050565b610a6d813361206e565b61174c8282610f37565b61098d57600082815260fb602090815260408083206001600160a01b03851684529091529020805460ff191660011790556117843390565b6001600160a01b0316816001600160a01b0316837f2f8788117e7eff1d82e926ec794901d17c78024a50270940304540a733656f0d60405160405180910390a45050565b6117d28282610f37565b1561098d57600082815260fb602090815260408083206001600160a01b0385168085529252808320805460ff1916905551339285917ff6391f5c32d9c69d2a47ea670b442974b53935d1edc7fd64eb21e047a839171b9190a45050565b610a6d6119ec565b7f4910fdfa16fed3260ed0e7147f7cc6da11a60208b5b9406d12a635614ffd91435460ff161561186a576108b8836120c7565b826001600160a01b03166352d1902d6040518163ffffffff1660e01b8152600401602060405180830381865afa9250505080156118c4575060408051601f3d908101601f191682019092526118c191810190612e68565b60015b6119275760405162461bcd60e51b815260206004820152602e60248201527f45524331393637557067726164653a206e657720696d706c656d656e7461746960448201526d6f6e206973206e6f74205555505360901b6064820152608401610817565b60008051602061315f83398151915281146119965760405162461bcd60e51b815260206004820152602960248201527f45524331393637557067726164653a20756e737570706f727465642070726f786044820152681a58589b195555525160ba1b6064820152608401610817565b506108b8838383612163565b6119e3816001600160a01b031660008181526101916020818152604080842080548552610192835290842080546001600160a01b0319169055938352529055565b610a6d81612188565b60c9546001600160a01b03163314610dc65760405162461bcd60e51b815260206004820181905260248201527f4f776e61626c653a2063616c6c6572206973206e6f7420746865206f776e65726044820152606401610817565b60c980546001600160a01b038381166001600160a01b0319831681179093556040519116919082907f8be0079c531659141344cd1fd0a4f28419497f9722a3daafe3b4186f6b6457e090600090a35050565b600054610100900460ff16611abf5760405162461bcd60e51b815260040161081790612e81565b61098d82826121c8565b600054610100900460ff16611af05760405162461bcd60e51b815260040161081790612e81565b610dc6612208565b600054610100900460ff16610dc65760405162461bcd60e51b815260040161081790612e81565b61098d8282611742565b6001600160a01b038216611b7f5760405162461bcd60e51b815260206004820181905260248201527f4552433732313a206d696e7420746f20746865207a65726f20616464726573736044820152606401610817565b6000818152606760205260409020546001600160a01b031615611be45760405162461bcd60e51b815260206004820152601c60248201527f4552433732313a20746f6b656e20616c7265616479206d696e746564000000006044820152606401610817565b611bf2600083836001611fb9565b6000818152606760205260409020546001600160a01b031615611c575760405162461bcd60e51b815260206004820152601c60248201527f4552433732313a20746f6b656e20616c7265616479206d696e746564000000006044820152606401610817565b6001600160a01b038216600081815260686020908152604080832080546001019055848352606790915280822080546001600160a01b0319168417905551839291907fddf252ad1be2c89b69c2b068fc378daa952ba7f163c4a11628f55a4df523b3ef908290a45050565b6001600160a01b0382166000908152610191602052604090205415611d17576001600160a01b038216600090815261019160209081526040808320548352610192909152902080546001600160a01b03191690555b60008181526101926020908152604080832080546001600160a01b039096166001600160a01b03199096168617905593825261019190529190912055565b6000828152606760205260409020546001600160a01b0316611dd05760405162461bcd60e51b815260206004820152602e60248201527f45524337323155524953746f726167653a2055524920736574206f66206e6f6e60448201526d32bc34b9ba32b73a103a37b5b2b760911b6064820152608401610817565b6000828152609760205260409020611de88282612f1a565b506040518281527ff8e1a15aba9398e019f0b49df1a4fde98ee17ae345cb5f6b5e2c27f5033e8ce79060200160405180910390a15050565b816001600160a01b0316836001600160a01b031603611e815760405162461bcd60e51b815260206004820152601960248201527f4552433732313a20617070726f766520746f2063616c6c6572000000000000006044820152606401610817565b6001600160a01b038381166000818152606a6020908152604080832094871680845294825291829020805460ff191686151590811790915591519182527f17307eab39ab6107e8899845ad3d59bd9653f200f220920489ca2b5937696c31910160405180910390a3505050565b611ef98484846115c7565b611f0584848484612238565b61120e5760405162461bcd60e51b815260040161081790612fda565b6060611f2c8261147c565b6000611f4360408051602081019091526000815290565b90506000815111611f6357604051806020016040528060008152506112ad565b80611f6d84612339565b604051602001611f7e929190612df4565b6040516020818303038152906040529392505050565b60006001600160e01b03198216632483248360e11b14806106e457506106e4826123cc565b6001600160a01b0384161580611fd657506001600160a01b038316155b61120e5760405162461bcd60e51b815260206004820152605b60248201527f54686973206120536f756c626f756e6420746f6b656e2e2049742063616e6e6f60448201527f74206265207472616e736665727265642e2049742063616e206f6e6c7920626560648201527f206275726e65642062792074686520746f6b656e206f776e65722e0000000000608482015260a401610817565b6120788282610f37565b61098d576120858161241c565b61209083602061242e565b6040516020016120a192919061302c565b60408051601f198184030181529082905262461bcd60e51b825261081791600401612991565b6001600160a01b0381163b6121345760405162461bcd60e51b815260206004820152602d60248201527f455243313936373a206e657720696d706c656d656e746174696f6e206973206e60448201526c1bdd08184818dbdb9d1c9858dd609a1b6064820152608401610817565b60008051602061315f83398151915280546001600160a01b0319166001600160a01b0392909216919091179055565b61216c836125ca565b6000825111806121795750805b156108b85761120e838361260a565b6121918161262f565b600081815260976020526040902080546121aa90612cb9565b159050610a6d576000818152609760205260408120610a6d916128c0565b600054610100900460ff166121ef5760405162461bcd60e51b815260040161081790612e81565b60656121fb8382612f1a565b5060666108b88282612f1a565b600054610100900460ff1661222f5760405162461bcd60e51b815260040161081790612e81565b610dc633611a46565b60006001600160a01b0384163b1561232e57604051630a85bd0160e11b81526001600160a01b0385169063150b7a029061227c9033908990889088906004016130a1565b6020604051808303816000875af19250505080156122b7575060408051601f3d908101601f191682019092526122b4918101906130d4565b60015b612314573d8080156122e5576040519150601f19603f3d011682016040523d82523d6000602084013e6122ea565b606091505b50805160000361230c5760405162461bcd60e51b815260040161081790612fda565b805181602001fd5b6001600160e01b031916630a85bd0160e11b149050611290565b506001949350505050565b60606000612346836126d2565b600101905060008167ffffffffffffffff81111561236657612366612a86565b6040519080825280601f01601f191660200182016040528015612390576020820181803683370190505b5090508181016020015b600019016f181899199a1a9b1b9c1cb0b131b232b360811b600a86061a8153600a850494508461239a57509392505050565b60006001600160e01b031982166380ac58cd60e01b14806123fd57506001600160e01b03198216635b5e139f60e01b145b806106e457506301ffc9a760e01b6001600160e01b03198316146106e4565b60606106e46001600160a01b03831660145b6060600061243d836002613107565b61244890600261311e565b67ffffffffffffffff81111561246057612460612a86565b6040519080825280601f01601f19166020018201604052801561248a576020820181803683370190505b509050600360fc1b816000815181106124a5576124a5613131565b60200101906001600160f81b031916908160001a905350600f60fb1b816001815181106124d4576124d4613131565b60200101906001600160f81b031916908160001a90535060006124f8846002613107565b61250390600161311e565b90505b600181111561257b576f181899199a1a9b1b9c1cb0b131b232b360811b85600f166010811061253757612537613131565b1a60f81b82828151811061254d5761254d613131565b60200101906001600160f81b031916908160001a90535060049490941c9361257481613147565b9050612506565b5083156112ad5760405162461bcd60e51b815260206004820181905260248201527f537472696e67733a20686578206c656e67746820696e73756666696369656e746044820152606401610817565b6125d3816120c7565b6040516001600160a01b038216907fbc7cd75a20ee27fd9adebab32041f755214dbc6bffa90cc0225b39da2e5c2d3b90600090a250565b60606112ad838360405180606001604052806027815260200161317f602791396127aa565b600061263a82610cce565b905061264a816000846001611fb9565b61265382610cce565b600083815260696020908152604080832080546001600160a01b03199081169091556001600160a01b0385168085526068845282852080546000190190558785526067909352818420805490911690555192935084927fddf252ad1be2c89b69c2b068fc378daa952ba7f163c4a11628f55a4df523b3ef908390a45050565b60008072184f03e93ff9f4daa797ed6e38ed64bf6a1f0160401b83106127115772184f03e93ff9f4daa797ed6e38ed64bf6a1f0160401b830492506040015b6d04ee2d6d415b85acef8100000000831061273d576d04ee2d6d415b85acef8100000000830492506020015b662386f26fc10000831061275b57662386f26fc10000830492506010015b6305f5e1008310612773576305f5e100830492506008015b612710831061278757612710830492506004015b60648310612799576064830492506002015b600a83106106e45760010192915050565b6060600080856001600160a01b0316856040516127c79190612dd8565b600060405180830381855af49150503d8060008114612802576040519150601f19603f3d011682016040523d82523d6000602084013e612807565b606091505b509150915061281886838387612822565b9695505050505050565b6060831561289157825160000361288a576001600160a01b0385163b61288a5760405162461bcd60e51b815260206004820152601d60248201527f416464726573733a2063616c6c20746f206e6f6e2d636f6e74726163740000006044820152606401610817565b5081611290565b61129083838151156128a65781518083602001fd5b8060405162461bcd60e51b81526004016108179190612991565b5080546128cc90612cb9565b6000825580601f106128dc575050565b601f016020900490600052602060002090810190610a6d91905b8082111561290a57600081556001016128f6565b5090565b6001600160e01b031981168114610a6d57600080fd5b60006020828403121561293657600080fd5b81356112ad8161290e565b60005b8381101561295c578181015183820152602001612944565b50506000910152565b6000815180845261297d816020860160208601612941565b601f01601f19169290920160200192915050565b6020815260006112ad6020830184612965565b6000602082840312156129b657600080fd5b5035919050565b80356001600160a01b03811681146129d457600080fd5b919050565b600080604083850312156129ec57600080fd5b6129f5836129bd565b946020939093013593505050565b600080600060608486031215612a1857600080fd5b612a21846129bd565b9250612a2f602085016129bd565b9150604084013590509250925092565b60008060408385031215612a5257600080fd5b82359150612a62602084016129bd565b90509250929050565b600060208284031215612a7d57600080fd5b6112ad826129bd565b634e487b7160e01b600052604160045260246000fd5b600067ffffffffffffffff80841115612ab757612ab7612a86565b604051601f8501601f19908116603f01168101908282118183101715612adf57612adf612a86565b81604052809350858152868686011115612af857600080fd5b858560208301376000602087830101525050509392505050565b600082601f830112612b2357600080fd5b6112ad83833560208501612a9c565b60008060408385031215612b4557600080fd5b612b4e836129bd565b9150602083013567ffffffffffffffff811115612b6a57600080fd5b612b7685828601612b12565b9150509250929050565b600080600060608486031215612b9557600080fd5b612b9e846129bd565b925060208401359150604084013567ffffffffffffffff811115612bc157600080fd5b8401601f81018613612bd257600080fd5b612be186823560208401612a9c565b9150509250925092565b60008060408385031215612bfe57600080fd5b612c07836129bd565b915060208301358015158114612c1c57600080fd5b809150509250929050565b60008060008060808587031215612c3d57600080fd5b612c46856129bd565b9350612c54602086016129bd565b925060408501359150606085013567ffffffffffffffff811115612c7757600080fd5b612c8387828801612b12565b91505092959194509250565b60008060408385031215612ca257600080fd5b612cab836129bd565b9150612a62602084016129bd565b600181811c90821680612ccd57607f821691505b602082108103612ced57634e487b7160e01b600052602260045260246000fd5b50919050565b6020808252602d908201527f4552433732313a2063616c6c6572206973206e6f7420746f6b656e206f776e6560408201526c1c881bdc88185c1c1c9bdd9959609a1b606082015260800190565b6020808252602c908201527f46756e6374696f6e206d7573742062652063616c6c6564207468726f7567682060408201526b19195b1959d85d1958d85b1b60a21b606082015260800190565b6020808252602c908201527f46756e6374696f6e206d7573742062652063616c6c6564207468726f7567682060408201526b6163746976652070726f787960a01b606082015260800190565b60008251612dea818460208701612941565b9190910192915050565b60008351612e06818460208801612941565b835190830190612e1a818360208801612941565b01949350505050565b60208082526025908201527f4552433732313a207472616e736665722066726f6d20696e636f72726563742060408201526437bbb732b960d91b606082015260800190565b600060208284031215612e7a57600080fd5b5051919050565b6020808252602b908201527f496e697469616c697a61626c653a20636f6e7472616374206973206e6f74206960408201526a6e697469616c697a696e6760a81b606082015260800190565b601f8211156108b857600081815260208120601f850160051c81016020861015612ef35750805b601f850160051c820191505b81811015612f1257828155600101612eff565b505050505050565b815167ffffffffffffffff811115612f3457612f34612a86565b612f4881612f428454612cb9565b84612ecc565b602080601f831160018114612f7d5760008415612f655750858301515b600019600386901b1c1916600185901b178555612f12565b600085815260208120601f198616915b82811015612fac57888601518255948401946001909101908401612f8d565b5085821015612fca5787850151600019600388901b60f8161c191681555b5050505050600190811b01905550565b60208082526032908201527f4552433732313a207472616e7366657220746f206e6f6e20455243373231526560408201527131b2b4bb32b91034b6b83632b6b2b73a32b960711b606082015260800190565b7f416363657373436f6e74726f6c3a206163636f756e7420000000000000000000815260008351613064816017850160208801612941565b7001034b99036b4b9b9b4b733903937b6329607d1b6017918401918201528351613095816028840160208801612941565b01602801949350505050565b6001600160a01b038581168252841660208201526040810183905260806060820181905260009061281890830184612965565b6000602082840312156130e657600080fd5b81516112ad8161290e565b634e487b7160e01b600052601160045260246000fd5b80820281158282048414176106e4576106e46130f1565b808201808211156106e4576106e46130f1565b634e487b7160e01b600052603260045260246000fd5b600081613156576131566130f1565b50600019019056fe360894a13ba1a3210667c828492db98dca3e2076cc3735a920a3ca505d382bbc416464726573733a206c6f772d6c6576656c2064656c65676174652063616c6c206661696c6564a2646970667358221220a8cd07b5a5ced47742798d32a9fe0b20b6641d33ee386827e137d60cee49c40564736f6c63430008140033",
  "linkReferences": {},
  "deployedLinkReferences": {}
}