{
  "_format": "hh-sol-artifact-1",
  "contractName": "Paymaster",
  "sourceName": "contracts/accounts/Paymaster.sol",
  "abi": [
    {
      "inputs": [],
      "stateMutability": "nonpayable",
      "type": "constructor"
    },
    {
      "anonymous": false,
      "inputs": [
        {
          "indexed": false,
          "internalType": "address",
          "name": "previousAdmin",
          "type": "address"
        },
        {
          "indexed": false,
          "internalType": "address",
          "name": "newAdmin",
          "type": "address"
        }
      ],
      "name": "AdminChanged",
      "type": "event"
    },
    {
      "anonymous": false,
      "inputs": [
        {
          "indexed": true,
          "internalType": "address",
          "name": "beacon",
          "type": "address"
        }
      ],
      "name": "BeaconUpgraded",
      "type": "event"
    },
    {
      "anonymous": false,
      "inputs": [
        {
          "indexed": false,
          "internalType": "uint8",
          "name": "version",
          "type": "uint8"
        }
      ],
      "name": "Initialized",
      "type": "event"
    },
    {
      "anonymous": false,
      "inputs": [
        {
          "indexed": true,
          "internalType": "address",
          "name": "previousOwner",
          "type": "address"
        },
        {
          "indexed": true,
          "internalType": "address",
          "name": "newOwner",
          "type": "address"
        }
      ],
      "name": "OwnershipTransferred",
      "type": "event"
    },
    {
      "anonymous": false,
      "inputs": [
        {
          "indexed": true,
          "internalType": "address",
          "name": "implementation",
          "type": "address"
        }
      ],
      "name": "Upgraded",
      "type": "event"
    },
    {
      "inputs": [
        {
          "components": [
            {
              "internalType": "address",
              "name": "sender",
              "type": "address"
            },
            {
              "internalType": "uint256",
              "name": "nonce",
              "type": "uint256"
            },
            {
              "internalType": "bytes",
              "name": "initCode",
              "type": "bytes"
            },
            {
              "internalType": "bytes",
              "name": "callData",
              "type": "bytes"
            },
            {
              "internalType": "uint256",
              "name": "callGasLimit",
              "type": "uint256"
            },
            {
              "internalType": "uint256",
              "name": "verificationGasLimit",
              "type": "uint256"
            },
            {
              "internalType": "uint256",
              "name": "preVerificationGas",
              "type": "uint256"
            },
            {
              "internalType": "uint256",
              "name": "maxFeePerGas",
              "type": "uint256"
            },
            {
              "internalType": "uint256",
              "name": "maxPriorityFeePerGas",
              "type": "uint256"
            },
            {
              "internalType": "bytes",
              "name": "paymasterAndData",
              "type": "bytes"
            },
            {
              "internalType": "bytes",
              "name": "signature",
              "type": "bytes"
            }
          ],
          "internalType": "struct UserOperation",
          "name": "userOp",
          "type": "tuple"
        },
        {
          "internalType": "uint48",
          "name": "validUntil",
          "type": "uint48"
        },
        {
          "internalType": "uint48",
          "name": "validAfter",
          "type": "uint48"
        }
      ],
      "name": "getHash",
      "outputs": [
        {
          "internalType": "bytes32",
          "name": "",
          "type": "bytes32"
        }
      ],
      "stateMutability": "view",
      "type": "function"
    },
    {
      "inputs": [
        {
          "internalType": "address",
          "name": "aSponsor",
          "type": "address"
        }
      ],
      "name": "initialize",
      "outputs": [],
      "stateMutability": "nonpayable",
      "type": "function"
    },
    {
      "inputs": [],
      "name": "owner",
      "outputs": [
        {
          "internalType": "address",
          "name": "",
          "type": "address"
        }
      ],
      "stateMutability": "view",
      "type": "function"
    },
    {
      "inputs": [
        {
          "internalType": "enum IPaymaster.PostOpMode",
          "name": "mode",
          "type": "uint8"
        },
        {
          "internalType": "bytes",
          "name": "context",
          "type": "bytes"
        },
        {
          "internalType": "uint256",
          "name": "actualGasCost",
          "type": "uint256"
        }
      ],
      "name": "postOp",
      "outputs": [],
      "stateMutability": "view",
      "type": "function"
    },
    {
      "inputs": [],
      "name": "proxiableUUID",
      "outputs": [
        {
          "internalType": "bytes32",
          "name": "",
          "type": "bytes32"
        }
      ],
      "stateMutability": "view",
      "type": "function"
    },
    {
      "inputs": [],
      "name": "renounceOwnership",
      "outputs": [],
      "stateMutability": "nonpayable",
      "type": "function"
    },
    {
      "inputs": [],
      "name": "sponsor",
      "outputs": [
        {
          "internalType": "address",
          "name": "",
          "type": "address"
        }
      ],
      "stateMutability": "view",
      "type": "function"
    },
    {
      "inputs": [
        {
          "internalType": "address",
          "name": "newOwner",
          "type": "address"
        }
      ],
      "name": "transferOwnership",
      "outputs": [],
      "stateMutability": "nonpayable",
      "type": "function"
    },
    {
      "inputs": [
        {
          "internalType": "address",
          "name": "newSponsor",
          "type": "address"
        }
      ],
      "name": "updateSponsor",
      "outputs": [],
      "stateMutability": "nonpayable",
      "type": "function"
    },
    {
      "inputs": [
        {
          "internalType": "address",
          "name": "newImplementation",
          "type": "address"
        }
      ],
      "name": "upgradeTo",
      "outputs": [],
      "stateMutability": "nonpayable",
      "type": "function"
    },
    {
      "inputs": [
        {
          "internalType": "address",
          "name": "newImplementation",
          "type": "address"
        },
        {
          "internalType": "bytes",
          "name": "data",
          "type": "bytes"
        }
      ],
      "name": "upgradeToAndCall",
      "outputs": [],
      "stateMutability": "payable",
      "type": "function"
    },
    {
      "inputs": [
        {
          "components": [
            {
              "internalType": "address",
              "name": "sender",
              "type": "address"
            },
            {
              "internalType": "uint256",
              "name": "nonce",
              "type": "uint256"
            },
            {
              "internalType": "bytes",
              "name": "initCode",
              "type": "bytes"
            },
            {
              "internalType": "bytes",
              "name": "callData",
              "type": "bytes"
            },
            {
              "internalType": "uint256",
              "name": "callGasLimit",
              "type": "uint256"
            },
            {
              "internalType": "uint256",
              "name": "verificationGasLimit",
              "type": "uint256"
            },
            {
              "internalType": "uint256",
              "name": "preVerificationGas",
              "type": "uint256"
            },
            {
              "internalType": "uint256",
              "name": "maxFeePerGas",
              "type": "uint256"
            },
            {
              "internalType": "uint256",
              "name": "maxPriorityFeePerGas",
              "type": "uint256"
            },
            {
              "internalType": "bytes",
              "name": "paymasterAndData",
              "type": "bytes"
            },
            {
              "internalType": "bytes",
              "name": "signature",
              "type": "bytes"
            }
          ],
          "internalType": "struct UserOperation",
          "name": "userOp",
          "type": "tuple"
        },
        {
          "internalType": "bytes32",
          "name": "userOpHash",
          "type": "bytes32"
        },
        {
          "internalType": "uint256",
          "name": "maxCost",
          "type": "uint256"
        }
      ],
      "name": "validatePaymasterUserOp",
      "outputs": [
        {
          "internalType": "bytes",
          "name": "context",
          "type": "bytes"
        },
        {
          "internalType": "uint256",
          "name": "validationData",
          "type": "uint256"
        }
      ],
      "stateMutability": "view",
      "type": "function"
    }
  ],
  "bytecode": "0x60a080604052346100dc57306080526000549060ff8260081c1661008a575060ff8082160361004f575b60405161149990816100e2823960805181818161058601528181610683015261092d0152f35b60ff90811916176000557f7f26b83ff96e1f2b6a682f133852f6798a09c465da95921460cefb3847402498602060405160ff8152a138610029565b62461bcd60e51b815260206004820152602760248201527f496e697469616c697a61626c653a20636f6e747261637420697320696e697469604482015266616c697a696e6760c81b6064820152608490fd5b600080fdfe6040608081526004908136101561001557600080fd5b600091823560e01c80633659cfe6146109065780634f1ef2861461063357806352d1902d14610571578063715018a61461051457806377c93662146104eb5780638da5cb5b146104c257806394e1fc1914610458578063a9a23409146103ff578063c4d66de8146101e4578063c9a54e2b1461019c578063f2fde38b1461010b5763f465c77e146100a557600080fd5b3461010757600319906060368301126100ff5780359167ffffffffffffffff8311610103576101609083360301126100ff576100e191016110cc565b82518381529283926100f591840190610bbd565b9060208301520390f35b8380fd5b8480fd5b8280fd5b503461010757602036600319011261010757610125610acc565b9161012e610bfd565b6001600160a01b0383161561014a578361014784610c55565b80f35b906020608492519162461bcd60e51b8352820152602660248201527f4f776e61626c653a206e6577206f776e657220697320746865207a65726f206160448201526564647265737360d01b6064820152fd5b83346101e15760203660031901126101e1576101b6610acc565b6101be610bfd565b60018060a01b03166bffffffffffffffffffffffff60a01b60c954161760c95580f35b80fd5b503461010757602090816003193601126100ff57610200610acc565b9084549160ff8360081c1615928380946103f2575b80156103db575b156103815760ff198116600117875583610370575b5061024b60ff875460081c1661024681610e8d565b610e8d565b61025433610c55565b60c954918551908682019082821067ffffffffffffffff83111761035d57508652601e81527f6578656375746528616464726573732c75696e743235362c6279746573290000908501528451916102aa83610b19565b60298084527f65786563757465426174636828616464726573735b5d2c75696e743235365b5d868501908152682c62797465735b5d2960b81b948801949094529092206001600160e01b03199092166001600160a01b039091161790831c63ffffffff60c01b1617635b0e93fb60a11b1760c955610326578280f35b7f7f26b83ff96e1f2b6a682f133852f6798a09c465da95921460cefb38474024989161ff001984541684555160018152a138808280f35b634e487b7160e01b895260419052602488fd5b61ffff191661010117865538610231565b855162461bcd60e51b8152808401869052602e60248201527f496e697469616c697a61626c653a20636f6e747261637420697320616c72656160448201526d191e481a5b9a5d1a585b1a5e995960921b6064820152608490fd5b50303b15801561021c5750600160ff82161461021c565b50600160ff821610610215565b83823461045457606036600319011261045457600381351015610454576024359067ffffffffffffffff908183116100ff57366023840112156100ff5782013590811161010757369101602401116101e15780f35b5080fd5b5034610107576003196060368201126100ff5781359067ffffffffffffffff8211610103576101609082360301126100ff576024359165ffffffffffff9485841684036101e15760443595861686036101e1575091602094916104bb9301610f6c565b9051908152f35b50503461045457816003193601126104545760335490516001600160a01b039091168152602090f35b50503461045457816003193601126104545760c95490516001600160a01b039091168152602090f35b83346101e157806003193601126101e15761052d610bfd565b603380546001600160a01b0319811690915581906001600160a01b03167f8be0079c531659141344cd1fd0a4f28419497f9722a3daafe3b4186f6b6457e08280a380f35b5082346101e157806003193601126101e157507f00000000000000000000000000000000000000000000000000000000000000006001600160a01b031630036105cb57602082516000805160206114448339815191528152f35b6020608492519162461bcd60e51b8352820152603860248201527f555550535570677261646561626c653a206d757374206e6f742062652063616c60448201527f6c6564207468726f7567682064656c656761746563616c6c00000000000000006064820152fd5b50908060031936011261010757610648610acc565b9060243567ffffffffffffffff81116101035736602382011215610103576106799036906024818701359101610b73565b6001600160a01b037f000000000000000000000000000000000000000000000000000000000000000081169291906106b330851415610c9e565b6106d0600080516020611444833981519152948286541614610cff565b6106d8610bfd565b7f4910fdfa16fed3260ed0e7147f7cc6da11a60208b5b9406d12a635614ffd91435460ff161561071057505050506101479150610d60565b82516352d1902d60e01b81526020959394918416919086818981865afa8991816108d3575b5061079457855162461bcd60e51b8152808901889052602e60248201527f45524331393637557067726164653a206e657720696d706c656d656e7461746960448201526d6f6e206973206e6f74205555505360901b6064820152608490fd5b969192959493960361087e57506107aa85610d60565b7fbc7cd75a20ee27fd9adebab32041f755214dbc6bffa90cc0225b39da2e5c2d3b8680a2825115801590610876575b6107e5575b5050505080f35b6108629385808351956107f787610b19565b602787527f416464726573733a206c6f772d6c6576656c2064656c65676174652063616c6c86880152660819985a5b195960ca1b858801528581519101845af4913d1561086c573d61085461084b82610b57565b92519283610b35565b81528681943d92013e610df0565b50388080806107de565b5060609250610df0565b5060016107d9565b825162461bcd60e51b8152908101849052602960248201527f45524331393637557067726164653a20756e737570706f727465642070726f786044820152681a58589b195555525160ba1b6064820152608490fd5b9091508781813d83116108ff575b6108eb8183610b35565b810103126108fb57519038610735565b8980fd5b503d6108e1565b509034610107576020806003193601126100ff57610922610acc565b916001600160a01b037f0000000000000000000000000000000000000000000000000000000000000000811661095a30821415610c9e565b610977600080516020611444833981519152918383541614610cff565b61097f610bfd565b82519161098b83610ae7565b8783527f4910fdfa16fed3260ed0e7147f7cc6da11a60208b5b9406d12a635614ffd91435460ff16156109c75750505050506101479150610d60565b85939495169084516352d1902d60e01b815286818981865afa899181610a9d575b50610a4757855162461bcd60e51b8152808901889052602e60248201527f45524331393637557067726164653a206e657720696d706c656d656e7461746960448201526d6f6e206973206e6f74205555505360901b6064820152608490fd5b969192959493960361087e5750610a5d85610d60565b7fbc7cd75a20ee27fd9adebab32041f755214dbc6bffa90cc0225b39da2e5c2d3b8680a2825115801590610a96576107e5575050505080f35b50846107d9565b9091508781813d8311610ac5575b610ab58183610b35565b810103126108fb575190386109e8565b503d610aab565b600435906001600160a01b0382168203610ae257565b600080fd5b6020810190811067ffffffffffffffff821117610b0357604052565b634e487b7160e01b600052604160045260246000fd5b6060810190811067ffffffffffffffff821117610b0357604052565b90601f8019910116810190811067ffffffffffffffff821117610b0357604052565b67ffffffffffffffff8111610b0357601f01601f191660200190565b929192610b7f82610b57565b91610b8d6040519384610b35565b829481845281830111610ae2578281602093846000960137010152565b359065ffffffffffff82168203610ae257565b919082519283825260005b848110610be9575050826000602080949584010152601f8019910116010190565b602081830181015184830182015201610bc8565b6033546001600160a01b03163303610c1157565b606460405162461bcd60e51b815260206004820152602060248201527f4f776e61626c653a2063616c6c6572206973206e6f7420746865206f776e65726044820152fd5b603380546001600160a01b039283166001600160a01b0319821681179092559091167f8be0079c531659141344cd1fd0a4f28419497f9722a3daafe3b4186f6b6457e0600080a3565b15610ca557565b60405162461bcd60e51b815260206004820152602c60248201527f46756e6374696f6e206d7573742062652063616c6c6564207468726f7567682060448201526b19195b1959d85d1958d85b1b60a21b6064820152608490fd5b15610d0657565b60405162461bcd60e51b815260206004820152602c60248201527f46756e6374696f6e206d7573742062652063616c6c6564207468726f7567682060448201526b6163746976652070726f787960a01b6064820152608490fd5b803b15610d955760008051602061144483398151915280546001600160a01b0319166001600160a01b03909216919091179055565b60405162461bcd60e51b815260206004820152602d60248201527f455243313936373a206e657720696d706c656d656e746174696f6e206973206e60448201526c1bdd08184818dbdb9d1c9858dd609a1b6064820152608490fd5b91929015610e525750815115610e04575090565b3b15610e0d5790565b60405162461bcd60e51b815260206004820152601d60248201527f416464726573733a2063616c6c20746f206e6f6e2d636f6e74726163740000006044820152606490fd5b825190915015610e655750805190602001fd5b60405162461bcd60e51b815260206004820152908190610e89906024830190610bbd565b0390fd5b15610e9457565b60405162461bcd60e51b815260206004820152602b60248201527f496e697469616c697a61626c653a20636f6e7472616374206973206e6f74206960448201526a6e697469616c697a696e6760a81b6064820152608490fd5b903590601e1981360301821215610ae2570180359067ffffffffffffffff8211610ae257602001918136038313610ae257565b15610f2757565b60405162461bcd60e51b815260206004820152601e60248201527f4141323720696e76616c69642066756e6374696f6e2073656c6563746f7200006044820152606490fd5b9160608301610f7b8185610eed565b600492919211610ae2576001600160e01b03199135821690610fc590610fa2831515610f20565b610fbf60c95493858560401b168114908115611071575b50610f20565b86610eed565b600493919311610ae25760405192602060018060a01b03978881351682870152013560408501523516606083015260608252608082019382851067ffffffffffffffff861117610b035761106b938560405260a084019660c0885261102e610160860186610bbd565b934660c08701523060e08701521661010085015265ffffffffffff8092166101208501521661014083015203609f1981018352607f190182610b35565b51902090565b9050858560201b161438610fb9565b1561108757565b60405162461bcd60e51b815260206004820152601760248201527f414133322065787069726564206f72206e6f74206475650000000000000000006044820152606490fd5b906110db610120830183610eed565b9283605411610ae2576110f060148301610baa565b916110fd60348201610baa565b946053190191604083148015611258575b156112135785846111429261113d65ffffffffffff80421690611135818716831015611080565b841611611080565b610f6c565b7f19457468657265756d205369676e6564204d6573736167653a0a333200000000600052601c5261119d611195603c60002061118f60018060a01b03948560c95416966054369201610b73565b9061137c565b919091611262565b16036111d9576040516111af81610ae7565b600081529260a09190911b65ffffffffffff60a01b1660d09190911b6001600160d01b0319161790565b6001906040516111e881610ae7565b600081529360a09190911b65ffffffffffff60a01b1660d09190911b6001600160d01b031916171790565b60405162461bcd60e51b815260206004820152601d60248201527f4141333520696e76616c6964207369676e6174757265206c656e6774680000006044820152606490fd5b506041831461110e565b600581101561136657806112735750565b600181036112c05760405162461bcd60e51b815260206004820152601860248201527f45434453413a20696e76616c6964207369676e617475726500000000000000006044820152606490fd5b6002810361130d5760405162461bcd60e51b815260206004820152601f60248201527f45434453413a20696e76616c6964207369676e6174757265206c656e677468006044820152606490fd5b60031461131657565b60405162461bcd60e51b815260206004820152602260248201527f45434453413a20696e76616c6964207369676e6174757265202773272076616c604482015261756560f01b6064820152608490fd5b634e487b7160e01b600052602160045260246000fd5b9060418151146000146113aa576113a6916020820151906060604084015193015160001a906113b4565b9091565b5050600090600290565b9291907f7fffffffffffffffffffffffffffffff5d576e7357a4501ddfe92f46681b20a083116114375791608094939160ff602094604051948552168484015260408301526060820152600093849182805260015afa1561142a5781516001600160a01b03811615611424579190565b50600190565b50604051903d90823e3d90fd5b5050505060009060039056fe360894a13ba1a3210667c828492db98dca3e2076cc3735a920a3ca505d382bbca26469706673582212200fd6da9b00c35d05fa40f96be6d38b506ab95bb6865ebaf0a2940d7299586cc064736f6c63430008140033",
  "linkReferences": {},
  "deployedLinkReferences": {}
}