{
  "_format": "hh-sol-artifact-1",
  "contractName": "Voucher",
  "sourceName": "contracts/accounts/Voucher.sol",
  "abi": [
    {
      "inputs": [
        {
          "internalType": "contract IEntryPoint",
          "name": "anEntryPoint",
          "type": "address"
        },
        {
          "internalType": "contract ITokenEntryPoint",
          "name": "aTokenEntryPoint",
          "type": "address"
        }
      ],
      "stateMutability": "nonpayable",
      "type": "constructor"
    },
    {
      "anonymous": false,
      "inputs": [
        {
          "indexed": false,
          "internalType": "address",
          "name": "previousAdmin",
          "type": "address"
        },
        {
          "indexed": false,
          "internalType": "address",
          "name": "newAdmin",
          "type": "address"
        }
      ],
      "name": "AdminChanged",
      "type": "event"
    },
    {
      "anonymous": false,
      "inputs": [
        {
          "indexed": true,
          "internalType": "address",
          "name": "beacon",
          "type": "address"
        }
      ],
      "name": "BeaconUpgraded",
      "type": "event"
    },
    {
      "anonymous": false,
      "inputs": [
        {
          "indexed": false,
          "internalType": "uint8",
          "name": "version",
          "type": "uint8"
        }
      ],
      "name": "Initialized",
      "type": "event"
    },
    {
      "anonymous": false,
      "inputs": [
        {
          "indexed": true,
          "internalType": "address",
          "name": "implementation",
          "type": "address"
        }
      ],
      "name": "Upgraded",
      "type": "event"
    },
    {
      "anonymous": false,
      "inputs": [
        {
          "indexed": true,
          "internalType": "contract IEntryPoint",
          "name": "entryPoint",
          "type": "address"
        },
        {
          "indexed": true,
          "internalType": "address",
          "name": "owner",
          "type": "address"
        }
      ],
      "name": "VoucherInitialized",
      "type": "event"
    },
    {
      "inputs": [],
      "name": "addDeposit",
      "outputs": [],
      "stateMutability": "payable",
      "type": "function"
    },
    {
      "inputs": [],
      "name": "entryPoint",
      "outputs": [
        {
          "internalType": "contract IEntryPoint",
          "name": "",
          "type": "address"
        }
      ],
      "stateMutability": "view",
      "type": "function"
    },
    {
      "inputs": [
        {
          "internalType": "address",
          "name": "dest",
          "type": "address"
        },
        {
          "internalType": "uint256",
          "name": "value",
          "type": "uint256"
        },
        {
          "internalType": "bytes",
          "name": "func",
          "type": "bytes"
        }
      ],
      "name": "execute",
      "outputs": [],
      "stateMutability": "nonpayable",
      "type": "function"
    },
    {
      "inputs": [
        {
          "internalType": "address[]",
          "name": "dest",
          "type": "address[]"
        },
        {
          "internalType": "bytes[]",
          "name": "func",
          "type": "bytes[]"
        }
      ],
      "name": "executeBatch",
      "outputs": [],
      "stateMutability": "nonpayable",
      "type": "function"
    },
    {
      "inputs": [],
      "name": "getDeposit",
      "outputs": [
        {
          "internalType": "uint256",
          "name": "",
          "type": "uint256"
        }
      ],
      "stateMutability": "view",
      "type": "function"
    },
    {
      "inputs": [],
      "name": "getNonce",
      "outputs": [
        {
          "internalType": "uint256",
          "name": "",
          "type": "uint256"
        }
      ],
      "stateMutability": "view",
      "type": "function"
    },
    {
      "inputs": [],
      "name": "initialize",
      "outputs": [],
      "stateMutability": "nonpayable",
      "type": "function"
    },
    {
      "inputs": [
        {
          "internalType": "bytes32",
          "name": "_hash",
          "type": "bytes32"
        },
        {
          "internalType": "bytes",
          "name": "_signature",
          "type": "bytes"
        }
      ],
      "name": "isValidSignature",
      "outputs": [
        {
          "internalType": "bytes4",
          "name": "",
          "type": "bytes4"
        }
      ],
      "stateMutability": "view",
      "type": "function"
    },
    {
      "inputs": [
        {
          "internalType": "address",
          "name": "",
          "type": "address"
        },
        {
          "internalType": "address",
          "name": "",
          "type": "address"
        },
        {
          "internalType": "uint256[]",
          "name": "",
          "type": "uint256[]"
        },
        {
          "internalType": "uint256[]",
          "name": "",
          "type": "uint256[]"
        },
        {
          "internalType": "bytes",
          "name": "",
          "type": "bytes"
        }
      ],
      "name": "onERC1155BatchReceived",
      "outputs": [
        {
          "internalType": "bytes4",
          "name": "",
          "type": "bytes4"
        }
      ],
      "stateMutability": "pure",
      "type": "function"
    },
    {
      "inputs": [
        {
          "internalType": "address",
          "name": "",
          "type": "address"
        },
        {
          "internalType": "address",
          "name": "",
          "type": "address"
        },
        {
          "internalType": "uint256",
          "name": "",
          "type": "uint256"
        },
        {
          "internalType": "uint256",
          "name": "",
          "type": "uint256"
        },
        {
          "internalType": "bytes",
          "name": "",
          "type": "bytes"
        }
      ],
      "name": "onERC1155Received",
      "outputs": [
        {
          "internalType": "bytes4",
          "name": "",
          "type": "bytes4"
        }
      ],
      "stateMutability": "pure",
      "type": "function"
    },
    {
      "inputs": [
        {
          "internalType": "address",
          "name": "",
          "type": "address"
        },
        {
          "internalType": "address",
          "name": "",
          "type": "address"
        },
        {
          "internalType": "uint256",
          "name": "",
          "type": "uint256"
        },
        {
          "internalType": "bytes",
          "name": "",
          "type": "bytes"
        }
      ],
      "name": "onERC721Received",
      "outputs": [
        {
          "internalType": "bytes4",
          "name": "",
          "type": "bytes4"
        }
      ],
      "stateMutability": "pure",
      "type": "function"
    },
    {
      "inputs": [],
      "name": "owner",
      "outputs": [
        {
          "internalType": "address",
          "name": "",
          "type": "address"
        }
      ],
      "stateMutability": "view",
      "type": "function"
    },
    {
      "inputs": [],
      "name": "proxiableUUID",
      "outputs": [
        {
          "internalType": "bytes32",
          "name": "",
          "type": "bytes32"
        }
      ],
      "stateMutability": "view",
      "type": "function"
    },
    {
      "inputs": [
        {
          "internalType": "address",
          "name": "newOwner",
          "type": "address"
        }
      ],
      "name": "recoverOwnership",
      "outputs": [],
      "stateMutability": "nonpayable",
      "type": "function"
    },
    {
      "inputs": [
        {
          "internalType": "bytes4",
          "name": "interfaceId",
          "type": "bytes4"
        }
      ],
      "name": "supportsInterface",
      "outputs": [
        {
          "internalType": "bool",
          "name": "",
          "type": "bool"
        }
      ],
      "stateMutability": "view",
      "type": "function"
    },
    {
      "inputs": [],
      "name": "tokenEntryPoint",
      "outputs": [
        {
          "internalType": "address",
          "name": "",
          "type": "address"
        }
      ],
      "stateMutability": "view",
      "type": "function"
    },
    {
      "inputs": [
        {
          "internalType": "address",
          "name": "",
          "type": "address"
        },
        {
          "internalType": "address",
          "name": "",
          "type": "address"
        },
        {
          "internalType": "address",
          "name": "",
          "type": "address"
        },
        {
          "internalType": "uint256",
          "name": "",
          "type": "uint256"
        },
        {
          "internalType": "bytes",
          "name": "",
          "type": "bytes"
        },
        {
          "internalType": "bytes",
          "name": "",
          "type": "bytes"
        }
      ],
      "name": "tokensReceived",
      "outputs": [],
      "stateMutability": "pure",
      "type": "function"
    },
    {
      "inputs": [
        {
          "internalType": "address",
          "name": "newOwner",
          "type": "address"
        }
      ],
      "name": "transferOwnership",
      "outputs": [],
      "stateMutability": "nonpayable",
      "type": "function"
    },
    {
      "inputs": [
        {
          "internalType": "address",
          "name": "newImplementation",
          "type": "address"
        }
      ],
      "name": "upgradeTo",
      "outputs": [],
      "stateMutability": "nonpayable",
      "type": "function"
    },
    {
      "inputs": [
        {
          "internalType": "address",
          "name": "newImplementation",
          "type": "address"
        },
        {
          "internalType": "bytes",
          "name": "data",
          "type": "bytes"
        }
      ],
      "name": "upgradeToAndCall",
      "outputs": [],
      "stateMutability": "payable",
      "type": "function"
    },
    {
      "inputs": [
        {
          "components": [
            {
              "internalType": "address",
              "name": "sender",
              "type": "address"
            },
            {
              "internalType": "uint256",
              "name": "nonce",
              "type": "uint256"
            },
            {
              "internalType": "bytes",
              "name": "initCode",
              "type": "bytes"
            },
            {
              "internalType": "bytes",
              "name": "callData",
              "type": "bytes"
            },
            {
              "internalType": "uint256",
              "name": "callGasLimit",
              "type": "uint256"
            },
            {
              "internalType": "uint256",
              "name": "verificationGasLimit",
              "type": "uint256"
            },
            {
              "internalType": "uint256",
              "name": "preVerificationGas",
              "type": "uint256"
            },
            {
              "internalType": "uint256",
              "name": "maxFeePerGas",
              "type": "uint256"
            },
            {
              "internalType": "uint256",
              "name": "maxPriorityFeePerGas",
              "type": "uint256"
            },
            {
              "internalType": "bytes",
              "name": "paymasterAndData",
              "type": "bytes"
            },
            {
              "internalType": "bytes",
              "name": "signature",
              "type": "bytes"
            }
          ],
          "internalType": "struct UserOperation",
          "name": "userOp",
          "type": "tuple"
        },
        {
          "internalType": "bytes32",
          "name": "userOpHash",
          "type": "bytes32"
        },
        {
          "internalType": "uint256",
          "name": "missingAccountFunds",
          "type": "uint256"
        }
      ],
      "name": "validateUserOp",
      "outputs": [
        {
          "internalType": "uint256",
          "name": "validationData",
          "type": "uint256"
        }
      ],
      "stateMutability": "nonpayable",
      "type": "function"
    },
    {
      "inputs": [
        {
          "components": [
            {
              "internalType": "address",
              "name": "sender",
              "type": "address"
            },
            {
              "internalType": "uint256",
              "name": "nonce",
              "type": "uint256"
            },
            {
              "internalType": "bytes",
              "name": "initCode",
              "type": "bytes"
            },
            {
              "internalType": "bytes",
              "name": "callData",
              "type": "bytes"
            },
            {
              "internalType": "uint256",
              "name": "callGasLimit",
              "type": "uint256"
            },
            {
              "internalType": "uint256",
              "name": "verificationGasLimit",
              "type": "uint256"
            },
            {
              "internalType": "uint256",
              "name": "preVerificationGas",
              "type": "uint256"
            },
            {
              "internalType": "uint256",
              "name": "maxFeePerGas",
              "type": "uint256"
            },
            {
              "internalType": "uint256",
              "name": "maxPriorityFeePerGas",
              "type": "uint256"
            },
            {
              "internalType": "bytes",
              "name": "paymasterAndData",
              "type": "bytes"
            },
            {
              "internalType": "bytes",
              "name": "signature",
              "type": "bytes"
            }
          ],
          "internalType": "struct UserOperation",
          "name": "userOp",
          "type": "tuple"
        },
        {
          "internalType": "bytes32",
          "name": "userOpHash",
          "type": "bytes32"
        }
      ],
      "name": "validateUserOp",
      "outputs": [
        {
          "internalType": "bool",
          "name": "",
          "type": "bool"
        }
      ],
      "stateMutability": "nonpayable",
      "type": "function"
    },
    {
      "inputs": [
        {
          "internalType": "address payable",
          "name": "withdrawAddress",
          "type": "address"
        },
        {
          "internalType": "uint256",
          "name": "amount",
          "type": "uint256"
        }
      ],
      "name": "withdrawDepositTo",
      "outputs": [],
      "stateMutability": "nonpayable",
      "type": "function"
    },
    {
      "stateMutability": "payable",
      "type": "receive"
    }
  ],
  "bytecode": "0x60e0346200019957601f6200215c38819003918201601f19168301916001600160401b038311848410176200019e578084926040948552833981010312620001995780516001600160a01b03918282168203620001995760200151918216820362000199573060805260a05260c05260005460ff8160081c16620001445760ff8082160362000108575b604051611fa79081620001b58239608051818181610566015281816109ca0152610adf015260a0518181816106d0015281816107a30152818161083d01528181610cb701528181610e5701528181610eeb01528181611029015281816117250152611776015260c0518181816102e801528181610d6d01526118140152f35b60ff90811916176000557f7f26b83ff96e1f2b6a682f133852f6798a09c465da95921460cefb3847402498602060405160ff8152a13862000089565b60405162461bcd60e51b815260206004820152602760248201527f496e697469616c697a61626c653a20636f6e747261637420697320696e697469604482015266616c697a696e6760c81b6064820152608490fd5b600080fd5b634e487b7160e01b600052604160045260246000fdfe6080604052600436101561001b575b361561001957600080fd5b005b60003560e01c806223de291461018a57806301ffc9a7146101855780630b699abe14610180578063150b7a021461017b5780631626ba7e1461017657806318dfb3c7146101715780633659cfe61461016c5780633a871cdd146101675780634a58db19146101625780634d44560d1461015d5780634f1ef2861461015857806352d1902d146101535780638129fc1c1461014e5780638da5cb5b14610149578063b0d691fe14610144578063b61d27f61461013f578063bb5032061461013a578063bc197c8114610135578063c399ec8814610130578063d087d2881461012b578063f23a6e6114610126578063f2fde38b146101215763fff35b720361000e57610fd7565b610faf565b610f55565b610eb8565b610e2b565b610d9c565b610d57565b610ce6565b610ca1565b610c74565b610b91565b610acc565b610978565b61080c565b610794565b61069b565b61053f565b610457565b6103d6565b61037c565b6102ac565b61023e565b6101d2565b6001600160a01b038116036101a057565b600080fd5b9181601f840112156101a0578235916001600160401b0383116101a057602083818601950101116101a057565b346101a05760c03660031901126101a0576101ee60043561018f565b6101f960243561018f565b61020460443561018f565b6001600160401b036084358181116101a0576102249036906004016101a5565b505060a4359081116101a0576100199036906004016101a5565b346101a05760203660031901126101a05760043563ffffffff60e01b81168091036101a057602090630a85bd0160e11b811490811561029b575b811561028a575b506040519015158152f35b6301ffc9a760e01b1490503861027f565b630271189760e51b81149150610278565b346101a05760203660031901126101a0576004356102c98161018f565b604051638da5cb5b60e01b81526001600160a01b0391906020816004817f000000000000000000000000000000000000000000000000000000000000000087165afa90811561037757600091610330575b506100199261032b91163314611e4e565b611ea5565b906020823d821161036f575b8161034960209383610905565b8101031261036c57506100199261032b91516103648161018f565b91509261031a565b80fd5b3d915061033c565b6110c0565b346101a05760803660031901126101a05761039860043561018f565b6103a360243561018f565b6064356001600160401b0381116101a0576103c29036906004016101a5565b5050604051630a85bd0160e11b8152602090f35b346101a05760403660031901126101a0576024356001600160401b0381116101a05761041461040b60209236906004016101a5565b90600435611b67565b6040516001600160e01b03199091168152f35b9181601f840112156101a0578235916001600160401b0383116101a0576020808501948460051b0101116101a057565b346101a05760403660031901126101a0576001600160401b036004358181116101a057610488903690600401610427565b90916024359081116101a0576104a2903690600401610427565b6104aa61176c565b8083036105045760005b8181106104bd57005b6104ee6104d36104ce838789611517565b61152c565b6104e86104e1848688611568565b3691610941565b90611abe565b60001981146104ff576001016104b4565b6114eb565b60405162461bcd60e51b815260206004820152601360248201527277726f6e67206172726179206c656e6774687360681b6044820152606490fd5b346101a05760203660031901126101a05760043561055c8161018f565b6001600160a01b037f000000000000000000000000000000000000000000000000000000000000000081169190610595308414156110fc565b6105b2600080516020611f3283398151915293828554161461115d565b6105ba611ade565b604051906105c7826108cf565b600082527f4910fdfa16fed3260ed0e7147f7cc6da11a60208b5b9406d12a635614ffd91435460ff1615610601575050610019915061126b565b6020600491604094939451928380926352d1902d60e01b825286165afa6000918161065c575b506106495760405162461bcd60e51b8152806106456004820161121c565b0390fd5b6100199361065791146111be565b6112fb565b61067e91925060203d8111610685575b6106768183610905565b8101906110b1565b9038610627565b503d61066c565b90816101609103126101a05790565b346101a05760603660031901126101a0576004356001600160401b0381116101a0576106cb90369060040161068c565b6044357f00000000000000000000000000000000000000000000000000000000000000006001600160a01b031633036107445761070e610726926024359061184e565b908061072a575b506040519081529081906020820190565b0390f35b600080808093338219f15061073d6110cc565b5038610715565b60405162461bcd60e51b815260206004820152601c60248201527f6163636f756e743a206e6f742066726f6d20456e747279506f696e74000000006044820152606490fd5b60009103126101a057565b60008060031936011261036c577f00000000000000000000000000000000000000000000000000000000000000006001600160a01b031681813b1561036c5760405163b760faf960e01b8152306004820152918290602490829034905af1801561037757610800575080f35b610809906108b7565b80f35b346101a0576000604036600319011261036c5760043561082b8161018f565b610833611ade565b6001600160a01b037f0000000000000000000000000000000000000000000000000000000000000000811691839190833b1561089d5760449083604051958694859363040b850f60e31b855216600484015260243560248401525af1801561037757610800575080f35b8280fd5b634e487b7160e01b600052604160045260246000fd5b6001600160401b0381116108ca57604052565b6108a1565b602081019081106001600160401b038211176108ca57604052565b606081019081106001600160401b038211176108ca57604052565b90601f801991011681019081106001600160401b038211176108ca57604052565b6001600160401b0381116108ca57601f01601f191660200190565b92919261094d82610926565b9161095b6040519384610905565b8294818452818301116101a0578281602093846000960137010152565b60403660031901126101a0576004356109908161018f565b6024356001600160401b0381116101a057366023820112156101a0576109c0903690602481600401359101610941565b6001600160a01b037f000000000000000000000000000000000000000000000000000000000000000081169291906109fa308514156110fc565b610a17600080516020611f3283398151915294828654161461115d565b610a1f611ade565b7f4910fdfa16fed3260ed0e7147f7cc6da11a60208b5b9406d12a635614ffd91435460ff1615610a55575050610019915061126b565b6020600491604094939451928380926352d1902d60e01b825286165afa60009181610aac575b50610a995760405162461bcd60e51b8152806106456004820161121c565b61001993610aa791146111be565b6113b7565b610ac591925060203d8111610685576106768183610905565b9038610a7b565b346101a05760003660031901126101a0577f00000000000000000000000000000000000000000000000000000000000000006001600160a01b03163003610b2657604051600080516020611f328339815191528152602090f35b60405162461bcd60e51b815260206004820152603860248201527f555550535570677261646561626c653a206d757374206e6f742062652063616c60448201527f6c6564207468726f7567682064656c656761746563616c6c00000000000000006064820152608490fd5b346101a05760008060031936011261036c578054610bc660ff8260081c161580928193610c66575b8115610c46575b50611583565b80610bd9600160ff196000541617600055565b610c2d575b610be66115e6565b610bed5780f35b610bfd61ff001960005416600055565b604051600181527f7f26b83ff96e1f2b6a682f133852f6798a09c465da95921460cefb384740249890602090a180f35b610c4161010061ff00196000541617600055565b610bde565b303b15915081610c58575b5038610bc0565b6001915060ff161438610c51565b600160ff8216109150610bb9565b346101a05760003660031901126101a05760005460405160109190911c6001600160a01b03168152602090f35b346101a05760003660031901126101a0576040517f00000000000000000000000000000000000000000000000000000000000000006001600160a01b03168152602090f35b346101a05760603660031901126101a057600435610d038161018f565b6044356001600160401b0381116101a057600091610d31610d29849336906004016101a5565b6104e161176c565b9060208251920190602435905af1610d476110cc565b9015610d4f57005b602081519101fd5b346101a05760003660031901126101a0576040517f00000000000000000000000000000000000000000000000000000000000000006001600160a01b03168152602090f35b346101a05760a03660031901126101a057610db860043561018f565b610dc360243561018f565b6001600160401b036044358181116101a057610de3903690600401610427565b50506064358181116101a057610dfd903690600401610427565b50506084359081116101a057610e179036906004016101a5565b505060405163bc197c8160e01b8152602090f35b346101a05760003660031901126101a0576040516370a0823160e01b81523060048201526020816024817f00000000000000000000000000000000000000000000000000000000000000006001600160a01b03165afa801561037757602091600091610e9b575b50604051908152f35b610eb29150823d8111610685576106768183610905565b38610e92565b346101a05760003660031901126101a057604051631aab3f0d60e11b8152306004820152600060248201526020816044817f00000000000000000000000000000000000000000000000000000000000000006001600160a01b03165afa80156103775761072691600091610f3757506040519081529081906020820190565b610f4f915060203d8111610685576106768183610905565b38610715565b346101a05760a03660031901126101a057610f7160043561018f565b610f7c60243561018f565b6084356001600160401b0381116101a057610f9b9036906004016101a5565b505060405163f23a6e6160e01b8152602090f35b346101a05760203660031901126101a057610019600435610fcf8161018f565b61032b611ade565b346101a05760403660031901126101a0576004356001600160401b0381116101a05761100790369060040161068c565b6110136024358261184e565b1580611027575b6040519015158152602090f35b7f00000000000000000000000000000000000000000000000000000000000000006001600160a01b0316803b156101a05760408051630bd28e3b60e01b815260209490940135901c60048401526000908390602490829084905af19182156103775761072692611098575b5061101a565b806110a56110ab926108b7565b80610789565b38611092565b908160209103126101a0575190565b6040513d6000823e3d90fd5b3d156110f7573d906110dd82610926565b916110eb6040519384610905565b82523d6000602084013e565b606090565b1561110357565b60405162461bcd60e51b815260206004820152602c60248201527f46756e6374696f6e206d7573742062652063616c6c6564207468726f7567682060448201526b19195b1959d85d1958d85b1b60a21b6064820152608490fd5b1561116457565b60405162461bcd60e51b815260206004820152602c60248201527f46756e6374696f6e206d7573742062652063616c6c6564207468726f7567682060448201526b6163746976652070726f787960a01b6064820152608490fd5b156111c557565b60405162461bcd60e51b815260206004820152602960248201527f45524331393637557067726164653a20756e737570706f727465642070726f786044820152681a58589b195555525160ba1b6064820152608490fd5b60809060208152602e60208201527f45524331393637557067726164653a206e657720696d706c656d656e7461746960408201526d6f6e206973206e6f74205555505360901b60608201520190565b803b156112a057600080516020611f3283398151915280546001600160a01b0319166001600160a01b03909216919091179055565b60405162461bcd60e51b815260206004820152602d60248201527f455243313936373a206e657720696d706c656d656e746174696f6e206973206e60448201526c1bdd08184818dbdb9d1c9858dd609a1b6064820152608490fd5b906113058261126b565b6001600160a01b0382167fbc7cd75a20ee27fd9adebab32041f755214dbc6bffa90cc0225b39da2e5c2d3b600080a28051158015906113af575b611347575050565b6113ac916000806040519361135b856108ea565b602785527f416464726573733a206c6f772d6c6576656c2064656c65676174652063616c6c6020860152660819985a5b195960ca1b6040860152602081519101845af46113a66110cc565b91611456565b50565b50600061133f565b906113c18261126b565b6001600160a01b0382167fbc7cd75a20ee27fd9adebab32041f755214dbc6bffa90cc0225b39da2e5c2d3b600080a280511580159061140257611347575050565b50600161133f565b1561141157565b60405162461bcd60e51b815260206004820152601d60248201527f416464726573733a2063616c6c20746f206e6f6e2d636f6e74726163740000006044820152606490fd5b91929015611479575081511561146a575090565b611476903b151561140a565b90565b82519091501561148c5750805190602001fd5b6040519062461bcd60e51b82528160208060048301528251908160248401526000935b8285106114d2575050604492506000838284010152601f80199101168101030190fd5b84810182015186860160440152938101938593506114af565b634e487b7160e01b600052601160045260246000fd5b634e487b7160e01b600052603260045260246000fd5b91908110156115275760051b0190565b611501565b356114768161018f565b903590601e19813603018212156101a057018035906001600160401b0382116101a0576020019181360383136101a057565b908210156115275761157f9160051b810190611536565b9091565b1561158a57565b60405162461bcd60e51b815260206004820152602e60248201527f496e697469616c697a61626c653a20636f6e747261637420697320616c72656160448201526d191e481a5b9a5d1a585b1a5e995960921b6064820152608490fd5b60ff60005460081c161561169b57600080516020611f32833981519152546001600160a01b031660008181526001602052604090205460ff16611656576001600160a01b0316600090815260016020526040902061164b90805460ff19166001179055565b611654336116f4565b565b60405162461bcd60e51b815260206004820152601960248201527f566f75636865723a20616c7265616479206d69677261746564000000000000006044820152606490fd5b60405162461bcd60e51b815260206004820152602b60248201527f496e697469616c697a61626c653a20636f6e7472616374206973206e6f74206960448201526a6e697469616c697a696e6760a81b6064820152608490fd5b6000805462010000600160b01b031916601083901b62010000600160b01b03161790556001600160a01b03908116907f0000000000000000000000000000000000000000000000000000000000000000167f706f6c731664f703c9b00eb42d1b09183bc2ac9772b13f96c2c0975df783d8eb600080a3565b60018060a01b03807f000000000000000000000000000000000000000000000000000000000000000016331490811561183c575b8115611810575b50156117af57565b60405162461bcd60e51b815260206004820152603360248201527f6163636f756e743a206e6f74204f776e6572206f7220456e747279506f696e74604482015272081bdc88151bdad95b915b9d1c9e541bda5b9d606a1b6064820152608490fd5b90507f0000000000000000000000000000000000000000000000000000000000000000163314386117a7565b80915060005460101c163314906117a0565b907f19457468657265756d205369676e6564204d6573736167653a0a333200000000600052601c52603c6000206118b16118a960018060a01b03926118a36104e18560005460101c1696610140810190611536565b90611a01565b9190916118e1565b16036118bc57600090565b600190565b600511156118cb57565b634e487b7160e01b600052602160045260246000fd5b6118ea816118c1565b806118f25750565b6118fb816118c1565b600181036119485760405162461bcd60e51b815260206004820152601860248201527f45434453413a20696e76616c6964207369676e617475726500000000000000006044820152606490fd5b611951816118c1565b6002810361199e5760405162461bcd60e51b815260206004820152601f60248201527f45434453413a20696e76616c6964207369676e6174757265206c656e677468006044820152606490fd5b806119aa6003926118c1565b146119b157565b60405162461bcd60e51b815260206004820152602260248201527f45434453413a20696e76616c6964207369676e6174757265202773272076616c604482015261756560f01b6064820152608490fd5b906041815114600014611a2b5761157f916020820151906060604084015193015160001a90611a35565b5050600090600290565b939291906fa2a8918ca85bafe22016d0b997e4df60600160ff1b038311611ab15791611a829160209360405196879094939260ff6060936080840197845216602083015260408201520152565b836000948592838052039060015afa156103775781516001600160a01b03811615611aab579190565b50600190565b5050509050600090600390565b600091829182602083519301915af1611ad56110cc565b9015610d4f5750565b6000543360109190911c6001600160a01b0316148015611b5e575b15611b0057565b60405162461bcd60e51b815260206004820152603060248201527f4f776e61626c653a2063616c6c6572206973206e6f7420746865206f776e657260448201526f081bdc881d1a194818dbdb9d1c9858dd60821b6064820152608490fd5b50333014611af9565b9190611b74913691610941565b90611b826041835114611d27565b611ba5611b9f611b9184611d87565b516001600160f81b03191690565b60f81c90565b611bb7611bb184611dea565b93611e3e565b916fa2a8918ca85bafe22016d0b997e4df60600160ff1b038311611cce5760ff8216601b8114159081611cc2575b50611c6957611c19600093602095604051948594859094939260ff6060936080840197845216602083015260408201520152565b838052039060015afa15610377576000516001600160a01b0316611c3e811515611d97565b60005460101c6001600160a01b031603611c5d57630b135d3f60e11b90565b6001600160e01b031990565b60405162461bcd60e51b815260206004820152603d6024820152600080516020611f5283398151915260448201527f3a20696e76616c6964207369676e6174757265202776272076616c75650000006064820152608490fd5b601c9150141538611be5565b60405162461bcd60e51b815260206004820152603d6024820152600080516020611f5283398151915260448201527f3a20696e76616c6964207369676e6174757265202773272076616c75650000006064820152608490fd5b15611d2e57565b60405162461bcd60e51b815260206004820152603a6024820152600080516020611f5283398151915260448201527f3a20696e76616c6964207369676e6174757265206c656e6774680000000000006064820152608490fd5b8051604010156115275760600190565b15611d9e57565b60405162461bcd60e51b81526020600482015260306024820152600080516020611f5283398151915260448201526f1d1024a72b20a624a22fa9a4a3a722a960811b6064820152608490fd5b6020815110611dfa576020015190565b606460405162461bcd60e51b815260206004820152602060248201527f72656164427974657333323a20696e76616c69642064617461206c656e6774686044820152fd5b6040815110611dfa576040015190565b15611e5557565b60405162461bcd60e51b815260206004820152602260248201527f4f776e61626c653a206e6f7420546f6b656e456e747279506f696e74206f776e60448201526132b960f11b6064820152608490fd5b6001600160a01b03811615611edd576000805462010000600160b01b03191660109290921b62010000600160b01b0316919091179055565b60405162461bcd60e51b815260206004820152602660248201527f4f776e61626c653a206e6577206f776e657220697320746865207a65726f206160448201526564647265737360d01b6064820152608490fdfe360894a13ba1a3210667c828492db98dca3e2076cc3735a920a3ca505d382bbc5369676e617475726556616c696461746f72237265636f7665725369676e6572a2646970667358221220fe9cf65327428811471273cb6d3e1a5d77100d90a7bb07520307e97d098a654564736f6c63430008140033",
  "linkReferences": {},
  "deployedLinkReferences": {}
}