{
  "_format": "hh-sol-artifact-1",
  "contractName": "ERC20IOU",
  "sourceName": "contracts/apps/ERC20IOU.sol",
  "abi": [
    {
      "anonymous": false,
      "inputs": [
        {
          "indexed": false,
          "internalType": "address",
          "name": "previousAdmin",
          "type": "address"
        },
        {
          "indexed": false,
          "internalType": "address",
          "name": "newAdmin",
          "type": "address"
        }
      ],
      "name": "AdminChanged",
      "type": "event"
    },
    {
      "anonymous": false,
      "inputs": [
        {
          "indexed": true,
          "internalType": "address",
          "name": "beacon",
          "type": "address"
        }
      ],
      "name": "BeaconUpgraded",
      "type": "event"
    },
    {
      "anonymous": false,
      "inputs": [
        {
          "indexed": false,
          "internalType": "uint8",
          "name": "version",
          "type": "uint8"
        }
      ],
      "name": "Initialized",
      "type": "event"
    },
    {
      "anonymous": false,
      "inputs": [
        {
          "indexed": true,
          "internalType": "address",
          "name": "previousOwner",
          "type": "address"
        },
        {
          "indexed": true,
          "internalType": "address",
          "name": "newOwner",
          "type": "address"
        }
      ],
      "name": "OwnershipTransferred",
      "type": "event"
    },
    {
      "anonymous": false,
      "inputs": [
        {
          "indexed": true,
          "internalType": "address",
          "name": "from",
          "type": "address"
        },
        {
          "indexed": true,
          "internalType": "address",
          "name": "to",
          "type": "address"
        },
        {
          "indexed": false,
          "internalType": "uint256",
          "name": "amount",
          "type": "uint256"
        }
      ],
      "name": "Redeem",
      "type": "event"
    },
    {
      "anonymous": false,
      "inputs": [
        {
          "indexed": true,
          "internalType": "address",
          "name": "implementation",
          "type": "address"
        }
      ],
      "name": "Upgraded",
      "type": "event"
    },
    {
      "inputs": [
        {
          "internalType": "address",
          "name": "from",
          "type": "address"
        },
        {
          "internalType": "uint256",
          "name": "amount",
          "type": "uint256"
        },
        {
          "internalType": "uint48",
          "name": "validUntil",
          "type": "uint48"
        },
        {
          "internalType": "uint48",
          "name": "validAfter",
          "type": "uint48"
        },
        {
          "internalType": "uint256",
          "name": "sequence",
          "type": "uint256"
        }
      ],
      "name": "getHash",
      "outputs": [
        {
          "internalType": "bytes32",
          "name": "",
          "type": "bytes32"
        }
      ],
      "stateMutability": "view",
      "type": "function"
    },
    {
      "inputs": [
        {
          "internalType": "contract IERC20Upgradeable",
          "name": "_token",
          "type": "address"
        }
      ],
      "name": "initialize",
      "outputs": [],
      "stateMutability": "nonpayable",
      "type": "function"
    },
    {
      "inputs": [],
      "name": "owner",
      "outputs": [
        {
          "internalType": "address",
          "name": "",
          "type": "address"
        }
      ],
      "stateMutability": "view",
      "type": "function"
    },
    {
      "inputs": [],
      "name": "proxiableUUID",
      "outputs": [
        {
          "internalType": "bytes32",
          "name": "",
          "type": "bytes32"
        }
      ],
      "stateMutability": "view",
      "type": "function"
    },
    {
      "inputs": [
        {
          "internalType": "address",
          "name": "from",
          "type": "address"
        },
        {
          "internalType": "uint256",
          "name": "amount",
          "type": "uint256"
        },
        {
          "internalType": "uint48",
          "name": "validUntil",
          "type": "uint48"
        },
        {
          "internalType": "uint48",
          "name": "validAfter",
          "type": "uint48"
        },
        {
          "internalType": "uint256",
          "name": "sequence",
          "type": "uint256"
        },
        {
          "internalType": "bytes",
          "name": "signature",
          "type": "bytes"
        }
      ],
      "name": "redeem",
      "outputs": [],
      "stateMutability": "nonpayable",
      "type": "function"
    },
    {
      "inputs": [
        {
          "internalType": "bytes32",
          "name": "redeemHash",
          "type": "bytes32"
        }
      ],
      "name": "redeemed",
      "outputs": [
        {
          "internalType": "uint48",
          "name": "time",
          "type": "uint48"
        }
      ],
      "stateMutability": "view",
      "type": "function"
    },
    {
      "inputs": [],
      "name": "renounceOwnership",
      "outputs": [],
      "stateMutability": "nonpayable",
      "type": "function"
    },
    {
      "inputs": [],
      "name": "token",
      "outputs": [
        {
          "internalType": "contract IERC20Upgradeable",
          "name": "",
          "type": "address"
        }
      ],
      "stateMutability": "view",
      "type": "function"
    },
    {
      "inputs": [
        {
          "internalType": "address",
          "name": "newOwner",
          "type": "address"
        }
      ],
      "name": "transferOwnership",
      "outputs": [],
      "stateMutability": "nonpayable",
      "type": "function"
    },
    {
      "inputs": [
        {
          "internalType": "address",
          "name": "newImplementation",
          "type": "address"
        }
      ],
      "name": "upgradeTo",
      "outputs": [],
      "stateMutability": "nonpayable",
      "type": "function"
    },
    {
      "inputs": [
        {
          "internalType": "address",
          "name": "newImplementation",
          "type": "address"
        },
        {
          "internalType": "bytes",
          "name": "data",
          "type": "bytes"
        }
      ],
      "name": "upgradeToAndCall",
      "outputs": [],
      "stateMutability": "payable",
      "type": "function"
    }
  ],
  "bytecode": "0x60a0806040523461003157306080526115d2908161003782396080518181816101090152818161038001526104950152f35b600080fdfe6080604052600436101561001257600080fd5b60003560e01c80633659cfe6146100c75780633d8b9e07146100c25780634f1ef286146100bd57806352d1902d146100b8578063536f3fff146100b3578063715018a6146100ae5780638da5cb5b146100a9578063c4d66de8146100a4578063f2fde38b1461009f578063fae0d7dc1461009a5763fc0c546a1461009557600080fd5b61083c565b6107f4565b610763565b610676565b61064d565b6105ec565b610571565b610482565b61032d565b610231565b6100e2565b6001600160a01b038116036100dd57565b600080fd5b346100dd5760203660031901126100dd576004356100ff816100cc565b6001600160a01b037f00000000000000000000000000000000000000000000000000000000000000008116919061013830841415610906565b61015560008051602061155d833981519152938285541614610967565b61015d610865565b6040519061016a8261027b565b600082527f4910fdfa16fed3260ed0e7147f7cc6da11a60208b5b9406d12a635614ffd91435460ff16156101a65750506101a49150610a90565b005b6020600491604094939451928380926352d1902d60e01b825286165afa60009181610201575b506101ee5760405162461bcd60e51b8152806101ea60048201610a41565b0390fd5b6101a4936101fc91146109e3565b610b20565b61022391925060203d811161022a575b61021b81836102b8565b8101906109c8565b90386101cc565b503d610211565b346100dd5760203660031901126100dd5760043560005260ca602052602065ffffffffffff60406000205416604051908152f35b634e487b7160e01b600052604160045260246000fd5b6020810190811067ffffffffffffffff82111761029757604052565b610265565b6060810190811067ffffffffffffffff82111761029757604052565b90601f8019910116810190811067ffffffffffffffff82111761029757604052565b67ffffffffffffffff811161029757601f01601f191660200190565b929192610302826102da565b9161031060405193846102b8565b8294818452818301116100dd578281602093846000960137010152565b60403660031901126100dd57600435610345816100cc565b60243567ffffffffffffffff81116100dd57366023820112156100dd576103769036906024816004013591016102f6565b6001600160a01b037f000000000000000000000000000000000000000000000000000000000000000081169291906103b030851415610906565b6103cd60008051602061155d833981519152948286541614610967565b6103d5610865565b7f4910fdfa16fed3260ed0e7147f7cc6da11a60208b5b9406d12a635614ffd91435460ff161561040b5750506101a49150610a90565b6020600491604094939451928380926352d1902d60e01b825286165afa60009181610462575b5061044f5760405162461bcd60e51b8152806101ea60048201610a41565b6101a49361045d91146109e3565b610c05565b61047b91925060203d811161022a5761021b81836102b8565b9038610431565b346100dd5760003660031901126100dd577f00000000000000000000000000000000000000000000000000000000000000006001600160a01b031630036104dc5760405160008051602061155d8339815191528152602090f35b60405162461bcd60e51b815260206004820152603860248201527f555550535570677261646561626c653a206d757374206e6f742062652063616c60448201527f6c6564207468726f7567682064656c656761746563616c6c00000000000000006064820152608490fd5b6044359065ffffffffffff821682036100dd57565b6064359065ffffffffffff821682036100dd57565b346100dd5760c03660031901126100dd5760043561058e816100cc565b610596610547565b61059e61055c565b9060a4359267ffffffffffffffff928385116100dd57366023860112156100dd5784600401359384116100dd5736602485870101116100dd5760246101a49501926084359260243590611026565b346100dd5760008060031936011261064a57610606610865565b603380546001600160a01b0319811690915581906001600160a01b03167f8be0079c531659141344cd1fd0a4f28419497f9722a3daafe3b4186f6b6457e08280a380f35b80fd5b346100dd5760003660031901126100dd576033546040516001600160a01b039091168152602090f35b346100dd5760203660031901126100dd57600435610693816100cc565b6106d7600054916106bb60ff8460081c161580948195610755575b8115610735575b50610d3b565b826106ce600160ff196000541617600055565b61071c57610d9e565b6106dd57005b6106ed61ff001960005416600055565b604051600181527f7f26b83ff96e1f2b6a682f133852f6798a09c465da95921460cefb384740249890602090a1005b61073061010061ff00196000541617600055565b610d9e565b303b15915081610747575b50386106b5565b6001915060ff161438610740565b600160ff82161091506106ae565b346100dd5760203660031901126100dd57600435610780816100cc565b610788610865565b6001600160a01b038116156107a0576101a4906108bd565b60405162461bcd60e51b815260206004820152602660248201527f4f776e61626c653a206e6577206f776e657220697320746865207a65726f206160448201526564647265737360d01b6064820152608490fd5b346100dd5760a03660031901126100dd576020610834600435610816816100cc565b61081e610547565b61082661055c565b906084359260243590610e54565b604051908152f35b346100dd5760003660031901126100dd5760c9546040516001600160a01b039091168152602090f35b6033546001600160a01b0316330361087957565b606460405162461bcd60e51b815260206004820152602060248201527f4f776e61626c653a2063616c6c6572206973206e6f7420746865206f776e65726044820152fd5b603380546001600160a01b039283166001600160a01b0319821681179092559091167f8be0079c531659141344cd1fd0a4f28419497f9722a3daafe3b4186f6b6457e0600080a3565b1561090d57565b60405162461bcd60e51b815260206004820152602c60248201527f46756e6374696f6e206d7573742062652063616c6c6564207468726f7567682060448201526b19195b1959d85d1958d85b1b60a21b6064820152608490fd5b1561096e57565b60405162461bcd60e51b815260206004820152602c60248201527f46756e6374696f6e206d7573742062652063616c6c6564207468726f7567682060448201526b6163746976652070726f787960a01b6064820152608490fd5b908160209103126100dd575190565b6040513d6000823e3d90fd5b156109ea57565b60405162461bcd60e51b815260206004820152602960248201527f45524331393637557067726164653a20756e737570706f727465642070726f786044820152681a58589b195555525160ba1b6064820152608490fd5b60809060208152602e60208201527f45524331393637557067726164653a206e657720696d706c656d656e7461746960408201526d6f6e206973206e6f74205555505360901b60608201520190565b803b15610ac55760008051602061155d83398151915280546001600160a01b0319166001600160a01b03909216919091179055565b60405162461bcd60e51b815260206004820152602d60248201527f455243313936373a206e657720696d706c656d656e746174696f6e206973206e60448201526c1bdd08184818dbdb9d1c9858dd609a1b6064820152608490fd5b90610b2a82610a90565b60006001600160a01b0383167fbc7cd75a20ee27fd9adebab32041f755214dbc6bffa90cc0225b39da2e5c2d3b8280a2815115801590610bfe575b610b6e57505050565b610bf292818060405194610b818661029c565b602786527f416464726573733a206c6f772d6c6576656c2064656c65676174652063616c6c6020870152660819985a5b195960ca1b6040870152602081519101845af4903d15610bf5573d610bd5816102da565b90610be360405192836102b8565b8152809360203d92013e610ca6565b50565b60609250610ca6565b5080610b65565b90610c0f82610a90565b60006001600160a01b0383167fbc7cd75a20ee27fd9adebab32041f755214dbc6bffa90cc0225b39da2e5c2d3b8280a2815115801590610c5257610b6e57505050565b506001610b65565b15610c6157565b60405162461bcd60e51b815260206004820152601d60248201527f416464726573733a2063616c6c20746f206e6f6e2d636f6e74726163740000006044820152606490fd5b91929015610cc95750815115610cba575090565b610cc6903b1515610c5a565b90565b825190915015610cdc5750805190602001fd5b6040519062461bcd60e51b82528160208060048301528251908160248401526000935b828510610d22575050604492506000838284010152601f80199101168101030190fd5b8481018201518686016044015293810193859350610cff565b15610d4257565b60405162461bcd60e51b815260206004820152602e60248201527f496e697469616c697a61626c653a20636f6e747261637420697320616c72656160448201526d191e481a5b9a5d1a585b1a5e995960921b6064820152608490fd5b610db860ff60005460081c16610db381610df4565b610df4565b610dc1336108bd565b610dd260ff60005460081c16610df4565b60018060a01b03166bffffffffffffffffffffffff60a01b60c954161760c955565b15610dfb57565b60405162461bcd60e51b815260206004820152602b60248201527f496e697469616c697a61626c653a20636f6e7472616374206973206e6f74206960448201526a6e697469616c697a696e6760a81b6064820152608490fd5b939190926040519360208501956bffffffffffffffffffffffff199060601b168652603485015265ffffffffffff60d01b809260d01b16605485015260d01b16605a83015260608201524660808201523060601b60a08201526094815260c0810181811067ffffffffffffffff8211176102975760405251902090565b15610ed857565b60405162461bcd60e51b815260206004820152602260248201527f4552433230494f553a2065787069726564206f72206e6f742076616c69642079604482015261195d60f21b6064820152608490fd5b15610f2f57565b60405162461bcd60e51b815260206004820152601a60248201527f4552433230494f553a20616c72656164792072656465656d65640000000000006044820152606490fd5b15610f7b57565b60405162461bcd60e51b815260206004820152601b60248201527f4552433230494f553a20696e76616c6964207369676e617475726500000000006044820152606490fd5b908160209103126100dd57516001600160e01b0319811681036100dd5790565b91926060938192845260406020850152816040850152848401376000828201840152601f01601f1916010190565b908160209103126100dd575180151581036100dd5790565b9590949192936110589065ffffffffffff958642169587821687101580611283575b61105190610ed1565b888a610e54565b916110da604051936020946110ac8161109e8882019485603c917f19457468657265756d205369676e6564204d6573736167653a0a3332000000008252601c8201520190565b03601f1981018352826102b8565b519020956110d36110c78860005260ca602052604060002090565b5465ffffffffffff1690565b1615610f28565b82873b15611252576111039260405180948192630b135d3f60e11b958684528a60048501610fe0565b03816001600160a01b038b165afa80156112205761113492600091611225575b506001600160e01b03191614610f74565b60c9546001600160a01b03166040516323b872dd60e01b81526001600160a01b03871660048201523360248201526044810186905293908290859060649082906000905af1918215611220576111b89461119f936111f2575b505060005260ca602052604060002090565b9065ffffffffffff1665ffffffffffff19825416179055565b60405190815233916001600160a01b0316907fd12200efa34901b99367694174c3b0d32c99585fdf37c7c26892136ddd0836d990602090a3565b8161121192903d10611219575b61120981836102b8565b81019061100e565b50388061118d565b503d6111ff565b6109d7565b6112459150843d861161124b575b61123d81836102b8565b810190610fc0565b38611123565b503d611233565b5061126561126b9161127e9336916102f6565b85611367565b6001600160a01b03878116911614610f74565b611134565b508088168710611048565b1561129557565b60405162461bcd60e51b815260206004820152603a602482015260008051602061157d83398151915260448201527f3a20696e76616c6964207369676e6174757265206c656e6774680000000000006064820152608490fd5b8051604010156112fe5760600190565b634e487b7160e01b600052603260045260246000fd5b1561131b57565b60405162461bcd60e51b8152602060048201526030602482015260008051602061157d83398151915260448201526f1d1024a72b20a624a22fa9a4a3a722a960811b6064820152608490fd5b611374604183511461128e565b611397611391611383846112ee565b516001600160f81b03191690565b60f81c90565b6113a96113a3846114f8565b9361154c565b917f7fffffffffffffffffffffffffffffff5d576e7357a4501ddfe92f46681b20a0831161149f5760ff8216601b8114159081611493575b5061143a57611415600093602095604051948594859094939260ff6060936080840197845216602083015260408201520152565b838052039060015afa1561122057600051610cc66001600160a01b0382161515611314565b60405162461bcd60e51b815260206004820152603d602482015260008051602061157d83398151915260448201527f3a20696e76616c6964207369676e6174757265202776272076616c75650000006064820152608490fd5b601c91501415386113e1565b60405162461bcd60e51b815260206004820152603d602482015260008051602061157d83398151915260448201527f3a20696e76616c6964207369676e6174757265202773272076616c75650000006064820152608490fd5b6020815110611508576020015190565b606460405162461bcd60e51b815260206004820152602060248201527f72656164427974657333323a20696e76616c69642064617461206c656e6774686044820152fd5b604081511061150857604001519056fe360894a13ba1a3210667c828492db98dca3e2076cc3735a920a3ca505d382bbc5369676e617475726556616c696461746f72237265636f7665725369676e6572a2646970667358221220373cbd18f9b8519da0713e8da0430a609d0d4975f86d73da72f4f47ac054bc8964736f6c63430008140033",
  "linkReferences": {},
  "deployedLinkReferences": {}
}