{
  "_format": "hh-sol-artifact-1",
  "contractName": "FaucetFactory",
  "sourceName": "contracts/apps/FaucetFactory.sol",
  "abi": [
    {
      "inputs": [],
      "stateMutability": "nonpayable",
      "type": "constructor"
    },
    {
      "anonymous": false,
      "inputs": [
        {
          "indexed": true,
          "internalType": "address",
          "name": "faucet",
          "type": "address"
        },
        {
          "indexed": false,
          "internalType": "address",
          "name": "token",
          "type": "address"
        },
        {
          "indexed": false,
          "internalType": "uint256",
          "name": "amount",
          "type": "uint256"
        },
        {
          "indexed": false,
          "internalType": "uint48",
          "name": "redeemInterval",
          "type": "uint48"
        }
      ],
      "name": "RedeemCodeFaucetCreated",
      "type": "event"
    },
    {
      "anonymous": false,
      "inputs": [
        {
          "indexed": true,
          "internalType": "address",
          "name": "faucet",
          "type": "address"
        },
        {
          "indexed": false,
          "internalType": "address",
          "name": "token",
          "type": "address"
        },
        {
          "indexed": false,
          "internalType": "uint256",
          "name": "amount",
          "type": "uint256"
        },
        {
          "indexed": false,
          "internalType": "uint48",
          "name": "redeemInterval",
          "type": "uint48"
        }
      ],
      "name": "SimpleFaucetCreated",
      "type": "event"
    },
    {
      "inputs": [
        {
          "internalType": "address",
          "name": "owner",
          "type": "address"
        },
        {
          "internalType": "uint256",
          "name": "salt",
          "type": "uint256"
        },
        {
          "internalType": "contract IERC20Upgradeable",
          "name": "_token",
          "type": "address"
        },
        {
          "internalType": "uint48",
          "name": "_redeemInterval",
          "type": "uint48"
        },
        {
          "internalType": "address",
          "name": "_codeCreator",
          "type": "address"
        }
      ],
      "name": "createRedeemCodeFaucet",
      "outputs": [
        {
          "internalType": "contract RedeemCodeFaucet",
          "name": "ret",
          "type": "address"
        }
      ],
      "stateMutability": "nonpayable",
      "type": "function"
    },
    {
      "inputs": [
        {
          "internalType": "address",
          "name": "owner",
          "type": "address"
        },
        {
          "internalType": "uint256",
          "name": "salt",
          "type": "uint256"
        },
        {
          "internalType": "contract IERC20Upgradeable",
          "name": "_token",
          "type": "address"
        },
        {
          "internalType": "uint256",
          "name": "_amount",
          "type": "uint256"
        },
        {
          "internalType": "uint48",
          "name": "_redeemInterval",
          "type": "uint48"
        },
        {
          "internalType": "address",
          "name": "_redeemAdmin",
          "type": "address"
        }
      ],
      "name": "createSimpleFaucet",
      "outputs": [
        {
          "internalType": "contract SimpleFaucet",
          "name": "ret",
          "type": "address"
        }
      ],
      "stateMutability": "nonpayable",
      "type": "function"
    },
    {
      "inputs": [
        {
          "internalType": "address",
          "name": "owner",
          "type": "address"
        },
        {
          "internalType": "uint256",
          "name": "salt",
          "type": "uint256"
        },
        {
          "internalType": "contract IERC20Upgradeable",
          "name": "_token",
          "type": "address"
        },
        {
          "internalType": "uint48",
          "name": "_redeemInterval",
          "type": "uint48"
        },
        {
          "internalType": "address",
          "name": "_codeCreator",
          "type": "address"
        }
      ],
      "name": "getRedeemCodeFaucetAddress",
      "outputs": [
        {
          "internalType": "address",
          "name": "",
          "type": "address"
        }
      ],
      "stateMutability": "view",
      "type": "function"
    },
    {
      "inputs": [
        {
          "internalType": "address",
          "name": "owner",
          "type": "address"
        },
        {
          "internalType": "uint256",
          "name": "salt",
          "type": "uint256"
        },
        {
          "internalType": "contract IERC20Upgradeable",
          "name": "_token",
          "type": "address"
        },
        {
          "internalType": "uint256",
          "name": "_amount",
          "type": "uint256"
        },
        {
          "internalType": "uint48",
          "name": "_redeemInterval",
          "type": "uint48"
        },
        {
          "internalType": "address",
          "name": "_redeemAdmin",
          "type": "address"
        }
      ],
      "name": "getSimpleFaucetAddress",
      "outputs": [
        {
          "internalType": "address",
          "name": "",
          "type": "address"
        }
      ],
      "stateMutability": "view",
      "type": "function"
    },
    {
      "inputs": [],
      "name": "redeemCodeFaucetImplementation",
      "outputs": [
        {
          "internalType": "contract RedeemCodeFaucet",
          "name": "",
          "type": "address"
        }
      ],
      "stateMutability": "view",
      "type": "function"
    },
    {
      "inputs": [],
      "name": "simpleFaucetImplementation",
      "outputs": [
        {
          "internalType": "contract SimpleFaucet",
          "name": "",
          "type": "address"
        }
      ],
      "stateMutability": "view",
      "type": "function"
    }
  ],
  "bytecode": "0x60c060405234801561001057600080fd5b5060405161001d90610080565b604051809103906000f080158015610039573d6000803e3d6000fd5b506001600160a01b03166080526040516100529061008d565b604051809103906000f08015801561006e573d6000803e3d6000fd5b506001600160a01b031660a05261009a565b611afd80610d9a83390190565b611ee68061289783390190565b60805160a051610cc16100d96000396000818160fe015281816102e001526103d601526000818160bf0152818161016901526104c00152610cc16000f3fe60806040523480156200001157600080fd5b50600436106200006a5760003560e01c806309e5223e146200006f5780634a40c13214620000a25780636057b63d14620000b95780636589575814620000e157806376c4041714620000f8578063c8a66cb01462000120575b600080fd5b6200008662000080366004620005ef565b62000137565b6040516001600160a01b03909116815260200160405180910390f35b62000086620000b336600462000666565b62000227565b620000867f000000000000000000000000000000000000000000000000000000000000000081565b62000086620000f236600462000666565b62000376565b620000867f000000000000000000000000000000000000000000000000000000000000000081565b6200008662000131366004620005ef565b62000434565b60006200021a8660001b604051806020016200015390620005ac565b6020820181038252601f19601f820116604052507f00000000000000000000000000000000000000000000000000000000000000008a89898989604051602401620001a3959493929190620006d5565b60408051601f19818403018152918152602080830180516001600160e01b03166377202ba160e01b1790529051620001de9392910162000733565b60408051601f1981840301815290829052620001fe929160200162000777565b604051602081830303815290604052805190602001206200056c565b90505b9695505050505050565b60008062000239878787878762000376565b604080516001600160a01b0388811682526000602083015265ffffffffffff8816828401529151929350908316917fb93973492142c237facfddbc7e4e65070b940426b6a350b2c3cc492bf19707349181900360600190a26001600160a01b0381163b8015620002ac575090506200036d565b6040516001600160a01b03808a166024830152808816604483015265ffffffffffff871660648301528516608482015287907f00000000000000000000000000000000000000000000000000000000000000009060a40160408051601f198184030181529181526020820180516001600160e01b03166302c7bf3d60e31b179052516200033990620005ac565b6200034692919062000733565b8190604051809103906000f590508015801562000367573d6000803e3d6000fd5b50925050505b95945050505050565b60006200021d8560001b604051806020016200039290620005ac565b601f1982820381018352601f9091011660408190526001600160a01b03808b166024830152808916604483015265ffffffffffff88166064830152861660848201527f00000000000000000000000000000000000000000000000000000000000000009060a40160408051601f19818403018152918152602080830180516001600160e01b03166302c7bf3d60e31b1790529051620001de9392910162000733565b6000806200044788888888888862000137565b604080516001600160a01b0389811682526020820189905265ffffffffffff8816828401529151929350908316917ffe6b2ca53152946ea448fc2f0d59bb5c77fd6a42dfe98fecb30750d2baaf8a319181900360600190a26001600160a01b0381163b8015620004ba575090506200021d565b8760001b7f00000000000000000000000000000000000000000000000000000000000000008a89898989604051602401620004fa959493929190620006d5565b60408051601f198184030181529181526020820180516001600160e01b03166377202ba160e01b179052516200053090620005ac565b6200053d92919062000733565b8190604051809103906000f59050801580156200055e573d6000803e3d6000fd5b509998505050505050505050565b60006200057b83833062000582565b9392505050565b6000604051836040820152846020820152828152600b8101905060ff815360559020949350505050565b6104e180620007ab83390190565b6001600160a01b0381168114620005d057600080fd5b50565b803565ffffffffffff81168114620005ea57600080fd5b919050565b60008060008060008060c087890312156200060957600080fd5b86356200061681620005ba565b95506020870135945060408701356200062f81620005ba565b9350606087013592506200064660808801620005d3565b915060a08701356200065881620005ba565b809150509295509295509295565b600080600080600060a086880312156200067f57600080fd5b85356200068c81620005ba565b9450602086013593506040860135620006a581620005ba565b9250620006b560608701620005d3565b91506080860135620006c781620005ba565b809150509295509295909350565b6001600160a01b0395861681529385166020850152604084019290925265ffffffffffff166060830152909116608082015260a00190565b60005b838110156200072a57818101518382015260200162000710565b50506000910152565b60018060a01b03831681526040602082015260008251806040840152620007628160608501602087016200070d565b601f01601f1916919091016060019392505050565b600083516200078b8184602088016200070d565b835190830190620007a18183602088016200070d565b0194935050505056fe60806040526040516104e13803806104e1833981016040819052610022916102de565b61002e82826000610035565b50506103fb565b61003e83610061565b60008251118061004b5750805b1561005c5761005a83836100a1565b505b505050565b61006a816100cd565b6040516001600160a01b038216907fbc7cd75a20ee27fd9adebab32041f755214dbc6bffa90cc0225b39da2e5c2d3b90600090a250565b60606100c683836040518060600160405280602781526020016104ba60279139610180565b9392505050565b6001600160a01b0381163b61013f5760405162461bcd60e51b815260206004820152602d60248201527f455243313936373a206e657720696d706c656d656e746174696f6e206973206e60448201526c1bdd08184818dbdb9d1c9858dd609a1b60648201526084015b60405180910390fd5b7f360894a13ba1a3210667c828492db98dca3e2076cc3735a920a3ca505d382bbc80546001600160a01b0319166001600160a01b0392909216919091179055565b6060600080856001600160a01b03168560405161019d91906103ac565b600060405180830381855af49150503d80600081146101d8576040519150601f19603f3d011682016040523d82523d6000602084013e6101dd565b606091505b5090925090506101ef868383876101f9565b9695505050505050565b60608315610268578251600003610261576001600160a01b0385163b6102615760405162461bcd60e51b815260206004820152601d60248201527f416464726573733a2063616c6c20746f206e6f6e2d636f6e74726163740000006044820152606401610136565b5081610272565b610272838361027a565b949350505050565b81511561028a5781518083602001fd5b8060405162461bcd60e51b815260040161013691906103c8565b634e487b7160e01b600052604160045260246000fd5b60005b838110156102d55781810151838201526020016102bd565b50506000910152565b600080604083850312156102f157600080fd5b82516001600160a01b038116811461030857600080fd5b60208401519092506001600160401b038082111561032557600080fd5b818501915085601f83011261033957600080fd5b81518181111561034b5761034b6102a4565b604051601f8201601f19908116603f01168101908382118183101715610373576103736102a4565b8160405282815288602084870101111561038c57600080fd5b61039d8360208301602088016102ba565b80955050505050509250929050565b600082516103be8184602087016102ba565b9190910192915050565b60208152600082518060208401526103e78160408501602087016102ba565b601f01601f19169190910160400192915050565b60b1806104096000396000f3fe608060405236601057600e6013565b005b600e5b601f601b6021565b6058565b565b600060537f360894a13ba1a3210667c828492db98dca3e2076cc3735a920a3ca505d382bbc546001600160a01b031690565b905090565b3660008037600080366000845af43d6000803e8080156076573d6000f35b3d6000fdfea264697066735822122004eafc12009ddd1bac09a0fbcdbbc0e38fdd09caf7f585983e4d324fd8f99a7364736f6c63430008140033416464726573733a206c6f772d6c6576656c2064656c65676174652063616c6c206661696c6564a26469706673582212208ef66a406042e443c74c6e19f70a189dd6af1051caed030b610b6e5e2441fcad64736f6c6343000814003360a06040523060805234801561001457600080fd5b50608051611ab161004c6000396000818161052c0152818161056c015281816107260152818161076601526107f50152611ab16000f3fe6080604052600436106101355760003560e01c80638da5cb5b116100ab578063a5ff3f801161006f578063a5ff3f8014610391578063aa8c217c146103b1578063be040fb0146103c8578063d547741f146103dd578063f2fde38b146103fd578063fc0c546a1461041d57600080fd5b80638da5cb5b146102b557806391d14854146102e75780639f4568ef14610307578063a217fddf14610354578063a2d2c71c1461036957600080fd5b80633ccfd60b116100fd5780633ccfd60b1461020f5780634f1ef286146102245780635018c2091461023757806352d1902d1461026b578063715018a61461028057806377202ba11461029557600080fd5b806301ffc9a71461013a578063248a9ca31461016f5780632f2ff15d146101ad57806336568abe146101cf5780633659cfe6146101ef575b600080fd5b34801561014657600080fd5b5061015a6101553660046115a9565b61043e565b60405190151581526020015b60405180910390f35b34801561017b57600080fd5b5061019f61018a3660046115d3565b60009081526097602052604090206001015490565b604051908152602001610166565b3480156101b957600080fd5b506101cd6101c8366004611601565b610475565b005b3480156101db57600080fd5b506101cd6101ea366004611601565b61049f565b3480156101fb57600080fd5b506101cd61020a366004611631565b610522565b34801561021b57600080fd5b506101cd610601565b6101cd610232366004611664565b61071c565b34801561024357600080fd5b5061019f7f281081d9b36b37208f0d8dfce5adc7e00d31ece09269aaa8d0bfa43e6840a33881565b34801561027757600080fd5b5061019f6107e8565b34801561028c57600080fd5b506101cd61089b565b3480156102a157600080fd5b506101cd6102b0366004611728565b6108af565b3480156102c157600080fd5b506033546001600160a01b03165b6040516001600160a01b039091168152602001610166565b3480156102f357600080fd5b5061015a610302366004611601565b610a53565b34801561031357600080fd5b5061033d610322366004611631565b6101306020526000908152604090205465ffffffffffff1681565b60405165ffffffffffff9091168152602001610166565b34801561036057600080fd5b5061019f600081565b34801561037557600080fd5b5061012f546102cf90600160301b90046001600160a01b031681565b34801561039d57600080fd5b5061012f5461033d9065ffffffffffff1681565b3480156103bd57600080fd5b5061019f61012e5481565b3480156103d457600080fd5b506101cd610a7e565b3480156103e957600080fd5b506101cd6103f8366004611601565b610d10565b34801561040957600080fd5b506101cd610418366004611631565b610d35565b34801561042957600080fd5b5061012d546102cf906001600160a01b031681565b60006001600160e01b03198216637965db0b60e01b148061046f57506301ffc9a760e01b6001600160e01b03198316145b92915050565b60008281526097602052604090206001015461049081610dab565b61049a8383610db5565b505050565b6001600160a01b03811633146105145760405162461bcd60e51b815260206004820152602f60248201527f416363657373436f6e74726f6c3a2063616e206f6e6c792072656e6f756e636560448201526e103937b632b9903337b91039b2b63360891b60648201526084015b60405180910390fd5b61051e8282610e3b565b5050565b6001600160a01b037f000000000000000000000000000000000000000000000000000000000000000016300361056a5760405162461bcd60e51b815260040161050b9061179b565b7f00000000000000000000000000000000000000000000000000000000000000006001600160a01b03166105b3600080516020611a35833981519152546001600160a01b031690565b6001600160a01b0316146105d95760405162461bcd60e51b815260040161050b906117e7565b6105e281610ea2565b604080516000808252602082019092526105fe91839190610eaa565b50565b7f281081d9b36b37208f0d8dfce5adc7e00d31ece09269aaa8d0bfa43e6840a33861062b81610dab565b61012d5461012f546040516370a0823160e01b81523060048201526001600160a01b039283169263a9059cbb92600160301b9004169083906370a0823190602401602060405180830381865afa158015610689573d6000803e3d6000fd5b505050506040513d601f19601f820116820180604052508101906106ad9190611833565b6040516001600160e01b031960e085901b1681526001600160a01b03909216600483015260248201526044016020604051808303816000875af11580156106f8573d6000803e3d6000fd5b505050506040513d601f19601f8201168201806040525081019061051e919061184c565b6001600160a01b037f00000000000000000000000000000000000000000000000000000000000000001630036107645760405162461bcd60e51b815260040161050b9061179b565b7f00000000000000000000000000000000000000000000000000000000000000006001600160a01b03166107ad600080516020611a35833981519152546001600160a01b031690565b6001600160a01b0316146107d35760405162461bcd60e51b815260040161050b906117e7565b6107dc82610ea2565b61051e82826001610eaa565b6000306001600160a01b037f000000000000000000000000000000000000000000000000000000000000000016146108885760405162461bcd60e51b815260206004820152603860248201527f555550535570677261646561626c653a206d757374206e6f742062652063616c60448201527f6c6564207468726f7567682064656c656761746563616c6c0000000000000000606482015260840161050b565b50600080516020611a3583398151915290565b6108a3611015565b6108ad600061106f565b565b600054610100900460ff16158080156108cf5750600054600160ff909116105b806108e95750303b1580156108e9575060005460ff166001145b61094c5760405162461bcd60e51b815260206004820152602e60248201527f496e697469616c697a61626c653a20636f6e747261637420697320616c72656160448201526d191e481a5b9a5d1a585b1a5e995960921b606482015260840161050b565b6000805460ff19166001179055801561096f576000805461ff0019166101001790555b6109776110c1565b61097f6110f0565b61012d80546001600160a01b038088166001600160a01b03199092169190911790915561012e85905561012f8054918416600160301b026001600160d01b031990921665ffffffffffff8616179190911790556109fc7f281081d9b36b37208f0d8dfce5adc7e00d31ece09269aaa8d0bfa43e6840a33883611117565b610a0586610d35565b8015610a4b576000805461ff0019169055604051600181527f7f26b83ff96e1f2b6a682f133852f6798a09c465da95921460cefb38474024989060200160405180910390a15b505050505050565b60009182526097602090815260408084206001600160a01b0393909316845291905290205460ff1690565b61012f54429065ffffffffffff1615610b365761012f5433600090815261013060205260408120549091610abd9165ffffffffffff9182169116611884565b90508065ffffffffffff168265ffffffffffff161015610b305760405162461bcd60e51b815260206004820152602860248201527f53696d706c654661756365743a2072656465656d20696e74657276616c206e6f6044820152671d081c185cdcd95960c21b606482015260840161050b565b50610b9c565b336000908152610130602052604090205465ffffffffffff1615610b9c5760405162461bcd60e51b815260206004820152601e60248201527f53696d706c654661756365743a20616c72656164792072656465656d65640000604482015260640161050b565b61012e5461012d546040516370a0823160e01b81523060048201526001600160a01b03909116906370a0823190602401602060405180830381865afa158015610be9573d6000803e3d6000fd5b505050506040513d601f19601f82011682018060405250810190610c0d9190611833565b1015610c665760405162461bcd60e51b815260206004820152602260248201527f53696d706c654661756365743a20696e73756666696369656e742062616c616e604482015261636560f01b606482015260840161050b565b61012d5461012e5460405163a9059cbb60e01b815233600482015260248101919091526001600160a01b039091169063a9059cbb906044016020604051808303816000875af1158015610cbd573d6000803e3d6000fd5b505050506040513d601f19601f82011682018060405250810190610ce1919061184c565b5033600090815261013060205260409020805465ffffffffffff191665ffffffffffff92909216919091179055565b600082815260976020526040902060010154610d2b81610dab565b61049a8383610e3b565b610d3d611015565b6001600160a01b038116610da25760405162461bcd60e51b815260206004820152602660248201527f4f776e61626c653a206e6577206f776e657220697320746865207a65726f206160448201526564647265737360d01b606482015260840161050b565b6105fe8161106f565b6105fe8133611121565b610dbf8282610a53565b61051e5760008281526097602090815260408083206001600160a01b03851684529091529020805460ff19166001179055610df73390565b6001600160a01b0316816001600160a01b0316837f2f8788117e7eff1d82e926ec794901d17c78024a50270940304540a733656f0d60405160405180910390a45050565b610e458282610a53565b1561051e5760008281526097602090815260408083206001600160a01b0385168085529252808320805460ff1916905551339285917ff6391f5c32d9c69d2a47ea670b442974b53935d1edc7fd64eb21e047a839171b9190a45050565b6105fe611015565b7f4910fdfa16fed3260ed0e7147f7cc6da11a60208b5b9406d12a635614ffd91435460ff1615610edd5761049a8361117a565b826001600160a01b03166352d1902d6040518163ffffffff1660e01b8152600401602060405180830381865afa925050508015610f37575060408051601f3d908101601f19168201909252610f3491810190611833565b60015b610f9a5760405162461bcd60e51b815260206004820152602e60248201527f45524331393637557067726164653a206e657720696d706c656d656e7461746960448201526d6f6e206973206e6f74205555505360901b606482015260840161050b565b600080516020611a3583398151915281146110095760405162461bcd60e51b815260206004820152602960248201527f45524331393637557067726164653a20756e737570706f727465642070726f786044820152681a58589b195555525160ba1b606482015260840161050b565b5061049a838383611216565b6033546001600160a01b031633146108ad5760405162461bcd60e51b815260206004820181905260248201527f4f776e61626c653a2063616c6c6572206973206e6f7420746865206f776e6572604482015260640161050b565b603380546001600160a01b038381166001600160a01b0319831681179093556040519116919082907f8be0079c531659141344cd1fd0a4f28419497f9722a3daafe3b4186f6b6457e090600090a35050565b600054610100900460ff166110e85760405162461bcd60e51b815260040161050b906118aa565b6108ad611241565b600054610100900460ff166108ad5760405162461bcd60e51b815260040161050b906118aa565b61051e8282610db5565b61112b8282610a53565b61051e5761113881611271565b611143836020611283565b604051602001611154929190611919565b60408051601f198184030181529082905262461bcd60e51b825261050b9160040161198e565b6001600160a01b0381163b6111e75760405162461bcd60e51b815260206004820152602d60248201527f455243313936373a206e657720696d706c656d656e746174696f6e206973206e60448201526c1bdd08184818dbdb9d1c9858dd609a1b606482015260840161050b565b600080516020611a3583398151915280546001600160a01b0319166001600160a01b0392909216919091179055565b61121f83611426565b60008251118061122c5750805b1561049a5761123b8383611466565b50505050565b600054610100900460ff166112685760405162461bcd60e51b815260040161050b906118aa565b6108ad3361106f565b606061046f6001600160a01b03831660145b606060006112928360026119c1565b61129d9060026119d8565b67ffffffffffffffff8111156112b5576112b561164e565b6040519080825280601f01601f1916602001820160405280156112df576020820181803683370190505b509050600360fc1b816000815181106112fa576112fa6119eb565b60200101906001600160f81b031916908160001a905350600f60fb1b81600181518110611329576113296119eb565b60200101906001600160f81b031916908160001a905350600061134d8460026119c1565b6113589060016119d8565b90505b60018111156113d0576f181899199a1a9b1b9c1cb0b131b232b360811b85600f166010811061138c5761138c6119eb565b1a60f81b8282815181106113a2576113a26119eb565b60200101906001600160f81b031916908160001a90535060049490941c936113c981611a01565b905061135b565b50831561141f5760405162461bcd60e51b815260206004820181905260248201527f537472696e67733a20686578206c656e67746820696e73756666696369656e74604482015260640161050b565b9392505050565b61142f8161117a565b6040516001600160a01b038216907fbc7cd75a20ee27fd9adebab32041f755214dbc6bffa90cc0225b39da2e5c2d3b90600090a250565b606061141f8383604051806060016040528060278152602001611a55602791396060600080856001600160a01b0316856040516114a39190611a18565b600060405180830381855af49150503d80600081146114de576040519150601f19603f3d011682016040523d82523d6000602084013e6114e3565b606091505b50915091506114f4868383876114fe565b9695505050505050565b6060831561156d578251600003611566576001600160a01b0385163b6115665760405162461bcd60e51b815260206004820152601d60248201527f416464726573733a2063616c6c20746f206e6f6e2d636f6e7472616374000000604482015260640161050b565b5081611577565b611577838361157f565b949350505050565b81511561158f5781518083602001fd5b8060405162461bcd60e51b815260040161050b919061198e565b6000602082840312156115bb57600080fd5b81356001600160e01b03198116811461141f57600080fd5b6000602082840312156115e557600080fd5b5035919050565b6001600160a01b03811681146105fe57600080fd5b6000806040838503121561161457600080fd5b823591506020830135611626816115ec565b809150509250929050565b60006020828403121561164357600080fd5b813561141f816115ec565b634e487b7160e01b600052604160045260246000fd5b6000806040838503121561167757600080fd5b8235611682816115ec565b9150602083013567ffffffffffffffff8082111561169f57600080fd5b818501915085601f8301126116b357600080fd5b8135818111156116c5576116c561164e565b604051601f8201601f19908116603f011681019083821181831017156116ed576116ed61164e565b8160405282815288602084870101111561170657600080fd5b8260208601602083013760006020848301015280955050505050509250929050565b600080600080600060a0868803121561174057600080fd5b853561174b816115ec565b9450602086013561175b816115ec565b935060408601359250606086013565ffffffffffff8116811461177d57600080fd5b9150608086013561178d816115ec565b809150509295509295909350565b6020808252602c908201527f46756e6374696f6e206d7573742062652063616c6c6564207468726f7567682060408201526b19195b1959d85d1958d85b1b60a21b606082015260800190565b6020808252602c908201527f46756e6374696f6e206d7573742062652063616c6c6564207468726f7567682060408201526b6163746976652070726f787960a01b606082015260800190565b60006020828403121561184557600080fd5b5051919050565b60006020828403121561185e57600080fd5b8151801515811461141f57600080fd5b634e487b7160e01b600052601160045260246000fd5b65ffffffffffff8181168382160190808211156118a3576118a361186e565b5092915050565b6020808252602b908201527f496e697469616c697a61626c653a20636f6e7472616374206973206e6f74206960408201526a6e697469616c697a696e6760a81b606082015260800190565b60005b838110156119105781810151838201526020016118f8565b50506000910152565b7f416363657373436f6e74726f6c3a206163636f756e74200000000000000000008152600083516119518160178501602088016118f5565b7001034b99036b4b9b9b4b733903937b6329607d1b60179184019182015283516119828160288401602088016118f5565b01602801949350505050565b60208152600082518060208401526119ad8160408501602087016118f5565b601f01601f19169190910160400192915050565b808202811582820484141761046f5761046f61186e565b8082018082111561046f5761046f61186e565b634e487b7160e01b600052603260045260246000fd5b600081611a1057611a1061186e565b506000190190565b60008251611a2a8184602087016118f5565b919091019291505056fe360894a13ba1a3210667c828492db98dca3e2076cc3735a920a3ca505d382bbc416464726573733a206c6f772d6c6576656c2064656c65676174652063616c6c206661696c6564a26469706673582212200cd8901215320b410f59b081f215378ffd1a3f4fb9af6748d82b5f490aea23e564736f6c6343000814003360a06040523060805234801561001457600080fd5b50608051611e9a61004c60003960008181610795015281816107d501528181610976015281816109b60152610a450152611e9a6000f3fe60806040526004361061014b5760003560e01c806391d14854116100b6578063d547741f1161006f578063d547741f146103eb578063db006a751461040b578063e93950961461042b578063ed05582b1461044b578063f2fde38b1461046b578063fc0c546a1461048b57600080fd5b806391d1485414610316578063931409081461033657806393c0a4aa14610358578063a217fddf14610379578063a5ff3f801461038e578063c0a9444c146103b557600080fd5b80633ccfd60b116101085780633ccfd60b146102455780633d8b9e071461025a5780634f1ef286146102a757806352d1902d146102ba578063715018a6146102cf5780638da5cb5b146102e457600080fd5b806301ffc9a714610150578063163df9e814610185578063248a9ca3146101a75780632f2ff15d146101e557806336568abe146102055780633659cfe614610225575b600080fd5b34801561015c57600080fd5b5061017061016b36600461190f565b6104ac565b60405190151581526020015b60405180910390f35b34801561019157600080fd5b506101a56101a0366004611969565b6104e3565b005b3480156101b357600080fd5b506101d76101c23660046119c3565b60009081526097602052604090206001015490565b60405190815260200161017c565b3480156101f157600080fd5b506101a56102003660046119dc565b610671565b34801561021157600080fd5b506101a56102203660046119dc565b61070d565b34801561023157600080fd5b506101a5610240366004611a0c565b61078b565b34801561025157600080fd5b506101a561086a565b34801561026657600080fd5b506102906102753660046119c3565b6101316020526000908152604090205465ffffffffffff1681565b60405165ffffffffffff909116815260200161017c565b6101a56102b5366004611a3f565b61096c565b3480156102c657600080fd5b506101d7610a38565b3480156102db57600080fd5b506101a5610aeb565b3480156102f057600080fd5b506033546001600160a01b03165b6040516001600160a01b03909116815260200161017c565b34801561032257600080fd5b506101706103313660046119dc565b610aff565b34801561034257600080fd5b506101d7600080516020611dfe83398151915281565b34801561036457600080fd5b5061012e546102fe906001600160a01b031681565b34801561038557600080fd5b506101d7600081565b34801561039a57600080fd5b5061012d5461029090600160a01b900465ffffffffffff1681565b3480156103c157600080fd5b506102906103d0366004611a0c565b6101326020526000908152604090205465ffffffffffff1681565b3480156103f757600080fd5b506101a56104063660046119dc565b610b2a565b34801561041757600080fd5b506101a56104263660046119c3565b610b4f565b34801561043757600080fd5b506101a5610446366004611b03565b610e94565b34801561045757600080fd5b506101d7610466366004611b38565b611044565b34801561047757600080fd5b506101a5610486366004611a0c565b61109b565b34801561049757600080fd5b5061012d546102fe906001600160a01b031681565b60006001600160e01b03198216637965db0b60e01b14806104dd57506301ffc9a760e01b6001600160e01b03198316145b92915050565b600054610100900460ff16158080156105035750600054600160ff909116105b8061051d5750303b15801561051d575060005460ff166001145b6105855760405162461bcd60e51b815260206004820152602e60248201527f496e697469616c697a61626c653a20636f6e747261637420697320616c72656160448201526d191e481a5b9a5d1a585b1a5e995960921b60648201526084015b60405180910390fd5b6000805460ff1916600117905580156105a8576000805461ff0019166101001790555b6105b0611111565b6105b8611140565b61012d80546001600160a01b038681166001600160d01b031990921691909117600160a01b65ffffffffffff8716021790915561012e80546001600160a01b03191691841691909117905561061b600080516020611dfe83398151915283611167565b6106248561109b565b801561066a576000805461ff0019169055604051600181527f7f26b83ff96e1f2b6a682f133852f6798a09c465da95921460cefb38474024989060200160405180910390a15b5050505050565b60008281526097602052604090206001015461068c81611171565b600080516020611dfe83398151915283036106fe5760405162461bcd60e51b815260206004820152602c60248201527f416363657373436f6e74726f6c3a2063616e6e6f74206772616e7420636f646560448201526b43726561746f7220726f6c6560a01b606482015260840161057c565b610708838361117b565b505050565b6001600160a01b038116331461077d5760405162461bcd60e51b815260206004820152602f60248201527f416363657373436f6e74726f6c3a2063616e206f6e6c792072656e6f756e636560448201526e103937b632b9903337b91039b2b63360891b606482015260840161057c565b6107878282611201565b5050565b6001600160a01b037f00000000000000000000000000000000000000000000000000000000000000001630036107d35760405162461bcd60e51b815260040161057c90611b64565b7f00000000000000000000000000000000000000000000000000000000000000006001600160a01b031661081c600080516020611e1e833981519152546001600160a01b031690565b6001600160a01b0316146108425760405162461bcd60e51b815260040161057c90611bb0565b61084b81611268565b6040805160008082526020820190925261086791839190611270565b50565b600080516020611dfe83398151915261088281611171565b61012d5461012e546040516370a0823160e01b81523060048201526001600160a01b039283169263a9059cbb92169083906370a0823190602401602060405180830381865afa1580156108d9573d6000803e3d6000fd5b505050506040513d601f19601f820116820180604052508101906108fd9190611bfc565b6040516001600160e01b031960e085901b1681526001600160a01b03909216600483015260248201526044016020604051808303816000875af1158015610948573d6000803e3d6000fd5b505050506040513d601f19601f820116820180604052508101906107879190611c15565b6001600160a01b037f00000000000000000000000000000000000000000000000000000000000000001630036109b45760405162461bcd60e51b815260040161057c90611b64565b7f00000000000000000000000000000000000000000000000000000000000000006001600160a01b03166109fd600080516020611e1e833981519152546001600160a01b031690565b6001600160a01b031614610a235760405162461bcd60e51b815260040161057c90611bb0565b610a2c82611268565b61078782826001611270565b6000306001600160a01b037f00000000000000000000000000000000000000000000000000000000000000001614610ad85760405162461bcd60e51b815260206004820152603860248201527f555550535570677261646561626c653a206d757374206e6f742062652063616c60448201527f6c6564207468726f7567682064656c656761746563616c6c0000000000000000606482015260840161057c565b50600080516020611e1e83398151915290565b610af36113db565b610afd6000611435565b565b60009182526097602090815260408084206001600160a01b0393909316845291905290205460ff1690565b600082815260976020526040902060010154610b4581611171565b6107088383611201565b61012d543360009081526101326020526040902054429165ffffffffffff80841692610b8592600160a01b900482169116611c4d565b65ffffffffffff1610610bef5760405162461bcd60e51b815260206004820152602c60248201527f52656465656d436f64654661756365743a2072656465656d20696e746572766160448201526b1b081b9bdd081c185cdcd95960a21b606482015260840161057c565b61012e54600090610c09906001600160a01b031684611044565b6000818152610131602052604090205490915065ffffffffffff1615610c815760405162461bcd60e51b815260206004820152602760248201527f52656465656d436f64654661756365743a20636f646520616c72656164792072604482015266195919595b595960ca1b606482015260840161057c565b6000818152610130602052604090205465ffffffffffff90811690831610610ceb5760405162461bcd60e51b815260206004820152601e60248201527f52656465656d436f64654661756365743a20636f646520657870697265640000604482015260640161057c565b600081815261012f6020526040908190205461012d5491516370a0823160e01b815230600482015290916001600160a01b0316906370a0823190602401602060405180830381865afa158015610d45573d6000803e3d6000fd5b505050506040513d601f19601f82011682018060405250810190610d699190611bfc565b1015610dc65760405162461bcd60e51b815260206004820152602660248201527f52656465656d436f64654661756365743a20696e73756666696369656e742062604482015265616c616e636560d01b606482015260840161057c565b600081815261012f6020526040908190205461012d54915163a9059cbb60e01b81523360048201526024810182905290916001600160a01b03169063a9059cbb906044016020604051808303816000875af1158015610e29573d6000803e3d6000fd5b505050506040513d601f19601f82011682018060405250810190610e4d9190611c15565b5050600090815261013160209081526040808320805465ffffffffffff90951665ffffffffffff199586168117909155338452610132909252909120805490921617905550565b600080516020611dfe833981519152610eac81611171565b60008311610f225760405162461bcd60e51b815260206004820152603c60248201527f52656465656d436f64654661756365743a2072656465656d61626c65416d6f7560448201527f6e74206d7573742062652067726561746572207468616e207a65726f00000000606482015260840161057c565b4265ffffffffffff80821690841611610f985760405162461bcd60e51b815260206004820152603260248201527f52656465656d436f64654661756365743a2076616c6964556e74696c206d75736044820152717420626520696e207468652066757475726560701b606482015260840161057c565b6000858152610131602052604090205465ffffffffffff16156110085760405162461bcd60e51b815260206004820152602260248201527f52656465656d436f64654661756365743a20616c72656164792072656465656d604482015261195960f21b606482015260840161057c565b5050600092835261012f602090815260408085209390935561013090529120805465ffffffffffff191665ffffffffffff909216919091179055565b6040516bffffffffffffffffffffffff19606084811b821660208401526034830184905246605484015230901b16607482015260009060880160405160208183030381529060405280519060200120905092915050565b6110a36113db565b6001600160a01b0381166111085760405162461bcd60e51b815260206004820152602660248201527f4f776e61626c653a206e6577206f776e657220697320746865207a65726f206160448201526564647265737360d01b606482015260840161057c565b61086781611435565b600054610100900460ff166111385760405162461bcd60e51b815260040161057c90611c73565b610afd611487565b600054610100900460ff16610afd5760405162461bcd60e51b815260040161057c90611c73565b610787828261117b565b61086781336114b7565b6111858282610aff565b6107875760008281526097602090815260408083206001600160a01b03851684529091529020805460ff191660011790556111bd3390565b6001600160a01b0316816001600160a01b0316837f2f8788117e7eff1d82e926ec794901d17c78024a50270940304540a733656f0d60405160405180910390a45050565b61120b8282610aff565b156107875760008281526097602090815260408083206001600160a01b0385168085529252808320805460ff1916905551339285917ff6391f5c32d9c69d2a47ea670b442974b53935d1edc7fd64eb21e047a839171b9190a45050565b6108676113db565b7f4910fdfa16fed3260ed0e7147f7cc6da11a60208b5b9406d12a635614ffd91435460ff16156112a35761070883611510565b826001600160a01b03166352d1902d6040518163ffffffff1660e01b8152600401602060405180830381865afa9250505080156112fd575060408051601f3d908101601f191682019092526112fa91810190611bfc565b60015b6113605760405162461bcd60e51b815260206004820152602e60248201527f45524331393637557067726164653a206e657720696d706c656d656e7461746960448201526d6f6e206973206e6f74205555505360901b606482015260840161057c565b600080516020611e1e83398151915281146113cf5760405162461bcd60e51b815260206004820152602960248201527f45524331393637557067726164653a20756e737570706f727465642070726f786044820152681a58589b195555525160ba1b606482015260840161057c565b506107088383836115ac565b6033546001600160a01b03163314610afd5760405162461bcd60e51b815260206004820181905260248201527f4f776e61626c653a2063616c6c6572206973206e6f7420746865206f776e6572604482015260640161057c565b603380546001600160a01b038381166001600160a01b0319831681179093556040519116919082907f8be0079c531659141344cd1fd0a4f28419497f9722a3daafe3b4186f6b6457e090600090a35050565b600054610100900460ff166114ae5760405162461bcd60e51b815260040161057c90611c73565b610afd33611435565b6114c18282610aff565b610787576114ce816115d7565b6114d98360206115e9565b6040516020016114ea929190611ce2565b60408051601f198184030181529082905262461bcd60e51b825261057c91600401611d57565b6001600160a01b0381163b61157d5760405162461bcd60e51b815260206004820152602d60248201527f455243313936373a206e657720696d706c656d656e746174696f6e206973206e60448201526c1bdd08184818dbdb9d1c9858dd609a1b606482015260840161057c565b600080516020611e1e83398151915280546001600160a01b0319166001600160a01b0392909216919091179055565b6115b58361178c565b6000825111806115c25750805b15610708576115d183836117cc565b50505050565b60606104dd6001600160a01b03831660145b606060006115f8836002611d8a565b611603906002611da1565b67ffffffffffffffff81111561161b5761161b611a29565b6040519080825280601f01601f191660200182016040528015611645576020820181803683370190505b509050600360fc1b8160008151811061166057611660611db4565b60200101906001600160f81b031916908160001a905350600f60fb1b8160018151811061168f5761168f611db4565b60200101906001600160f81b031916908160001a90535060006116b3846002611d8a565b6116be906001611da1565b90505b6001811115611736576f181899199a1a9b1b9c1cb0b131b232b360811b85600f16601081106116f2576116f2611db4565b1a60f81b82828151811061170857611708611db4565b60200101906001600160f81b031916908160001a90535060049490941c9361172f81611dca565b90506116c1565b5083156117855760405162461bcd60e51b815260206004820181905260248201527f537472696e67733a20686578206c656e67746820696e73756666696369656e74604482015260640161057c565b9392505050565b61179581611510565b6040516001600160a01b038216907fbc7cd75a20ee27fd9adebab32041f755214dbc6bffa90cc0225b39da2e5c2d3b90600090a250565b60606117858383604051806060016040528060278152602001611e3e602791396060600080856001600160a01b0316856040516118099190611de1565b600060405180830381855af49150503d8060008114611844576040519150601f19603f3d011682016040523d82523d6000602084013e611849565b606091505b509150915061185a86838387611864565b9695505050505050565b606083156118d35782516000036118cc576001600160a01b0385163b6118cc5760405162461bcd60e51b815260206004820152601d60248201527f416464726573733a2063616c6c20746f206e6f6e2d636f6e7472616374000000604482015260640161057c565b50816118dd565b6118dd83836118e5565b949350505050565b8151156118f55781518083602001fd5b8060405162461bcd60e51b815260040161057c9190611d57565b60006020828403121561192157600080fd5b81356001600160e01b03198116811461178557600080fd5b6001600160a01b038116811461086757600080fd5b803565ffffffffffff8116811461196457600080fd5b919050565b6000806000806080858703121561197f57600080fd5b843561198a81611939565b9350602085013561199a81611939565b92506119a86040860161194e565b915060608501356119b881611939565b939692955090935050565b6000602082840312156119d557600080fd5b5035919050565b600080604083850312156119ef57600080fd5b823591506020830135611a0181611939565b809150509250929050565b600060208284031215611a1e57600080fd5b813561178581611939565b634e487b7160e01b600052604160045260246000fd5b60008060408385031215611a5257600080fd5b8235611a5d81611939565b9150602083013567ffffffffffffffff80821115611a7a57600080fd5b818501915085601f830112611a8e57600080fd5b813581811115611aa057611aa0611a29565b604051601f8201601f19908116603f01168101908382118183101715611ac857611ac8611a29565b81604052828152886020848701011115611ae157600080fd5b8260208601602083013760006020848301015280955050505050509250929050565b600080600060608486031215611b1857600080fd5b8335925060208401359150611b2f6040850161194e565b90509250925092565b60008060408385031215611b4b57600080fd5b8235611b5681611939565b946020939093013593505050565b6020808252602c908201527f46756e6374696f6e206d7573742062652063616c6c6564207468726f7567682060408201526b19195b1959d85d1958d85b1b60a21b606082015260800190565b6020808252602c908201527f46756e6374696f6e206d7573742062652063616c6c6564207468726f7567682060408201526b6163746976652070726f787960a01b606082015260800190565b600060208284031215611c0e57600080fd5b5051919050565b600060208284031215611c2757600080fd5b8151801515811461178557600080fd5b634e487b7160e01b600052601160045260246000fd5b65ffffffffffff818116838216019080821115611c6c57611c6c611c37565b5092915050565b6020808252602b908201527f496e697469616c697a61626c653a20636f6e7472616374206973206e6f74206960408201526a6e697469616c697a696e6760a81b606082015260800190565b60005b83811015611cd9578181015183820152602001611cc1565b50506000910152565b7f416363657373436f6e74726f6c3a206163636f756e7420000000000000000000815260008351611d1a816017850160208801611cbe565b7001034b99036b4b9b9b4b733903937b6329607d1b6017918401918201528351611d4b816028840160208801611cbe565b01602801949350505050565b6020815260008251806020840152611d76816040850160208701611cbe565b601f01601f19169190910160400192915050565b80820281158282048414176104dd576104dd611c37565b808201808211156104dd576104dd611c37565b634e487b7160e01b600052603260045260246000fd5b600081611dd957611dd9611c37565b506000190190565b60008251611df3818460208701611cbe565b919091019291505056fe707a390ecff002f977980b7598d697e51a8a18e7708b8f7ada4c1e67e5ea4808360894a13ba1a3210667c828492db98dca3e2076cc3735a920a3ca505d382bbc416464726573733a206c6f772d6c6576656c2064656c65676174652063616c6c206661696c6564a2646970667358221220cbabb29dee83815abe0d0ddaefd573d4979e60ef6019204ef1c2fc60633c50f664736f6c63430008140033",
  "linkReferences": {},
  "deployedLinkReferences": {}
}